:100000000C945E000C9486000C9486000C94860080
:100010000C9486000C9486000C9486000C94860048
:100020000C9486000C9486000C9486000C94860038
:100030000C9486000C9486000C9486000C94860028
:100040000C943B050C9486000C94AB050C94850530
:100050000C9486000C9486000C9486000C94860008
:100060000C94DD050C9486000000000800020100DD
:100070000003040700000000000000000000000072
:10008000250028002B0000000000240027002A0083
:10009000040404040404040402020202020203032E
:1000A0000303030301020408102040800102040836
:1000B0001020010204081020FC06E70811241FBECE
:1000C000CFEFD8E0DEBFCDBF22E0A4E4B1E001C0B5
:1000D0001D92A33BB207E1F711E0A0E0B1E0E2E836
:1000E000F6E102C005900D92A434B107D9F710E0F3
:1000F000CDE5D0E004C02197FE010E942209CC3555
:10010000D107C9F70E9462070C94340B0C940000CD
:1001100090E0FC01EC55FF4F249180579F4FFC016C
:100120008491882399F090E0880F991FFC01EA5789
:10013000FF4FA591B491FC01E458FF4F8591949134
:100140008FB7F894EC91E22BEC938FBF089590E079
:10015000FC01E859FF4F2491FC01EC55FF4F34910D
:10016000FC01E057FF4FE491EE23C9F0222339F060
:10017000233001F1A8F4213019F1223029F1F0E007
:10018000EE0FFF1FE458FF4FA591B4918FB7F8947D
:10019000EC91611126C030953E233C938FBF0895AA
:1001A0002730A9F02830C9F0243049F78091800029
:1001B0008F7D03C0809180008F7780938000DFCF98
:1001C00084B58F7784BDDBCF84B58F7DFBCF8091E5
:1001D000B0008F778093B000D2CF8091B0008F7D38
:1001E000F9CF3E2BDACF0895CF93DF93AC01E091A6
:1001F000DC01F091DD013097F1F09091DB0180910D
:10020000DA019817C0F090E0292F30E02617370761
:1002100054F4D901AC5BBE4F240F351FE90128818E
:100220002C939F5FF1CF1092DB016093DA01CB0139
:10023000DF91CF910994DF91CF9108950895AF9206
:10024000BF92CF92DF92EF92FF920F931F93CF93C3
:10025000DF936C017B018B01040F151FEB015E0125
:10026000AE18BF08C017D10759F06991D601ED91BA
:10027000FC910190F081E02DC6010995892B79F759
:10028000C501DF91CF911F910F91FF90EF90DF900B
:10029000CF90BF90AF900895FC01538D448D252FD2
:1002A00030E0842F90E0821B930B541710F0CF9610
:1002B000089501970895FC01918D828D981761F042
:1002C000A28DAE0FBF2FB11D5D968C91928D9F5F59
:1002D0009F73928F90E008958FEF9FEF08952FB74F
:1002E000F8948091E4019091E501A091E601B0912C
:1002F000E7012FBF8093F0019093F101A093F201E9
:10030000B093F30188EE91E00E945B0197FF26C055
:100310002FB7F8948091E4019091E501A091E60156
:10032000B091E7012FBF4091F0015091F101609130
:10033000F2017091F301841B950BA60BB70B409152
:10034000EC015091ED016091EE017091EF01841785
:100350009507A607B707B0F28FEF9FEF0895FC014E
:10036000918D828D981731F0828DE80FF11D858D6A
:1003700090E008958FEF9FEF0895FC01918D228DFD
:10038000892F90E0805C9F4F821B91098F73992782
:10039000089588EE91E00E94BD0121E0892B09F4C7
:1003A00020E0822F089580E090E0892B29F00E94C0
:1003B000C90181110C9400000895FC01A48DA80FBF
:1003C000B92FB11DA35ABF4F2C91848D90E0019697
:1003D0008F739927848FA689B7892C93A089B189B7
:1003E0008C91837080648C93938D848D981306C058
:1003F0000288F389E02D80818F7D80830895EF92BC
:10040000FF920F931F93CF93DF93EC0181E0888FCE
:100410009B8D8C8D98131AC0E889F989808185FF9E
:1004200015C09FB7F894EE89FF896083E889F98940
:1004300080818370806480839FBF81E090E0DF9142
:10044000CF911F910F91FF90EF900895F62E0B8D95
:1004500010E00F5F1F4F0F731127E02E8C8D8E1150
:100460000CC00FB607FCFACFE889F989808185FFB7
:10047000F5CFCE010E94DD01F1CFEB8DEC0FFD2F0A
:10048000F11DE35AFF4FF0829FB7F8940B8FEA8972
:10049000FB8980818062CFCFCF93DF93EC01888D81
:1004A0008823B9F0AA89BB89E889F9898C9185FDEF
:1004B00003C0808186FD0DC00FB607FCF7CF8C917D
:1004C00085FFF2CF808185FFEDCFCE010E94DD0157
:1004D000E9CFDF91CF91089520918A01260F33272C
:1004E000331F21323105ECF42091AE01FC0190E084
:1004F00080E0243069F082E00895A0918A01219182
:10050000AC0146595E4FA40FB52FB11D2C93019637
:10051000861798F380918A01680F60938A0180E0C2
:10052000089581E008951092AE0181E08093B001BA
:100530001092AF0161E082E10E94A70061E083E1D7
:100540000E94A700E9EBF0E080818E7F80838081AC
:100550008D7F808388E48093B80085E48093BC001D
:1005600008950895E091DB018091DA01E81730F4F5
:10057000F0E0EC5BFE4F808190E008958FEF9FEFFD
:1005800008959091DB018091DA012FEF3FEF9817EA
:1005900048F4E92FF0E0EC5BFE4F208130E09F5FF4
:1005A0009093DB01C90108958091DA019091DB01FC
:1005B000891B990B0895CF93DF93CB01EA01642F38
:1005C0000E946C02CE01DF91CF910895CF93DF930B
:1005D0001F92CDB7DEB7698361E0CE0101960E941C
:1005E0006C0281E090E00F90DF91CF91089590E050
:1005F00080E00895CF93DF93EC0160E08E810E944C
:10060000A70061E08E810E94A70060E08E810E94B9
:10061000A7008BE891E00197F1F7DF91CF91089562
:10062000CF92DF92EF92FF920F931F93CF93DF93BE
:100630006C017C0187E0E80EF11CD0E0C0E0062FE1
:1006400010E0B8010C2E02C0759567950A94E2F788
:100650006170F70181917F010E94A7002196C4304B
:10066000D10579F7C601DF91CF911F910F91FF90CE
:10067000EF90DF90CF900C94FA02CF92DF92EF923E
:10068000FF920F931F93CF93DF93EC01F62E642F0D
:100690008C810E94A7008D818F3F19F060E00E943D
:1006A000A7000F2D10E08F8584FF25C06E0187E025
:1006B000C80ED11CF12CE12CB8010E2C02C075958E
:1006C00067950A94E2F76170F60181916F010E94CB
:1006D000A700FFEFEF1AFF0A88E0E816F10461F7C0
:1006E000CE01DF91CF911F910F91FF90EF90DF909E
:1006F000CF900C94FA02B80184E0759567958A95BD
:10070000E1F7CE010E9410036F2DCE01DF91CF9152
:100710001F910F91FF90EF90DF90CF900C941003FA
:1007200040E0682F87E992E00C943D03CF93DF937C
:10073000613029F09091A60298609093A602609390
:10074000AA021092AB0290E49093AC028093AD02A7
:10075000805C8093AE0280919B020E948800809111
:100760009C028F3F11F00E94880080919D020E94A0
:100770008800C7E9D2E09E01275932408091A60245
:1007800084FD0AC084E090E02196281739073CF4E4
:100790008E810E948800EFCF88E090E0F5CF8BE358
:1007A0009DE00197F1F760E080919B020E94A70015
:1007B00060E080919D020E94A70080919C028F3F83
:1007C00019F060E00E94A7008091A60284FD39C064
:1007D00063E087E992E00E941003CBE4D6E4CE0107
:1007E0000197F1F763E087E992E00E9410032197F7
:1007F000F1F763E087E992E00E94100383E592E05D
:100800000197F1F762E087E992E00E94100380917E
:10081000A60280620E94900384E08093A7028CE08D
:100820000E94900381E00E9490038BE39FE1019777
:10083000F1F782E08093A80286E0DF91CF910C94DB
:10084000900380620E9490038BE496E40197F1F795
:100850008091A60280620E94900383E592E0019756
:10086000F1F78091A60280620E949003D0CF41E010
:100870000E943D0381E090E00895FC018081918118
:10088000009711F00C94C40908950F931F93CF9310
:10089000DF93EC0188819981009759F02A813B818F
:1008A0002617370730F081E0DF91CF911F910F912C
:1008B00008958B016F5F7F4F0E944D0A009759F09A
:1008C000998388831B830A832C813D81232B59F7CD
:1008D000FC011082E8CF80E0E7CFEF92FF920F9308
:1008E0001F93CF93DF93EC017B018A01BA010E9431
:1008F000450428813981811114C02115310519F071
:10090000C9010E94C409198218821D821C821B829F
:100910001A82CE01DF91CF911F910F91FF90EF903E
:1009200008951D830C83B701C9010E94130BF1CFF9
:100930000F931F93CF93DF9300D0CDB7DEB750E076
:1009400040E063E471E081E992E00E946D048091EF
:10095000DA019091DB01891B990B02973CF185E844
:1009600092E00E94C10289831A820091950210913F
:1009700096020F5F1F4FB80181E992E00E94450483
:10098000882329F32091910230919202809195025F
:1009900090919602BE016F5F7F4F820F931F0E945E
:1009A000130B1093960200939502D1CF85E892E045
:1009B0000E94C10281E08093DE010F900F90DF91D1
:1009C000CF911F910F910895CF93DF9385ED809381
:1009D000BC008091660190916701A0916801B0917F
:1009E00069010796A11DB11D23E0B695A7959795BE
:1009F00087952A95D1F72091BC0024FD03C0109261
:100A0000AE0136C040916601509167016091680166
:100A100070916901452B462B472B69F30097A1057F
:100A2000B10541F025E32A95F1F700000197A109EE
:100A3000B109E1CF8091650191E090936401882331
:100A4000B9F0C091B800D091BA008091BC008A7B07
:100A50008093BC0060E082E10E94A70060E083E137
:100A60000E94A7000E949302D093BA00C093B800DE
:100A7000DF91CF9108951F920F920FB60F9211241C
:100A80002F933F938F939F93AF93BF938091E401F4
:100A90009091E501A091E601B091E7013091E30169
:100AA00023E0230F2D3758F50196A11DB11D20938A
:100AB000E3018093E4019093E501A093E601B093F4
:100AC000E7018091DF019091E001A091E101B091F7
:100AD000E2010196A11DB11D8093DF019093E00119
:100AE000A093E101B093E201BF91AF919F918F91EB
:100AF0003F912F910F900FBE0F901F90189526E8F1
:100B0000230F0296A11DB11DD2CF1F920F920FB6D7
:100B10000F9211242F933F934F935F936F937F9383
:100B20008F939F93AF93BF93EF93FF9388EE91E0E2
:100B30000E94DD01FF91EF91BF91AF919F918F9145
:100B40007F916F915F914F913F912F910F900FBEC9
:100B50000F901F9018951F920F920FB60F921124AD
:100B60002F938F939F93EF93FF93E091F801F09170
:100B7000F9018081E091FE01F091FF0182FD1BC02F
:100B80009081809101028F5F8F7320910202821702
:100B900041F0E0910102F0E0E851FE4F958F809323
:100BA0000102FF91EF919F918F912F910F900FBEB6
:100BB0000F901F9018958081F4CF1F920F920FB65F
:100BC0000F9211242F933F934F935F936F937F93D3
:100BD0008F939F93AF93BF93EF93FF938091B9004F
:100BE000887F803609F44AC0F0F5883209F4A7C03E
:100BF00018F5803109F49BC0B8F4882309F4F9C0D2
:100C0000883009F494C0FF91EF91BF91AF919F910B
:100C10008F917F916F915F914F913F912F910F90A5
:100C20000FBE0F901F901895883109F488C080324C
:100C300051F78093AD0114C0803409F49DC040F495
:100C40008033B9F38833F9F68093AD0185ECB0C0F9
:100C5000803509F485C0883509F496C0883499F642
:100C60000E94E404D0CF883909F48CC038F5883765
:100C700029F050F4883611F0803729F683E080930C
:100C8000AE011092AC0157C0883809F47BC080399E
:100C900019F0803809F0B7CF8091AC01803208F0AC
:100CA00071C0E091AC0181E08E0F8093AC01809126
:100CB000BB00F0E0E457FE4F80833DC0803B39F03D
:100CC000E0F4803A09F479C0883A09F09CCF84E0D6
:100CD0008093AE0110928B0110928A01E091D601AF
:100CE000F091D701099580918A0181110FC081E0AF
:100CF00080938A0110926A0109C0803C09F4A6CF52
:100D0000883C09F4A3CF883B09F07DCFE0918B01AB
:100D100081E08E0F80938B01F0E0E659FE4F8081D9
:100D20008093BB0090918B0180918A0129C08091B2
:100D3000D3018093BB0085EC8093BC0064CF90917D
:100D4000D2018091D101981758F5E091D20181E04C
:100D50008E0F8093D201F0E0EF54FE4F8081E9CFF7
:100D6000E091D20181E08E0F8093D2018091BB008F
:100D7000F0E0EF54FE4F80839091D2018091D10139
:100D80009817C8F285E8D8CFE091D20181E08E0FA4
:100D90008093D2018091BB00F0E0EF54FE4F80833E
:100DA0008091B00181115CCF81E08093AF0184EA32
:100DB0008093BC001092AE0126CF85EC8093BC00DE
:100DC0001092AE018091AC01803230F4E091AC0120
:100DD000F0E0E457FE4F10826091AC0170E0E091CA
:100DE000D401F091D5018CE891E009951092AC0105
:100DF0000ACF1092AD0134CFE8EEF1E013821282F7
:100E000088EE93E0A0E0B0E084839583A683B78367
:100E10002AE031E03183208325EC30E035872487D8
:100E200024EC30E03787268720EC30E0318B208BB4
:100E300021EC30E0338B228B22EC30E0358B248B9D
:100E400026EC30E0378B268B118E128E138E148E8B
:100E5000E5E8F2E01382128284839583A683B78348
:100E60008CE191E091838083E7E9F2E013821282C2
:100E70008EE291E09183808384E084838FEF858389
:100E800086E086838AE087838BE080878CE0818799
:100E90008DE082871386148615861686178661E094
:100EA00080E10E949603E1E9F2E011821082138250
:100EB00012821582148250E040E063E471E0CF01B9
:100EC0000C946D04CF93DF93CDB7DEB728970FB6A0
:100ED000F894DEBF0FBECDBF789484B5826084BD28
:100EE00084B5816084BD85B5826085BD85B581602E
:100EF00085BD80916E00816080936E0010928100AC
:100F00008091810082608093810080918100816066
:100F10008093810080918000816080938000809127
:100F2000B10084608093B1008091B00081608093B3
:100F3000B00080917A00846080937A0080917A007A
:100F4000826080937A0080917A00816080937A0039
:100F500080917A00806880937A001092C10010928C
:100F6000DB011092DA011092D9011092D8010E948F
:100F7000930283EF90E09093D7018093D60184EFA2
:100F800090E09093D5018093D40188E18093BA00DA
:100F900088E994E09093DD018093DC0164E084E1D2
:100FA0000E949603E091F801F091F90182E08083BC
:100FB000E091F401F091F5011082E091F601F091D9
:100FC000F7018FEC808310920002E091FC01F09118
:100FD000FD0186E08083E091FA01F091FB018081C0
:100FE00080618083E091FA01F091FB01808188604B
:100FF0008083E091FA01F091FB0180818068808319
:10100000E091FA01F091FB0180818F7D8083109245
:10101000DE019BE3E92E9FE1F92E00E010E0BB2406
:10102000B39488EE91E00E94BD01181619060CF0E9
:1010300080C01A8219821C821B821E821D8250E08F
:1010400040E063E471E0CE0101960E946D040E94CD
:101050006F0197FD1CC08F831886CD80DE802FEF37
:10106000C21AD20AB601CE0101960E944504882315
:1010700071F329813A818D819E81BE01695F7F4F25
:10108000820F931F0E94130BDE82CD82E0CF8091EE
:10109000910290919202009709F47EC069817A8151
:1010A0006115710509F476C0409193025091940244
:1010B0002D813E814217530708F46CC00E94130B28
:1010C0008D819E8190939602809395021E821D824F
:1010D000CE0101960E943D041A8219821C821B8255
:1010E0001E821D824DE050E066E371E0CE01019664
:1010F0000E946D048091950290919602892B09F4CB
:1011000062C0C0909102D090920269817A81C6013A
:101110000E941A0B009709F456C09C012C193D0936
:101120006901CE0101960E943D04CD2811F0B092D4
:10113000DE018091DE01882309F181E00E949003A5
:10114000C7010197F1F7E1E08091AA028111E0E087
:10115000E195F0E0E956FD4F848980680E94900394
:101160004091950250919602609191027091920285
:1011700087E992E00E941F011092DE01011511051E
:1011800009F44FCF0E94C901882309F44ACF0E9475
:10119000000047CF0E94C40989819A8190939202EE
:1011A000809391028B819C8190939402809393020F
:1011B0008D819E8190939602809395021A82198266
:1011C0001C821B8283CFCC24CA94DC2CAACF81E959
:1011D00092E00C943D042F923F924F925F926F9257
:1011E0007F928F929F92AF92BF92CF92DF92EF92B7
:1011F000FF920F931F93CF93DF93CDB7DEB7CA1B38
:10120000DB0B0FB6F894DEBF0FBECDBF09942A8862
:10121000398848885F846E847D848C849B84AA840A
:10122000B984C884DF80EE80FD800C811B81AA8197
:10123000B981CE0FD11D0FB6F894DEBF0FBECDBF62
:10124000ED010895EE0FFF1F0590F491E02D099434
:101250000F931F93CF93DF938230910510F482E0B8
:1012600090E0E091B102F091B20230E020E0B0E015
:10127000A0E0309799F42115310509F44AC0281BE4
:10128000390B24303105D8F58A819B8161157105B0
:1012900089F1FB0193838283FE0111C0408151815A
:1012A0000281138148175907E0F04817590799F44C
:1012B000109761F012960C93129713961C93329626
:1012C000CF01DF91CF911F910F9108950093B1024B
:1012D0001093B202F4CF2115310551F04217530794
:1012E00038F0A901DB019A01BD01DF01F801C1CF8E
:1012F000EF01F9CF9093B2028093B102CDCFFE01FE
:10130000E20FF31F8193919322503109398328838F
:10131000D7CF2091AF023091B002232B41F420911E
:101320000201309103013093B0022093AF0220916B
:101330000001309101012115310541F42DB73EB76F
:101340004091040150910501241B350BE091AF023F
:10135000F091B002E217F307A0F42E1B3F0B281701
:10136000390778F0AC014E5F5F4F2417350748F01E
:101370004E0F5F1F5093B0024093AF028193919341
:101380009FCFF0E0E0E09CCFCF93DF930097E9F0B0
:10139000FC01329713821282A091B102B091B20285
:1013A000ED0130E020E01097A1F420813181820F1F
:1013B000931F2091AF023091B0022817390709F02E
:1013C00061C0F093B002E093AF02DF91CF91089536
:1013D000EA01CE17DF07E8F54A815B819E014115DE
:1013E0005105B1F7E901FB83EA8349915991C40F93
:1013F000D51FEC17FD0761F4808191810296840F5F
:10140000951FE90199838883828193819B838A83D5
:10141000F0E0E0E012968D919C9113970097B9F55A
:101420002D913C911197CD010296820F931F20912F
:10143000AF023091B0022817390739F6309751F5CD
:101440001092B2021092B102B093B002A093AF0218
:10145000BCCFD383C28340815181840F951FC817AD
:10146000D90761F44E5F5F4F88819981480F591FFA
:10147000518340838A819B81938382832115310527
:1014800009F0B0CFF093B202E093B1029ECFFD011C
:10149000DC01C0CF13821282D7CFB0E0A0E0E3E539
:1014A000FAE00C94ED088C01009751F4CB010E94F6
:1014B00028098C01C801CDB7DEB7E0E10C94090919
:1014C000FC01E60FF71F9C0122503109E217F307D8
:1014D00008F49DC0D901CD91DC911197C617D707AB
:1014E00098F0C530D10530F3CE01049786179707E1
:1014F00008F3C61BD70B2297C193D1936D937C93AE
:10150000CF010E94C409D6CF5B01AC1ABD0A4C01C1
:101510008C0E9D1EA091B102B091B202512C412CB3
:10152000F12CE12C109731F58091AF029091B0022F
:101530008815990509F05CC04616570608F058C092
:101540008091000190910101009741F48DB79EB701
:101550004091040150910501841B950BE817F90790
:1015600008F055C0F093B002E093AF02F901718327
:101570006083A0CF8D919C91119712966C901297D9
:1015800013967C901397A815B90559F56C0142E0A4
:10159000C40ED11CCA14DB0420F1AC014A195B094A
:1015A000DA011296159780F062827382518340832C
:1015B000D9016D937C93E114F10471F0D701139676
:1015C000FC93EE93129776CF22968C0F9D1FF90114
:1015D00091838083F301EFCFF093B202E093B102E5
:1015E00069CF4816590608F42C017D01D3019ACF22
:1015F000CB010E9428097C01009749F0AE01B80197
:101600000E940A0BC8010E94C409870153CF10E051
:1016100000E050CFFB01DC0102C001900D9241506F
:101620005040D8F70895FB01DC0101900D92002095
:10163000E1F70895FB0151915523A9F0BF01DC01A9
:101640004D9145174111E1F759F4CD01019000206A
:1016500049F04D9140154111C9F3FB014111EFCF04
:1016600081E090E00197089510E0CDE5D0E004C05E
:10167000FE010E9422092196CE35D107C9F7F894C0
:02168000FFCF9A
:101682000000B302800000000000FF011F014C01B6
:101692004C02BD015B01AF0100000000E602DB026B
:1016A200F702B102D402C102B20200000000370404
:1016B2001F01F7021E01626C7565746F6F746820FA
:0416C20061636B00F5
:00000001FF
