:100000000C945E000C9486000C9486000C94860080
:100010000C9486000C9486000C9486000C94860048
:100020000C9486000C9486000C9486000C94860038
:100030000C9486000C9486000C9486000C94860028
:100040000C94AF030C9486000C941F040C94F903D9
:100050000C9486000C9486000C9486000C94860008
:100060000C9486000C948600000000080002010039
:100070000003040700000000000000000000000072
:10008000250028002B0000000000240027002A0083
:10009000040404040404040402020202020203032E
:1000A0000303030301020408102040800102040836
:1000B00010200102040810205104430611241FBE21
:1000C000CFEFD8E0DEBFCDBF21E0A6E2B1E001C0B6
:1000D0001D92AF3EB207E1F711E0A0E0B1E0E0E130
:1000E000F1E102C005900D92A632B107D9F710E0F8
:1000F000CDE5D0E004C02197FE010E948306CC35F7
:10010000D107C9F70E94F4040C947B080C940000FA
:1001100090E0FC01EC55FF4F249180579F4FFC016C
:100120008491882399F090E0880F991FFC01EA5789
:10013000FF4FA591B491FC01E458FF4F8591949134
:100140008FB7F894EC91E22BEC938FBF089590E079
:10015000FC01E859FF4F2491FC01EC55FF4F34910D
:10016000FC01E057FF4FE491EE23C9F0222339F060
:10017000233001F1A8F4213019F1223029F1F0E007
:10018000EE0FFF1FE458FF4FA591B4918FB7F8947D
:10019000EC91611126C030953E233C938FBF0895AA
:1001A0002730A9F02830C9F0243049F78091800029
:1001B0008F7D03C0809180008F7780938000DFCF98
:1001C00084B58F7784BDDBCF84B58F7DFBCF8091E5
:1001D000B0008F778093B000D2CF8091B0008F7D38
:1001E000F9CF3E2BDACF0895AF92BF92CF92DF9234
:1001F000EF92FF920F931F93CF93DF936C017B01DC
:100200008B01040F151FEB015E01AE18BF08C0176C
:10021000D10759F06991D601ED91FC910190F081DF
:10022000E02DC6010995892B79F7C501DF91CF91A2
:100230001F910F91FF90EF90DF90CF90BF90AF9004
:100240000895FC01538D448D252F30E0842F90E0DC
:10025000821B930B541710F0CF96089501970895C1
:10026000FC01918D828D981761F0A28DAE0FBF2F8A
:10027000B11D5D968C91928D9F5F9F73928F90E0E0
:1002800008958FEF9FEF08952FB7F89480912C0178
:1002900090912D01A0912E01B0912F012FBF80933D
:1002A000380190933901A0933A01B0933B0180E368
:1002B00091E00E94300197FF26C02FB7F8948091FB
:1002C0002C0190912D01A0912E01B0912F012FBFF3
:1002D000409138015091390160913A0170913B0190
:1002E000841B950BA60BB70B40913401509135013F
:1002F000609136017091370184179507A607B707FB
:10030000B0F28FEF9FEF0895FC01918D828D9817C9
:1003100031F0828DE80FF11D858D90E008958FEF0B
:100320009FEF0895FC01918D228D892F90E0805CD4
:100330009F4F821B91098F739927089580E391E065
:100340000E94920121E0892B09F420E0822F089578
:1003500080E090E0892B29F00E949E0181110C948D
:1003600000000895FC01A48DA80FB92FB11DA35A58
:10037000BF4F2C91848D90E001968F739927848FC5
:10038000A689B7892C93A089B1898C9183708064E8
:100390008C93938D848D981306C00288F389E02D89
:1003A00080818F7D80830895EF92FF920F931F933A
:1003B000CF93DF93EC0181E0888F9B8D8C8D981318
:1003C0001AC0E889F989808185FF15C09FB7F89424
:1003D000EE89FF896083E889F98980818370806470
:1003E00080839FBF81E090E0DF91CF911F910F91BB
:1003F000FF90EF900895F62E0B8D10E00F5F1F4FCA
:100400000F731127E02E8C8D8E110CC00FB607FCD8
:10041000FACFE889F989808185FFF5CFCE010E9466
:10042000B201F1CFEB8DEC0FFD2FF11DE35AFF4F21
:10043000F0829FB7F8940B8FEA89FB8980818062F4
:10044000CFCFCF93DF93EC01888D8823B9F0AA89B1
:10045000BB89E889F9898C9185FD03C0808186FD7F
:100460000DC00FB607FCF7CF8C9185FFF2CF8081CE
:1004700085FFEDCFCE010E94B201E9CFDF91CF9190
:10048000089590E080E00895CF93DF93EC0160E061
:100490008E810E94A70061E08E810E94A70060E02B
:1004A0008E810E94A7008BE891E00197F1F7DF9120
:1004B000CF910895CF92DF92EF92FF920F931F9307
:1004C000CF93DF936C017C0187E0E80EF11CD0E054
:1004D000C0E0062F10E0B8010C2E02C0759567959C
:1004E0000A94E2F76170F70181917F010E94A700F1
:1004F0002196C430D10579F7C601DF91CF911F91C4
:100500000F91FF90EF90DF90CF900C944402CF9228
:10051000DF92EF92FF920F931F93CF93DF93EC0143
:10052000F62E642F8C810E94A7008D818F3F19F0D9
:1005300060E00E94A7000F2D10E08F8584FF25C08A
:100540006E0187E0C80ED11CF12CE12CB8010E2CF5
:1005500002C0759567950A94E2F76170F601819182
:100560006F010E94A700FFEFEF1AFF0A88E0E8166C
:10057000F10461F7CE01DF91CF911F910F91FF90B0
:10058000EF90DF90CF900C944402B80184E0759511
:1005900067958A95E1F7CE010E945A026F2DCE0130
:1005A000DF91CF911F910F91FF90EF90DF90CF904F
:1005B0000C945A0240E0682F83ED91E00C9487027E
:1005C000CF93DF93613029F09091E201986090938E
:1005D000E2016093E6011092E70190E49093E80154
:1005E0008093E901805C8093EA018091D7010E94A9
:1005F00088008091D8018F3F11F00E94880080917F
:10060000D9010E948800C3EDD1E09E01235D3140F5
:100610008091E20184FD0AC084E090E021962817D1
:1006200039073CF48E810E948800EFCF88E090E08B
:10063000F5CF8BE39DE00197F1F760E08091D70162
:100640000E94A70060E08091D9010E94A7008091DC
:10065000D8018F3F19F060E00E94A7008091E2016D
:1006600084FD39C063E083ED91E00E945A02CBE43F
:10067000D6E4CE010197F1F763E083ED91E00E94AB
:100680005A022197F1F763E083ED91E00E945A024C
:1006900083E592E00197F1F762E083ED91E00E943B
:1006A0005A028091E20180620E94DA0284E0809323
:1006B000E3018CE00E94DA0281E00E94DA028BE31F
:1006C0009FE10197F1F782E08093E40186E0DF91FA
:1006D000CF910C94DA0280620E94DA028BE496E4F5
:1006E0000197F1F78091E20180620E94DA0283E5CE
:1006F00092E00197F1F78091E20180620E94DA02B4
:10070000D0CF41E00E94870281E090E008950F93EE
:100710001F93CF93DF93EC0188819981009759F063
:100720002A813B812617370730F081E0DF91CF9196
:100730001F910F9108958B016F5F7F4F0E94AE074D
:10074000009759F0998388831B830A832C813D810C
:10075000232B59F7FC011082E8CF80E0E7CF1F92EE
:100760000F920FB60F9211242F933F938F939F9365
:10077000AF93BF9380912C0190912D01A0912E01F8
:10078000B0912F0130912B0123E0230F2D3758F525
:100790000196A11DB11D20932B0180932C019093F4
:1007A0002D01A0932E01B0932F01809127019091EC
:1007B0002801A0912901B0912A010196A11DB11D26
:1007C0008093270190932801A0932901B0932A01D7
:1007D000BF91AF919F918F913F912F910F900FBE3D
:1007E0000F901F90189526E8230F0296A11DB11DAA
:1007F000D2CF1F920F920FB60F9211242F933F93D7
:100800004F935F936F937F938F939F93AF93BF9318
:10081000EF93FF9380E391E00E94B201FF91EF918B
:10082000BF91AF919F918F917F916F915F914F9108
:100830003F912F910F900FBE0F901F9018951F9210
:100840000F920FB60F9211242F938F939F93EF93D4
:10085000FF93E0914001F09141018081E0914601D8
:10086000F091470182FD1BC09081809149018F5F0B
:100870008F7320914A01821741F0E0914901F0E025
:10088000E05DFE4F958F80934901FF91EF919F911D
:100890008F912F910F900FBE0F901F901895808110
:1008A000F4CF109233011092320188EE93E0A0E071
:1008B000B0E08093340190933501A0933601B0935A
:1008C00037018AE091E0909331018093300185EC0B
:1008D00090E090933D0180933C0184EC90E09093F4
:1008E0003F0180933E0180EC90E090934101809322
:1008F000400181EC90E0909343018093420182ECAF
:1009000090E0909345018093440186EC90E09093B1
:100910004701809346011092490110924A011092BA
:100920004B0110924C011092D6011092D5018CE12E
:1009300091E09093D4018093D30184E08093D70118
:100940008FEF8093D80186E08093D9018AE080936D
:10095000DA018BE08093DB018CE08093DC018DE099
:100960008093DD011092DE011092DF011092E00110
:100970001092E1011092E20161E080E10E94E00248
:100980001092CE011092CD011092D0011092CF01A1
:100990001092D2011092D10170E060E08DEC91E0F4
:1009A0000E9487032091CD013091CE01811113C0A7
:1009B0002115310519F0C9010E9425071092CE01B9
:1009C0001092CD011092D2011092D1011092D0015B
:1009D0001092CF0108951092D2011092D10164E2D9
:1009E00071E0C9010C947408CF93DF93CDB7DEB7E3
:1009F00028970FB6F894DEBF0FBECDBF789484B5AC
:100A0000826084BD84B5816084BD85B5826085BD0A
:100A100085B5816085BD80916E00816080936E0098
:100A2000109281008091810082608093810080918A
:100A3000810081608093810080918000816080933B
:100A400080008091B10084608093B1008091B000FB
:100A500081608093B00080917A00846080937A00F6
:100A600080917A00826080937A0080917A00816020
:100A700080937A0080917A00806880937A00109247
:100A8000C10064E084E10E94E002E0914001F09145
:100A9000410182E08083E0913C01F0913D011082B0
:100AA000E0913E01F0913F018FEC8083109248016C
:100AB000E0914401F091450186E08083E09142019C
:100AC000F0914301808180618083E0914201F09147
:100AD0004301808188608083E0914201F09143016D
:100AE000808180688083E0914201F09143018081A0
:100AF0008F7D8083109226018BE3E82E8FE1F82E04
:100B000000E010E0BB24B39480E391E00E949201E6
:100B1000181619060CF06DC0B09226011A821982BF
:100B20001C821B821E821D8270E060E0CE01019655
:100B30000E94870329813A8181112CC0211531053A
:100B400019F0C9010E9425071A8219821E821D828E
:100B50001C821B820E94440197FD24C08F8318864B
:100B6000CD80DE808FEFC81AD80AB601CE0101967B
:100B70000E948703882371F329813A818D819E81A8
:100B8000BE01695F7F4F820F931F0E947408DE824F
:100B9000CD82E0CF1E821D8264E271E0C9010E9415
:100BA0007408D8CF8091CD019091CE01009709F4BF
:100BB00053C069817A816115710509F44BC0409178
:100BC000CF015091D0012D813E814217530708F487
:100BD00041C00E9474088D819E819093D2018093C0
:100BE000D1011E821D8289819A81009711F00E9495
:100BF000250780912601882309F181E00E94DA020D
:100C0000C7010197F1F7E1E08091E6018111E0E091
:100C1000E195F0E0ED52FE4F848980680E94DA028F
:100C20004091D1015091D2016091CD017091CE01DE
:100C300083ED91E00E94F400109226010115110548
:100C400009F462CF0E949E01882309F45DCF0E94BF
:100C500000005ACF0E94250789819A819093CE0186
:100C60008093CD018B819C819093D0018093CF01A3
:100C70008D819E819093D2018093D1011A82198235
:100C80001C821B82AECF8091CD019091CE01009746
:100C900011F00C94250708952F923F924F925F9286
:100CA0006F927F928F929F92AF92BF92CF92DF927C
:100CB000EF92FF920F931F93CF93DF93CDB7DEB7E1
:100CC000CA1BDB0B0FB6F894DEBF0FBECDBF099475
:100CD0002A88398848885F846E847D848C849B84CC
:100CE000AA84B984C884DF80EE80FD800C811B81DA
:100CF000AA81B981CE0FD11D0FB6F894DEBF0FBE09
:100D0000CDBFED010895EE0FFF1F0590F491E02D8A
:100D100009940F931F93CF93DF938230910510F4C2
:100D200082E090E0E091ED01F091EE0130E020E012
:100D3000B0E0A0E0309799F42115310509F44AC0DC
:100D4000281B390B24303105D8F58A819B81611528
:100D5000710589F1FB0193838283FE0111C04081FB
:100D600051810281138148175907E0F0481759074C
:100D700099F4109761F012960C93129713961C93A6
:100D80003296CF01DF91CF911F910F91089500937B
:100D9000ED011093EE01F4CF2115310551F042170A
:100DA000530738F0A901DB019A01BD01DF01F80109
:100DB000C1CFEF01F9CF9093EE018093ED01CDCF3C
:100DC000FE01E20FF31F8193919322503109398381
:100DD0002883D7CF2091EB013091EC01232B41F4F4
:100DE00020910201309103013093EC012093EB013B
:100DF00020910001309101012115310541F42DB7F9
:100E00003EB74091040150910501241B350BE09140
:100E1000EB01F091EC01E217F307A0F42E1B3F0B5E
:100E20002817390778F0AC014E5F5F4F241735075C
:100E300048F04E0F5F1F5093EC014093EB018193FC
:100E400091939FCFF0E0E0E09CCFCF93DF930097AA
:100E5000E9F0FC01329713821282A091ED01B0916A
:100E6000EE01ED0130E020E01097A1F42081318106
:100E7000820F931F2091EB013091EC012817390765
:100E800009F061C0F093EC01E093EB01DF91CF91A9
:100E90000895EA01CE17DF07E8F54A815B819E01DC
:100EA00041155105B1F7E901FB83EA834991599155
:100EB000C40FD51FEC17FD0761F480819181029664
:100EC000840F951FE90199838883828193819B8395
:100ED0008A83F0E0E0E012968D919C911397009741
:100EE000B9F52D913C911197CD010296820F931F78
:100EF0002091EB013091EC012817390739F6309732
:100F000051F51092EE011092ED01B093EC01A09317
:100F1000EB01BCCFD383C28340815181840F951FE5
:100F2000C817D90761F44E5F5F4F88819981480FD8
:100F3000591F518340838A819B819383828321152A
:100F4000310509F0B0CFF093EE01E093ED019ECFB3
:100F5000FD01DC01C0CF13821282D7CFB0E0A0E048
:100F6000E4EBF7E00C944E068C01009751F4CB01B2
:100F70000E9489068C01C801CDB7DEB7E0E10C9470
:100F80006A06FC01E60FF71F9C0122503109E217A7
:100F9000F30708F49DC0D901CD91DC911197C617D4
:100FA000D70798F0C530D10530F3CE0104978617E6
:100FB000970708F3C61BD70B2297C193D1936D9364
:100FC0007C93CF010E942507D6CF5B01AC1ABD0AE6
:100FD0004C018C0E9D1EA091ED01B091EE01512CA3
:100FE000412CF12CE12C109731F58091EB0190917F
:100FF000EC018815990509F05CC04616570608F003
:1010000058C08091000190910101009741F48DB783
:101010009EB74091040150910501841B950BE81780
:10102000F90708F055C0F093EC01E093EB01F901EA
:1010300071836083A0CF8D919C91119712966C90D3
:10104000129713967C901397A815B90559F56C0162
:1010500042E0C40ED11CCA14DB0420F1AC014A19D1
:101060005B09DA011296159780F0628273825183D0
:101070004083D9016D937C93E114F10471F0D701A1
:101080001396FC93EE93129776CF22968C0F9D1FAA
:10109000F90191838083F301EFCFF093EE01E093A8
:1010A000ED0169CF4816590608F42C017D01D301E2
:1010B0009ACFCB010E9489067C01009749F0AE01CE
:1010C000B8010E946B08C8010E942507870153CF11
:1010D00010E000E050CFFB01DC0102C001900D9256
:1010E00041505040D8F70895FB01DC0101900D926A
:1010F0000020E1F7089510E0CDE5D0E004C0FE0146
:101100000E9483062196CE35D107C9F7F894FFCF08
:101110000000EF01800000000000D401F400210174
:101120002102920130018401000000008103F400DB
:061130004102F300000083
:00000001FF
