:020000040000FA
:100000000C9446010C9477010C9477010C947701C1
:100010000C9477010C9477010C9477010C94770180
:100020000C9477010C94FA0D0C94FA0D0C94FA0DC3
:100030000C9477010C9477010C9477010C94770160
:100040000C9477010C9477010C9477010C94770150
:100050000C9477010C9477010C9477010C94900C1C
:100060000C9477010C94660C0C943C0C0C94770166
:100070000C9477010C9477010C9477010C94770120
:100080000C9477010C9477010C9477010C94770110
:100090000C94120C0C94E80B0C9477010C94DA0C71
:1000A0000C9477010C9477010C9477010C947701F0
:1000B0000C9477010C9477010C9477010C947701E0
:1000C0000C9477010C9477010C9477010C94BE0B7F
:1000D0000C94940B0C9477010C946A0B0C94400BC9
:1000E0000C9477010C948E030C94BE010C94A6031F
:1000F0000C9404020C94B4030C9487060C94100323
:100100000C94F0040C947D030C9471120C94130263
:100110000C94A0030C9481030C94C3020C94AE03C2
:100120000C948E070C9498030C9479030C9492030E
:100130000C949C030C94AA030C9485030C948E05D8
:100140000C94B3030C94760E0C9488030C941A054B
:100150000C94A6050C945F020C9432050C94B80321
:100160000C946D020C9473030000210024002700FE
:100170002A002D00300033000101000004010701B6
:100180000A0100000A0B02090C0D0E080703040106
:10019000000000000000000000000000000000005F
:1001A000000000000000000000000000000012112C
:1001B000100000000000000000000000000000002F
:1001C00000000000000000000000200023002600C6
:1001D00029002C002F00320000010000030106015D
:1001E000090100002200250028002B002E0031000C
:1001F000340002010000050108010B010505050599
:10020000070508080808020202020A0A080804048E
:1002100004040101010101010101030303030303BC
:100220000303040707070C0C0C0C0C0C0C0C02024B
:10023000020206060606060606060B0B0B0B0B0B48
:100240000B0B0102102020080810204010204080D5
:10025000020102010804020101020408102040808A
:100260008040201008040201800402018040201018
:100270000804020108040201010204081020408061
:100280000102040810204080760E711211241FBE56
:10029000CFEFD1E2DEBFCDBF00E00CBF27E0AEE57F
:1002A000B3E001C01D92A030B207E1F713E0A0E077
:1002B000B2E0EAEEFAE200E00BBF02C007900D9256
:1002C000AE35B107D9F711E0C5E4D1E000E006C0D2
:1002D00021970109802FFE010E942813C434D10701
:1002E00080E00807A9F70E94320F0C9463150C9464
:1002F0000000CF93DF93EC019A01AB01E889F98903
:1003000082E08083211581EE38074105510581F196
:1003100060E079E08DE390E00E94061321503109FE
:10032000410951095695479537952795EC85FD85E7
:100330001082EE85FF852083188EEC89FD8986E08A
:100340008083EA89FB89808180618083EA89FB89D7
:10035000808188608083EA89FB89808180688083CE
:10036000EA89FB8980818F7D8083DF91CF91089519
:10037000E889F989108220E1D9CF0895AF92BF9220
:10038000CF92DF92EF92FF920F931F93CF93DF9361
:100390006C017B018B01040F151FEB015E01AE1890
:1003A000BF08C017D10759F06991D601ED91FC91B2
:1003B0000190F081E02DC6011995892B79F7C501CF
:1003C000DF91CF911F910F91FF90EF90DF90CF9031
:1003D000BF90AF900895FC01A089B1898C91A68946
:1003E000B78982FD0FC09C91818D8F5F8F73228DA5
:1003F000821749F0A18DAE0FBF2FB11D5D969C9362
:10040000818F08958C910895FC01538D448D252F83
:1004100030E0842F90E0821B930B541710F0CF969E
:10042000089501970895FC01918D828D981761F0D0
:10043000A28DAE0FBF2FB11D5D968C91928D9F5FE7
:100440009F73928F90E008958FEF9FEF0895CF9361
:10045000DF93EC012FB7F894809130049091310430
:10046000A0913204B09133042FBF88879987AA875F
:10047000BB87CE010E94130297FF1EC02FB7F894CE
:100480008091300490913104A0913204B0913304F2
:100490002FBF488559856A857B85841B950BA60BE4
:1004A000B70B4C815D816E817F8184179507A6070C
:1004B000B707F8F28FEF9FEFDF91CF910895FC011E
:1004C000918D828D981731F0828DE80FF11D858D09
:1004D00090E008958FEF9FEF0895FC01918D228D9C
:1004E000892F90E0805C9F4F821B91098F73992721
:1004F000089588E394E00E946D0221E0892B09F4BD
:1005000020E0822F089585ED94E00E946D0221E0A5
:10051000892B09F420E0822F089582E795E00E945C
:100520006D0221E0892B09F420E0822F08958FE0ED
:1005300096E00E946D0221E0892B09F420E0822FD1
:100540000895FC01A48DA80FB92FB11DA35ABF4F68
:100550002C91848D90E001968F739927848FA689C2
:10056000B7892C93A089B1898C91837080648C9316
:10057000938D848D981306C00288F389E02D8081C5
:100580008F7D80830895EF92FF920F931F93CF93F7
:10059000DF93EC0181E0888F9B8D8C8D98131AC0BE
:1005A000E889F989808185FF15C09FB7F894EE89A5
:1005B000FF896083E889F989808183708064808302
:1005C0009FBF81E090E0DF91CF911F910F91FF904D
:1005D000EF900895F62E0B8D10E00F5F1F4F0F73F5
:1005E0001127E02E8C8D8E110CC00FB607FCFACFB0
:1005F000E889F989808185FFF5CFCE010E94A102AB
:10060000F1CFEB8DEC0FFD2FF11DE35AFF4FF08280
:100610009FB7F8940B8FEA89FB8980818062CFCFE6
:10062000CF93DF93EC01888D8823B9F0AA89BB8929
:10063000E889F9898C9185FD03C0808186FD0DC014
:100640000FB607FCF7CF8C9185FFF2CF808185FF35
:10065000EDCFCE010E94A102E9CFDF91CF910895A5
:1006600080E090E0892B29F00E94970281110E947E
:10067000000080E090E0892B29F00E948D0281111A
:100680000E94000080E090E0892B29F00E94830204
:1006900081110E94000080E090E0892B29F00E94E7
:1006A000790281110C94000008958150823108F084
:1006B0005AC0E82FF0E08827EF59FC4F8F4F0C9479
:1006C000281381038503730379037D03B303880330
:1006D0008E03920398039C03A003A603AA03B3030B
:1006E000AE03B403B803809180008F7780938000BD
:1006F0000895809180008F7DF9CF80918000877F61
:10070000F5CF84B58F7784BD089584B58F7DFBCFF9
:100710008091B0008F778093B00008958091B000F1
:100720008F7DF9CF809190008F778093900008950E
:10073000809190008F7DF9CF80919000877FF5CFD9
:100740008091A0008F778093A00008958091A000F1
:100750008F7DF9CF8091A000877FF5CF8091200118
:100760008F77809320010895809120018F7DF9CFAC
:1007700080912001877FF5CFCF93DF93E8EBF1E005
:100780008491E8E7F2E0D491E2E3F2E0C491CC2373
:10079000A1F081110E945503EC2FF0E0EE0FFF1F36
:1007A000E853FE4FA591B491EC91ED2381E090E0E8
:1007B00009F480E0DF91CF91089580E090E0FACFD6
:1007C0001F93CF93DF93282F30E0F901EE57FE4FB0
:1007D0008491F901EE5BFD4FD491F901E450FE4F95
:1007E000C491CC23A9F0162F81110E945503EC2F40
:1007F000F0E0EE0FFF1FEE51FE4FA591B4918FB7C1
:10080000F894EC91111108C0D095DE23DC938FBFD2
:10081000DF91CF911F910895DE2BF8CFCF93DF9317
:1008200090E0FC01EE5BFD4F249184509E4FFC0153
:1008300084918823D1F090E0880F991FFC01E8593A
:10084000FE4FA591B491FC01EE51FE4FC591D4919C
:1008500061110EC09FB7F8948C91E22FE0958E2322
:100860008C932881E223E8839FBFDF91CF91089585
:100870008FB7F894EC91E22BEC938FBFF6CF0F93E8
:100880001F93CF93DF93EC01162F042F1B821A8244
:1008900088EE93E0A0E0B0E08C839D83AE83BF83BD
:1008A00081E192E0998388831F8A1E8A198E188EAF
:1008B0001B8E1A8E1D8E1C8E6E8D6E7F6D7F6E8FC1
:1008C0006695617081E06827842F0E94E00361E0F3
:1008D000802F0E940E04802F90E0FC01EE5BFD4F04
:1008E000E491E88BFC01E450FE4FE491F0E0EE0F60
:1008F000FF1FEE51FE4F859194919A8B898B60E09A
:10090000812F0E940E048E8D81FD04C061E0812F35
:100910000E94E0031C87812F90E0FC01EE5BFD4FFD
:10092000E491ED87FC01E450FE4FE491F0E0EE0F1E
:10093000FF1FE853FE4F859194919F878E87DF912B
:10094000CF911F910F9108953FB7F894809128049B
:1009500090912904A0912A04B0912B0426B5A89B5C
:1009600005C02F3F19F00196A11DB11D3FBFBA2F41
:10097000A92F982F8827BC01CD01620F711D811D01
:10098000911D42E0660F771F881F991F4A95D1F786
:1009900008952091DD03260F3327331F21323105BF
:1009A000ECF420910104FC0190E080E0243069F037
:1009B00082E00895A091DD032191AC0143545C4F86
:1009C000A40FB52FB11D2C930196861798F3809133
:1009D000DD03680F6093DD0380E0089581E00895F2
:1009E00008958FEF9FEF08958FEF9FEF0895809107
:1009F000B60390E09195819591090895CF93DF9387
:100A0000CB01EA01642F0E94C904CE01DF91CF918E
:100A10000895CF93DF931F92CDB7DEB7698361E06E
:100A2000CE0101960E94C90481E090E00F90DF9111
:100A3000CF91089520913604309137042817390753
:100A400071F49091340480913504981741F0E0914D
:100A50003404F0E0EA58FC4F808190E008958FEF75
:100A60009FEF0895EF92FF920F931F93CF93DF9321
:100A7000DC015C96ED90FC905D97E114F10479F453
:100A800081E090E013969C938E93129790E080E023
:100A9000DF91CF911F910F91FF90EF9008955196A4
:100AA000ED91FC91529750968C915097982F90957C
:100AB0000FB75E962C915E97122F127021FD6095F4
:100AC000F8942081112319F1282B2083E701219725
:100AD000F1F728E0462F50E0308160FF1AC0382B34
:100AE0003083E7012197F1F7BA0175956795215099
:100AF00089F7112381F08081892380830FBF5C9661
:100B00008D919C910197F1F781E090E0C1CF29236D
:100B1000DCCF3923E5CF9081892BEFCF20913604AC
:100B2000309137042817390771F4809135042091EA
:100B3000340490E0805C9F4F821B910960E470E078
:100B40000E94F212089590E080E00895209136040A
:100B50003091370428173907B9F490913404809103
:100B60003504981789F0E0913404F0E0EA58FC4F1E
:100B700080812091340430E02F5F3F4F2F73332763
:100B80002093340490E008958FEF9FEF0895E09153
:100B90003604F0913704E817F90769F4A389B4899A
:100BA0009C918589809589238C93109237041092AB
:100BB000360481E0089580E00895CF93DF93EC013F
:100BC0001B8E1A8E198E188E1F8A1E8A8FE190E056
:100BD0009D8F8C8F8C8596EF980F943048F02EEC7B
:100BE000280F243028F022EC280F283008F052C0BB
:100BF00021E030E03F8B2E8B2DE130E0398F288FC4
:100C00002DE030E03B8F2A8F943050F02EEC280FEF
:100C1000243030F022EC280FB0E0A0E0283010F4AF
:100C2000A8E6B0E02C91943028F032EC380F383040
:100C300008F453C031E0232B943048F09EEC980F19
:100C4000943028F08E53B0E0A0E0883010F4A8E68D
:100C5000B0E02C932C8536EF320F343008F43FC0CF
:100C60008EEC820F8430D8F182EC820F8830D0F184
:100C700090E080E09C8B8B8B3430B8F52650330BA2
:100C800081E001C0880F2A95EAF78D8B8C8D9D8DB0
:100C90000197F1F78A8D9B8D892BE1F080913604C5
:100CA00090913704C817D907A9F0009711F00E9456
:100CB000C7058E8D8E7F8E8F10923504109234046E
:100CC000D0933704C0933604EB89FC8980819D89D9
:100CD000892B8083DF91CF91089534E0ACCF8BE6F0
:100CE00090E0C8CF8DE690E0C5CF88E0223369F26E
:100CF00084E0233351F282E0243339F282EC820F14
:100D0000883018F42E53330BBBCF81E0BECF90E078
:100D100080E00895FC01A081B1818C918D3021F09B
:100D20003CF489508230A8F51196B183A083F3CFAB
:100D30008032D1F38F3209F0089511968C9111977A
:100D40008A3219F08F32C1F008951196B183A083D1
:100D5000A081B181CD0101969183808311968C9100
:100D600011978823B1F08A3299F712968C911297D5
:100D70008F3271F71396D9CFA081B181CD01019641
:100D80009183808311968C91882319F08A30A1F782
:100D9000C2CF08951F93CF93DF93EC01162F0E94CB
:100DA0008A06E881F9818081181308C03196F98399
:100DB000E88381E0DF91CF911F91089580E0FACF21
:100DC000EF92FF920F931F93CF93DF938C01DC017F
:100DD0001496CD91DC91EA80FB808E819F81E80E94
:100DE000F91EC80102960E948A06D8011296ED915A
:100DF000FC918081873219F0823209F042C031962D
:100E0000D8011396FC93EE931297D8011296ED91A8
:100E1000FC9113979081992309F462C09F012F5F81
:100E20003F4F13963C932E931297891709F458C09D
:100E30009C3599F49181A5E3B2E02C91222321F015
:100E400092131DC011969C91992309F449C03296C2
:100E5000D8011396FC93EE9312974E815F819A010D
:100E60002F5F3F4F6C817D816217730770F2EA81BB
:100E7000FB81E40FF51F3F832E839083C6CF12962C
:100E8000DCCF80330CF444C08A3324F08F3504F176
:100E90008B3704F5F801228133812F5F3F4F338375
:100EA00022834E815F819A012F5F3F4F6C817D814C
:100EB0006217730738F0EA81FB81E40FF51F3F8367
:100EC0002E838083D8011296ED91FC918081D9CF39
:100ED0008134F4F08B35F4F293ED980F9230D0F228
:100EE0002E813F81C90101964C815D8148175907C8
:100EF00090F0EA81FB81E20FF31F9F838E831082C3
:100F0000C701DF91CF911F910F91FF90EF9008954E
:100F10008B3211F7BFCFF12CE12CF2CFFC0186818F
:100F20009781680F791F248135812617370738F09C
:100F300022813381820F931F77836683089590E027
:100F400080E0089580916E0381110BC010926B03B5
:100F500010926A0310926D0310926C0381E08093EB
:100F60006E038AE693E008958091620381110BC0BD
:100F700010925F0310925E0310926103109260035F
:100F800081E0809362038EE593E00895DB01109782
:100F900049F0ED91FC9111970190F081E02DBC0199
:100FA000CD01199490E080E008950F931F93CF93A3
:100FB000DF938B01FC01C281D381209759F06A81B4
:100FC0007B810115110519F06115710549F4601750
:100FD000710759F4CE01DF91CF911F910F910895C0
:100FE000C8010E945315892BA9F30990D881C02DFF
:100FF000E4CFAF92BF92CF92DF92EF92FF920F9326
:101000001F93CF93DF9300D000D0CDB7DEB77C0124
:10101000DC0116968C91811104C00E94A2078C01FC
:1010200088C08150F7018683C080D180B60184E0FA
:1010300090E00E94C6078C01009709F48CC0DC0187
:101040001196DC92CE9213961C921E921297670113
:10105000B2E0CB0ED11C6BE7C6010E94CA06882302
:10106000E1F26DE7C6010E94CA0681115EC0C701A8
:101070000E94E0065C01892B81F26AE3C6010E94AE
:10108000CA06882351F21A821982BE016F5F7F4F10
:10109000C7010E94AF08882309F4BFCFB501C8017A
:1010A0000E94D507009759F5F801608171818AE0A7
:1010B00090E00E94C607009741F0DC0111961C9257
:1010C0001E9215961C921E921497D8011296ED91BD
:1010D000FC91309729F4F8019383828308C0F901C9
:1010E0002081318121153105D1F7918380830097CB
:1010F00009F493CFDC011396BC92AE92129726E0CE
:10110000FE013196DC01149601900D922A95E1F7CB
:101110006DE7C6010E94CA06811107C06CE2C601D4
:101120000E94CA068111A3CF78CFF70186818F5F15
:101130008683C80126960FB6F894DEBF0FBECDBFDA
:10114000DF91CF911F910F91FF90EF90DF90CF90A3
:10115000BF90AF9008950E94A2078C0178CF8F9224
:101160009F92AF92BF92CF92DF92EF92FF920F9336
:101170001F93CF93DF9300D000D0CDB7DEB77C01B3
:101180006B015C0182E0A80EB11CC5010E948A06B9
:10119000D7011296ED91FC91139780818B35E1F088
:1011A0008B3709F4B2C011E0873219F0823209F0AE
:1011B00010E0C7010E94E006009709F485C021E015
:1011C00030E0112309F4ABC022E030E0F6013183B6
:1011D00020839383828379C0F7018681811104C0C3
:1011E0000E94B4078C016BC0815016968C931697A1
:1011F0008D909C90B40184E090E00E94C6078C0121
:10120000009709F495C0FC019182808213821282BA
:101210006BE5C5010E94CA06882311F36DE5C5017F
:101220000E94CA06811144C01A821982BE016F5FF2
:101230007F4FC7010E94AF08882391F2D8016D91BA
:101240007C9188E090E00E94C607DC01892B39F090
:1012500011961C921E9213961C921E921297F801E0
:10126000228133812115310521F4B383A28308C083
:101270009C01F901808191810097D1F7B183A0830E
:10128000109709F4ADCF86E0FE01319612960190D9
:101290000D928A95E1F76DE5C5010E94CA0681119C
:1012A00007C06CE2C5010E94CA068111BDCF98CF6C
:1012B000D70116968C9116978F5F16968C93F8012E
:1012C00080819181892BA9F410E0812F26960FB699
:1012D000F894DEBF0FBECDBFDF91CF911F910F916C
:1012E000FF90EF90DF90CF90BF90AF909F908F9046
:1012F000089586E090E0D60111969C938E93139604
:101300001C930E93129711E0E0CFC7010E94F907DA
:10131000FC0120813181232BB9F227E030E0D60196
:1013200011963C932E9313969C938E931297EBCF2A
:101330000E94B4078C016CCF0F931F93CF93DF9360
:101340008C01EB01FC01808191810097E1F06881C3
:10135000798161157105A9F0428153812C813D810C
:101360004217530770F00E945C158C819D81F80133
:10137000958384831D821C82DF91CF911F910F91F1
:1013800008950E94E01388819981F80191838083F8
:101390008A819B81938382838C819D8195838483C1
:1013A000198218821B821A82E5CFFC01808191810B
:1013B000009711F00C94E0130895FB0101900020B8
:1013C000E9F73197AF01461B570BDC01ED91FC911A
:1013D0000280F381E02D19940F931F93CF93DF9335
:1013E000EC010E94DD098C0160E472E0CE010E94F4
:1013F000DD09800F911FDF91CF911F910F9108950B
:101400000F931F93CF93DF93EC01FB014481558130
:1014100060817181E881F9810280F381E02D199565
:101420008C0160E472E0CE010E94DD09800F911F03
:10143000DF91CF911F910F9108950F931F93CF9339
:10144000DF93EC0188819981009759F02A813B81D3
:101450002617370730F081E0DF91CF911F910F9170
:1014600008958B016F5F7F4F0E946914009759F0B8
:10147000998388831B830A832C813D81232B59F711
:10148000FC011082E8CF80E0E7CFEF92FF920F934C
:101490001F93CF93DF93EC017B018A01BA010E9475
:1014A0001D0A28813981811114C02115310519F0D7
:1014B000C9010E94E013198218821D821C821B82BE
:1014C0001A82CE01DF91CF911F910F91FF90EF9083
:1014D00008951D830C83B701C9010E945C15F1CFEB
:1014E000FC01118210821382128215821482FB0188
:1014F00001900020E9F73197AF01461B570B0C9480
:10150000450ACF92DF92EF92FF920F931F93CF93F2
:10151000DF931F921F92CDB7DEB78C016B01FC01E8
:1015200011821082138212821582148250E040E0F0
:101530006FE372E00E94450AC6010E94270297FDF0
:101540001EC089831A82F801E480F580FFEFEF1A4C
:10155000FF0AB701C8010E941D0A882369F3F80138
:101560002081318184819581BE016F5F7F4F820F21
:10157000931F0E945C15F801F582E482DDCFC8015B
:101580000F900F90DF91CF911F910F91FF90EF90EF
:10159000DF90CF9008951F93CF93DF9385ED8093D5
:1015A000BC008091B9039091BA03A091BB03B091A4
:1015B000BC030796A11DB11D23E0B695A79597958D
:1015C00087952A95D1F72091BC0024FD03C0109285
:1015D000010452C04091B9035091BA036091BB031A
:1015E0007091BC03452B462B472B69F30097A1054F
:1015F000B10541F025E32A95F1F700000197A10913
:10160000B109E1CF8091B803C1E0C093B70388234B
:1016100099F1D091B8001091BA008091BC008A7BFA
:101620008093BC0060E084E10E94E00360E085E11B
:101630000E94E00310920104C0930304109202047C
:1016400061E084E10E94E00361E085E10E94E00343
:101650008091B9008E7F8093B9008091B9008D7F11
:101660008093B90088E48093B80085E48093BC003F
:101670001093BA00D093B800DF91CF911F910895D5
:101680001F920F920FB60F9211240BB60F922F9349
:101690003F934F935F936F937F938F939F93AF93FA
:1016A000BF93EF93FF9388E394E00E94A102FF9120
:1016B000EF91BF91AF919F918F917F916F915F91CA
:1016C0004F913F912F910F900BBE0F900FBE0F9037
:1016D0001F9018951F920F920FB60F9211240BB600
:1016E0000F922F933F934F935F936F937F938F93BB
:1016F0009F93AF93BF93EF93FF9388E394E00E948F
:10170000EB01FF91EF91BF91AF919F918F917F91ED
:101710006F915F914F913F912F910F900BBE0F9062
:101720000FBE0F901F9018951F920F920FB60F9239
:1017300011240BB60F922F933F934F935F936F93A8
:101740007F938F939F93AF93BF93EF93FF9385ED19
:1017500094E00E94A102FF91EF91BF91AF919F9100
:101760008F917F916F915F914F913F912F910F904A
:101770000BBE0F900FBE0F901F9018951F920F92E7
:101780000FB60F9211240BB60F922F933F934F93E6
:101790005F936F937F938F939F93AF93BF93EF93D9
:1017A000FF9385ED94E00E94EB01FF91EF91BF91D3
:1017B000AF919F918F917F916F915F914F913F91E9
:1017C0002F910F900BBE0F900FBE0F901F9018958A
:1017D0001F920F920FB60F9211240BB60F922F93F8
:1017E0003F934F935F936F937F938F939F93AF93A9
:1017F000BF93EF93FF9382E795E00E94A102FF91D0
:10180000EF91BF91AF919F918F917F916F915F9178
:101810004F913F912F910F900BBE0F900FBE0F90E5
:101820001F9018951F920F920FB60F9211240BB6AE
:101830000F922F933F934F935F936F937F938F9369
:101840009F93AF93BF93EF93FF9382E795E00E943E
:10185000EB01FF91EF91BF91AF919F918F917F919C
:101860006F915F914F913F912F910F900BBE0F9011
:101870000FBE0F901F9018951F920F920FB60F92E8
:1018800011240BB60F922F933F934F935F936F9357
:101890007F938F939F93AF93BF93EF93FF938FE0CB
:1018A00096E00E94A102FF91EF91BF91AF919F91AD
:1018B0008F917F916F915F914F913F912F910F90F9
:1018C0000BBE0F900FBE0F901F9018951F920F9296
:1018D0000FB60F9211240BB60F922F933F934F9395
:1018E0005F936F937F938F939F93AF93BF93EF9388
:1018F000FF938FE096E00E94EB01FF91EF91BF9183
:10190000AF919F918F917F916F915F914F913F9197
:101910002F910F900BBE0F900FBE0F901F90189538
:101920001F920F920FB60F9211242F933F938F9314
:101930009F93AF93BF938091300490913104A09115
:101940003204B09133043091270423E0230F2D3764
:1019500058F50196A11DB11D2093270480933004F2
:1019600090933104A0933204B093330480912804FF
:1019700090912904A0912A04B0912B040196A11DF5
:10198000B11D8093280490932904A0932A04B09356
:101990002B04BF91AF919F918F913F912F910F9009
:1019A0000FBE0F901F90189526E8230F0296A11DD9
:1019B000B11DD2CF1F920F920FB60F9211240BB60A
:1019C0000F922F933F934F935F936F937F938F93D8
:1019D0009F93AF93BF93EF93FF938091B900887F5C
:1019E000803609F44DC008F040C0883209F4A7C021
:1019F00028F5803109F49BC0C8F4882309F4F7C0A6
:101A0000883009F494C0FF91EF91BF91AF919F91FD
:101A10008F917F916F915F914F913F912F910F9097
:101A20000BBE0F900FBE0F901F901895883109F4D0
:101A300086C0803241F78093000414C0803409F4DA
:101A40009BC040F48033B9F38833E9F680930004F7
:101A500085ECAEC0803509F483C0883509F494C0A4
:101A6000883489F60E94CB0ACECF883909F48AC01F
:101A700038F5883729F050F4883611F0803719F698
:101A800083E0809301041092FF0355C0883809F465
:101A900079C0803919F0803809F0B5CF8091FF0303
:101AA000803208F06FC0E091FF0381E08E0F8093D9
:101AB000FF038091BB00F0E0E152FC4F80833BC00C
:101AC000803B39F0D0F4803A09F477C0883A09F0C5
:101AD0009ACF84E0809301041092DE031092DD031C
:101AE000F0E0E0E019958091DD0381110FC081E005
:101AF0008093DD031092BD0309C0803C09F4A8CF98
:101B0000883C09F4A5CF883B09F07DCFE091DE0346
:101B100081E08E0F8093DE03F0E0E354FC4F808180
:101B20008093BB009091DE038091DD0329C08091FA
:101B300026048093BB0085EC8093BC0064CF909119
:101B4000250480912404981758F5E091250481E03C
:101B50008E0F80932504F0E0EC5FFB4F8081E9CF8E
:101B6000E091250481E08E0F809325048091BB00D5
:101B7000F0E0EC5FFB4F808390912504809124047A
:101B80009817C8F285E8D8CFE091250481E08E0F40
:101B9000809325048091BB00F0E0EC5FFB4F8083D5
:101BA0008091030481115ECF81E08093020484EA76
:101BB0008093BC001092010426CF85EC8093BC007A
:101BC000109201048091FF03803230F4E091FF0312
:101BD000F0E0E152FC4F10826091FF0370E08FED66
:101BE00093E0F0E0E0E019951092FF030CCF109223
:101BF000000438CF1F920F920FB60F9211240BB62C
:101C00000F922F933F934F935F936F937F938F9395
:101C10009F93AF93BF93EF93FF93E0913604F091BE
:101C20003704309749F0A685B7858585968D91FF55
:101C300016C09C918923B1F4FF91EF91BF91AF91B0
:101C40009F918F917F916F915F914F913F912F91D4
:101C50000F900BBE0F900FBE0F901F9018959C9188
:101C6000892351F7A389B4899C918589809589231B
:101C70008C93868997890197F1F7608D718DA68580
:101C8000B785558538E020E0CB010197F1F7822F29
:101C900090E095958795282F4C91452309F0206871
:101CA000315091F7868D81FD20958091350490E02B
:101CB00001968F73992730913404381799F0A091C9
:101CC0003504B0E0AA58BC4F2C9380933504828D24
:101CD000938D0197F1F7A389B4898C919589892B0C
:101CE0008C93AACF868D8160868FF1CFE8E3F4E0F4
:101CF0001382128248EE53E060E070E04483558323
:101D00006683778383E292E09183808325E331E0E9
:101D10003587248724E331E03787268720E331E0C5
:101D2000318B208B21E331E0338B228B22E331E0B6
:101D3000358B248B26E331E0378B268B118E128E68
:101D4000138E148EE5EDF4E01382128244835583E2
:101D5000668377839183808325ED30E03587248700
:101D600024ED30E03787268720ED30E0318B208B63
:101D700021ED30E0338B228B22ED30E0358B248B4C
:101D800026ED30E0378B268B118E128E138E148E3B
:101D9000E2E7F5E0138212824483558366837783FA
:101DA000918380832DEC30E0358724872CEC30E064
:101DB0003787268728EC30E0318B208B29EC30E008
:101DC000338B228B2AEC30E0358B248B2EEC30E0E9
:101DD000378B268B118E128E138E148EEFE0F6E069
:101DE0001382128244835583668377839183808331
:101DF00085EC90E09587848784EC90E097878687D0
:101E000080EC90E0918B808B81EC90E0938B828BC7
:101E100082EC90E0958B848B86EC90E0978B868BA0
:101E2000118E128E138E148E6FE372E086EF96E0A1
:101E30000E94700A6FE372E080EF96E00E94700AE1
:101E40006FE372E08AEE96E00E94700A43E062E07F
:101E50008BEC96E00E943F0449E06AE08CEA96E051
:101E60000C943F04CF93DF93CDB7DEB7C75FD109A2
:101E70000FB6F894DEBF0FBECDBF789484B58260F4
:101E800084BD84B5816084BD85B5826085BD85B51E
:101E9000816085BD80916E00816080936E0010929C
:101EA0008100809181008260809381008091810017
:101EB00081608093810080918000816080938000A8
:101EC0008091B10084608093B1008091B000816006
:101ED0008093B00080919100826080939100809106
:101EE0009100816080939100809190008160809347
:101EF00090008091A10082608093A1008091A10058
:101F000081608093A1008091A00081608093A000F7
:101F10008091210182608093210180912101816063
:101F20008093210180912001816080932001809124
:101F30007A00846080937A0080917A008260809336
:101F40007A0080917A00816080937A0080917A0093
:101F5000806880937A001092C10040E855E260E00A
:101F600070E08FE096E00E9479018CEA96E00E9492
:101F7000DD058BEC96E00E94DD0540E052EC61E06F
:101F800070E082E795E00E94790140E855E260E068
:101F900070E085ED94E00E94790140E855E260E050
:101FA00070E088E394E00E94790181E090E0A0E095
:101FB000B0E080933C0490933D04A0933E04B09322
:101FC0003F0450E040E06FE372E086EF96E00E944D
:101FD000450A50E040E06FE372E080EF96E00E9437
:101FE000450A60E086E30E940E041E0129E0220EED
:101FF000311C98EC892E912C8E010F5F1F4F21ED23
:10200000A22EB12CAC0EBD1E4FE1A40EB11C82E776
:1020100095E00E946D02181619060CF051C062E797
:1020200075E0CE018E509F4F0E94810A3C822B8228
:102030009E828D8218861F828BE092E09A8389832C
:10204000CE50DF4F88819981C25FD040009711F454
:102050008FE392E0CF52DF4F19830883C15DD040F8
:10206000CD52DF4F99838883C35DD040CB52DF4F81
:1020700019830883C55DD0409AE0C952DF4F988329
:10208000C75DD040CE018F529F4F0E94F907FC01DF
:1020900020813181232B09F07EC1BE016E507F4F1C
:1020A0008BEC96E00E94000ABE016E507F4F8CEAD6
:1020B00096E00E94000ACE018E509F4F0E94D509E3
:1020C00088E394E00E946D0218161906FCF469E496
:1020D00072E08BEC96E00E94EC0968E374E0C801C2
:1020E0000E94810AB80180EF96E00E949C09C80115
:1020F0000E94D50960EF76E08FE096E00E94000A2A
:1021000060EF76E08BEC96E00E94000A0E94BC0330
:102110000197A1F580912F04811130C080912E0488
:1021200081112CC06CE572E08BEC96E00E94EC090A
:102130006EE672E085ED94E00E94EC096BE772E0D8
:102140008BEC96E00E94EC0980910002882309F450
:1021500095C181E080932E0410922F0410922D04DB
:1021600010922C046CE872E085ED94E00E94EC097A
:102170006FE972E08BEC96E00E94EC098FE096E04C
:102180000E946D02181619060CF09CC06FE076E0F4
:10219000C8010E94810AB80186EF96E00E949C095E
:1021A000C8010E94D50964EE72E0C8010E94700A5D
:1021B0006090F6067090F7066114710409F46FC11F
:1021C000E090FA06F090FB06E114F104B1F08D8185
:1021D0009E81E80EF91EB701C8010E941D0A8823DE
:1021E00009F45DC129813A818D819E81B301820FFD
:1021F000931F0E945C15FE82ED82B8018BEC96E085
:102200000E94000AC8010E94D5098091FA069091A7
:10221000FB06892BD9F067EF72E08091F60690916A
:10222000F7060E945315892B89F480912E04882388
:1022300069F010922D0410922C0491E090932F04D9
:1022400061E073E08BEC96E00E94EC098091FA0665
:102250009091FB06892BE1F06BE173E08091F6062B
:102260009091F7060E945315892B91F480912F04C9
:10227000882371F010922D0410922C0410922E04D9
:1022800010922F046DE073E08BEC96E00E94EC0955
:102290008091FA069091FB06892B71F069E173E059
:1022A0008091F6069091F7060E945315892B21F430
:1022B00080912F04811100C166EF76E08CEA96E0F0
:1022C0000E94000A80912E048823C9F080912F0477
:1022D000811115C080912C0490912D040A977CF4F3
:1022E0006EE273E08BEC96E00E94EC0980912C0486
:1022F00090912D04019690932D0480932C0480914D
:102300002E048823E1F080912F04811118C0809160
:102310002C0490912D040A9791F410922E0410929F
:102320002D0410922C0467EC72E085ED94E00E947D
:10233000EC096FE373E08BEC96E00E94EC090E94DD
:10234000BC030197E1F30E94A4046B017C0184EFBC
:10235000482E55245394612C712C0E94A4046C19AE
:102360007D098E099F09683E734081059105A8F398
:10237000E1E04E1A510861087108F8EECF0EF3E063
:10238000DF1EE11CF11C411451046104710429F7A2
:102390000E9430033CCE63E472E00E94D507FC014A
:1023A000892B09F442C0848195818330910560F5C1
:1023B000019708F460C00680F781E02D309709F49A
:1023C0005AC0808161E070E0843761F18B3209F49A
:1023D0004CC08D3209F04AC0319631E070E060E0C7
:1023E000219180ED820F8A3008F042C04AE0469F7A
:1023F000C001479F900D1124622F220F770B60536D
:102400007109680F791FECCF8530910548F0059769
:1024100031F166817781808591850E94BC1202C06E
:102420006681778181E0672B09F480E08093000268
:10243000CF50DF4F1882C15FD040805DC051DF4F69
:102440008883C05FD040B5018BEC96E00E94DD0927
:1024500060E472E08BEC96E00E94DD092CCE668190
:102460007781719561957109DDCF319630E0B6CFF6
:102470003111F7CFD7CF70E060E0D4CF10922E04A7
:1024800010922D0410922C0410922F0467EC72E02D
:1024900085ED94E00E94EC0965ED72E06BCE8981D8
:1024A0009A81009711F00E94E0131A8219821E820D
:1024B0001D821C821B82A1CE10922D0410922C042E
:1024C00010922E0410922F0467EC72E085ED94E0D8
:1024D0000E94EC0963E273E08BEC96E00E94EC0949
:1024E000F1CECF93DF93C1E1D2E0D093AD06C0939C
:1024F000AC068CEA96E00E94C705D093CC06C09348
:10250000CB068BEC96E00E94C7058AEE96E00E940F
:10251000D50980EF96E00E94D50986EF96E0DF911D
:10252000CF910C94D50957FD9058440F551F59F081
:102530005F3F71F04795880F97FB991F61F09F3FB0
:1025400079F087950895121613061406551FF2CFD9
:102550004695F1DF08C0161617061806991FF1CF29
:1025600086957105610508940895E894BB27662750
:102570007727CB0197F908950E94C3126894B1118F
:102580000C94B61208950E949B1288F09F5798F001
:10259000B92F9927B751B0F0E1F0660F771F881F68
:1025A000991F1AF0BA95C9F714C0B13091F00E9482
:1025B000B512B1E008950C94B512672F782F8827D3
:1025C000B85F39F0B93FCCF3869577956795B395A9
:1025D000D9F73EF490958095709561957F4F8F4F18
:1025E0009F4F089597FB072E16F4009407D077FDB0
:1025F00009D00E94301307FC05D03EF490958195D8
:102600009F4F0895709561957F4F0895A1E21A2E0E
:10261000AA1BBB1BFD010DC0AA1FBB1FEE1FFF1F86
:10262000A217B307E407F50720F0A21BB30BE40BD6
:10263000F50B661F771F881F991F1A9469F760951D
:102640007095809590959B01AC01BD01CF010895D7
:10265000EE0FFF1F881F8BBF0790F691E02D199496
:10266000AA1BBB1B51E107C0AA1FBB1FA617B707B8
:1026700010F0A61BB70B881F991F5A95A9F78095D4
:102680009095BC01CD0108950F931F93CF93DF93D5
:102690008230910510F482E090E0E091FE06F09126
:1026A000FF0630E020E0B0E0A0E0309799F421157B
:1026B000310509F44AC0281B390B24303105D8F5FF
:1026C0008A819B816115710589F1FB019383828366
:1026D000FE0111C0408151810281138148175907C1
:1026E000E0F04817590799F4109761F012960C938F
:1026F000129713961C933296CF01DF91CF911F91C1
:102700000F9108950093FE061093FF06F4CF211554
:10271000310551F04217530738F0A901DB019A0146
:10272000BD01DF01F801C1CFEF01F9CF9093FF06A2
:102730008093FE06CDCFFE01E20FF31F81939193AC
:102740002250310939832883D7CF2091FC0630915C
:10275000FD06232B41F420910302309104023093B3
:10276000FD062093FC062091010230910202211502
:10277000310541F42DB73EB7409105025091060254
:10278000241B350BE091FC06F091FD06E217F307E0
:10279000A0F42E1B3F0B2817390778F0AC014E5FD1
:1027A0005F4F2417350748F04E0F5F1F5093FD060B
:1027B0004093FC06819391939FCFF0E0E0E09CCFA3
:1027C000CF93DF930097E9F0FC01329713821282D6
:1027D000A091FE06B091FF06ED0130E020E01097D9
:1027E000A1F420813181820F931F2091FC0630914A
:1027F000FD062817390709F061C0F093FD06E09344
:10280000FC06DF91CF910895EA01CE17DF07E8F5C6
:102810004A815B819E0141155105B1F7E901FB83B6
:10282000EA8349915991C40FD51FEC17FD0761F454
:10283000808191810296840F951FE9019983888395
:10284000828193819B838A83F0E0E0E012968D91F0
:102850009C9113970097B9F52D913C911197CD015B
:102860000296820F931F2091FC063091FD062817D7
:10287000390739F6309751F51092FF061092FE068F
:10288000B093FD06A093FC06BCCFD383C2834081E6
:102890005181840F951FC817D90761F44E5F5F4FB0
:1028A00088819981480F591F518340838A819B8178
:1028B000938382832115310509F0B0CFF093FF0691
:1028C000E093FE069ECFFD01DC01C0CF1382128291
:1028D000D7CF4F925F926F927F928F929F92AF92DB
:1028E000BF92CF92DF92EF92FF920F931F93CF93FD
:1028F000DF938C01009799F4CB01DF91CF911F9169
:102900000F91FF90EF90DF90CF90BF90AF909F908E
:102910008F907F906F905F904F900C944413FC01C8
:10292000E60FF71F9C0122503109E217F30708F464
:10293000AEC0D901CD91DC911197C617D70720F110
:10294000C530D10578F0CE0104978617970750F06F
:10295000C61BD70B2297C193D1936D937C93CF0164
:102960000E94E013C801DF91CF911F910F91FF905A
:10297000EF90DF90CF90BF90AF909F908F907F901F
:102980006F905F904F9008955B01AC1ABD0A4C01A7
:102990008C0E9D1EA091FE06B091FF06512C412C7D
:1029A000F12CE12C109731F58091FC069091FD06F9
:1029B0008815990509F05CC04616570608F058C0FE
:1029C0008091010290910202009741F48DB79EB769
:1029D0004091050250910602841B950BE817F907F8
:1029E00008F055C0F093FD06E093FC06F9017183F1
:1029F0006083B8CF8D919C91119712966C9012972D
:102A000013967C901397A815B90559F56C0142E00F
:102A1000C40ED11CCA14DB0420F1AC014A195B09B5
:102A2000DA011296159780F0628273825183408397
:102A3000D9016D937C93E114F10471F0D7011396E1
:102A4000FC93EE9312978ECF22968C0F9D1FF90167
:102A500091838083F301EFCFF093FF06E093FE06AE
:102A600081CF4816590608F42C017D01D3019ACF75
:102A7000CB010E9444137C01009749F0AE01B801DC
:102A80000E944A15C8010E94E01387016BCF10E035
:102A900000E068CFFB01DC0102C001900D924150C3
:102AA0005040D8F70895FB01DC018D910190801909
:102AB0000110D9F3990B0895FB01DC0101900D92EF
:102AC0000020E1F7089511E0C5E4D1E000E006C080
:102AD000802FFE010E9428132196011DC634D107C4
:102AE00080E00807A9F7F894FFCF010000000780F5
:102AF00000000000008E07000000003205BE0187C4
:102B000006F0048E05A6051A0500000000C302BEEB
:102B100001040210036D0213025F0222225C5C6258
:102B200008660C6E0A720D7409000D0A00636C6F62
:102B3000736500696D6167652070617274206865F6
:102B40007265202120007374617274206361707457
:102B5000757265202E2E2E0073746172746361701D
:102B600074757265006361707475726520646F6E50
:102B700065202E2E2E0073656E64496D6167654277
:102B80006C7565746F6F7468007374617274207310
:102B9000656E64696E6720696D6167652077697429
:102BA0006820626C7565746F6F7468202E2E2E20FD
:102BB0000073656E64496D61676557696669007386
:102BC000656E742077697468207769666900416E64
:102BD00064726F696420436F6D6D616E64203A208A
:102BE0000073746172742061636B0073746172743A
:102BF00074747474747400646F726F6F6F6F6F6F3E
:102C0000737400756E737563636573730071616CC3
:102C10006161616161617400626C7565746F6F748C
:102C200068206E6F74206F6B00626C7565746F6FD7
:102C30007468206661696C65642021206E6F77205E
:082C400077696669202100009C
:10E000000D9489F10D94B2F10D94B2F10D94B2F129
:10E010000D94B2F10D94B2F10D94B2F10D94B2F1F0
:10E020000D94B2F10D94B2F10D94B2F10D94B2F1E0
:10E030000D94B2F10D94B2F10D94B2F10D94B2F1D0
:10E040000D94B2F10D94B2F10D94B2F10D94B2F1C0
:10E050000D94B2F10D94B2F10D94B2F10D94B2F1B0
:10E060000D94B2F10D94B2F10D94B2F10D94B2F1A0
:10E070000D94B2F10D94B2F10D94B2F10D94B2F190
:10E080000D94B2F10D94B2F10D94B2F10D94B2F180
:10E090000D94B2F10D94B2F10D94B2F10D94B2F170
:10E0A0000D94B2F10D94B2F10D94B2F10D94B2F160
:10E0B0000D94B2F10D94B2F10D94B2F10D94B2F150
:10E0C0000D94B2F10D94B2F10D94B2F10D94B2F140
:10E0D0000D94B2F10D94B2F10D94B2F10D94B2F130
:10E0E0000D94B2F141546D656761323536300041AF
:10E0F000726475696E6F206578706C6F72657220DE
:10E1000073746B3530305632206279204D4C530099
:10E11000426F6F746C6F616465723E004875683F52
:10E1200000436F6D70696C6564206F6E203D200048
:10E130004350552054797065202020203D20005FF9
:10E140005F4156525F415243485F5F3D2000415658
:10E1500052204C696243205665723D20004743437C
:10E160002056657273696F6E203D20004350552024
:10E1700049442020202020203D20004C6F7720663D
:10E18000757365202020203D20004869676820665F
:10E190007573652020203D200045787420667573D6
:10E1A00065202020203D20004C6F636B2066757336
:10E1B000652020203D20004D617220203720323024
:10E1C000313300312E362E3800342E332E350056A2
:10E1D00023202020414444522020206F7020636F70
:10E1E00064652020202020696E73747275637469E1
:10E1F0006F6E2061646472202020496E74657272B3
:10E20000757074006E6F20766563746F7200726A49
:10E210006D702020006A6D70200057686174207056
:10E220006F72743A00506F7274206E6F7420737541
:10E2300070706F72746564004D7573742062652030
:10E2400061206C6574746572002000577269747483
:10E25000696E672045450052656164696E672045B7
:10E26000450045452065727220636E743D00504F35
:10E27000525400303D5A65726F2061646472003FF1
:10E280003D43505520737461747300403D454550C3
:10E29000524F4D207465737400423D426C696E6B41
:10E2A000204C454400453D44756D70204545505215
:10E2B0004F4D00463D44756D7020464C415348001B
:10E2C000483D48656C70004C3D4C69737420492F83
:10E2D0004F20506F72747300513D51756974005234
:10E2E0003D44756D702052414D00563D73686F7707
:10E2F00020696E7465727275707420566563746FF0
:10E30000727300593D506F727420626C696E6B00BD
:10E310002A0011241FBECFEFD1E2DEBFCDBF01E046
:10E320000CBF12E0A0E0B2E0EEE1FDEF03E00BBFB6
:10E3300002C007900D92A030B107D9F712E0A0E01B
:10E34000B2E001C01D92AE30B107E1F70F9460F367
:10E350000D948DFE01E20EBF0FEF0DBF11241FBE05
:10E360000D9460F30D9400F020E030E040ED57E0B4
:10E3700005C0FA013197F1F72F5F3F4F2817390792
:10E38000C0F308959C01260F311DC901A0E0B0E043
:10E390002F5F3F4FABBFFC018791882361F08093D3
:10E3A000C6008091C00086FFFCCF8091C0008064D1
:10E3B0008093C000EACF08958DE08093C6008091DD
:10E3C000C00086FFFCCF8091C00080648093C000B5
:10E3D0008AE08093C6008091C00086FFFCCF8091C8
:10E3E000C00080648093C00008950F94C2F10F9420
:10E3F000DCF10895FC019081992359F09093C600B7
:10E400008091C00086FFFCCF8091C0008064809323
:10E41000C0003196992379F70895282F982F929567
:10E420009F70892F805D8A3308F0895F8093C600D2
:10E430008091C00086FFFCCF8091C00080648093F3
:10E44000C000822F8F70982F905D9A3308F0995FEB
:10E450009093C6008091C00086FFFCCF8091C000E1
:10E4600080648093C00008959C01FB01853691056E
:10E470001CF46330710594F0C90164E670E00F94F8
:10E480002EFE605D7F4F6093C6008091C00086FFC6
:10E49000FCCF8091C00080648093C0002B30310598
:10E4A00014F43297B4F0C90164E670E00F942EFEC4
:10E4B0006AE070E00F942EFE605D7F4F6093C600AF
:10E4C0008091C00086FFFCCF8091C0008064809363
:10E4D000C000C9016AE070E00F942EFEC0968093E0
:10E4E000C6008091C00086FFFCCF8091C000806490
:10E4F0008093C00008951F93182F8EE692EE60E07F
:10E500000F94C2F11093C6008091C00086FFFCCF2B
:10E510008091C00080648093C0000F94DCF11F9153
:10E5200008952F923F924F925F926F927F928F92B7
:10E530009F92AF92BF92CF92DF92EF92FF920F9392
:10E540001F93DF93CF93CDB7DEB762970FB6F894E2
:10E55000DEBF0FBECDBF382E622ECA01DB015C01CB
:10E560006D01772420E2222E2E010894411C511CBB
:10E570008BC081E0A81680E0B80681E0C80680E084
:10E58000D80628F0C601AA27BB270F940DF2BB2797
:10E59000AD2D9C2D8B2D0F940DF28A2D0F940DF225
:10E5A0002092C6008091C00086FFFCCF8091C00001
:10E5B00080648093C0009DE29093C6008091C0006B
:10E5C00086FFFCCF8091C00080648093C0002092C1
:10E5D000C6008091C00086FFFCCF8091C00080649F
:10E5E0008093C00019828601750188249924A1E0D6
:10E5F0003A1651F03A1620F0B2E03B1661F409C029
:10E600000BBFF701779007C0C7010F9477FE782EF4
:10E6100002C0F7017080872D0F940DF22092C60082
:10E620008091C00086FFFCCF8091C0008064809301
:10E63000C000872D8052F401EF70F0708F3520F408
:10E64000E40DF51D708204C0E40DF51D8EE280839B
:10E650000894E11CF11C011D111D0894811C911CE2
:10E6600090E18916910409F0C2CF80E190E0A0E02A
:10E67000B0E0A80EB91ECA1EDB1E198AC2010F9493
:10E68000FAF10F94DCF16A94662009F072CF629679
:10E690000FB6F894DEBF0FBECDBFCF91DF911F91B3
:10E6A0000F91FF90EF90DF90CF90BF90AF909F9031
:10E6B0008F907F906F905F904F903F902F90089534
:10E6C0002F923F924F925F926F927F928F929F9282
:10E6D000AF92BF92CF92DF92EF92FF920F931F9370
:10E6E000DF93CF93CDB7DEB7CD53D1400FB6F894BB
:10E6F000DEBF0FBECDBF01E20EBF0FEF0DBF94B75F
:10E70000F894A89514BE80916000886180936000A1
:10E7100010926000789493FF05C0E0910002F091A0
:10E7200001021995279A2F9A8091C00082608093E8
:10E73000C00080E18093C40088E18093C1000000A4
:10E74000EE24FF24870144E0A42EB12CCC24DD2448
:10E7500024C0C5010197F1F70894E11CF11C011DCB
:10E76000111D21E2E2162EE4F20620E0020720E06D
:10E77000120718F031E0C32ED12CC801B70127ECE5
:10E780003BE140E050E00F9441FE611571058105C9
:10E79000910519F485B1805885B98091C00087FD35
:10E7A00003C0C114D104A9F2A6014F5F5F4FC25E3E
:10E7B000DE4F59834883CE51D140C25EDE4F8881FF
:10E7C0009981CE51D140019711F00D9410FEC05D9A
:10E7D000DE4F19821882C053D14060E0C15DDE4F28
:10E7E0001882CF52D14088249924C35DDE4F19820C
:10E7F0001882CD52D140C05EDE4F188219821A8233
:10E800001B82C052D140CE5CDE4F188219821A8220
:10E810001B82C253D140EE24FF2487010BBFF701B6
:10E8200007911691C45CDE4F19830883CC53D14005
:10E830000D940BFEC25EDE4F28813981CE51D1404E
:10E840002130310509F52091C600C25EDE4F1982E4
:10E850001882CE51D14022C02F5F3F4F4F4F5F4FA4
:10E86000213082E138078AE7480780E0580780F0C6
:10E87000C45CDE4FE881F981CC53D140EF5FFF4F9C
:10E8800019F0EE27FF27099420E030E040E050E047
:10E890008091C00087FFE0CF2091C600C35DDE4FAE
:10E8A00048815981CD52D1404F5F5F4FC35DDE4FEC
:10E8B00059834883CD52D140213209F063C64A3092
:10E8C000510508F05FC60894811C911C53E0851621
:10E8D000910409F059C600E010E018C081E280936D
:10E8E000C6008091C00086FFFCCF8091C00080648C
:10E8F0008093C0002F5F3F4F2931310579F70F9486
:10E90000DCF10F5F1F4F0530110519F020E030E0FA
:10E91000E5CF10920A0210920B0210920C02109294
:10E920000D02109206021092070210920802109235
:10E930000902109202021092030210920402109235
:10E9400005028FEE90EE60E00F94F5F180E191EE1C
:10E9500060E00F94C2F18091C00087FFFCCF9091DE
:10E96000C600903608F09F759032B8F09093C600BC
:10E970008091C00086FFFCCF8091C00080648093AE
:10E98000C000A0E2A093C6008091C00086FFFCCF2B
:10E990008091C00080648093C000983409F4D7C18E
:10E9A0009934B8F4923409F459C1933458F490333B
:10E9B00019F1903308F4E3C59F33A1F1903409F0C5
:10E9C000DEC5BDC0953409F470C1963409F0D7C5D1
:10E9D00098C1923509F42BC2933538F49C3409F46C
:10E9E000F5C1913509F0CBC518C2963509F445C279
:10E9F000993509F0C4C567C483E792EE62E00F94CD
:10EA0000F5F110920602109207021092080210927D
:10EA1000090210920A0210920B0210920C0210923C
:10EA20000D0213C18FE792EE62E00F94F5F18FEEC5
:10EA300090EE60E00F94F5F181E291EE60E00F94CA
:10EA4000C2F187EB91EE60E00F94F5F180E391EE77
:10EA500060E00F94C2F184EE90EE60E00F94F5F167
:10EA60008FE391EE60E00F94C2F186E090E061E008
:10EA700070E00F9434F20F94DCF18DE591EE60E0DC
:10EA80000F94C2F189EC91EE60E00F94F5F18EE401
:10EA900091EE60E00F94C2F183EC91EE60E00F9490
:10EAA000F5F18CE691EE60E00F94C2F18EE10F94E7
:10EAB0000DF288E90F940DF281E00F940DF20F949E
:10EAC000DCF18BE791EE60E00F94C2F119E0E0E039
:10EAD000F0E010935700E4918E2F0F940DF20F94F5
:10EAE000DCF18AE891EE60E00F94C2F1E3E0F0E03F
:10EAF00010935700E4918E2F0F940DF20F94DCF1D8
:10EB000089E991EE60E00F94C2F1E2E0F0E0109349
:10EB10005700E4918E2F0F940DF20F94DCF188EAE8
:10EB200091EE60E00F94C2F1E1E0F0E01093570045
:10EB30001491812F0F940DF20F94DCF107CF8BE825
:10EB400092EE62E00F94F5F18BE492EE60E00F94A8
:10EB5000F5F10F94DCF100E010E019C0C8016F2D51
:10EB60000F947FFEFF2031F489E492EE60E00F9471
:10EB7000C2F10BC0F092C6008091C00086FFFCCFAE
:10EB80008091C00080648093C0000F5F1F4FC80158
:10EB900081519F41A0E0B0E0ABBFFC01F790BAE229
:10EBA000FB1621F0E2E000301E07C1F60F94DCF105
:10EBB0000F94DCF187E592EE60E00F94F5F10F948D
:10EBC000DCF1CC24DD2400E010E01EC0C8010F946D
:10EBD00077FEF82E882331F489E492EE60E00F94FA
:10EBE000C2F10BC08093C6008091C00086FFFCCFAD
:10EBF0008091C00080648093C000FE1419F00894D6
:10EC0000C11CD11C0F5F1F4FC80181519F41A0E063
:10EC1000B0E0ABBFFC01E790FAE2EF1621F022E092
:10EC20000030120799F60F94DCF10F94DCF182E6C4
:10EC300092EE60E00F94C2F1C60161E070E00F94C3
:10EC400034F20F94DCF10F94DCF110920202109276
:10EC50000302109204021092050278CE89E992EE26
:10EC600062E00F94F5F1279A2F9A16C02F9880E052
:10EC700090E0E0EDF7E03197F1F7019684369105E9
:10EC8000C1F72F9A80E090E0E0EDF7E03197F1F7DF
:10EC9000019684369105C1F78091C00087FFE6CFC9
:10ECA0008091C00087FFFCCF64C485EA92EE62E0E9
:10ECB0000F94F5F140910202509103026091040219
:10ECC0007091050281E020E10F9491F2809102029F
:10ECD00090910302A0910402B091050280509F4FD1
:10ECE000AF4FBF4F8093020290930302A0930402A0
:10ECF000B093050280509041A040B04008F426CE69
:10ED0000A4CF83EB92EE62E00F94F5F140910602FE
:10ED100050910702609108027091090280E020E1A1
:10ED20000F9491F28091060290910702A09108023F
:10ED3000B091090280509F4FAF4FBF4F80930602A2
:10ED400090930702A0930802B0930902FFCD80ECD4
:10ED500092EE62E00F94F5F183E792EE60E00F949B
:10ED6000F5F18FE792EE60E00F94F5F18BE892EE0B
:10ED700060E00F94F5F189E992EE60E00F94F5F10F
:10ED800085EA92EE60E00F94F5F183EB92EE60E09D
:10ED90000F94F5F180EC92EE60E00F94F5F187ECC2
:10EDA00092EE60E00F94F5F188ED92EE60E00F9442
:10EDB000F5F18FED92EE60E00F94F5F18AEE92EEB0
:10EDC00060E00F94F5F183E093EEBDCD87EC92EE19
:10EDD00062E00F94F5F181E40F947BF282E40F94EA
:10EDE0007BF283E40F947BF284E40F947BF285E45E
:10EDF0000F947BF286E40F947BF287E40F947BF20E
:10EE000088E40F947BF28AE40F947BF28BE40F94F6
:10EE10007BF28CE40F947BF299CD88ED92EE62E068
:10EE20000F94F5F1772473948824992409C48FED05
:10EE300092EE62E00F94F5F140910A0250910B02BC
:10EE400060910C0270910D0282E020E10F9491F22A
:10EE500080910A0290910B02A0910C02B0910D02D8
:10EE600080509F4FAF4FBF4F80930A0290930B0289
:10EE7000A0930C02B0930D0269CD8AEE92EE62E08F
:10EE80000F94F5F184EE90EE60E00F94F5F18FECC5
:10EE900091EE60E00F94F5F1662477244301CC5D98
:10EEA000DE4F19821882C452D140D401C301B695F5
:10EEB000A79597958795CA5DDE4F88839983AA8326
:10EEC000BB83C652D140CC5DDE4FA881B981C4520C
:10EED000D1401196CC5DDE4FB983A883C452D14096
:10EEE000CD0162E070E00F9434F2B0E2B093C6005E
:10EEF0008091C00086FFFCCF8091C0008064809329
:10EF0000C000EDE2E093C6008091C00086FFFCCF18
:10EF10008091C00080648093C000F0E2F093C6004E
:10EF20008091C00086FFFCCF8091C00080648093F8
:10EF3000C000CA5DDE4FE880F9800A811B81C6529D
:10EF4000D140BB27A12F902F8F2D0F940DF2CA5DBA
:10EF5000DE4F8881C652D1400F940DF2B0E2FB2EF5
:10EF6000F092C6008091C00086FFFCCF8091C00067
:10EF700080648093C0000DE30093C6008091C000C0
:10EF800086FFFCCF8091C00080648093C00010E2B7
:10EF90001093C6008091C00086FFFCCF8091C00016
:10EFA00080648093C0008BBEF3012791C65DDE4F65
:10EFB0002883CA52D140A22EBB24CC24DD2408943D
:10EFC000611C711C811C911C8BBEF3018791282E42
:10EFD0003324442455240894611C711C811C911C09
:10EFE0008BBEF3013791C55DDE4F3883CB52D140E4
:10EFF0000894611C711C811C911C8BBEF30147910C
:10F00000C45DDE4F4883CC52D140ADEFEA2EAFEF66
:10F01000FA2EAFEF0A2FAFEF1A2F6E0C7F1C801E57
:10F02000911E142D032DF22CEE24EA0CFB1C0C1D5A
:10F030001D1D0F940DF220E22093C6008091C000A8
:10F0400086FFFCCF8091C00080648093C000C65DC5
:10F05000DE4F8881CA52D1400F940DF230E23093D6
:10F06000C6008091C00086FFFCCF8091C000806404
:10F070008093C000C45DDE4F8881CC52D1400F9494
:10F080000DF240E24093C6008091C00086FFFCCFA5
:10F090008091C00080648093C000C55DDE4F888190
:10F0A000CB52D1400F940DF250E25093C6008091A4
:10F0B000C00086FFFCCF8091C00080648093C000B8
:10F0C0008FEFE8168FEFF80680E0080780E018075A
:10F0D00031F484E092EE60E00F94C2F1DFC0D80119
:10F0E000C7018070907CA070B0708050904CA040A0
:10F0F000B040D1F52FEF3FE340E050E0E222F322B1
:10F1000004231523CA5DDE4FA880B980CA80DB8046
:10F11000C652D140AE0CBF1CC01ED11EAA0CBB1CD7
:10F12000CC1CDD1C8EE092EE60E00F94C2F1BB2798
:10F13000A12F902F8F2D0F940DF28E2D0F940DF285
:10F1400030E23093C6008091C00086FFFCCF8091F2
:10F15000C00080648093C0004EE34093C60080915D
:10F16000C00086FFFCCF87C08EE09EEFA0E0B0E03D
:10F17000E822F9220A231B239CE0E91694E9F90608
:10F1800090E0090790E0190709F088C0C45DDE4FE0
:10F19000A881CC52D140EA2EFF2400E010E0102FCD
:10F1A0000F2DFE2CEE24C55DDE4FB881CB52D14031
:10F1B000EB0EF11C011D111DD601C501817090706F
:10F1C000A070B070DC0199278827E80EF91E0A1F8D
:10F1D0001B1F20EF30E040E050E0A222B322C42207
:10F1E000D52241E1AA0CBB1CCC1CDD1C4A95D1F7F1
:10F1F000EA0CFB1C0C1D1D1D81E090E0A0E0B0E0BE
:10F20000282239224A225B2235E1220C331C441C7D
:10F21000551C3A95D1F7E20CF31C041D151D57013E
:10F220006801AA0CBB1CCC1CDD1C85E192EE60E0E1
:10F230000F94C2F1C801AA27BB270F940DF2BB2778
:10F24000A12F902F8F2D0F940DF28E2D0F940DF274
:10F2500090E29093C6008091C00086FFFCCF809121
:10F26000C00080648093C000AEE3A093C60080918C
:10F27000C00086FFFCCF8091C00080648093C000F6
:10F28000C601AA27BB270F940DF2BB27AD2D9C2DDD
:10F290008B2D0F940DF28A2D0F940DF20F94DCF14B
:10F2A000CC5DDE4FE881F981C452D140F99709F471
:10F2B0004DCBF4E0EF2EF12C012D112D6E0C7F1CA7
:10F2C000801E911EF2CD83E093EE62E00F94F5F183
:10F2D0008AE192EE60E00F94C2F18091C00087FF56
:10F2E000FCCF1091C6001F751093C6008091C0001E
:10F2F00086FFFCCF8091C00080648093C0000F9493
:10F30000DCF1812F81548A3108F036C1163409F4BA
:10F3100095C0173490F4133409F44EC0143430F40B
:10F320001134F1F0123409F01DC130C0143409F465
:10F3300059C0153409F016C16BC01A3409F4C4C0A1
:10F340001B3438F4173409F48FC0183409F00AC19B
:10F35000A1C01B3409F4D2C01C3409F003C1E8C0B9
:10F360008FEF81B90DC082B1809582B980E090E0C5
:10F37000E0EDF7E03197F1F70196883C9105C1F790
:10F380008091C00087FFEFCF12B8EFC08FEF84B934
:10F390000DC085B1809585B980E090E0E0EDF7E0A3
:10F3A0003197F1F70196883C9105C1F78091C00033
:10F3B00087FFEFCF15B8D9C08FEF87B90DC088B1DF
:10F3C000809588B980E090E0E0EDF7E03197F1F7C3
:10F3D0000196883C9105C1F78091C00087FFEFCF6F
:10F3E00018B8C3C08FEF8AB90DC08BB180958BB9A7
:10F3F00080E090E0E0EDF7E03197F1F70196883C8E
:10F400009105C1F78091C00087FFEFCF1BB8ADC059
:10F410008FEF8DB90DC08EB180958EB980E090E0F0
:10F42000E0EDF7E03197F1F70196883C9105C1F7DF
:10F430008091C00087FFEFCF1EB897C08FEF80BBD1
:10F440000DC081B3809581BB80E090E0E0EDF7E0F6
:10F450003197F1F70196883C9105C1F78091C00082
:10F4600087FFEFCF11BA81C08FEF83BB0DC084B38C
:10F47000809584BB80E090E0E0EDF7E03197F1F714
:10F480000196883C9105C1F78091C00087FFEFCFBE
:10F4900014BA6BC08FEF809301010FC080910201FD
:10F4A00080958093020180E090E0E0EDF7E03197F5
:10F4B000F1F70196883C9105C1F78091C00087FF64
:10F4C000EDCF1092020151C08FEF809304010FC065
:10F4D0008091050180958093050180E090E0E0ED4A
:10F4E000F7E03197F1F70196883C9105C1F78091DB
:10F4F000C00087FFEDCF1092050137C08FEF8093DA
:10F5000007010FC08091080180958093080180E079
:10F5100090E0E0EDF7E03197F1F70196883C910536
:10F52000C1F78091C00087FFEDCF109208011DC088
:10F530008FEF80930A010FC080910B01809580931B
:10F540000B0180E090E0E0EDF7E03197F1F70196F4
:10F55000883C9105C1F78091C00087FFEDCF1092E4
:10F560000B0103C085E292EEEEC98091C00087FFD7
:10F57000FCCF8091C600EAC988E392EEE4C98CE131
:10F5800091EEE1C988249924933011F1943028F444
:10F59000913089F09230B8F408C0953061F195301F
:10F5A000F0F0963009F048C043C02B3109F042C951
:10F5B00091E06BE13FC96227C15DDE4F2883CF52E6
:10F5C000D14092E037C9B22FA0E0622793E032C960
:10F5D000822F90E0A82BB92B622794E02BC92E3004
:10F5E00009F039C3622795E0C05DDE4F19821882A9
:10F5F000C053D1401FC9E1E0F0E0EC0FFD1FC05D3A
:10F60000DE4F08811981C053D140E00FF11F2083E4
:10F610000F5F1F4FC05DDE4F19830883C053D14079
:10F6200062270A171B0709F005C9D80196E002C92D
:10F63000261709F010C303C0973009F0FBC87724E0
:10F640009981933109F412C19431C8F4963009F4C8
:10F65000D8C0973050F4923009F406C1933009F4C1
:10F660006DC0913009F059C253C0913109F477C08F
:10F67000923108F0BBC0903109F04FC2F5C098310B
:10F6800009F487C0993150F4953109F4EFC09531F0
:10F6900008F4C6C1963109F040C2C2C19A3109F4DA
:10F6A0006CC09A3108F491C09B3109F45BC09D3164
:10F6B00009F033C29D81903359F48F81882311F46E
:10F6C0009EE11CC0813011F091E018C098E916C08D
:10F6D000892F807591F0903539F4E0E0F0E089E011
:10F6E0008093570094910AC0983539F4E3E0F0E034
:10F6F00089E080935700949101C090E01A821B82A8
:10F700008D818C831D829E831F8227E030E009C299
:10F710001A8288E08B8381E48C8386E58D8382E581
:10F720008E8389E48F8383E5888780E589878FE5E9
:10F730008A8782E38B872BE030E0F3C18A818139AD
:10F7400041F0823941F0803911F48FE005C080E04A
:10F7500003C082E001C08AE01A828B8344C0772410
:10F76000739482C08D81882311F48EE12CC0813086
:10F7700011F081E028C088E926C01A82E1E0F0E0BB
:10F7800089E08093570084918B831C8224E030E0D1
:10F79000C8C18B81803589F48C81883039F4E2E0EE
:10F7A000F0E089E08093570084910DC0E0E0F0E044
:10F7B00089E080935700849106C0E3E0F0E089E09F
:10F7C0008093570084911A82DFCF8D81836C99E0FA
:10F7D000E1E0F0E0082E90935700E89507B600FCB2
:10F7E000FDCF1A821B8223E030E09BC180EC8A832C
:10F7F000CE5CDE4F188219821A821B82C253D1401E
:10F800008EC18A8190E0A0E0B0E0582F44273327D2
:10F8100022278B8190E0A0E0B0E0DC0199278827C7
:10F82000282B392B4A2B5B2B8D8190E0A0E0B0E098
:10F83000282B392B4A2B5B2B8C8190E0A0E0B0E089
:10F84000BA2FA92F982F8827282B392B4A2B5B2BCF
:10F85000220F331F441F551FC05EDE4F288339839C
:10F860004A835B83C052D1401A8259C13A81C95C34
:10F87000DE4F3883C753D140CA5CDE4F1882C6536F
:10F88000D1408B81C82EDD24CA5CDE4F488159816E
:10F89000C653D140C42AD52A933109F082C0CE5C28
:10F8A000DE4F88819981AA81BB81C253D1408050AB
:10F8B000904CA340B04030F583E0CE5CDE4FE88052
:10F8C000F9800A811B81C253D140F70100935B008C
:10F8D00080935700E89507B600FCFDCFCE5CDE4F65
:10F8E000088119812A813B81C253D14000501F4FAA
:10F8F0002F4F3F4FCE5CDE4F088319832A833B8313
:10F90000C253D140C05EDE4F488159816A817B81FC
:10F91000C052D140DE011B9631E08C9111962C91A2
:10F9200011971296C75CDE4F2883C953D140C85C3B
:10F93000DE4F1882C853D14090E0C85CDE4FE881AA
:10F94000F981C853D1408E2B9F2B0C01FA01609393
:10F950005B0030935700E89511244E5F5F4F6F4F67
:10F960007F4F0EEFE02E0FEFF02ECE0CDF1CC114F8
:10F97000D10499F685E0C05EDE4F088119812A81A5
:10F980003B81C052D140F80120935B008093570027
:10F99000E89507B600FCFDCF81E180935700E8951C
:10F9A00035C0C05EDE4F88819981AA81BB81C0527B
:10F9B000D140B695A795979587957C018601ABE0D8
:10F9C000AA2EB12CAC0EBD1E0BC0D5016D915D01F0
:10F9D000C7010F947FFE0894E11CF11C01501040F8
:10F9E0000115110591F7A60160E070E0440F551F65
:10F9F000661F771FC05EDE4FE880F9800A811B8199
:10FA0000C052D1404E0D5F1D601F711F1A82C05E33
:10FA1000DE4F488359836A837B83C052D1407FC0C5
:10FA2000FA80C55CDE4FF882CB53D140C65CDE4F16
:10FA30001882CA53D1408B81C82EDD24C65CDE4FAC
:10FA400008811981CA53D140C02AD12A1A828981DA
:10FA5000BE016D5F7F4F843121F59601C05EDE4FA0
:10FA6000E880F9800A811B81C052D1400BBFF701A9
:10FA700087919691DB018C9311969C936E5F7F4FDB
:10FA8000D801C7010296A11DB11DC05EDE4F88835B
:10FA90009983AA83BB83C052D14022503040F1F6F3
:10FAA00036C0C05EDE4F288139814A815B81C052F9
:10FAB000D1400894C108D108760100E010E0089414
:10FAC000C11CD11C0894E11CF11C011D111DE20E8A
:10FAD000F31E041F151F21BDBB27A52F942F832FB5
:10FAE00082BD2F5F3F4F4F4F5F4FF89A80B5DB01CC
:10FAF0008D93BD012E153F054007510761F7C05E8C
:10FB0000DE4F288339834A835B83C052D1409601FC
:10FB10002D5F3F4FFB01108204C080EC8A8322E0FE
:10FB200030E08BE18093C6008091C00086FFFCCF5F
:10FB30008091C00080648093C000C15DDE4FF88179
:10FB4000CF52D140F093C6008091C00086FFFCCF19
:10FB50008091C00080648093C000432F3093C60022
:10FB60008091C00086FFFCCF8091C00080648093AC
:10FB7000C000922F2093C6008091C00086FFFCCF6A
:10FB80008091C00080648093C0008EE08093C600A6
:10FB90008091C00086FFFCCF8091C000806480937C
:10FBA000C00065E1C15DDE4FE880CF52D1406E25D7
:10FBB00069276427FE01319610C090819093C6009A
:10FBC0008091C00086FFFCCF31968091C000806498
:10FBD0008093C0006927215030402115310569F715
:10FBE0006093C6008091C00086FFFCCF8091C0006A
:10FBF00080648093C00085B1805885B9772081F4F6
:10FC0000C15DDE4F0881CF52D1400F5FC15DDE4F35
:10FC10000883CF52D14090E0A0E0B0E00D941AF4F8
:10FC200027982F9880E090E020ED37E0F901319798
:10FC3000F1F7019684369105C9F700008091C00064
:10FC40008D7F8093C00081E180935700E895EE2777
:10FC5000FF270994FFCF90E00D941AF497FB092E2B
:10FC600007260AD077FD04D02ED006D000201AF443
:10FC7000709561957F4F0895F6F7909581959F4F08
:10FC80000895A1E21A2EAA1BBB1BFD010DC0AA1FDD
:10FC9000BB1FEE1FFF1FA217B307E407F50720F0F5
:10FCA000A21BB30BE40BF50B661F771F881F991F70
:10FCB0001A9469F760957095809590959B01AC01B9
:10FCC000BD01CF010895AA1BBB1B51E107C0AA1FAC
:10FCD000BB1FA617B70710F0A61BB70B881F991FED
:10FCE0005A95A9F780959095BC01CD010895F99991
:10FCF000FECF92BD81BDF89A992780B50895262F31
:10FD0000F999FECF1FBA92BD81BD20BD0FB6F89400
:0EFD1000FA9AF99A0FBE01960895F894FFCF63
:00000001FF
