:020000040000FA
:100000000C9463000C948B000C948B000C94140CD7
:100010000C94140C0C94140C0C948B000C948B000A
:100020000C948B000C948B000C948B000C948B0024
:100030000C948B000C948B000C948B000C948B0014
:100040000C94AB0A0C948B000C94790A0C94530A10
:100050000C948B000C948B000C948B000C948B00F4
:100060000C94F50A0C948B0000000000240027007B
:100070002A0000000008000201000003040700003D
:1000800000000000000000000000230026002900FE
:1000900000000000250028002B00040404040404D0
:1000A0000404020202020202030303030303010227
:1000B00004081020408001020408102001020408F6
:1000C00010208C0CF20E11241FBECFEFD8E0DEBF43
:1000D000CDBF23E0A0EEB1E001C01D92AF3FB2075B
:1000E000E1F711E0A0E0B1E0E2E5F4E202C0059042
:1000F0000D92A03EB107D9F710E0C2E6D0E004C0EF
:100100002197FE010E941B10C136D107C9F70E943A
:10011000E80C0C941C120C94000008950895CF93E1
:10012000DF93AC01E091D902F091DA023097F1F05F
:100130009091D8028091D7029817C0F090E0292FB3
:1001400030E02617370754F4D901A45CBD4F240FC3
:10015000351FE90128812C939F5FF1CF1092D802BF
:100160006093D702CB01DF91CF910994DF91CF91BA
:100170000895AF92BF92CF92DF92EF92FF920F93CA
:100180001F93CF93DF936C017B018B01040F151F2D
:10019000EB015E01AE18BF08C017D10759F0699195
:1001A000D601ED91FC910190F081E02DC6010995F9
:1001B000892B79F7C501DF91CF911F910F91FF90A6
:1001C000EF90DF90CF90BF90AF900895FC01538DDA
:1001D000448D252F30E0842F90E0821B930B541721
:1001E00010F0CF96089501970895FC01918D828DAE
:1001F000981761F0A28DAE0FBF2FB11D5D968C9147
:10020000928D9F5F9F73928F90E008958FEF9FEF85
:1002100008952FB7F8948091DF029091E002A091A9
:10022000E102B091E2022FBF8093EB029093EC02C7
:10023000A093ED02B093EE0283EE92E00E94F500EF
:1002400097FF26C02FB7F8948091DF029091E002CB
:10025000A091E102B091E2022FBF4091EB025091D8
:10026000EC026091ED027091EE02841B950BA60BDF
:10027000B70B4091E7025091E8026091E90270915A
:10028000EA0284179507A607B707B0F28FEF9FEF32
:100290000895FC01918D828D981731F0828DE80FC1
:1002A000F11D858D90E008958FEF9FEF0895FC017B
:1002B000918D228D892F90E0805C9F4F821B910948
:1002C0008F739927089583EE92E00E94570121E0F1
:1002D000892B09F420E0822F089580E090E0892B9B
:1002E00029F00E94630181110C9400000895FC0123
:1002F000A48DA80FB92FB11DA35ABF4F2C91848D87
:1003000090E001968F739927848FA689B7892C93E3
:10031000A089B1898C91837080648C93938D848D36
:10032000981306C00288F389E02D80818F7D808339
:100330000895EF92FF920F931F93CF93DF93EC01F9
:1003400081E0888F9B8D8C8D98131AC0E889F9897C
:10035000808185FF15C09FB7F894EE89FF8960837F
:10036000E889F98980818370806480839FBF81E000
:1003700090E0DF91CF911F910F91FF90EF90089542
:10038000F62E0B8D10E00F5F1F4F0F731127E02E1D
:100390008C8D8E110CC00FB607FCFACFE889F98955
:1003A000808185FFF5CFCE010E947701F1CFEB8DE3
:1003B000EC0FFD2FF11DE35AFF4FF0829FB7F89429
:1003C0000B8FEA89FB8980818062CFCFCF93DF9347
:1003D000EC01888D8823B9F0AA89BB89E889F9895D
:1003E0008C9185FD03C0808186FD0DC00FB607FC92
:1003F000F7CF8C9185FFF2CF808185FFEDCFCE01C5
:100400000E947701E9CFDF91CF910895833081F089
:1004100028F4813099F08230A9F008958730A9F04E
:100420008830C9F08430B1F4809180008F7D03C0A2
:10043000809180008F7780938000089584B58F77B6
:1004400084BD089584B58F7DFBCF8091B0008F77F8
:100450008093B00008958091B0008F7DF9CFCF9345
:10046000DF93E0E8F0E08491ECEBF0E0D491E8EA8F
:10047000F0E0C491CC23A1F081110E940602EC2F80
:10048000F0E0EE0FFF1FEA57FF4FA591B491EC91FA
:10049000ED2381E090E009F480E0DF91CF910895B1
:1004A00080E090E0FACF1F93CF93DF93282F30E0C6
:1004B000F901EE58FF4F8491F901E255FF4FD491B5
:1004C000F901E656FF4FC491CC23A9F0162F8111F4
:1004D0000E940602EC2FF0E0EE0FFF1FE057FF4FE7
:1004E000A591B4918FB7F894EC91111108C0D095F3
:1004F000DE23DC938FBFDF91CF911F910895DE2B18
:10050000F8CFCF93DF9390E0FC01E255FF4F2491A9
:1005100086569F4FFC0184918823D1F090E0880F8C
:10052000991FFC01E859FF4FA591B491FC01E057D8
:10053000FF4FC591D49161110EC09FB7F8948C9173
:10054000E22FE0958E238C932881E223E8839FBFDE
:10055000DF91CF9108958FB7F894EC91E22BEC9353
:100560008FBFF6CF0F931F93CF93DF93EC01162F1E
:10057000042F1B821A8288EE93E0A0E0B0E08C8307
:100580009D83AE83BF8380E191E0998388831F8A36
:100590001E8A198E188E1B8E1A8E1D8E1C8E6E8DC5
:1005A0006E7F6D7F6E8F6695617081E06827842F06
:1005B0000E94530261E0802F0E948102802F90E010
:1005C000FC01E255FF4FE491E88BFC01E656FF4F3A
:1005D000E491F0E0EE0FFF1FE057FF4F85919491FB
:1005E0009A8B898B60E0812F0E9481028E8D81FD24
:1005F00004C061E0812F0E9453021C87812F90E08C
:10060000FC01E255FF4FE491ED87FC01E656FF4FF8
:10061000E491F0E0EE0FFF1FEA57FF4F85919491B0
:100620009F878E87DF91CF911F910F9108953FB7DC
:10063000F8948091CD029091CE02A091CF02B0911A
:10064000D00226B5A89B05C02F3F19F00196A11D29
:10065000B11D3FBFBA2FA92F982F8827BC01CD010C
:10066000620F711D811D911D42E0660F771F881F6B
:10067000991F4A95D1F7089520918202260F3327BA
:10068000331F21323105ECF42091A602FC0190E0E9
:1006900080E0243069F082E00895A09182022191E7
:1006A000AC014E595D4FA40FB52FB11D2C9301968F
:1006B000861798F380918202680F6093820280E02F
:1006C000089581E008951092A60281E08093A80227
:1006D0001092A70261E082E10E94530261E083E18F
:1006E0000E945302E9EBF0E080818E7F808380815D
:1006F0008D7F808388E48093B80085E48093BC007C
:1007000008950895E091D8028091D702E81730F457
:10071000F0E0E45CFD4F808190E008958FEF9FEF63
:1007200008959091D8028091D7022FEF3FEF98174C
:1007300048F4E92FF0E0E45CFD4F208130E09F5F5A
:100740009093D802C90108958091D7029091D80260
:10075000891B990B0895CF93DF93CB01EA01642F96
:100760000E943C03CE01DF91CF910895CF93DF9398
:100770001F92CDB7DEB7698361E0CE0101960E947A
:100780003C0381E090E00F90DF91CF91089520919C
:100790003A0230913B022817390771F490913902DF
:1007A00080913802981741F0E0913902F0E0E8506A
:1007B000FE4F808190E008958FEF9FEF0895EF92B4
:1007C000FF920F931F93CF93DF93DC015C96ED9024
:1007D000FC905D97E114F10479F481E090E01396C8
:1007E0009C938E93129790E080E0DF91CF911F91C0
:1007F0000F91FF90EF9008955196ED91FC915297D3
:1008000050968C915097982F90950FB75E962C919B
:100810005E97122F127021FD6095F89420811123AC
:1008200019F1282B2083E7012197F1F728E0462FC3
:1008300050E0308160FF1AC0382B3083E7012197E8
:10084000F1F7BA0175956795215089F7112381F069
:100850008081892380830FBF5C968D919C91019745
:10086000F1F781E090E0C1CF2923DCCF3923E5CF38
:100870009081892BEFCF20913A0230913B022817CB
:10088000390771F4809138022091390290E0805C40
:100890009F4F821B910960E470E00E94B20F08959F
:1008A00090E080E0089520913A0230913B022817B1
:1008B0003907B9F49091390280913802981789F07C
:1008C000E0913902F0E0E850FE4F8081209139023A
:1008D00030E02F5F3F4F2F7333272093390290E092
:1008E00008958FEF9FEF0895E0913A02F0913B0257
:1008F000E817F90769F4A389B4899C9185898095E3
:1009000089238C9310923B0210923A0281E0089561
:1009100080E00895CF93DF93EC019A01AB011B8E29
:100920001A8E198E188E1F8A1E8A60E079E08DE378
:1009300090E00E94C60FC90103979D8F8C8F6C8534
:10094000663108F04BC0C9019695879584319105B1
:1009500008F467C043979F8B8E8BC9010597998FC9
:10096000888FC901880F991F280F391F3695279541
:10097000369527952C5031093B8F2A8F909168002E
:1009800084E0683048F021E06E3008F420E081E037
:1009900001C0880F2A95EAF7892B809368009C850F
:1009A0002DE630E0983050F02BE630E09E3030F00D
:1009B0002CE630E0963110F030E020E03C8B2B8BC1
:1009C000292F30E0983080F581E001C0880F9A959A
:1009D000EAF78D8B8C8D9D8D0197F1F78A8D9B8D1C
:1009E000892BE1F080913A0290913B02C817D90718
:1009F000A9F0009711F00E9474048E8D8E7F8E8F67
:100A00001092380210923902D0933B02C0933A02FE
:100A1000EB89FC8980819D89892B8083DF91CF912F
:100A2000089581E090E097CF9E3040F4285031093E
:100A300081E001C0880F2A95EAF7CBCF2E5031090B
:100A4000F7CF90E080E00895FC01A081B1818C9106
:100A50008D3021F03CF489508230A8F51196B18395
:100A6000A083F3CF8032D1F38F3209F0089511962D
:100A70008C9111978A3219F08F32C1F00895119636
:100A8000B183A083A081B181CD0101969183808340
:100A900011968C9111978823B1F08A3299F71296AA
:100AA0008C9112978F3271F71396D9CFA081B181B3
:100AB000CD0101969183808311968C91882319F042
:100AC0008A30A1F7C2CF08951F93CF93DF93EC0133
:100AD000162F0E942405E881F9818081181308C02F
:100AE0003196F983E88381E0DF91CF911F910895DA
:100AF00080E0FACFEF92FF920F931F93CF93DF9393
:100B00008C01DC011496CD91DC91EA80FB808E8112
:100B10009F81E80EF91EC80102960E942405D801A3
:100B20001296ED91FC918081873219F0823209F0A2
:100B300042C03196D8011396FC93EE931297D801D8
:100B40001296ED91FC9113979081992309F462C05C
:100B50009F012F5F3F4F13963C932E931297891757
:100B600009F458C09C3599F49181A6E4B1E02C9128
:100B7000222321F092131DC011969C91992309F410
:100B800049C03296D8011396FC93EE9312974E818A
:100B90005F819A012F5F3F4F6C817D8162177307E0
:100BA00070F2EA81FB81E40FF51F3F832E8390836F
:100BB000C6CF1296DCCF80330CF444C08A3324F0C5
:100BC0008F3504F18B3704F5F801228133812F5FD3
:100BD0003F4F338322834E815F819A012F5F3F4FC6
:100BE0006C817D816217730738F0EA81FB81E40F25
:100BF000F51F3F832E838083D8011296ED91FC91DF
:100C00008081D9CF8134F4F08B35F4F293ED980FD5
:100C10009230D0F22E813F81C90101964C815D81D5
:100C20004817590790F0EA81FB81E20FF31F9F8379
:100C30008E831082C701DF91CF911F910F91FF909A
:100C4000EF9008958B3211F7BFCFF12CE12CF2CF4A
:100C5000FC0186819781680F791F248135812617D1
:100C6000370738F022813381820F931F77836683A1
:100C7000089590E080E008958091F00181110BC00B
:100C80001092ED011092EC011092EF011092EE0122
:100C900081E08093F0018CEE91E008958091E40171
:100CA00081110BC01092E1011092E0011092E3015A
:100CB0001092E20181E08093E40180EE91E00895DA
:100CC000DB01109749F0ED91FC9111970190F081B3
:100CD000E02DBC01CD01099490E080E00895FB0176
:100CE00001900020E9F73197AF01461B570BDC015B
:100CF000ED91FC910280F381E02D0994CF93DF9375
:100D0000FC0144815581608171818AEC93E00E94ED
:100D1000B900EC0161E571E08AEC93E00E946F0696
:100D20008C0F9D1FDF91CF9108950F931F93CF9349
:100D3000DF93EC010E946F068C0161E571E0CE014A
:100D40000E946F06800F911FDF91CF911F910F912D
:100D500008950F931F93CF93DF938B01FC01C28102
:100D6000D381209759F06A817B810115110519F013
:100D70006115710549F46017710759F4CE01DF91CF
:100D8000CF911F910F910895C8010E940C12892BD9
:100D9000A9F30990D881C02DE4CFAF92BF92CF9232
:100DA000DF92EF92FF920F931F93CF93DF9300D0C8
:100DB00000D000D0CDB7DEB77C01DC0116968C9157
:100DC000811104C00E943C068C0188C08150F7014B
:100DD0008683C080D180B60184E090E00E946006E6
:100DE0008C01009709F48CC0DC011196DC92CE9244
:100DF00013961C921E9212976701B2E0CB0ED11C83
:100E00006BE7C6010E9464058823E1F26DE7C60125
:100E10000E94640581115EC0C7010E947A055C01D1
:100E2000892B81F26AE3C6010E946405882351F28E
:100E30001A821982BE016F5F7F4FC7010E9484072B
:100E4000882309F4BFCFB501C8010E94A906009705
:100E500059F5F801608171818AE090E00E94600696
:100E6000009741F0DC0111961C921E9215961C927F
:100E70001E921497D8011296ED91FC91309729F4A7
:100E8000F8019383828308C0F90120813181211503
:100E90003105D1F791838083009709F493CFDC016A
:100EA0001396BC92AE92129726E0FE013196DC01B9
:100EB000149601900D922A95E1F76DE7C6010E9404
:100EC0006405811107C06CE2C6010E9464058111AE
:100ED000A3CF78CFF70186818F5F8683C8012696DE
:100EE0000FB6F894DEBF0FBECDBFDF91CF911F913B
:100EF0000F91FF90EF90DF90CF90BF90AF9008954B
:100F00000E943C068C0178CF8F929F92AF92BF9245
:100F1000CF92DF92EF92FF920F931F93CF93DF93C5
:100F200000D000D000D0CDB7DEB77C016B015C01F2
:100F300082E0A80EB11CC5010E942405D7011296BB
:100F4000ED91FC91139780818B35E1F08B3709F49B
:100F5000B2C011E0873219F0823209F010E0C70107
:100F60000E947A05009709F485C021E030E0112342
:100F700009F4ABC022E030E0F60131832083938393
:100F8000828379C0F7018681811104C00E944E06D8
:100F90008C016BC0815016968C9316978D909C9007
:100FA000B40184E090E00E9460068C01009709F48F
:100FB00095C0FC0191828082138212826BE5C5018B
:100FC0000E946405882311F36DE5C5010E94640544
:100FD000811144C01A821982BE016F5F7F4FC70121
:100FE0000E948407882391F2D8016D917C9188E05A
:100FF00090E00E946006DC01892B39F011961C926A
:101000001E9213961C921E921297F8012281338130
:101010002115310521F4B383A28308C09C01F90195
:10102000808191810097D1F7B183A083109709F453
:10103000ADCF86E0FE013196129601900D928A9511
:10104000E1F76DE5C5010E946405811107C06CE2FE
:10105000C5010E9464058111BDCF98CFD7011696B6
:101060008C9116978F5F16968C93F80180819181F1
:10107000892BA9F410E0812F26960FB6F894DEBFD5
:101080000FBECDBFDF91CF911F910F91FF90EF90D9
:10109000DF90CF90BF90AF909F908F90089586E0A3
:1010A00090E0D60111969C938E9313961C930E9309
:1010B000129711E0E0CFC7010E94CD06FC0120810C
:1010C0003181232BB9F227E030E0D60111963C9311
:1010D0002E9313969C938E931297EBCF0E944E06FD
:1010E0008C016CCFFC0180819181009711F00C94F0
:1010F000BD1008950F931F93CF93DF93EC01888168
:101100009981009759F02A813B812617370730F0E3
:1011100081E0DF91CF911F910F9108958B016F5F57
:101120007F4F0E944611009759F0998388831B8353
:101130000A832C813D81232B59F7FC011082E8CFD3
:1011400080E0E7CFEF92FF920F931F93CF93DF934F
:101150006115710541F480E0DF91CF911F910F91EE
:10116000FF90EF90089541155105B1F07B01EC011E
:101170000C811D81040F151FB8010E947A08882375
:1011800051F3288139818C819D81B701820F931F92
:101190000E9415121D830C8381E0DECFEF92FF9237
:1011A0000F931F93CF93DF93EC017B018A01BA0168
:1011B0000E947A0828813981811114C021153105D6
:1011C00019F0C9010E94BD10198218821D821C826B
:1011D0001B821A82CE01DF91CF911F910F91FF9058
:1011E000EF9008951D830C83B701C9010E94151269
:1011F000F1CF50E040E060E571E00C94CE080F9331
:101200001F93CF93DF93CDB7DEB7C15FD1090FB680
:10121000F894DEBF0FBECDBF89EE93E00E94F908BF
:101220008E010F5F1F4F8091D7029091D802891BCA
:10123000990B029774F080E893E00E9491038983F0
:101240001A8241E050E0B80189EE93E00E94A208C2
:10125000EACF80E893E00E94910389EE93E00E9438
:101260007E06CE0109969C838B8388EC90E09E835A
:101270008D8318861F828AE091E09A83898380910A
:10128000E9039091EA03009711F480E591E0CF52D1
:10129000DF4F19830883C15DD040CD52DF4F998362
:1012A0008883C35DD040CB52DF4F19830883C55D6F
:1012B000D0408AE0C952DF4F8883C75DD040CE015D
:1012C0008F529F4F0E94CD06FC0120813181232B3C
:1012D00009F466C064E571E00E94A906FC01892B4F
:1012E00009F442C0848195818330910560F50197AE
:1012F00008F46EC00680F781E02D309709F468C0CD
:10130000808161E070E0843761F18B3209F45AC06A
:101310008D3209F058C0319691E070E060E04AE00B
:10132000819120ED280F2A3008F04FC0469F900190
:10133000479F300D1124682F880F770B6053710978
:10134000620F731FEDCF8530910548F00597A1F12D
:1013500066817781808591850E947C0F02C06681BD
:10136000778181E0672B09F480E0CF50DF4F18824E
:10137000C15FD040805DC051DF4F8883C05FD040E7
:1013800061ED70E06C0F7D1F615E7F4F8AEC93E032
:101390000E946F0661E571E08AEC93E00E946F069F
:1013A000CF50DF4F0FB6F894DEBF0FBECDBFDF9139
:1013B000CF911F910F910895668177817195619505
:1013C0007109CFCF319690E0A8CF9111F7CFC9CF57
:1013D00070E060E0C6CFFC0111821082138212829D
:1013E00015821482FB0101900020E9F73197AF01CB
:1013F000461B570B0C94CE08CF93DF9385ED80935B
:10140000BC0080915E0290915F02A0916002B09159
:1014100061020796A11DB11D23E0B695A79597958A
:1014200087952A95D1F72091BC0024FD03C0109226
:10143000A60236C040915E0250915F026091600248
:1014400070916102452B462B472B69F30097A1054C
:10145000B10541F025E32A95F1F700000197A109B4
:10146000B109E1CF80915D0291E090935C02882305
:10147000B9F0C091B800D091BA008091BC008A7BCD
:101480008093BC0060E082E10E94530260E083E14F
:101490000E9453020E946303D093BA00C093B80025
:1014A000DF91CF9108951F920F920FB60F921124E2
:1014B0002F933F934F935F936F937F938F939F935C
:1014C000AF93BF93EF93FF9383EE92E00E94770177
:1014D000FF91EF91BF91AF919F918F917F916F910C
:1014E0005F914F913F912F910F900FBE0F901F90E2
:1014F00018951F920F920FB60F9211242F938F936E
:101500009F93EF93FF93E091F302F091F4028081B7
:10151000E091F902F091FA0282FD1BC09081809166
:10152000FC028F5F8F732091FD02821741F0E091E2
:10153000FC02F0E0ED51FD4F958F8093FC02FF918E
:10154000EF919F918F912F910F900FBE0F901F9051
:1015500018958081F4CF1F920F920FB60F9211242D
:101560002F933F938F939F93AF93BF938091DF020D
:101570009091E002A091E102B091E2023091CC02A0
:1015800023E0230F2D3758F50196A11DB11D20939F
:10159000CC028093DF029093E002A093E102B0932B
:1015A000E2028091CD029091CE02A091CF02B09143
:1015B000D0020196A11DB11D8093CD029093CE0261
:1015C000A093CF02B093D002BF91AF919F918F9122
:1015D0003F912F910F900FBE0F901F90189526E806
:1015E000230F0296A11DB11DD2CF1F920F920FB6ED
:1015F0000F9211242F933F934F935F936F937F9399
:101600008F939F93AF93BF93EF93FF938091B90014
:10161000887F803609F44AC0F0F5883209F4A7C003
:1016200018F5803109F49BC0B8F4882309F4F9C097
:10163000883009F494C0FF91EF91BF91AF919F91D1
:101640008F917F916F915F914F913F912F910F906B
:101650000FBE0F901F901895883109F488C0803212
:1016600051F78093A50214C0803409F49DC040F462
:101670008033B9F38833F9F68093A50285ECB0C0C6
:10168000803509F485C0883509F496C0883499F608
:101690000E94FC09D0CF883909F48CC038F588370E
:1016A00029F050F4883611F0803729F683E08093D2
:1016B000A6021092A40257C0883809F47BC0803972
:1016C00019F0803809F0B7CF8091A402803208F079
:1016D00071C0E091A40281E08E0F8093A4028091FA
:1016E000BB00F0E0EC57FD4F80833DC0803B39F0FC
:1016F000E0F4803A09F479C0883A09F09CCF84E09C
:101700008093A6021092830210928202E091D3028B
:10171000F091D40209958091820281110FC081E07D
:10172000809382021092620209C0803C09F4A6CF25
:10173000883C09F4A3CF883B09F07DCFE091830278
:1017400081E08E0F80938302F0E0EE59FD4F80819F
:101750008093BB00909183028091820229C0809186
:10176000CB028093BB0085EC8093BC0064CF90914A
:10177000CA028091C902981758F5E091CA0281E027
:101780008E0F8093CA02F0E0E755FD4F8081E9CFCC
:10179000E091CA0281E08E0F8093CA028091BB0063
:1017A000F0E0E755FD4F80839091CA028091C90215
:1017B0009817C8F285E8D8CFE091CA0281E08E0F71
:1017C0008093CA028091BB00F0E0E755FD4F808313
:1017D0008091A80281115CCF81E08093A70284EA06
:1017E0008093BC001092A60226CF85EC8093BC00AB
:1017F0001092A6028091A402803230F4E091A402FB
:10180000F0E0EC57FD4F10826091A40270E0E0918F
:10181000D102F091D20284E892E009951092A402DC
:101820000ACF1092A50234CF1F920F920FB60F92DB
:1018300011242F933F934F935F936F937F938F93D5
:101840009F93AF93BF93EF93FF93E0913A02F09190
:101850003B02309749F0A685B7858585968D91FF27
:1018600014C09C918923A1F4FF91EF91BF91AF9196
:101870009F918F917F916F915F914F913F912F91A8
:101880000F900FBE0F901F9018959C91892361F7C0
:10189000A389B4899C918589809589238C938689B5
:1018A00097890197F1F7608D718DA685B78555856C
:1018B00038E020E0CB010197F1F7822F90E0959579
:1018C0008795282F4C91452309F02068315091F7D6
:1018D000868D81FD20958091380290E001968F736E
:1018E000992730913902381799F0A0913802B0E069
:1018F000A850BE4F2C9380933802828D938D019710
:10190000F1F7A389B4898C919589892B8C93ACCFFD
:10191000868D8160868FF1CFE3EEF2E01382128232
:1019200088EE93E0A0E0B0E084839583A683B7833C
:1019300022E231E03183208325EC30E035872487B3
:1019400024EC30E03787268720EC30E0318B208B89
:1019500021EC30E0338B228B22EC30E0358B248B72
:1019600026EC30E0378B268B118E128E138E148E60
:10197000E0E8F3E01382128284839583A683B78321
:1019800084E391E09183808360E571E085EF93E0EB
:101990000E94EB0960E571E08FEE93E00E94EB0995
:1019A00060E571E089EE93E00E94EB094AE069E0AE
:1019B0008AEC93E00E94B2024BE06CE08BEA93E089
:1019C0000E94B20242E063E08CE893E00C94B20221
:1019D000CF93DF93CDB7DEB728970FB6F894DEBF6D
:1019E0000FBECDBF789484B5826084BD84B581601C
:1019F00084BD85B5826085BD85B5816085BD8091DA
:101A00006E00816080936E00109281008091810051
:101A10008260809381008091810081608093810049
:101A2000809180008160809380008091B10084600B
:101A30008093B1008091B00081608093B00080916C
:101A40007A00846080937A0080917A00826080932B
:101A50007A0080917A00816080937A0080917A0088
:101A6000806880937A001092C10061E08DE00E944E
:101A7000810260E08DE00E9453021092D802109221
:101A8000D7021092D6021092D5020E9463038EE80C
:101A900090E09093D4028093D3028FE890E09093EB
:101AA000D2028093D10288E08093BA008FEF98E051
:101AB0009093DA028093D902E091F302F091F4025C
:101AC00082E08083E091EF02F091F0021082E091D9
:101AD000F102F091F2028FEC80831092FB02E09110
:101AE000F702F091F80286E08083E091F502F09130
:101AF000F602808180618083E091F502F091F60228
:101B0000808188608083E091F502F091F602808107
:101B100080688083E091F502F091F60280818F7DEC
:101B2000808385EF93E00E94F9088FEE93E00E9496
:101B3000F90840E052EC61E070E08AEC93E00E942A
:101B40008A0440E855E260E070E08BEA93E00E948E
:101B50008A0440E052EC61E070E08CE893E00E947F
:101B60008A0460E08EE00E94810200E010E07724A9
:101B700073940E942F02019709F04FC06AE571E04B
:101B80008AEC93E00E9495066CE671E08BEA93E0A4
:101B90000E94950669E771E08AEC93E00E94950641
:101BA0006AE871E083EE92E00E9495067092DE0290
:101BB0000E942F020197E1F30E9417034B015C0181
:101BC00088EEC82E83E0D82EE12CF12C0E9417035A
:101BD000681979098A099B09683E73408105910556
:101BE000A8F321E0C21AD108E108F10888EE880EB6
:101BF00083E0981EA11CB11CC114D104E104F104BE
:101C000029F70115110509F4B4CF0E946301882357
:101C100009F4AFCF0E940000ACCF8091DD028111AA
:101C2000D2C083EE92E00E945701181619060CF0FC
:101C300083C01A8219821C821B821E821D8250E080
:101C400040E060E571E0CE0101960E94CE080E945E
:101C5000090197FD0CC08F83188641E050E0BE015A
:101C6000695F7F4FCE0101960E94A208F0CF80915C
:101C7000F5039091F603009709F48EC069817A818B
:101C80006115710509F486C04091F7035091F8037E
:101C90002D813E814217530708F47CC00E94151223
:101CA0008D819E819093FA038093F9031E821D8299
:101CB000CE0101960E9472086CE971E0CE01019696
:101CC0000E94EB094091F9035091FA036091F503EA
:101CD0007091F603CE0101960E94A20881110CC0FA
:101CE00089819A81009711F00E94BD101A82198291
:101CF0001E821D821C821B82CE0101960E947E06DE
:101D0000CE0101960E9472088091F9039091FA0326
:101D1000892B91F06EEA71E08091F5039091F603C2
:101D20000E940C12892B41F41092DC021092DB020B
:101D30001092DE021092DD028091DE028823A9F06B
:101D40008091DB029091DC0205977CF46CEB71E0F2
:101D50008AEC93E00E9495068091DB029091DC0270
:101D600001969093DC028093DB028091DE0288234F
:101D700009F41ECF8091DB029091DC02059709F0F7
:101D800017CF1092DE021092DC021092DB027092EA
:101D9000DD020ECF0E94BD1089819A819093F603D7
:101DA0008093F5038B819C819093F8038093F703D4
:101DB0008D819E819093FA038093F9031A82198290
:101DC0001C821B8273CF6DEC71E08CE893E00E9463
:101DD0006F0663ED71E08AEC93E00E949506109225
:101DE000DD02E6CECF93DF93C0E1D1E0D0938D0347
:101DF000C0938C038CE893E00E947404D093AC03EE
:101E0000C093AB038BEA93E00E947404D093CB039E
:101E1000C093CA038AEC93E00E94740489EE93E0B5
:101E20000E9472088FEE93E00E94720885EF93E0A3
:101E3000DF91CF910C94720857FD9058440F551FB5
:101E400059F05F3F71F04795880F97FB991F61F03C
:101E50009F3F79F087950895121613061406551FB3
:101E6000F2CF4695F1DF08C0161617061806991F1F
:101E7000F1CF86957105610508940895E894BB2714
:101E800066277727CB0197F908952F923F924F92BB
:101E90005F926F927F928F929F92AF92BF92CF92FA
:101EA000DF92EF92FF920F931F93CF93DF93CDB703
:101EB000DEB7CA1BDB0B0FB6F894DEBF0FBECDBF7B
:101EC00009942A88398848885F846E847D848C844C
:101ED0009B84AA84B984C884DF80EE80FD800C8155
:101EE0001B81AA81B981CE0FD11D0FB6F894DEBF38
:101EF0000FBECDBFED0108950E94830F6894B1110C
:101F00000C943F0F08950E94240F88F09F5798F07B
:101F1000B92F9927B751B0F0E1F0660F771F881FEE
:101F2000991F1AF0BA95C9F714C0B13091F00E9408
:101F30003E0FB1E008950C943E0F672F782F88274D
:101F4000B85F39F0B93FCCF3869577956795B3952F
:101F5000D9F73EF490958095709561957F4F8F4F9E
:101F60009F4F089597FB072E16F4009407D077FD36
:101F700009D00E94E50F07FC05D03EF490958195AD
:101F80009F4F0895709561957F4F0895052E97FB9B
:101F90001EF400940E94DD0F57FD07D00E94F90F38
:101FA00007FC03D04EF40C94DD0F5095409530950E
:101FB00021953F4F4F4F5F4F0895909580957095B5
:101FC00061957F4F8F4F9F4F0895AA1BBB1B51E117
:101FD00007C0AA1FBB1FA617B70710F0A61BB70B99
:101FE000881F991F5A95A9F780959095BC01CD013E
:101FF0000895A1E21A2EAA1BBB1BFD010DC0AA1F4A
:10200000BB1FEE1FFF1FA217B307E407F50720F061
:10201000A21BB30BE40BF50B661F771F881F991FDC
:102020001A9469F760957095809590959B01AC0125
:10203000BD01CF010895EE0FFF1F0590F491E02D33
:1020400009940F931F93CF93DF938230910510F47F
:1020500082E090E0E091FD03F091FE0330E020E0AB
:10206000B0E0A0E0309799F42115310509F44AC099
:10207000281B390B24303105D8F58A819B816115E5
:10208000710589F1FB0193838283FE0111C04081B8
:1020900051810281138148175907E0F04817590709
:1020A00099F4109761F012960C93129713961C9363
:1020B0003296CF01DF91CF911F910F910895009338
:1020C000FD031093FE03F4CF2115310551F04217A3
:1020D000530738F0A901DB019A01BD01DF01F801C6
:1020E000C1CFEF01F9CF9093FE038093FD03CDCFD5
:1020F000FE01E20FF31F819391932250310939833E
:102100002883D7CF2091FB033091FC03232B41F48C
:1021100020910201309103013093FC032093FB03D3
:1021200020910001309101012115310541F42DB7B5
:102130003EB74091040150910501241B350BE091FD
:10214000FB03F091FC03E217F307A0F42E1B3F0BF7
:102150002817390778F0AC014E5F5F4F2417350719
:1021600048F04E0F5F1F5093FC034093FB03819395
:1021700091939FCFF0E0E0E09CCFCF93DF93009767
:10218000E9F0FC01329713821282A091FD03B09115
:10219000FE03ED0130E020E01097A1F420813181B1
:1021A000820F931F2091FB033091FC0328173907FE
:1021B00009F061C0F093FC03E093FB03DF91CF9142
:1021C0000895EA01CE17DF07E8F54A815B819E0199
:1021D00041155105B1F7E901FB83EA834991599112
:1021E000C40FD51FEC17FD0761F480819181029621
:1021F000840F951FE90199838883828193819B8352
:102200008A83F0E0E0E012968D919C9113970097FD
:10221000B9F52D913C911197CD010296820F931F34
:102220002091FB033091FC032817390739F63097CA
:1022300051F51092FE031092FD03B093FC03A0939E
:10224000FB03BCCFD383C28340815181840F951F90
:10225000C817D90761F44E5F5F4F88819981480F95
:10226000591F518340838A819B81938382832115E7
:10227000310509F0B0CFF093FE03E093FD039ECF4C
:10228000FD01DC01C0CF13821282D7CFB0E0A0E005
:10229000ECE4F1E10C94470F8C01009751F4CB0171
:1022A0000E9421108C01C801CDB7DEB7E0E10C948B
:1022B000630FFC01E60FF71F9C0122503109E21762
:1022C000F30708F49DC0D901CD91DC911197C61791
:1022D000D70798F0C530D10530F3CE0104978617A3
:1022E000970708F3C61BD70B2297C193D1936D9321
:1022F0007C93CF010E94BD10D6CF5B01AC1ABD0A02
:102300004C018C0E9D1EA091FD03B091FE03512C3B
:10231000412CF12CE12C109731F58091FB03909129
:10232000FC038815990509F05CC04616570608F0AD
:1023300058C08091000190910101009741F48DB740
:102340009EB74091040150910501841B950BE8173D
:10235000F90708F055C0F093FC03E093FB03F90183
:1023600071836083A0CF8D919C91119712966C9090
:10237000129713967C901397A815B90559F56C011F
:1023800042E0C40ED11CCA14DB0420F1AC014A198E
:102390005B09DA011296159780F06282738251838D
:1023A0004083D9016D937C93E114F10471F0D7015E
:1023B0001396FC93EE93129776CF22968C0F9D1F67
:1023C000F90191838083F301EFCFF093FE03E09353
:1023D000FD0369CF4816590608F42C017D01D3018D
:1023E0009ACFCB010E9421107C01009749F0AE01E9
:1023F000B8010E940312C8010E94BD10870153CF8B
:1024000010E000E050CFFB01DC0102C001900D9212
:1024100041505040D8F70895FB01DC018D910190A7
:1024200080190110D9F3990B0895FB01DC0101908B
:102430000D920020E1F7089510E0C2E6D0E004C05C
:10244000FE010E941B102196C336D107C9F7F894EC
:10245000FFCF0000FF0380000000000028060000FE
:102460000000DF03B900210581033B045304C703C7
:10247000000000009901B900E600E6015701F500EF
:10248000490100000000B603AB0321058103A4034A
:102490009103820322225C5C6208660C6E0A720D54
:1024A0007409000D0A00636C6F73650073746172C8
:1024B000742063617074757265202E2E2E00737403
:1024C00061727463617074757265006361707475B4
:1024D000726520646F6E65202E2E2E00736F6D6501
:1024E0006F6E652069732068657265202100416EFA
:1024F00064726F696420436F6D6D616E643A200091
:10250000626C7565746F6F74682061636B00626CD8
:102510007565746F6F7468206E6F74206F6B0073D5
:10252000746172740073656E7420746F20776966CD
:02253000690040
:107E0000112484B714BE81FFF0D085E080938100F7
:107E100082E08093C00088E18093C10086E0809377
:107E2000C20080E18093C4008EE0C9D0259A86E02C
:107E300020E33CEF91E0309385002093840096BBD3
:107E4000B09BFECF1D9AA8958150A9F7CC24DD24C4
:107E500088248394B5E0AB2EA1E19A2EF3E0BF2EE7
:107E6000A2D0813461F49FD0082FAFD0023811F036
:107E7000013811F484E001C083E08DD089C08234E0
:107E800011F484E103C0853419F485E0A6D080C0E4
:107E9000853579F488D0E82EFF2485D0082F10E0AE
:107EA000102F00270E291F29000F111F8ED06801E7
:107EB0006FC0863521F484E090D080E0DECF843638
:107EC00009F040C070D06FD0082F6DD080E0C81688
:107ED00080E7D80618F4F601B7BEE895C0E0D1E017
:107EE00062D089930C17E1F7F0E0CF16F0E7DF06D8
:107EF00018F0F601B7BEE89568D007B600FCFDCFD4
:107F0000A601A0E0B1E02C9130E011968C91119780
:107F100090E0982F8827822B932B1296FA010C0160
:107F200087BEE89511244E5F5F4FF1E0A038BF0790
:107F300051F7F601A7BEE89507B600FCFDCF97BE46
:107F4000E89526C08437B1F42ED02DD0F82E2BD052
:107F50003CD0F601EF2C8F010F5F1F4F84911BD097
:107F6000EA94F801C1F70894C11CD11CFA94CF0C13
:107F7000D11C0EC0853739F428D08EE10CD085E9AC
:107F80000AD08FE07ACF813511F488E018D01DD067
:107F900080E101D065CF982F8091C00085FFFCCF94
:107FA0009093C60008958091C00087FFFCCF809118
:107FB000C00084FD01C0A8958091C6000895E0E648
:107FC000F0E098E1908380830895EDDF803219F02E
:107FD00088E0F5DFFFCF84E1DECF1F93182FE3DFCA
:107FE0001150E9F7F2DF1F91089580E0E8DFEE27F6
:047FF000FF270994CA
:027FFE00040479
:00000001FF
