:020000040000FA
:100000000C9463000C948B000C948B000C94BF0533
:100010000C94BF050C94BF050C948B000C948B00C2
:100020000C948B000C948B000C948B000C948B0024
:100030000C948B000C948B000C948B000C948B0014
:100040000C9475050C948B000C9443050C941D05C1
:100050000C948B000C948B000C948B000C948B00F4
:100060000C948B000C948B000000000024002700EF
:100070002A0000000008000201000003040700003D
:1000800000000000000000000000230026002900FE
:1000900000000000250028002B00040404040404D0
:1000A0000404020202020202030303030303010227
:1000B00004081020408001020408102001020408F6
:1000C00010203706A00811241FBECFEFD8E0DEBFF6
:1000D000CDBF23E0A4EBB1E001C01D92AB31B2076C
:1000E000E1F711E0A0E0B1E0E8EFF6E102C0059031
:1000F0000D92A43BB107D9F710E0C2E6D0E004C0EE
:100100002197FE010E946E09C136D107C9F70E94EE
:100110008D060C946F0B0C9400000895AF92BF9263
:10012000CF92DF92EF92FF920F931F93CF93DF93C3
:100130006C017B018B01040F151FEB015E01AE18F2
:10014000BF08C017D10759F06991D601ED91FC9114
:100150000190F081E02DC6010995892B79F7C50141
:10016000DF91CF911F910F91FF90EF90DF90CF9093
:10017000BF90AF900895FC01538D448D252F30E042
:10018000842F90E0821B930B541710F0CF960895A4
:1001900001970895FC01918D828D981761F0A28DD1
:1001A000AE0FBF2FB11D5D968C91928D9F5F9F7397
:1001B000928F90E008958FEF9FEF08952FB7F894F6
:1001C0008091010290910202A0910302B091040279
:1001D0002FBF80930D0290930E02A0930F02B09355
:1001E000100285E092E00E94CA0097FF26C02FB758
:1001F000F8948091010290910202A0910302B091C3
:1002000004022FBF40910D0250910E0260910F0227
:1002100070911002841B950BA60BB70B409109023D
:1002200050910A0260910B0270910C02841795079D
:10023000A607B707B0F28FEF9FEF0895FC01918DED
:10024000828D981731F0828DE80FF11D858D90E039
:1002500008958FEF9FEF0895FC01918D228D892FD6
:1002600090E0805C9F4F821B91098F7399270895BE
:1002700085E092E00E942C0121E0892B09F420E026
:10028000822F089580E090E0892B29F00E943801A8
:1002900081110C9400000895FC01A48DA80FB92FC2
:1002A000B11DA35ABF4F2C91848D90E001968F739E
:1002B0009927848FA689B7892C93A089B1898C91BD
:1002C000837080648C93938D848D981306C002880C
:1002D000F389E02D80818F7D80830895EF92FF92D6
:1002E0000F931F93CF93DF93EC0181E0888F9B8D59
:1002F0008C8D98131AC0E889F989808185FF15C013
:100300009FB7F894EE89FF896083E889F989808135
:100310008370806480839FBF81E090E0DF91CF9104
:100320001F910F91FF90EF900895F62E0B8D10E026
:100330000F5F1F4F0F731127E02E8C8D8E110CC095
:100340000FB607FCFACFE889F989808185FFF5CFE0
:10035000CE010E944C01F1CFEB8DEC0FFD2FF11D72
:10036000E35AFF4FF0829FB7F8940B8FEA89FB891D
:1003700080818062CFCFCF93DF93EC01888D88237B
:10038000B9F0AA89BB89E889F9898C9185FD03C0F8
:10039000808186FD0DC00FB607FCF7CF8C9185FFDD
:1003A000F2CF808185FFEDCFCE010E944C01E9CFD5
:1003B000DF91CF910895833081F028F4813099F056
:1003C0008230A9F008958730A9F08830C9F08430D0
:1003D000B1F4809180008F7D03C0809180008F7781
:1003E00080938000089584B58F7784BD089584B587
:1003F0008F7DFBCF8091B0008F778093B000089500
:100400008091B0008F7DF9CFCF93DF93E0E8F0E0EB
:100410008491ECEBF0E0D491E8EAF0E0C491CC23D5
:10042000A1F081110E94DB01EC2FF0E0EE0FFF1F25
:10043000EA57FF4FA591B491EC91ED2381E090E054
:1004400009F480E0DF91CF91089580E090E0FACF49
:100450001F93CF93DF93282F30E0F901EE58FF4F21
:100460008491F901E255FF4FD491F901E656FF4F0F
:10047000C491CC23A9F0162F81110E94DB01EC2F2F
:10048000F0E0EE0FFF1FE057FF4FA591B4918FB73B
:10049000F894EC91111108C0D095DE23DC938FBF46
:1004A000DF91CF911F910895DE2BF8CFCF93DF938B
:1004B00090E0FC01E255FF4F249186569F4FFC01CE
:1004C00084918823D1F090E0880F991FFC01E859AE
:1004D000FF4FA591B491FC01E057FF4FC591D49116
:1004E00061110EC09FB7F8948C91E22FE0958E2396
:1004F0008C932881E223E8839FBFDF91CF910895F9
:100500008FB7F894EC91E22BEC938FBFF6CF0F935B
:100510001F93CF93DF93EC01162F042F1B821A82B7
:1005200088EE93E0A0E0B0E08C839D83AE83BF8330
:100530008AE091E0998388831F8A1E8A198E188E1B
:100540001B8E1A8E1D8E1C8E6E8D6E7F6D7F6E8F34
:100550006695617081E06827842F0E94280261E01F
:10056000802F0E945602802F90E0FC01E255FF4F41
:10057000E491E88BFC01E656FF4FE491F0E0EE0FCA
:10058000FF1FE057FF4F859194919A8B898B60E014
:10059000812F0E9456028E8D81FD04C061E0812F63
:1005A0000E9428021C87812F90E0FC01E255FF4F3A
:1005B000E491ED87FC01E656FF4FE491F0E0EE0F89
:1005C000FF1FEA57FF4F859194919F878E87DF9198
:1005D000CF911F910F9108953FB7F8948091F90141
:1005E0009091FA01A091FB01B091FC0126B5A89B66
:1005F00005C02F3F19F00196A11DB11D3FBFBA2FB5
:10060000A92F982F8827BC01CD01620F711D811D74
:10061000911D42E0660F771F881F991F4A95D1F7F9
:1006200008952091F6013091F7012817390771F4E8
:100630009091F5018091F401981741F0E091F50156
:10064000F0E0EC54FE4F808190E008958FEF9FEF33
:1006500008950895EF92FF920F931F93CF93DF9326
:10066000DC015C96ED90FC905D97E114F10479F467
:1006700081E090E013969C938E93129790E080E037
:10068000DF91CF911F910F91FF90EF9008955196B8
:10069000ED91FC91529750968C915097982F909590
:1006A0000FB75E962C915E97122F127021FD609508
:1006B000F8942081112319F1282B2083E701219739
:1006C000F1F728E0462F50E0308160FF1AC0382B48
:1006D0003083E7012197F1F7BA01759567952150AD
:1006E00089F7112381F08081892380830FBF5C9675
:1006F0008D919C910197F1F781E090E0C1CF292382
:10070000DCCF3923E5CF9081892BEFCF2091F60103
:100710003091F7012817390771F48091F401209185
:10072000F50190E0805C9F4F821B910960E470E0CE
:100730000E940509089590E080E008952091F60157
:100740003091F70128173907B9F49091F50180919C
:10075000F401981789F0E091F501F0E0EC54FE4FB8
:1007600080812091F50130E02F5F3F4F2F733327B9
:100770002093F50190E008958FEF9FEF0895E091A9
:10078000F601F091F701E817F90769F4A389B48934
:100790009C918589809589238C931092F701109202
:1007A000F60181E0089580E00895CF93DF93EC0196
:1007B0009A01AB011B8E1A8E198E188E1F8A1E8A03
:1007C00060E079E08DE390E00E941909C901039788
:1007D0009D8F8C8F6C85663108F04BC0C901969552
:1007E00087958431910508F467C043979F8B8E8B62
:1007F000C9010597998F888FC901880F991F280F04
:10080000391F36952795369527952C5031093B8F02
:100810002A8F9091680084E0683048F021E06E30C3
:1008200008F420E081E001C0880F2A95EAF7892BBF
:10083000809368009C852DE630E0983050F02BE6E0
:1008400030E09E3030F02CE630E0963110F030E0B1
:1008500020E03C8B2B8B292F30E0983080F581E015
:1008600001C0880F9A95EAF78D8B8C8D9D8D01972D
:10087000F1F78A8D9B8D892BE1F08091F6019091A3
:10088000F701C817D907A9F0009711F00E94BF031C
:100890008E8D8E7F8E8F1092F4011092F501D09381
:1008A000F701C093F601EB89FC8980819D89892B32
:1008B0008083DF91CF91089581E090E097CF9E30C3
:1008C00040F42850310981E001C0880F2A95EAF7E9
:1008D000CBCF2E503109F7CF90E080E00895FB0197
:1008E00001900020E9F73197AF01461B570BDC015F
:1008F000ED91FC910280F381E02D09940F931F93F9
:10090000CF93DF93EC010E946F048C016AE271E0E7
:10091000CE010E946F04800F911FDF91CF911F9134
:100920000F910895CF93DF93EC018881998100970F
:1009300011F00E94100A198218821D821C821B82EB
:100940001A82DF91CF910895FC01808191810097F7
:1009500011F00C94100A08950F931F93CF93DF9317
:10096000EC0188819981009759F02A813B812617F3
:10097000370730F081E0DF91CF911F910F910895FB
:100980008B016F5F7F4F0E94990A009759F09983FE
:1009900088831B830A832C813D81232B59F7FC011B
:1009A0001082E8CF80E0E7CFEF92FF920F931F9382
:1009B000CF93DF93EC017B01198218821B821A828C
:1009C0001D821C82FB0101900020E9F731978F0105
:1009D000061B170BB8010E94AC04811109C0CE019F
:1009E000DF91CF911F910F91FF90EF900C949204A3
:1009F0001D830C83B70188819981DF91CF911F916D
:100A00000F91FF90EF900C94680BCF93DF93EC0164
:100A100070E060E00E94AC04811105C0CE01DF915E
:100A2000CF910C9492041D821C826CE271E088814B
:100A30009981DF91CF910C94680B1F920F920FB6A2
:100A40000F9211242F933F934F935F936F937F9354
:100A50008F939F93AF93BF93EF93FF9385E092E0C3
:100A60000E944C01FF91EF91BF91AF919F918F91A7
:100A70007F916F915F914F913F912F910F900FBE9A
:100A80000F901F9018951F920F920FB60F9211247E
:100A90002F938F939F93EF93FF93E0911502F09123
:100AA00016028081E0911B02F0911C0282FD1BC0A6
:100AB000908180911E028F5F8F7320911F02821799
:100AC00041F0E0911E02F0E0EB5FFD4F958F8093C7
:100AD0001E02FF91EF919F918F912F910F900FBE6A
:100AE0000F901F9018958081F4CF1F920F920FB630
:100AF0000F9211242F933F938F939F93AF93BF93A4
:100B00008091010290910202A0910302B09104022F
:100B10003091F80123E0230F2D3758F50196A11DE0
:100B2000B11D2093F8018093010290930202A093DB
:100B30000302B09304028091F9019091FA01A0910F
:100B4000FB01B091FC010196A11DB11D8093F9013B
:100B50009093FA01A093FB01B093FC01BF91AF9178
:100B60009F918F913F912F910F900FBE0F901F90EB
:100B7000189526E8230F0296A11DB11DD2CF1F9212
:100B80000F920FB60F9211242F933F934F935F93C1
:100B90006F937F938F939F93AF93BF93EF93FF9345
:100BA000E091F601F091F701309749F0A685B785FD
:100BB0008585968D91FF14C09C918923A1F4FF91A6
:100BC000EF91BF91AF919F918F917F916F915F91C5
:100BD0004F913F912F910F900FBE0F901F9018953E
:100BE0009C91892361F7A389B4899C91858980951B
:100BF00089238C93868997890197F1F7608D718D90
:100C0000A685B785558538E020E0CB010197F1F73F
:100C1000822F90E095958795282F4C91452309F0D8
:100C20002068315091F7868D81FD20958091F401E7
:100C300090E001968F7399273091F501381799F05C
:100C4000A091F401B0E0AC54BE4F2C938093F4011A
:100C5000828D938D0197F1F7A389B4898C91958941
:100C6000892B8C93ACCF868D8160868FF1CFE5E0A8
:100C7000F2E01382128288EE93E0A0E0B0E0848379
:100C80009583A683B7838CE191E09183808385EC83
:100C900090E09587848784EC90E09787868780EC46
:100CA00090E0918B808B81EC90E0938B828B82EC37
:100CB00090E0958B848B86EC90E0978B868B118EE1
:100CC000128E138E148E6CE271E081E193E00E942B
:100CD000D4046CE271E08BE093E00E94D4046CE2F7
:100CE00071E085E093E00E94D4046CE271E08FEF44
:100CF00092E00E94D4044AE069E080EE92E00E9413
:100D000087024BE06CE081EC92E00E94870242E0B7
:100D100063E082EA92E00C948702CF93DF93CDB731
:100D2000DEB728970FB6F894DEBF0FBECDBF78941C
:100D300084B5826084BD84B5816084BD85B58260E0
:100D400085BD85B5816085BD80916E008160809391
:100D50006E001092810080918100826080938100FA
:100D6000809181008160809381008091800081600A
:100D7000809380008091B10084608093B100809165
:100D8000B00081608093B00080917A00846080938D
:100D90007A0080917A00826080937A0080917A0054
:100DA000816080937A0080917A00806880937A00D5
:100DB0001092C10061E08DE00E94560260E08DE07B
:100DC0000E942802E0911502F091160282E08083D1
:100DD000E0911102F09112021082E0911302F09161
:100DE00014028FEC808310921D02E0911902F091A1
:100DF0001A0286E08083E0911702F0911802808148
:100E000080618083E0911702F091180280818860F0
:100E10008083E0911702F0911802808180688083BE
:100E2000E0911702F091180280818F7D808381E12B
:100E300093E00E9405058BE093E00E94050540E0E9
:100E400052EC61E070E080EE92E00E94D50340E851
:100E500055E260E070E081EC92E00E94D50340E052
:100E600052EC61E070E082EA92E00E94D50360E01B
:100E70008EE00E94560290E0E92E90E0F92EDD24EB
:100E8000D3940E940402019709F04FC06DE271E013
:100E900080EE92E00E947E046FE371E081EC92E0CC
:100EA0000E947E046CE471E080EE92E00E947E0479
:100EB0006DE571E085E092E00E947E04D092000230
:100EC0000E9404020197E1F30E94EC024B015C01D5
:100ED00088EE482E83E0582E612C712C0E94EC0283
:100EE000681979098A099B09683E73408105910553
:100EF000A8F321E0421A51086108710888EE880EB3
:100F000083E0981EA11CB11C4114510461047104BA
:100F100029F7E114F10409F4B4CF0E9438018823C1
:100F200009F4AFCF0E940000ACCF8091FF01811186
:100F3000F8C080910002882319F285E092E00E94B7
:100F40002C01181619060CF0A4C06CE271E0CE0159
:100F500001960E94D4040E94DE0097FD1BC08F837F
:100F600018860D811E810F5F1F4FB801CE010196BB
:100F70000E94AC04882379F329813A818D819E8176
:100F8000BE01695F7F4F820F931F0E94680B1E8313
:100F90000D83E1CF8091110390911203009709F422
:100FA000A4C069817A816115710509F49CC04091E2
:100FB0001303509114032D813E814217530708F407
:100FC00092C00E94680B8D819E819093160380933E
:100FD00015031E821D82CE0101960E94A4046FE6B5
:100FE00071E0CE0101960E94D404A0901103B0904C
:100FF0001203A114B10409F48FC0009115031091DC
:10100000160301151105B9F08D819E81080F191F76
:10101000B801CE0101960E94AC04882309F47CC07B
:1010200029813A818D819E81B501820F931F0E9493
:10103000680B1E830D834D815E8169817A8180EE0C
:1010400092E00E948E006AE271E080EE92E00E94DF
:101050006F04CE0101960E94A40480911503909123
:101060001603892B91F061E871E080911103909152
:1010700012030E945F0B892B41F41092FE01109223
:10108000FD01109200021092FF018091000288235E
:10109000A9F08091FD019091FE0105977CF46FE825
:1010A00071E080EE92E00E947E048091FD019091BB
:1010B000FE0101969093FE018093FD018091000254
:1010C000882309F4FDCE8091FD019091FE010597E2
:1010D00009F0F6CE109200021092FE011092FD016E
:1010E000D092FF01EDCE0E94100A89819A819093DF
:1010F0001203809311038B819C819093140380933E
:1011000013038D819E8190931603809315031A8299
:1011100019821C821B825DCFCE0101960E9492042F
:101120008ACF60EA71E082EA92E00E946F0466EA88
:1011300071E080EE92E00E947E041092FF01C0CE2A
:10114000CF93DF93CAE0D1E0D093A302C093A20271
:1011500082EA92E00E94BF03D093C202C093C10210
:1011600081EC92E00E94BF03D093E102C093E002C1
:1011700080EE92E00E94BF038FEF92E00E94A404F1
:1011800085E093E00E94A4048BE093E00E94A40415
:1011900081E193E0DF91CF910C94A4042F923F92D0
:1011A0004F925F926F927F928F929F92AF92BF9277
:1011B000CF92DF92EF92FF920F931F93CF93DF9323
:1011C000CDB7DEB7CA1BDB0B0FB6F894DEBF0FBE80
:1011D000CDBF09942A88398848885F846E847D84CD
:1011E0008C849B84AA84B984C884DF80EE80FD80CF
:1011F0000C811B81AA81B981CE0FD11D0FB6F89445
:10120000DEBF0FBECDBFED01089597FB072E16F48C
:10121000009407D077FD09D00E94380907FC05D05B
:101220003EF4909581959F4F0895709561957F4FFD
:101230000895052E97FB1EF400940E94300957FD77
:1012400007D00E944C0907FC03D04EF40C943009DF
:1012500050954095309521953F4F4F4F5F4F0895E2
:1012600090958095709561957F4F8F4F9F4F089512
:10127000AA1BBB1B51E107C0AA1FBB1FA617B707BC
:1012800010F0A61BB70B881F991F5A95A9F78095D8
:101290009095BC01CD010895A1E21A2EAA1BBB1B9B
:1012A000FD010DC0AA1FBB1FEE1FFF1FA217B30732
:1012B000E407F50720F0A21BB30BE40BF50B661F48
:1012C000771F881F991F1A9469F76095709580950C
:1012D00090959B01AC01BD01CF010895EE0FFF1F5A
:1012E0000590F491E02D09940F931F93CF93DF9312
:1012F0008230910510F482E090E0E0911903F091C2
:101300001A0330E020E0B0E0A0E0309799F4211516
:10131000310509F44AC0281B390B24303105D8F5B2
:101320008A819B816115710589F1FB019383828319
:10133000FE0111C040815181028113814817590774
:10134000E0F04817590799F4109761F012960C9342
:10135000129713961C933296CF01DF91CF911F9174
:101360000F9108950093190310931A03F4CF2115D8
:10137000310551F04217530738F0A901DB019A01FA
:10138000BD01DF01F801C1CFEF01F9CF90931A033E
:1013900080931903CDCFFE01E20FF31F8193919348
:1013A0002250310939832883D7CF209117033091F8
:1013B0001803232B41F42091020130910301309353
:1013C000180320931703209100013091010121158A
:1013D000310541F42DB73EB740910401509105010C
:1013E000241B350BE0911703F0911803E217F30764
:1013F000A0F42E1B3F0B2817390778F0AC014E5F85
:101400005F4F2417350748F04E0F5F1F50931803A6
:1014100040931703819391939FCFF0E0E0E09CCF3E
:10142000CF93DF930097E9F0FC0132971382128289
:10143000A0911903B0911A03ED0130E020E010975C
:10144000A1F420813181820F931F209117033091E5
:1014500018032817390709F061C0F0931803E093C7
:101460001703DF91CF910895EA01CE17DF07E8F562
:101470004A815B819E0141155105B1F7E901FB836A
:10148000EA8349915991C40FD51FEC17FD0761F408
:10149000808191810296840F951FE9019983888349
:1014A000828193819B838A83F0E0E0E012968D91A4
:1014B0009C9113970097B9F52D913C911197CD010F
:1014C0000296820F931F209117033091180328175B
:1014D000390739F6309751F510921A031092190313
:1014E000B0931803A0931703BCCFD383C28340816A
:1014F0005181840F951FC817D90761F44E5F5F4F64
:1015000088819981480F591F518340838A819B812B
:10151000938382832115310509F0B0CFF0931A032C
:10152000E09319039ECFFD01DC01C0CF138212822C
:10153000D7CFB0E0A0E0EFE9FAE00C94D0088C013E
:10154000009751F4CB010E9474098C01C801CDB7FA
:10155000DEB7E0E10C94EC08FC01E60FF71F9C01FC
:1015600022503109E217F30708F49DC0D901CD914B
:10157000DC911197C617D70798F0C530D10530F325
:10158000CE0104978617970708F3C61BD70B22973F
:10159000C193D1936D937C93CF010E94100AD6CF53
:1015A0005B01AC1ABD0A4C018C0E9D1EA091190363
:1015B000B0911A03512C412CF12CE12C109731F5EC
:1015C00080911703909118038815990509F05CC064
:1015D0004616570608F058C080910001909101010D
:1015E000009741F48DB79EB74091040150910501D9
:1015F000841B950BE817F90708F055C0F093180302
:10160000E0931703F90171836083A0CF8D919C91C2
:10161000119712966C90129713967C901397A815B9
:10162000B90559F56C0142E0C40ED11CCA14DB04A3
:1016300020F1AC014A195B09DA011296159780F086
:101640006282738251834083D9016D937C93E1144C
:10165000F10471F0D7011396FC93EE93129776CFB5
:1016600022968C0F9D1FF90191838083F301EFCFA8
:10167000F0931A03E093190369CF4816590608F44A
:101680002C017D01D3019ACFCB010E9474097C010A
:10169000009749F0AE01B8010E94560BC8010E94A4
:1016A000100A870153CF10E000E050CFFB01DC01AE
:1016B00002C001900D9241505040D8F70895FB01AF
:1016C000DC018D91019080190110D9F3990B0895D7
:1016D000FB01DC0101900D920020E1F7089510E07C
:1016E000C2E6D0E004C0FE010E946E092196C33616
:1016F000D107C9F7F894FFCF00001B03800000005A
:1017000000002A038E006C04290386039E03110344
:10171000000000006E018E00BB00BB012C01CA005E
:101720001E010D0A00737461727420636170747518
:101730007265202E2E2E0073746172746361707452
:10174000757265006361707475726520646F6E6593
:10175000202E2E2E00736F6D656F6E6520697320CD
:1017600068657265202100416E64726F6964204370
:101770006F6D6D616E643A2000626C7565746F6F99
:1017800074682061636B00626C7565746F6F746858
:10179000206E6F74206F6B007374617274007365D8
:0C17A0006E7420746F2077696669000089
:107E0000112484B714BE81FFF0D085E080938100F7
:107E100082E08093C00088E18093C10086E0809377
:107E2000C20080E18093C4008EE0C9D0259A86E02C
:107E300020E33CEF91E0309385002093840096BBD3
:107E4000B09BFECF1D9AA8958150A9F7CC24DD24C4
:107E500088248394B5E0AB2EA1E19A2EF3E0BF2EE7
:107E6000A2D0813461F49FD0082FAFD0023811F036
:107E7000013811F484E001C083E08DD089C08234E0
:107E800011F484E103C0853419F485E0A6D080C0E4
:107E9000853579F488D0E82EFF2485D0082F10E0AE
:107EA000102F00270E291F29000F111F8ED06801E7
:107EB0006FC0863521F484E090D080E0DECF843638
:107EC00009F040C070D06FD0082F6DD080E0C81688
:107ED00080E7D80618F4F601B7BEE895C0E0D1E017
:107EE00062D089930C17E1F7F0E0CF16F0E7DF06D8
:107EF00018F0F601B7BEE89568D007B600FCFDCFD4
:107F0000A601A0E0B1E02C9130E011968C91119780
:107F100090E0982F8827822B932B1296FA010C0160
:107F200087BEE89511244E5F5F4FF1E0A038BF0790
:107F300051F7F601A7BEE89507B600FCFDCF97BE46
:107F4000E89526C08437B1F42ED02DD0F82E2BD052
:107F50003CD0F601EF2C8F010F5F1F4F84911BD097
:107F6000EA94F801C1F70894C11CD11CFA94CF0C13
:107F7000D11C0EC0853739F428D08EE10CD085E9AC
:107F80000AD08FE07ACF813511F488E018D01DD067
:107F900080E101D065CF982F8091C00085FFFCCF94
:107FA0009093C60008958091C00087FFFCCF809118
:107FB000C00084FD01C0A8958091C6000895E0E648
:107FC000F0E098E1908380830895EDDF803219F02E
:107FD00088E0F5DFFFCF84E1DECF1F93182FE3DFCA
:107FE0001150E9F7F2DF1F91089580E0E8DFEE27F6
:047FF000FF270994CA
:027FFE00040479
:00000001FF
