:100000000C9463000C948B000C948B000C94580C93
:100010000C94580C0C94580C0C948B000C948B0082
:100020000C948B000C948B000C948B000C948B0024
:100030000C948B000C948B000C948B000C948B0014
:100040000C94EF0A0C948B000C94BD0A0C94970A44
:100050000C948B000C948B000C948B000C948B00F4
:100060000C94390B0C948B00000000002400270036
:100070002A0000000008000201000003040700003D
:1000800000000000000000000000230026002900FE
:1000900000000000250028002B00040404040404D0
:1000A0000404020202020202030303030303010227
:1000B00004081020408001020408102001020408F6
:1000C0001020D00C191011241FBECFEFD8E0DEBFD6
:1000D000CDBF24E0AEE0B2E001C01D92A033B20774
:1000E000E1F712E0A0E0B1E0E0E9F6E202C005903D
:1000F0000D92AE30B107D9F710E0C2E6D0E004C0EF
:100100002197FE010E943A11C136D107C9F70E941A
:10011000260D0C943B130C94000008950895CF9382
:10012000DF93AC01E091D902F091DA023097F1F05F
:100130009091D8028091D7029817C0F090E0292FB3
:1001400030E02617370754F4D901A659BD4F240FC4
:10015000351FE90128812C939F5FF1CF1092D802BF
:100160006093D702CB01DF91CF910994DF91CF91BA
:100170000895AF92BF92CF92DF92EF92FF920F93CA
:100180001F93CF93DF936C017B018B01040F151F2D
:10019000EB015E01AE18BF08C017D10759F0699195
:1001A000D601ED91FC910190F081E02DC6010995F9
:1001B000892B79F7C501DF91CF911F910F91FF90A6
:1001C000EF90DF90CF90BF90AF900895FC01538DDA
:1001D000448D252F30E0842F90E0821B930B541721
:1001E00010F0CF96089501970895FC01918D828DAE
:1001F000981761F0A28DAE0FBF2FB11D5D968C9147
:10020000928D9F5F9F73928F90E008958FEF9FEF85
:1002100008952FB7F89480912F0390913003A09107
:100220003103B09132032FBF80933B0390933C0383
:10023000A0933D03B0933E0383E393E00E94F50057
:1002400097FF26C02FB7F89480912F039091300329
:10025000A0913103B09132032FBF40913B035091E5
:100260003C0360913D0370913E03841B950BA60BEC
:10027000B70B409137035091380360913903709167
:100280003A0384179507A607B707B0F28FEF9FEFE1
:100290000895FC01918D828D981731F0828DE80FC1
:1002A000F11D858D90E008958FEF9FEF0895FC017B
:1002B000918D228D892F90E0805C9F4F821B910948
:1002C0008F739927089583E393E00E94570121E0FB
:1002D000892B09F420E0822F089580E090E0892B9B
:1002E00029F00E94630181110C9400000895FC0123
:1002F000A48DA80FB92FB11DA35ABF4F2C91848D87
:1003000090E001968F739927848FA689B7892C93E3
:10031000A089B1898C91837080648C93938D848D36
:10032000981306C00288F389E02D80818F7D808339
:100330000895EF92FF920F931F93CF93DF93EC01F9
:1003400081E0888F9B8D8C8D98131AC0E889F9897C
:10035000808185FF15C09FB7F894EE89FF8960837F
:10036000E889F98980818370806480839FBF81E000
:1003700090E0DF91CF911F910F91FF90EF90089542
:10038000F62E0B8D10E00F5F1F4F0F731127E02E1D
:100390008C8D8E110CC00FB607FCFACFE889F98955
:1003A000808185FFF5CFCE010E947701F1CFEB8DE3
:1003B000EC0FFD2FF11DE35AFF4FF0829FB7F89429
:1003C0000B8FEA89FB8980818062CFCFCF93DF9347
:1003D000EC01888D8823B9F0AA89BB89E889F9895D
:1003E0008C9185FD03C0808186FD0DC00FB607FC92
:1003F000F7CF8C9185FFF2CF808185FFEDCFCE01C5
:100400000E947701E9CFDF91CF910895833081F089
:1004100028F4813099F08230A9F008958730A9F04E
:100420008830C9F08430B1F4809180008F7D03C0A2
:10043000809180008F7780938000089584B58F77B6
:1004400084BD089584B58F7DFBCF8091B0008F77F8
:100450008093B00008958091B0008F7DF9CFCF9345
:10046000DF93E0E8F0E08491ECEBF0E0D491E8EA8F
:10047000F0E0C491CC23A1F081110E940602EC2F80
:10048000F0E0EE0FFF1FEA57FF4FA591B491EC91FA
:10049000ED2381E090E009F480E0DF91CF910895B1
:1004A00080E090E0FACF1F93CF93DF93282F30E0C6
:1004B000F901EE58FF4F8491F901E255FF4FD491B5
:1004C000F901E656FF4FC491CC23A9F0162F8111F4
:1004D0000E940602EC2FF0E0EE0FFF1FE057FF4FE7
:1004E000A591B4918FB7F894EC91111108C0D095F3
:1004F000DE23DC938FBFDF91CF911F910895DE2B18
:10050000F8CFCF93DF9390E0FC01E255FF4F2491A9
:1005100086569F4FFC0184918823D1F090E0880F8C
:10052000991FFC01E859FF4FA591B491FC01E057D8
:10053000FF4FC591D49161110EC09FB7F8948C9173
:10054000E22FE0958E238C932881E223E8839FBFDE
:10055000DF91CF9108958FB7F894EC91E22BEC9353
:100560008FBFF6CF0F931F93CF93DF93EC01162F1E
:10057000042F1B821A8288EE93E0A0E0B0E08C8307
:100580009D83AE83BF8381E191E0998388831F8A35
:100590001E8A198E188E1B8E1A8E1D8E1C8E6E8DC5
:1005A0006E7F6D7F6E8F6695617081E06827842F06
:1005B0000E94530261E0802F0E948102802F90E010
:1005C000FC01E255FF4FE491E88BFC01E656FF4F3A
:1005D000E491F0E0EE0FFF1FE057FF4F85919491FB
:1005E0009A8B898B60E0812F0E9481028E8D81FD24
:1005F00004C061E0812F0E9453021C87812F90E08C
:10060000FC01E255FF4FE491ED87FC01E656FF4FF8
:10061000E491F0E0EE0FFF1FEA57FF4F85919491B0
:100620009F878E87DF91CF911F910F9108953FB7DC
:10063000F8948091CF029091D002A091D102B09114
:10064000D20226B5A89B05C02F3F19F00196A11D27
:10065000B11D3FBFBA2FA92F982F8827BC01CD010C
:10066000620F711D811D911D42E0660F771F881F6B
:10067000991F4A95D1F708952091AB02260F332791
:10068000331F21323105ECF420910103FC0190E08D
:1006900080E0243069F082E00895A091AB022191BE
:1006A000AC0145575D4FA40FB52FB11D2C9301969A
:1006B000861798F38091AB02680F6093AB0280E0DD
:1006C000089581E008951092010381E08093000372
:1006D0001092DB0261E082E10E94530261E083E15B
:1006E0000E945302E9EBF0E080818E7F808380815D
:1006F0008D7F808388E48093B80085E48093BC007C
:100700000895CF93DF9391E090938A028823B9F004
:10071000C091B800D091BA008091BC008A7B8093D0
:10072000BC0060E082E10E94530260E083E10E942D
:1007300053020E946303D093BA00C093B800DF91C4
:10074000CF9108950895E091D8028091D702E817DB
:1007500030F4F0E0E659FD4F808190E008958FEF8E
:100760009FEF08959091D8028091D7022FEF3FEF2D
:10077000981748F4E92FF0E0E659FD4F208130E06A
:100780009F5F9093D802C90108958091D7029091FC
:10079000D802891B990B0895CF92DF92EF92FF92B6
:1007A0000F931F93CF93DF937C01CB018A0120919C
:1007B0000703222389F0EB016B01C40ED51ECC1573
:1007C000DD0569F06991D701ED91FC910190F0810F
:1007D000E02DC7010995F3CF642F0E943C03C801A7
:1007E000DF91CF911F910F91FF90EF90DF90CF900D
:1007F0000895CF93DF931F92CDB7DEB76983209121
:1008000007032223F9F020912A03203258F021E037
:1008100030E0FC013383228390E080E00F90DF9191
:10082000CF91089580910803E82FF0E0E75FFC4F37
:10083000998190838F5F8093080380932A0381E0DE
:1008400090E0ECCF61E0CE0101960E943C03F7CF2F
:1008500020916802309169022817390771F490914C
:10086000670280916602981741F0E0916702F0E01C
:10087000EA5DFD4F808190E008958FEF9FEF08952E
:10088000EF92FF920F931F93CF93DF93DC015C965F
:10089000ED90FC905D97E114F10479F481E090E033
:1008A00013969C938E93129790E080E0DF91CF9106
:1008B0001F910F91FF90EF9008955196ED91FC914B
:1008C000529750968C915097982F90950FB75E96AF
:1008D0002C915E97122F127021FD6095F894208163
:1008E000112319F1282B2083E7012197F1F728E044
:1008F000462F50E0308160FF1AC0382B3083E7016B
:100900002197F1F7BA0175956795215089F7112361
:1009100081F08081892380830FBF5C968D919C91AB
:100920000197F1F781E090E0C1CF2923DCCF392393
:10093000E5CF9081892BEFCF209168023091690239
:100940002817390771F4809166022091670290E0C0
:10095000805C9F4F821B910960E470E00E94D1107F
:10096000089590E080E00895209168023091690236
:1009700028173907B9F49091670280916602981799
:1009800089F0E0916702F0E0EA5DFD4F80812091FF
:10099000670230E02F5F3F4F2F73332720936702AA
:1009A00090E008958FEF9FEF0895E0916802F09135
:1009B0006902E817F90769F4A389B4899C918589CC
:1009C000809589238C93109269021092680281E0CD
:1009D000089580E00895CF93DF93EC019A01AB0175
:1009E0001B8E1A8E198E188E1F8A1E8A60E079E07F
:1009F0008DE390E00E94E510C90103979D8F8C8FD5
:100A00006C85663108F04BC0C90196958795843195
:100A1000910508F467C043979F8B8E8BC90105979A
:100A2000998F888FC901880F991F280F391F369514
:100A30002795369527952C5031093B8F2A8F909119
:100A4000680084E0683048F021E06E3008F420E06F
:100A500081E001C0880F2A95EAF7892B809368000E
:100A60009C852DE630E0983050F02BE630E09E304B
:100A700030F02CE630E0963110F030E020E03C8B96
:100A80002B8B292F30E0983080F581E001C0880F52
:100A90009A95EAF78D8B8C8D9D8D0197F1F78A8D54
:100AA0009B8D892BE1F08091680290916902C817B3
:100AB000D907A9F0009711F00E94D5048E8D8E7F82
:100AC0008E8F1092660210926702D0936902C093D3
:100AD0006802EB89FC8980819D89892B8083DF9165
:100AE000CF91089581E090E097CF9E3040F4285058
:100AF000310981E001C0880F2A95EAF7CBCF2E504B
:100B00003109F7CF90E080E00895FC01A081B18128
:100B10008C918D3021F03CF489508230A8F51196EB
:100B2000B183A083F3CF8032D1F38F3209F00895DF
:100B300011968C9111978A3219F08F32C1F0089575
:100B40001196B183A083A081B181CD0101969183DB
:100B5000808311968C9111978823B1F08A3299F78E
:100B600012968C9112978F3271F71396D9CFA0817C
:100B7000B181CD0101969183808311968C91882358
:100B800019F08A30A1F7C2CF08951F93CF93DF9356
:100B9000EC01162F0E948505E881F98180811813E8
:100BA00008C03196F983E88381E0DF91CF911F91EE
:100BB000089580E0FACFEF92FF920F931F93CF93A7
:100BC000DF938C01DC011496CD91DC91EA80FB80EF
:100BD0008E819F81E80EF91EC80102960E9485054C
:100BE000D8011296ED91FC918081873219F0823202
:100BF00009F042C03196D8011396FC93EE931297F8
:100C0000D8011296ED91FC9113979081992309F4E4
:100C100062C09F012F5F3F4F13963C932E93129714
:100C2000891709F458C09C3599F49181A7E4B1E083
:100C30002C91222321F092131DC011969C9199238F
:100C400009F449C03296D8011396FC93EE9312979B
:100C50004E815F819A012F5F3F4F6C817D816217CA
:100C6000730770F2EA81FB81E40FF51F3F832E8347
:100C70009083C6CF1296DCCF80330CF444C08A3305
:100C800024F08F3504F18B3704F5F801228133818C
:100C90002F5F3F4F338322834E815F819A012F5F05
:100CA0003F4F6C817D816217730738F0EA81FB81C9
:100CB000E40FF51F3F832E838083D8011296ED91B8
:100CC000FC918081D9CF8134F4F08B35F4F293ED2F
:100CD000980F9230D0F22E813F81C90101964C814C
:100CE0005D814817590790F0EA81FB81E20FF31FFD
:100CF0009F838E831082C701DF91CF911F910F9147
:100D0000FF90EF9008958B3211F7BFCFF12CE12CBB
:100D1000F2CFFC0186819781680F791F248135818C
:100D20002617370738F022813381820F931F77838C
:100D30006683089590E080E0089580911E028111FD
:100D40000BC010921B0210921A0210921D021092F8
:100D50001C0281E080931E028AE192E00895809156
:100D6000120281110BC010920F0210920E0210920B
:100D700011021092100281E0809312028EE092E044
:100D80000895DB01109749F0ED91FC9111970190C6
:100D9000F081E02DBC01CD01099490E080E0089540
:100DA000FB0101900020E9F73197AF01461B570B7B
:100DB000DC01ED91FC910280F381E02D0994CF9349
:100DC000DF93FC0144815581608171818BEF93E059
:100DD0000E94B900EC0162E571E08BEF93E00E94A4
:100DE000D0068C0F9D1FDF91CF9108950F931F9315
:100DF000CF93DF93EC010E94D0068C0162E571E095
:100E0000CE010E94D006800F911FDF91CF911F91DC
:100E10000F9108950F931F93CF93DF938B01FC01E4
:100E2000C281D381209759F06A817B810115110518
:100E300019F06115710549F46017710759F4CE0175
:100E4000DF91CF911F910F910895C8010E942B133C
:100E5000892BA9F30990D881C02DE4CFAF92BF921E
:100E6000CF92DF92EF92FF920F931F93CF93DF9376
:100E700000D000D000D0CDB7DEB77C01DC011696E3
:100E80008C91811104C00E949D068C0188C0815004
:100E9000F7018683C080D180B60184E090E00E9493
:100EA000C1068C01009709F48CC0DC011196DC921C
:100EB000CE9213961C921E9212976701B2E0CB0E4F
:100EC000D11C6BE7C6010E94C5058823E1F26DE7DE
:100ED000C6010E94C50581115EC0C7010E94DB05E5
:100EE0005C01892B81F26AE3C6010E94C505882353
:100EF00051F21A821982BE016F5F7F4FC7010E94B3
:100F0000E507882309F4BFCFB501C8010E940A078D
:100F1000009759F5F801608171818AE090E00E94A4
:100F2000C106009741F0DC0111961C921E921596A5
:100F30001C921E921497D8011296ED91FC91309755
:100F400029F4F8019383828308C0F901208131815B
:100F500021153105D1F791838083009709F493CF50
:100F6000DC011396BC92AE92129726E0FE013196F8
:100F7000DC01149601900D922A95E1F76DE7C60108
:100F80000E94C505811107C06CE2C6010E94C5051B
:100F90008111A3CF78CFF70186818F5F8683C80147
:100FA00026960FB6F894DEBF0FBECDBFDF91CF916E
:100FB0001F910F91FF90EF90DF90CF90BF90AF9077
:100FC00008950E949D068C0178CF8F929F92AF92D8
:100FD000BF92CF92DF92EF92FF920F931F93CF9326
:100FE000DF9300D000D000D0CDB7DEB77C016B011D
:100FF0005C0182E0A80EB11CC5010E948505D701E5
:101000001296ED91FC91139780818B35E1F08B372F
:1010100009F4B2C011E0873219F0823209F010E011
:10102000C7010E94DB05009709F485C021E030E08C
:10103000112309F4ABC022E030E0F60131832083B4
:101040009383828379C0F7018681811104C00E9455
:10105000AF068C016BC0815016968C9316978D90BD
:101060009C90B40184E090E00E94C1068C0100973E
:1010700009F495C0FC0191828082138212826BE593
:10108000C5010E94C505882311F36DE5C5010E94C5
:10109000C505811144C01A821982BE016F5F7F4F5E
:1010A000C7010E94E507882391F2D8016D917C91D8
:1010B00088E090E00E94C106DC01892B39F011968E
:1010C0001C921E9213961C921E921297F801228176
:1010D00033812115310521F4B383A28308C09C011B
:1010E000F901808191810097D1F7B183A083109796
:1010F00009F4ADCF86E0FE013196129601900D9273
:101100008A95E1F76DE5C5010E94C505811107C00B
:101110006CE2C5010E94C5058111BDCF98CFD701F2
:1011200016968C9116978F5F16968C93F801808196
:101130009181892BA9F410E0812F26960FB6F8949F
:10114000DEBF0FBECDBFDF91CF911F910F91FF90FA
:10115000EF90DF90CF90BF90AF909F908F900895C9
:1011600086E090E0D60111969C938E9313961C9383
:101170000E93129711E0E0CFC7010E942E07FC01E9
:1011800020813181232BB9F227E030E0D60111967E
:101190003C932E9313969C938E931297EBCF0E94C1
:1011A000AF068C016CCFFC0180819181009711F01A
:1011B0000C94DC1108950F931F93CF93DF93EC01F0
:1011C00088819981009759F02A813B81261737073A
:1011D00030F081E0DF91CF911F910F9108958B0145
:1011E0006F5F7F4F0E946512009759F09983888343
:1011F0001B830A832C813D81232B59F7FC0110822C
:10120000E8CF80E0E7CFEF92FF920F931F93CF9349
:10121000DF936115710541F480E0DF91CF911F915B
:101220000F91FF90EF90089541155105B1F07B01AA
:10123000EC010C811D81040F151FB8010E94DB0811
:10124000882351F3288139818C819D81B701820FD8
:10125000931F0E9434131D830C8381E0DECFEF9235
:10126000FF920F931F93CF93DF93EC017B018A01D1
:10127000BA010E94DB0828813981811114C021152F
:10128000310519F0C9010E94DC11198218821D82F2
:101290001C821B821A82CE01DF91CF911F910F9188
:1012A000FF90EF9008951D830C83B701C9010E9440
:1012B0003413F1CF50E040E061E571E00C942F0968
:1012C0000F931F93CF93DF93CDB7DEB7C15FD109E3
:1012D0000FB6F894DEBF0FBECDBF8AE194E00E9446
:1012E0005A098E010F5F1F4F8091D7029091D8024B
:1012F000891B990B029774F080ED93E00E94B20372
:1013000089831A8241E050E0B8018AE194E00E94AA
:101310000309EACF80ED93E00E94B2038AE194E0F2
:101320000E94DF06CE0109969C838B8388EC90E0B7
:101330009E838D8318861F828BE091E09A83898338
:1013400080911A0490911B04009711F481E591E0BB
:10135000CF52DF4F19830883C15DD040CD52DF4F9C
:1013600099838883C35DD040CB52DF4F19830883B4
:10137000C55DD0408AE0C952DF4F8883C75DD04049
:10138000CE018F529F4F0E942E07FC012081318198
:10139000232B09F468C065E571E00E940A07FC018F
:1013A000892B09F442C0848195818330910560F5D1
:1013B000019708F470C00680F781E02D309709F49A
:1013C0006AC0808161E070E0843761F18B3209F49A
:1013D0005CC08D3209F05AC0319691E070E060E057
:1013E0004AE0819120ED280F2A3008F051C0469F35
:1013F0009001479F300D1124682F880F770B6053A1
:101400007109620F731FEDCF8530910548F0059784
:10141000B1F166817781808591850E949B1002C021
:101420006681778181E0672B09F480E08093000179
:10143000CF50DF4F1882C15FD040805DC051DF4F79
:101440008883C05FD04061ED70E06C0F7D1F615EEE
:101450007F4F8BEF93E00E94D00662E571E08BEF47
:1014600093E00E94D006CF50DF4F0FB6F894DEBF56
:101470000FBECDBFDF91CF911F910F91089566816F
:101480007781719561957109CDCF319690E0A6CFA6
:101490009111F7CFC7CF70E060E0C4CFFC0111829B
:1014A00010821382128215821482FB0101900020A7
:1014B000E9F73197AF01461B570B0C942F0985EDC7
:1014C0008093BC008091030390910403A0910503D5
:1014D000B09106030796A11DB11D23E0B695A7950F
:1014E000979587952A95D1F72091BC0024FD03C0DC
:1014F00010920103089540910303509104036091F9
:10150000050370910603452B462B472B69F3009783
:10151000A105B10541F025E32A95F1F700000197F7
:10152000A109B109E1CF809102030C9481031F92BC
:101530000F920FB60F9211242F933F934F935F9307
:101540006F937F938F939F93AF93BF93EF93FF938B
:1015500083E393E00E947701FF91EF91BF91AF91F8
:101560009F918F917F916F915F914F913F912F91BB
:101570000F900FBE0F901F9018951F920F920FB6ED
:101580000F9211242F938F939F93EF93FF93E091EA
:101590004303F09144038081E0914903F0914A03B1
:1015A00082FD1BC0908180914C038F5F8F732091CF
:1015B0004D03821741F0E0914C03F0E0ED5CFC4FED
:1015C000958F80934C03FF91EF919F918F912F9175
:1015D0000F900FBE0F901F9018958081F4CF1F922F
:1015E0000F920FB60F9211242F933F938F939F93D7
:1015F000AF93BF9380912F0390913003A09131035B
:10160000B09132033091CE0223E0230F2D3758F5ED
:101610000196A11DB11D2093CE0280932F039093BC
:101620003003A0933103B09332038091CF029091A5
:10163000D002A091D102B091D2020196A11DB11D9C
:101640008093CF029093D002A093D102B093D202A4
:10165000BF91AF919F918F913F912F910F900FBEAE
:101660000F901F90189526E8230F0296A11DB11D1B
:10167000D2CF1F920F920FB60F9211242F933F9348
:101680004F935F936F937F938F939F93AF93BF938A
:10169000EF93FF938091B900887F803609F44AC0A8
:1016A000F0F5883209F4A7C018F5803109F49BC021
:1016B000B8F4882309F4F9C0883009F494C0FF9184
:1016C000EF91BF91AF919F918F917F916F915F91BA
:1016D0004F913F912F910F900FBE0F901F90189533
:1016E000883109F488C0803251F78093FF0214C01A
:1016F000803409F49DC040F48033B9F38833F9F69F
:101700008093FF0285ECB0C0803509F485C0883530
:1017100009F496C0883499F60E945F0AD0CF8839C0
:1017200009F48CC038F5883729F050F4883611F068
:10173000803729F683E0809301031092CD0257C0D1
:10174000883809F47BC0803919F0803809F0B7CFA8
:101750008091CD02803208F071C0E091CD0281E02D
:101760008E0F8093CD028091BB00F0E0E355FD4FDA
:1017700080833DC0803B39F0E0F4803A09F479C0C1
:10178000883A09F09CCF84E0809301031092AC0268
:101790001092AB02E091D502F091D60209958091AA
:1017A000AB0281110FC081E08093AB0210928B02DB
:1017B00009C0803C09F4A6CF883C09F4A3CF883B3C
:1017C00009F07DCFE091AC0281E08E0F8093AC02F6
:1017D000F0E0E557FD4F80818093BB009091AC0213
:1017E0008091AB0229C08091DC028093BB0085EC24
:1017F0008093BC0064CF9091FE028091FD02981707
:1018000058F5E091FE0281E08E0F8093FE02F0E039
:10181000E352FD4F8081E9CFE091FE0281E08E0F1F
:101820008093FE028091BB00F0E0E352FD4F808385
:101830009091FE028091FD029817C8F285E8D8CFFA
:10184000E091FE0281E08E0F8093FE028091BB004A
:10185000F0E0E352FD4F80838091000381115CCF63
:1018600081E08093DB0284EA8093BC001092010344
:1018700026CF85EC8093BC00109201038091CD02AD
:10188000803230F4E091CD02F0E0E355FD4F10825C
:101890006091CD0270E0E091D302F091D4028DEA24
:1018A00092E009951092CD020ACF1092FF0234CF38
:1018B0001F920F920FB60F9211242F933F934F93C5
:1018C0005F936F937F938F939F93AF93BF93EF93A8
:1018D000FF93E0916802F0916902309749F0A68584
:1018E000B7858585968D91FF14C09C918923A1F4BD
:1018F000FF91EF91BF91AF919F918F917F916F91E8
:101900005F914F913F912F910F900FBE0F901F90BD
:1019100018959C91892361F7A389B4899C91858945
:10192000809589238C93868997890197F1F7608D3B
:10193000718DA685B785558538E020E0CB010197EC
:10194000F1F7822F90E095958795282F4C914523AC
:1019500009F02068315091F7868D81FD20958091A6
:10196000660290E001968F739927309167023817CD
:1019700099F0A0916602B0E0AA5DBD4F2C938093D0
:101980006602828D938D0197F1F7A389B4898C91BA
:101990009589892B8C93ACCF868D8160868FF1CF12
:1019A000E3E3F3E01382128288EE93E0A0E0B0E07C
:1019B00084839583A683B78323E231E03183208338
:1019C00025EC30E03587248724EC30E03787268704
:1019D00020EC30E0318B208B21EC30E0338B228BFC
:1019E00022EC30E0358B248B26EC30E0378B268BD5
:1019F000118E128E138E148EE0EDF3E0138212829C
:101A000084839583A683B78385E391E09183808364
:101A100061E571E086E294E00E944E0A61E571E0C2
:101A200080E294E00E944E0A61E571E08AE194E070
:101A30000E944E0A4AE069E08BEF93E00E94B202F6
:101A40004BE06CE08CED93E00C94B202CF93DF930B
:101A5000CDB7DEB728970FB6F894DEBF0FBECDBF67
:101A6000789484B5826084BD84B5816084BD85B579
:101A7000826085BD85B5816085BD80916E00816085
:101A800080936E001092810080918100826080932B
:101A9000810080918100816080938100809180002D
:101AA0008160809380008091B10084608093B10058
:101AB0008091B00081608093B00080917A00846052
:101AC00080937A0080917A00826080937A0080917E
:101AD0007A00816080937A0080917A008068809398
:101AE0007A001092C1001092D8021092D702109280
:101AF000080310922A030E9463038EE890E09093FB
:101B0000D6028093D5028FE890E09093D402809320
:101B1000D30288E08093BA0080E699E09093DA02DD
:101B20008093D902E0914303F091440382E08083E3
:101B3000E0913F03F09140031082E0914103F09166
:101B400042038FEC808310924B03E0914703F091A6
:101B5000480386E08083E0914503F091460380814D
:101B600080618083E0914503F09146038081886025
:101B70008083E0914503F0914603808180688083F3
:101B8000E0914503F091460380818F7D808386E25A
:101B900094E00E945A0980E294E00E945A0940E0D1
:101BA00052EC61E070E08BEF93E00E94EB0440E8C0
:101BB00055E260E070E08CED93E00E94EB0460E0A1
:101BC0008EE00E9481020FEF30E0A32E30E0B32EB2
:101BD00011E04CE0942E52E0852E95EE392E25EC46
:101BE000222E0E942F02019709F065C06BE571E07B
:101BF0008BEF93E00E94F6066DE671E08CED93E0CA
:101C00000E94F6066AE771E08BEF93E00E94F60609
:101C100080910001882309F445C06BE871E083E3FB
:101C200093E00E94F60610932E0310922D036AEAA9
:101C300071E08BEF93E00E94F6060E942F0201975D
:101C4000E1F30E9417036B017C0184EF482E5524B9
:101C50005394612C712C0E9417036C197D098E0915
:101C60009F09683E734081059105A8F381E0481AF9
:101C700051086108710828EEC20E23E0D21EE11C53
:101C8000F11C411451046104710429F7A114B10439
:101C900009F4A7CF0E946301882309F49ECF0E9414
:101CA00000009BCF10932D0310922E0310922C0353
:101CB00010922B03C2CF80912D038111ABC183E31E
:101CC00093E00E945701181619060CF085C01A827D
:101CD00019821C821B821E821D8250E040E061E559
:101CE00071E0CE0101960E942F090E94090197FD23
:101CF0000CC08F83188641E050E0BE01695F7F4FC2
:101D0000CE0101960E940309F0CF809126049091A4
:101D10002704009709F490C069817A8161157105E3
:101D200009F488C040912804509129042D813E81F6
:101D30004217530708F47EC00E9434138D819E81A0
:101D400090932B0480932A041E821D82CE0101965B
:101D50000E94D3086EEB71E0CE0101960E944E0AFC
:101D600040912A0450912B0460912604709127041D
:101D7000CE0101960E94030981110CC089819A81CC
:101D8000009711F00E94DC111A8219821E821D82B6
:101D90001C821B82CE0101960E94DF06CE010196B5
:101DA0000E94D30880912A0490912B04892B09F476
:101DB0005AC061ED71E080912604909127040E9441
:101DC0002B13892B09F04FC010922C0310922B0378
:101DD00010922E0310922D0380912E038823A9F0D8
:101DE00080912B0390912C0305977CF46FED71E0AB
:101DF0008BEF93E00E94F60680912B0390912C03C9
:101E0000019690932C0380932B0380912E038823BB
:101E100009F413CF80912B0390912C03059709F0BF
:101E20000CCF10922E0310922C0310922B031093C0
:101E30002D0303CF0E94DC1189819A81909327049E
:101E4000809326048B819C8190932904809328049D
:101E50008D819E8190932B0480932A041A8219828B
:101E60001C821B8271CF109307039092290310925A
:101E7000080310922A0360912604709127046115CB
:101E8000710521F080ED93E00E94D006E0902A03D6
:101E900020E22E1508F48EC0F09029030E9417034B
:101EA0002B013C018091010381115FC080920103ED
:101EB000109300030093FF021092FE02E092FD02D5
:101EC000A9E0B3E0EDEDF2E0E8127BC01092DC0295
:101ED0008091DC02FF0CF82AF092DC028091DB0298
:101EE000813009F072C01092DB020E9417036B016F
:101EF0007C018091DC028093BB0080910303909170
:101F00000403A0910503B0910603892B8A2B8B2B28
:101F100099F00E94170340900303509004036090CF
:101F20000503709006036C197D098E099F094616FA
:101F3000570668067906D0F18091BC0083FDD9CFA1
:101F40002092BC000E9417036B017C018091010369
:101F50008230F1F18091FF028F3F61F18091FF02A9
:101F6000803241F18091FF0225C08091030390915E
:101F70000403A0910503B0910603892B8A2B8B2BB8
:101F800009F490CF0E9417032091030330910403BA
:101F90004091050350910603641975098609970954
:101FA000261737074807590708F07CCF80910203AE
:101FB0000E9481031092080310922A0310920703D3
:101FC0000BCF9D9191938F5F7FCF3092BC00BACFA2
:101FD0008091030390910403A0910503B09106033F
:101FE000892B8A2B8B2B09F4B1CF0E9417034090C9
:101FF00003035090040360900503709006036C196E
:102000007D098E099F09461657066806790608F06D
:102010009DCFCCCF60EF71E08CED93E00E94F6068F
:102020006EEF71E08BEF93E00E94F60610922D03A5
:1020300004CECF93DF93C1E1D1E0D093DD03C09311
:10204000DC038CED93E00E94D504D093FC03C09395
:10205000FB038BEF93E00E94D5048AE194E00E9499
:10206000D30880E294E00E94D30886E294E0DF91F6
:10207000CF910C94D30857FD9058440F551F59F039
:102080005F3F71F04795880F97FB991F61F09F3F65
:1020900079F087950895121613061406551FF2CF8E
:1020A0004695F1DF08C0161617061806991FF1CFDE
:1020B00086957105610508940895E894BB27662705
:1020C0007727CB0197F908952F923F924F925F9215
:1020D0006F927F928F929F92AF92BF92CF92DF9238
:1020E000EF92FF920F931F93CF93DF93CDB7DEB79D
:1020F000CA1BDB0B0FB6F894DEBF0FBECDBF099431
:102100002A88398848885F846E847D848C849B8487
:10211000AA84B984C884DF80EE80FD800C811B8195
:10212000AA81B981CE0FD11D0FB6F894DEBF0FBEC4
:10213000CDBFED0108950E94A2106894B1110C94D6
:102140005E1008950E94431088F09F5798F0B92FB1
:102150009927B751B0F0E1F0660F771F881F991FDC
:102160001AF0BA95C9F714C0B13091F00E945D1011
:10217000B1E008950C945D10672F782F8827B85F21
:1021800039F0B93FCCF3869577956795B395D9F734
:102190003EF490958095709561957F4F8F4F9F4F3E
:1021A000089597FB072E16F4009407D077FD09D009
:1021B0000E94041107FC05D03EF4909581959F4F35
:1021C0000895709561957F4F0895052E97FB1EF435
:1021D00000940E94FC1057FD07D00E94181107FCC4
:1021E00003D04EF40C94FC105095409530952195F9
:1021F0003F4F4F4F5F4F0895909580957095619533
:102200007F4F8F4F9F4F0895AA1BBB1B51E107C003
:10221000AA1FBB1FA617B70710F0A61BB70B881F76
:10222000991F5A95A9F780959095BC01CD01089505
:10223000A1E21A2EAA1BBB1BFD010DC0AA1FBB1FCA
:10224000EE1FFF1FA217B307E407F50720F0A21B3C
:10225000B30BE40BF50B661F771F881F991F1A94A9
:1022600069F760957095809590959B01AC01BD01D3
:10227000CF010895EE0FFF1F0590F491E02D099412
:102280000F931F93CF93DF938230910510F482E078
:1022900090E0E0912E04F0912F0430E020E0B0E0D7
:1022A000A0E0309799F42115310509F44AC0281BA4
:1022B000390B24303105D8F58A819B816115710570
:1022C00089F1FB0193838283FE0111C0408151811A
:1022D0000281138148175907E0F04817590799F40C
:1022E000109761F012960C93129713961C933296E6
:1022F000CF01DF91CF911F910F91089500932E048C
:1023000010932F04F4CF2115310551F042175307D4
:1023100038F0A901DB019A01BD01DF01F801C1CF4D
:10232000EF01F9CF90932F0480932E04CDCFFE01BF
:10233000E20FF31F8193919322503109398328834F
:10234000D7CF20912C0430912D04232B41F42091E0
:1023500003013091040130932D0420932C0420912B
:102360000101309102012115310541F42DB73EB72D
:102370004091050150910601241B350BE0912C047E
:10238000F0912D04E217F307A0F42E1B3F0B281742
:10239000390778F0AC014E5F5F4F2417350748F0DE
:1023A0004E0F5F1F50932D0440932C048193919303
:1023B0009FCFF0E0E0E09CCFCF93DF930097E9F070
:1023C000FC01329713821282A0912E04B0912F0447
:1023D000ED0130E020E01097A1F420813181820FDF
:1023E000931F20912C0430912D042817390709F0F0
:1023F00061C0F0932D04E0932C04DF91CF910895F8
:10240000EA01CE17DF07E8F54A815B819E0141159D
:102410005105B1F7E901FB83EA8349915991C40F52
:10242000D51FEC17FD0761F4808191810296840F1E
:10243000951FE90199838883828193819B838A8395
:10244000F0E0E0E012968D919C9113970097B9F51A
:102450002D913C911197CD010296820F931F2091EF
:102460002C0430912D042817390739F6309751F58F
:1024700010922F0410922E04B0932D04A0932C04DC
:10248000BCCFD383C28340815181840F951FC8176D
:10249000D90761F44E5F5F4F88819981480F591FBA
:1024A000518340838A819B819383828321153105E7
:1024B00009F0B0CFF0932F04E0932E049ECFFD01DE
:1024C000DC01C0CF13821282D7CFB0E0A0E0EBE6F0
:1024D000F2E10C9466108C01009751F4CB010E943C
:1024E00040118C01C801CDB7DEB7E0E10C94821039
:1024F000FC01E60FF71F9C0122503109E217F30798
:1025000008F49DC0D901CD91DC911197C617D7076A
:1025100098F0C530D10530F3CE01049786179707A0
:1025200008F3C61BD70B2297C193D1936D937C936D
:10253000CF010E94DC11D6CF5B01AC1ABD0A4C0161
:102540008C0E9D1EA0912E04B0912F04512C412C75
:10255000F12CE12C109731F580912C0490912D04F1
:102560008815990509F05CC04616570608F058C052
:102570008091010190910201009741F48DB79EB7BF
:102580004091050150910601841B950BE817F9074E
:1025900008F055C0F0932D04E0932C04F9017183E9
:1025A0006083A0CF8D919C91119712966C90129799
:1025B00013967C901397A815B90559F56C0142E064
:1025C000C40ED11CCA14DB0420F1AC014A195B090A
:1025D000DA011296159780F06282738251834083EC
:1025E000D9016D937C93E114F10471F0D701139636
:1025F000FC93EE93129776CF22968C0F9D1FF901D4
:1026000091838083F301EFCFF0932F04E0932E04A6
:1026100069CF4816590608F42C017D01D3019ACFE1
:10262000CB010E9440117C01009749F0AE01B80136
:102630000E942213C8010E94DC11870153CF10E0D1
:1026400000E050CFFB01DC0102C001900D9241502F
:102650005040D8F70895FB01DC018D91019080195D
:102660000110D9F3990B0895FB01DC0101900D9243
:102670000020E1F7089510E0C2E6D0E004C0FE01BA
:102680000E943A112196C336D107C9F7F894FFCFBB
:1026900001000030048000000000008906000000F6
:1026A000004004B9008205A2039C04B4042804007D
:1026B0000000009901B900E600E6015701F5004964
:1026C0000100000000F903CC038205A203C503B298
:1026D00003A30322225C5C6208660C6E0A720D740E
:1026E00009000D0A00636C6F736500737461727486
:1026F0002063617074757265202E2E2E00737461D4
:102700007274636170747572650063617074757260
:102710006520646F6E65202E2E2E00426C75655408
:102720006F6F7468203A20536F6D656F6E6520413E
:102730007272697665642021200073656E7420775B
:1027400069746820626C7565746F6F746800416E9F
:1027500064726F696420436F6D6D616E64203A200E
:1027600000626C7565746F6F74682061636B0062E2
:102770006C7565746F6F7468206E6F74206F6B007A
:1027800073656E64496D6167655769666900736555
:0E2790006E74207769746820776966690000AE
:00000001FF
