:100000000C9463000C948B000C948B000C94560C95
:100010000C94560C0C94560C0C948B000C948B0086
:100020000C948B000C948B000C948B000C948B0024
:100030000C948B000C948B000C948B000C948B0014
:100040000C94ED0A0C948B000C94BB0A0C94950A4A
:100050000C948B000C948B000C948B000C948B00F4
:100060000C94370B0C948B00000000002400270038
:100070002A0000000008000201000003040700003D
:1000800000000000000000000000230026002900FE
:1000900000000000250028002B00040404040404D0
:1000A0000404020202020202030303030303010227
:1000B00004081020408001020408102001020408F6
:1000C0001020CE0C031011241FBECFEFD8E0DEBFEE
:1000D000CDBF24E0AAECB1E001C01D92AB30B20765
:1000E000E1F711E0A0E0B1E0E4E7F6E202C005903C
:1000F0000D92AA3CB107D9F710E0C2E6D0E004C0E7
:100100002197FE010E942C11C136D107C9F70E9428
:100110002A0D0C942D130C94000008950895CF938C
:10012000DF93AC01E0919502F09196023097F1F0E7
:1001300090919402809193029817C0F090E0292F3B
:1001400030E02617370754F4D901AA5DBD4F240FBC
:10015000351FE90128812C939F5FF1CF1092940203
:1001600060939302CB01DF91CF910994DF91CF91FE
:100170000895AF92BF92CF92DF92EF92FF920F93CA
:100180001F93CF93DF936C017B018B01040F151F2D
:10019000EB015E01AE18BF08C017D10759F0699195
:1001A000D601ED91FC910190F081E02DC6010995F9
:1001B000892B79F7C501DF91CF911F910F91FF90A6
:1001C000EF90DF90CF90BF90AF900895FC01538DDA
:1001D000448D252F30E0842F90E0821B930B541721
:1001E00010F0CF96089501970895FC01918D828DAE
:1001F000981761F0A28DAE0FBF2FB11D5D968C9147
:10020000928D9F5F9F73928F90E008958FEF9FEF85
:1002100008952FB7F8948091EB029091EC02A09191
:10022000ED02B091EE022FBF8093F7029093F80297
:10023000A093F902B093FA028FEE92E00E94F500CB
:1002400097FF26C02FB7F8948091EB029091EC02B3
:10025000A091ED02B091EE022FBF4091F7025091B4
:10026000F8026091F9027091FA02841B950BA60BBB
:10027000B70B4091F3025091F4026091F502709136
:10028000F60284179507A607B707B0F28FEF9FEF26
:100290000895FC01918D828D981731F0828DE80FC1
:1002A000F11D858D90E008958FEF9FEF0895FC017B
:1002B000918D228D892F90E0805C9F4F821B910948
:1002C0008F73992708958FEE92E00E94570121E0E5
:1002D000892B09F420E0822F089580E090E0892B9B
:1002E00029F00E94630181110C9400000895FC0123
:1002F000A48DA80FB92FB11DA35ABF4F2C91848D87
:1003000090E001968F739927848FA689B7892C93E3
:10031000A089B1898C91837080648C93938D848D36
:10032000981306C00288F389E02D80818F7D808339
:100330000895EF92FF920F931F93CF93DF93EC01F9
:1003400081E0888F9B8D8C8D98131AC0E889F9897C
:10035000808185FF15C09FB7F894EE89FF8960837F
:10036000E889F98980818370806480839FBF81E000
:1003700090E0DF91CF911F910F91FF90EF90089542
:10038000F62E0B8D10E00F5F1F4F0F731127E02E1D
:100390008C8D8E110CC00FB607FCFACFE889F98955
:1003A000808185FFF5CFCE010E947701F1CFEB8DE3
:1003B000EC0FFD2FF11DE35AFF4FF0829FB7F89429
:1003C0000B8FEA89FB8980818062CFCFCF93DF9347
:1003D000EC01888D8823B9F0AA89BB89E889F9895D
:1003E0008C9185FD03C0808186FD0DC00FB607FC92
:1003F000F7CF8C9185FFF2CF808185FFEDCFCE01C5
:100400000E947701E9CFDF91CF910895833081F089
:1004100028F4813099F08230A9F008958730A9F04E
:100420008830C9F08430B1F4809180008F7D03C0A2
:10043000809180008F7780938000089584B58F77B6
:1004400084BD089584B58F7DFBCF8091B0008F77F8
:100450008093B00008958091B0008F7DF9CFCF9345
:10046000DF93E0E8F0E08491ECEBF0E0D491E8EA8F
:10047000F0E0C491CC23A1F081110E940602EC2F80
:10048000F0E0EE0FFF1FEA57FF4FA591B491EC91FA
:10049000ED2381E090E009F480E0DF91CF910895B1
:1004A00080E090E0FACF1F93CF93DF93282F30E0C6
:1004B000F901EE58FF4F8491F901E255FF4FD491B5
:1004C000F901E656FF4FC491CC23A9F0162F8111F4
:1004D0000E940602EC2FF0E0EE0FFF1FE057FF4FE7
:1004E000A591B4918FB7F894EC91111108C0D095F3
:1004F000DE23DC938FBFDF91CF911F910895DE2B18
:10050000F8CFCF93DF9390E0FC01E255FF4F2491A9
:1005100086569F4FFC0184918823D1F090E0880F8C
:10052000991FFC01E859FF4FA591B491FC01E057D8
:10053000FF4FC591D49161110EC09FB7F8948C9173
:10054000E22FE0958E238C932881E223E8839FBFDE
:10055000DF91CF9108958FB7F894EC91E22BEC9353
:100560008FBFF6CF0F931F93CF93DF93EC01162F1E
:10057000042F1B821A8288EE93E0A0E0B0E08C8307
:100580009D83AE83BF8380E191E0998388831F8A36
:100590001E8A198E188E1B8E1A8E1D8E1C8E6E8DC5
:1005A0006E7F6D7F6E8F6695617081E06827842F06
:1005B0000E94530261E0802F0E948102802F90E010
:1005C000FC01E255FF4FE491E88BFC01E656FF4F3A
:1005D000E491F0E0EE0FFF1FE057FF4F85919491FB
:1005E0009A8B898B60E0812F0E9481028E8D81FD24
:1005F00004C061E0812F0E9453021C87812F90E08C
:10060000FC01E255FF4FE491ED87FC01E656FF4FF8
:10061000E491F0E0EE0FFF1FEA57FF4F85919491B0
:100620009F878E87DF91CF911F910F9108953FB7DC
:10063000F89480918B0290918C02A0918D02B091E0
:100640008E0226B5A89B05C02F3F19F00196A11D6B
:10065000B11D3FBFBA2FA92F982F8827BC01CD010C
:10066000620F711D811D911D42E0660F771F881F6B
:10067000991F4A95D1F7089520916702260F3327D5
:10068000331F21323105ECF42091BD02FC0190E0D2
:1006900080E0243069F082E00895A0916702219102
:1006A000AC01495B5D4FA40FB52FB11D2C93019692
:1006B000861798F380916702680F6093670280E065
:1006C000089581E008951092BD0281E08093BC02FC
:1006D0001092970261E082E10E94530261E083E19F
:1006E0000E945302E9EBF0E080818E7F808380815D
:1006F0008D7F808388E48093B80085E48093BC007C
:100700000895CF93DF9391E0909346028823B9F048
:10071000C091B800D091BA008091BC008A7B8093D0
:10072000BC0060E082E10E94530260E083E10E942D
:1007300053020E946303D093BA00C093B800DF91C4
:10074000CF9108950895E091940280919302E81763
:1007500030F4F0E0EA5DFD4F808190E008958FEF86
:100760009FEF089590919402809193022FEF3FEFB5
:10077000981748F4E92FF0E0EA5DFD4F208130E062
:100780009F5F90939402C901089580919302909184
:100790009402891B990B0895CF92DF92EF92FF92FA
:1007A0000F931F93CF93DF937C01CB018A0120919C
:1007B000C302222389F0EB016B01C40ED51ECC15B8
:1007C000DD0569F06991D701ED91FC910190F0810F
:1007D000E02DC7010995F3CF642F0E943C03C801A7
:1007E000DF91CF911F910F91FF90EF90DF90CF900D
:1007F0000895CF93DF931F92CDB7DEB76983209121
:10080000C3022223F9F02091E602203258F021E0C1
:1008100030E0FC013383228390E080E00F90DF9191
:10082000CF9108958091C402E82FF0E0EB53FD4F83
:10083000998190838F5F8093C4028093E60281E068
:1008400090E0ECCF61E0CE0101960E943C03F7CF2F
:1008500020912402309125022817390771F49091D4
:10086000230280912202981741F0E0912302F0E0E8
:10087000EE51FE4F808190E008958FEF9FEF089535
:10088000EF92FF920F931F93CF93DF93DC015C965F
:10089000ED90FC905D97E114F10479F481E090E033
:1008A00013969C938E93129790E080E0DF91CF9106
:1008B0001F910F91FF90EF9008955196ED91FC914B
:1008C000529750968C915097982F90950FB75E96AF
:1008D0002C915E97122F127021FD6095F894208163
:1008E000112319F1282B2083E7012197F1F728E044
:1008F000462F50E0308160FF1AC0382B3083E7016B
:100900002197F1F7BA0175956795215089F7112361
:1009100081F08081892380830FBF5C968D919C91AB
:100920000197F1F781E090E0C1CF2923DCCF392393
:10093000E5CF9081892BEFCF2091240230912502C1
:100940002817390771F4809122022091230290E048
:10095000805C9F4F821B910960E470E00E94C3108D
:10096000089590E080E008952091240230912502BE
:1009700028173907B9F49091230280912202981721
:1009800089F0E0912302F0E0EE51FE4F808120914A
:10099000230230E02F5F3F4F2F7333272093230232
:1009A00090E008958FEF9FEF0895E0912402F09179
:1009B0002502E817F90769F4A389B4899C91858910
:1009C000809589238C93109225021092240281E055
:1009D000089580E00895CF93DF93EC019A01AB0175
:1009E0001B8E1A8E198E188E1F8A1E8A60E079E07F
:1009F0008DE390E00E94D710C90103979D8F8C8FE3
:100A00006C85663108F04BC0C90196958795843195
:100A1000910508F467C043979F8B8E8BC90105979A
:100A2000998F888FC901880F991F280F391F369514
:100A30002795369527952C5031093B8F2A8F909119
:100A4000680084E0683048F021E06E3008F420E06F
:100A500081E001C0880F2A95EAF7892B809368000E
:100A60009C852DE630E0983050F02BE630E09E304B
:100A700030F02CE630E0963110F030E020E03C8B96
:100A80002B8B292F30E0983080F581E001C0880F52
:100A90009A95EAF78D8B8C8D9D8D0197F1F78A8D54
:100AA0009B8D892BE1F08091240290912502C8173B
:100AB000D907A9F0009711F00E94D5048E8D8E7F82
:100AC0008E8F1092220210922302D0932502C0939F
:100AD0002402EB89FC8980819D89892B8083DF91A9
:100AE000CF91089581E090E097CF9E3040F4285058
:100AF000310981E001C0880F2A95EAF7CBCF2E504B
:100B00003109F7CF90E080E00895FC01A081B18128
:100B10008C918D3021F03CF489508230A8F51196EB
:100B2000B183A083F3CF8032D1F38F3209F00895DF
:100B300011968C9111978A3219F08F32C1F0089575
:100B40001196B183A083A081B181CD0101969183DB
:100B5000808311968C9111978823B1F08A3299F78E
:100B600012968C9112978F3271F71396D9CFA0817C
:100B7000B181CD0101969183808311968C91882358
:100B800019F08A30A1F7C2CF08951F93CF93DF9356
:100B9000EC01162F0E948505E881F98180811813E8
:100BA00008C03196F983E88381E0DF91CF911F91EE
:100BB000089580E0FACFEF92FF920F931F93CF93A7
:100BC000DF938C01DC011496CD91DC91EA80FB80EF
:100BD0008E819F81E80EF91EC80102960E9485054C
:100BE000D8011296ED91FC918081873219F0823202
:100BF00009F042C03196D8011396FC93EE931297F8
:100C0000D8011296ED91FC9113979081992309F4E4
:100C100062C09F012F5F3F4F13963C932E93129714
:100C2000891709F458C09C3599F49181A6E4B1E084
:100C30002C91222321F092131DC011969C9199238F
:100C400009F449C03296D8011396FC93EE9312979B
:100C50004E815F819A012F5F3F4F6C817D816217CA
:100C6000730770F2EA81FB81E40FF51F3F832E8347
:100C70009083C6CF1296DCCF80330CF444C08A3305
:100C800024F08F3504F18B3704F5F801228133818C
:100C90002F5F3F4F338322834E815F819A012F5F05
:100CA0003F4F6C817D816217730738F0EA81FB81C9
:100CB000E40FF51F3F832E838083D8011296ED91B8
:100CC000FC918081D9CF8134F4F08B35F4F293ED2F
:100CD000980F9230D0F22E813F81C90101964C814C
:100CE0005D814817590790F0EA81FB81E20FF31FFD
:100CF0009F838E831082C701DF91CF911F910F9147
:100D0000FF90EF9008958B3211F7BFCFF12CE12CBB
:100D1000F2CFFC0186819781680F791F248135818C
:100D20002617370738F022813381820F931F77838C
:100D30006683089590E080E008958091DA01811142
:100D40000BC01092D7011092D6011092D9011092C7
:100D5000D80181E08093DA0186ED91E008958091D9
:100D6000CE0181110BC01092CB011092CA011092DA
:100D7000CD011092CC0181E08093CE018AEC91E00C
:100D80000895DB01109749F0ED91FC9111970190C6
:100D9000F081E02DBC01CD01099490E080E0089540
:100DA000FB0101900020E9F73197AF01461B570B7B
:100DB000DC01ED91FC910280F381E02D0994CF9349
:100DC000DF93FC01448155816081718186ED93E060
:100DD0000E94B900EC0161E571E086ED93E00E94AC
:100DE000D0068C0F9D1FDF91CF9108950F931F9315
:100DF000CF93DF93EC010E94D0068C0161E571E096
:100E0000CE010E94D006800F911FDF91CF911F91DC
:100E10000F9108950F931F93CF93DF938B01FC01E4
:100E2000C281D381209759F06A817B810115110518
:100E300019F06115710549F46017710759F4CE0175
:100E4000DF91CF911F910F910895C8010E941D134A
:100E5000892BA9F30990D881C02DE4CFAF92BF921E
:100E6000CF92DF92EF92FF920F931F93CF93DF9376
:100E700000D000D000D0CDB7DEB77C01DC011696E3
:100E80008C91811104C00E949D068C0188C0815004
:100E9000F7018683C080D180B60184E090E00E9493
:100EA000C1068C01009709F48CC0DC011196DC921C
:100EB000CE9213961C921E9212976701B2E0CB0E4F
:100EC000D11C6BE7C6010E94C5058823E1F26DE7DE
:100ED000C6010E94C50581115EC0C7010E94DB05E5
:100EE0005C01892B81F26AE3C6010E94C505882353
:100EF00051F21A821982BE016F5F7F4FC7010E94B3
:100F0000E507882309F4BFCFB501C8010E940A078D
:100F1000009759F5F801608171818AE090E00E94A4
:100F2000C106009741F0DC0111961C921E921596A5
:100F30001C921E921497D8011296ED91FC91309755
:100F400029F4F8019383828308C0F901208131815B
:100F500021153105D1F791838083009709F493CF50
:100F6000DC011396BC92AE92129726E0FE013196F8
:100F7000DC01149601900D922A95E1F76DE7C60108
:100F80000E94C505811107C06CE2C6010E94C5051B
:100F90008111A3CF78CFF70186818F5F8683C80147
:100FA00026960FB6F894DEBF0FBECDBFDF91CF916E
:100FB0001F910F91FF90EF90DF90CF90BF90AF9077
:100FC00008950E949D068C0178CF8F929F92AF92D8
:100FD000BF92CF92DF92EF92FF920F931F93CF9326
:100FE000DF9300D000D000D0CDB7DEB77C016B011D
:100FF0005C0182E0A80EB11CC5010E948505D701E5
:101000001296ED91FC91139780818B35E1F08B372F
:1010100009F4B2C011E0873219F0823209F010E011
:10102000C7010E94DB05009709F485C021E030E08C
:10103000112309F4ABC022E030E0F60131832083B4
:101040009383828379C0F7018681811104C00E9455
:10105000AF068C016BC0815016968C9316978D90BD
:101060009C90B40184E090E00E94C1068C0100973E
:1010700009F495C0FC0191828082138212826BE593
:10108000C5010E94C505882311F36DE5C5010E94C5
:10109000C505811144C01A821982BE016F5F7F4F5E
:1010A000C7010E94E507882391F2D8016D917C91D8
:1010B00088E090E00E94C106DC01892B39F011968E
:1010C0001C921E9213961C921E921297F801228176
:1010D00033812115310521F4B383A28308C09C011B
:1010E000F901808191810097D1F7B183A083109796
:1010F00009F4ADCF86E0FE013196129601900D9273
:101100008A95E1F76DE5C5010E94C505811107C00B
:101110006CE2C5010E94C5058111BDCF98CFD701F2
:1011200016968C9116978F5F16968C93F801808196
:101130009181892BA9F410E0812F26960FB6F8949F
:10114000DEBF0FBECDBFDF91CF911F910F91FF90FA
:10115000EF90DF90CF90BF90AF909F908F900895C9
:1011600086E090E0D60111969C938E9313961C9383
:101170000E93129711E0E0CFC7010E942E07FC01E9
:1011800020813181232BB9F227E030E0D60111967E
:101190003C932E9313969C938E931297EBCF0E94C1
:1011A000AF068C016CCFFC0180819181009711F01A
:1011B0000C94CE1108950F931F93CF93DF93EC01FE
:1011C00088819981009759F02A813B81261737073A
:1011D00030F081E0DF91CF911F910F9108958B0145
:1011E0006F5F7F4F0E945712009759F09983888351
:1011F0001B830A832C813D81232B59F7FC0110822C
:10120000E8CF80E0E7CFEF92FF920F931F93CF9349
:10121000DF936115710541F480E0DF91CF911F915B
:101220000F91FF90EF90089541155105B1F07B01AA
:10123000EC010C811D81040F151FB8010E94DB0811
:10124000882351F3288139818C819D81B701820FD8
:10125000931F0E9426131D830C8381E0DECFEF9243
:10126000FF920F931F93CF93DF93EC017B018A01D1
:10127000BA010E94DB0828813981811114C021152F
:10128000310519F0C9010E94CE11198218821D8200
:101290001C821B821A82CE01DF91CF911F910F9188
:1012A000FF90EF9008951D830C83B701C9010E9440
:1012B0002613F1CF50E040E060E571E00C942F0977
:1012C0000F931F93CF93DF93CDB7DEB7C15FD109E3
:1012D0000FB6F894DEBF0FBECDBF85EF93E00E943E
:1012E0005A098E010F5F1F4F8091930290919402D3
:1012F000891B990B029774F08CE893E00E94B2036B
:1013000089831A8241E050E0B80185EF93E00E94A2
:101310000309EACF8CE893E00E94B20385EF93E0E3
:101320000E94DF06CE0109969C838B8388EC90E0B7
:101330009E838D8318861F828AE091E09A83898339
:101340008091F5039091F603009711F480E591E008
:10135000CF52DF4F19830883C15DD040CD52DF4F9C
:1013600099838883C35DD040CB52DF4F19830883B4
:10137000C55DD0408AE0C952DF4F8883C75DD04049
:10138000CE018F529F4F0E942E07FC012081318198
:10139000232B09F466C064E571E00E940A07FC0192
:1013A000892B09F442C0848195818330910560F5D1
:1013B000019708F46EC00680F781E02D309709F49C
:1013C00068C0808161E070E0843761F18B3209F49C
:1013D0005AC08D3209F058C0319691E070E060E05B
:1013E0004AE0819120ED280F2A3008F04FC0469F37
:1013F0009001479F300D1124682F880F770B6053A1
:101400007109620F731FEDCF8530910548F0059784
:10141000A1F166817781808591850E948D1002C03F
:101420006681778181E0672B09F480E0CF50DF4F40
:101430001882C15FD040805DC051DF4F8883C05F9C
:10144000D04061ED70E06C0F7D1F615E7F4F86EDD7
:1014500093E00E94D00661E571E086ED93E00E9482
:10146000D006CF50DF4F0FB6F894DEBF0FBECDBF12
:10147000DF91CF911F910F910895668177817195CA
:1014800061957109CFCF319690E0A8CF9111F7CF38
:10149000C9CF70E060E0C6CFFC01118210821382D8
:1014A000128215821482FB0101900020E9F7319726
:1014B000AF01461B570B0C942F0985ED8093BC00A0
:1014C0008091BF029091C002A091C102B091C2026E
:1014D0000796A11DB11D23E0B695A7959795879511
:1014E0002A95D1F72091BC0024FD03C01092BD02C3
:1014F00008954091BF025091C0026091C102709165
:10150000C202452B462B472B69F30097A105B10575
:1015100041F025E32A95F1F700000197A109B109EF
:10152000E1CF8091BE020C9481031F920F920FB6FF
:101530000F9211242F933F934F935F936F937F9359
:101540008F939F93AF93BF93EF93FF938FEE92E0B0
:101550000E947701FF91EF91BF91AF919F918F9181
:101560007F916F915F914F913F912F910F900FBE9F
:101570000F901F9018951F920F920FB60F92112483
:101580002F938F939F93EF93FF93E091FF02F0913E
:1015900000038081E0910503F091060382FD1BC0EA
:1015A0009081809108038F5F8F73209109038217C8
:1015B00041F0E0910803F0E0E151FD4F958F8093F9
:1015C0000803FF91EF919F918F912F910F900FBE84
:1015D0000F901F9018958081F4CF1F920F920FB635
:1015E0000F9211242F933F938F939F93AF93BF93A9
:1015F0008091EB029091EC02A091ED02B091EE028D
:1016000030918A0223E0230F2D3758F50196A11D52
:10161000B11D20938A028093EB029093EC02A09379
:10162000ED02B093EE0280918B0290918C02A0911A
:101630008D02B0918E020196A11DB11D80938B0287
:1016400090938C02A0938D02B0938E02BF91AF91C4
:101650009F918F913F912F910F900FBE0F901F90F0
:10166000189526E8230F0296A11DB11DD2CF1F9217
:101670000F920FB60F9211242F933F934F935F93C6
:101680006F937F938F939F93AF93BF93EF93FF934A
:101690008091B900887F803609F44AC0F0F588321D
:1016A00009F4A7C018F5803109F49BC0B8F4882369
:1016B00009F4F9C0883009F494C0FF91EF91BF910B
:1016C000AF919F918F917F916F915F914F913F91DA
:1016D0002F910F900FBE0F901F901895883109F42D
:1016E00088C0803251F78093BB0214C0803409F463
:1016F0009DC040F48033B9F38833F9F68093BB0280
:1017000085ECB0C0803509F485C0883509F496C0F1
:10171000883499F60E945D0AD0CF883909F48CC0CC
:1017200038F5883729F050F4883611F0803729F6DB
:1017300083E08093BD021092890257C0883809F473
:101740007BC0803919F0803809F0B7CF80918902C9
:10175000803208F071C0E091890281E08E0F8093A1
:1017600089028091BB00F0E0E759FD4F80833DC0C6
:10177000803B39F0E0F4803A09F479C0883A09F006
:101780009CCF84E08093BD021092680210926702A1
:10179000E0919102F0919202099580916702811186
:1017A0000FC081E0809367021092470209C0803C1D
:1017B00009F4A6CF883C09F4A3CF883B09F07DCF7C
:1017C000E091680281E08E0F80936802F0E0E95BAF
:1017D000FD4F80818093BB009091680280916702E9
:1017E00029C0809198028093BB0085EC8093BC0057
:1017F00064CF9091BA028091B902981758F5E091A0
:10180000BA0281E08E0F8093BA02F0E0E756FD4FF6
:101810008081E9CFE091BA0281E08E0F8093BA0215
:101820008091BB00F0E0E756FD4F80839091BA02B3
:101830008091B9029817C8F285E8D8CFE091BA0232
:1018400081E08E0F8093BA028091BB00F0E0E756F2
:10185000FD4F80838091BC0281115CCF81E0809339
:10186000970284EA8093BC001092BD0226CF85ECDB
:101870008093BC001092BD0280918902803230F4C6
:10188000E0918902F0E0E759FD4F108260918902F2
:1018900070E0E0918F02F091900289E692E0099564
:1018A000109289020ACF1092BB0234CF1F920F927E
:1018B0000FB60F9211242F933F934F935F936F9323
:1018C0007F938F939F93AF93BF93EF93FF93E09199
:1018D0002402F0912502309749F0A685B7858585C9
:1018E000968D91FF14C09C918923A1F4FF91EF91F3
:1018F000BF91AF919F918F917F916F915F914F9128
:101900003F912F910F900FBE0F901F9018959C91B3
:10191000892361F7A389B4899C918589809589235E
:101920008C93868997890197F1F7608D718DA685D3
:10193000B785558538E020E0CB010197F1F7822F7C
:1019400090E095958795282F4C91452309F02068C4
:10195000315091F7868D81FD20958091220290E093
:1019600001968F73992730912302381799F0A0912F
:101970002202B0E0AE51BE4F2C9380932202828DA2
:10198000938D0197F1F7A389B4898C919589892B5F
:101990008C93ACCF868D8160868FF1CFEFEEF2E035
:1019A0001382128288EE93E0A0E0B0E084839583F6
:1019B000A683B78322E231E03183208325EC30E037
:1019C0003587248724EC30E03787268720EC30E009
:1019D000318B208B21EC30E0338B228B22EC30E0FA
:1019E000358B248B26EC30E0378B268B118E128EB4
:1019F000138E148EECE8F3E01382128284839583B5
:101A0000A683B78384E391E09183808360E571E0EE
:101A100081E094E00E944C0A60E571E08BEF93E076
:101A20000E944C0A60E571E085EF93E00E944C0A49
:101A30004AE069E086ED93E00E94B2024BE06CE080
:101A400087EB93E00E94B20242E063E088E993E012
:101A50000C94B202CF93DF93CDB7DEB728970FB6C1
:101A6000F894DEBF0FBECDBF789484B5826084BD8C
:101A700084B5816084BD85B5826085BD85B5816092
:101A800085BD80916E00816080936E001092810010
:101A900080918100826080938100809181008160CB
:101AA000809381008091800081608093800080918C
:101AB000B10084608093B1008091B0008160809318
:101AC000B00080917A00846080937A0080917A00DF
:101AD000826080937A0080917A00816080937A009E
:101AE00080917A00806880937A001092C1001092F1
:101AF0009402109293021092C4021092E6020E9485
:101B000063038EE890E090939202809391028FE8B5
:101B100090E09093900280938F0288E08093BA00C7
:101B200080E699E09093960280939502E091FF02FF
:101B3000F091000382E08083E091FB02F091FC02CF
:101B40001082E091FD02F091FE028FEC80831092F2
:101B50000703E0910303F091040386E08083E091A2
:101B60000103F0910203808180618083E091010391
:101B7000F0910203808188608083E0910103F091FD
:101B80000203808180688083E0910103F091020369
:101B900080818F7D808381E094E00E945A098BEFE1
:101BA00093E00E945A0940E052EC61E070E086ED5B
:101BB00093E00E94EB0440E855E260E070E087EBC0
:101BC00093E00E94EB0440E052EC61E070E088E9B1
:101BD00093E00E94EB0460E08EE00E9481020FEF30
:101BE00030E0A32E30E0B32E11E04CE0942E52E012
:101BF000852E95EE392E25EC222E0E942F0201977C
:101C000009F049C06AE571E086ED93E00E94F606AE
:101C10006CE671E087EB93E00E94F60669E771E0FD
:101C200086ED93E00E94F6061093EA020E942F02CE
:101C30000197E1F30E9417036B017C0184EF482EAA
:101C400055245394612C712C0E9417036C197D0943
:101C50008E099F09683E734081059105A8F381E0D4
:101C6000481A51086108710828EEC20E23E0D21EFE
:101C7000E11CF11C411451046104710429F7A11401
:101C8000B10409F4BACF0E946301882309F4B1CFEB
:101C90000E940000AECF8091E9028111ABC18FEEAE
:101CA00092E00E945701181619060CF085C01A829E
:101CB00019821C821B821E821D8250E040E060E57A
:101CC00071E0CE0101960E942F090E94090197FD43
:101CD0000CC08F83188641E050E0BE01695F7F4FE2
:101CE000CE0101960E940309F0CF809101049091EA
:101CF0000204009709F490C069817A816115710529
:101D000009F488C040910304509104042D813E8160
:101D10004217530708F47EC00E9426138D819E81CE
:101D200090930604809305041E821D82CE010196C5
:101D30000E94D3086AE871E0CE0101960E944C0A25
:101D400040910504509106046091010470910204D1
:101D5000CE0101960E94030981110CC089819A81EC
:101D6000009711F00E94CE111A8219821E821D82E4
:101D70001C821B82CE0101960E94DF06CE010196D5
:101D80000E94D3088091050490910604892B09F4E0
:101D90005AC06DE971E080910104909102040E94A3
:101DA0001D13892B09F04FC01092E8021092E70230
:101DB0001092EA021092E9028091EA028823A9F0C7
:101DC0008091E7029091E80205977CF46BEA71E05C
:101DD00086ED93E00E94F6068091E7029091E8027A
:101DE00001969093E8028093E7028091EA028823AB
:101DF00009F41CCF8091E7029091E802059709F061
:101E000015CF1092EA021092E8021092E7021093A6
:101E1000E9020CCF0E94CE1189819A81909302042D
:101E2000809301048B819C8190930404809303042C
:101E30008D819E8190930604809305041A821982F5
:101E40001C821B8271CF1093C3029092E502109204
:101E5000C4021092E60260910104709102046115BF
:101E6000710521F08CE893E00E94D006E090E60234
:101E700020E22E1508F48EC0F090E5020E941703B0
:101E80002B013C018091BD0281115FC08092BD0297
:101E90001093BC020093BB021092BA02E092B90206
:101EA000A5ECB2E0E9E9F2E0E8127BC010929802FA
:101EB00080919802FF0CF82AF09298028091970284
:101EC000813009F072C0109297020E9417036B01D3
:101ED0007C01809198028093BB008091BF02909119
:101EE000C002A091C102B091C202892B8A2B8B2B18
:101EF00099F00E9417034090BF025090C00260907A
:101F0000C1027090C2026C197D098E099F094616A4
:101F1000570668067906D0F18091BC0083FDD9CFC1
:101F20002092BC000E9417036B017C018091BD02CE
:101F30008230F1F18091BB028F3F61F18091BB0251
:101F4000803241F18091BB0225C08091BF02909107
:101F5000C002A091C102B091C202892B8A2B8B2BA7
:101F600009F490CF0E9417032091BF023091C00264
:101F70004091C1025091C2026419750986099709FE
:101F8000261737074807590708F07CCF8091BE0213
:101F90000E9481031092C4021092E6021092C302C2
:101FA0000BCF9D9191938F5F7FCF3092BC00BACFC2
:101FB0008091BF029091C002A091C102B091C20273
:101FC000892B8A2B8B2B09F4B1CF0E9417034090E9
:101FD000BF025090C0026090C1027090C2026C19A2
:101FE0007D098E099F09461657066806790608F08E
:101FF0009DCFCCCF6CEB71E086ED93E00E94F606AE
:102000001092E90213CECF93DF93C0E1D1E0D093D9
:102010009903C093980388E993E00E94D504D09374
:10202000B803C093B70387EB93E00E94D504D09325
:10203000D703C093D60386ED93E00E94D50485EFC5
:1020400093E00E94D3088BEF93E00E94D30881E0D5
:1020500094E0DF91CF910C94D30857FD9058440F32
:10206000551F59F05F3F71F04795880F97FB991FF7
:1020700061F09F3F79F087950895121613061406B4
:10208000551FF2CF4695F1DF08C016161706180641
:10209000991FF1CF86957105610508940895E8941C
:1020A000BB2766277727CB0197F908952F923F9298
:1020B0004F925F926F927F928F929F92AF92BF9258
:1020C000CF92DF92EF92FF920F931F93CF93DF9304
:1020D000CDB7DEB7CA1BDB0B0FB6F894DEBF0FBE61
:1020E000CDBF09942A88398848885F846E847D84AE
:1020F0008C849B84AA84B984C884DF80EE80FD80B0
:102100000C811B81AA81B981CE0FD11D0FB6F89425
:10211000DEBF0FBECDBFED0108950E9494106894FC
:10212000B1110C94501008950E94351088F09F57FB
:1021300098F0B92F9927B751B0F0E1F0660F771FEB
:10214000881F991F1AF0BA95C9F714C0B13091F0E1
:102150000E944F10B1E008950C944F10672F782F14
:102160008827B85F39F0B93FCCF3869577956795A6
:10217000B395D9F73EF490958095709561957F4F12
:102180008F4F9F4F089597FB072E16F4009407D0AA
:1021900077FD09D00E94F61007FC05D03EF490951B
:1021A00081959F4F0895709561957F4F0895052EF5
:1021B00097FB1EF400940E94EE1057FD07D00E947A
:1021C0000A1107FC03D04EF40C94EE105095409584
:1021D000309521953F4F4F4F5F4F089590958095D3
:1021E000709561957F4F8F4F9F4F0895AA1BBB1B22
:1021F00051E107C0AA1FBB1FA617B70710F0A61B07
:10220000B70B881F991F5A95A9F780959095BC0127
:10221000CD010895A1E21A2EAA1BBB1BFD010DC022
:10222000AA1FBB1FEE1FFF1FA217B307E407F50786
:1022300020F0A21BB30BE40BF50B661F771F881F62
:10224000991F1A9469F760957095809590959B01F8
:10225000AC01BD01CF010895EE0FFF1F0590F49171
:10226000E02D09940F931F93CF93DF938230910554
:1022700010F482E090E0E0910904F0910A0430E06B
:1022800020E0B0E0A0E0309799F42115310509F481
:102290004AC0281B390B24303105D8F58A819B812F
:1022A0006115710589F1FB0193838283FE0111C0E1
:1022B000408151810281138148175907E0F0481786
:1022C000590799F4109761F012960C931297139690
:1022D0001C933296CF01DF91CF911F910F910895FA
:1022E0000093090410930A04F4CF2115310551F02D
:1022F0004217530738F0A901DB019A01BD01DF0144
:10230000F801C1CFEF01F9CF90930A04809309043B
:10231000CDCFFE01E20FF31F81939193225031093B
:1023200039832883D7CF2091070430910804232BC9
:1023300041F420910201309103013093080420936D
:10234000070420910001309101012115310541F46C
:102350002DB73EB74091040150910501241B350B68
:10236000E0910704F0910804E217F307A0F42E1B94
:102370003F0B2817390778F0AC014E5F5F4F2417E9
:10238000350748F04E0F5F1F509308044093070431
:10239000819391939FCFF0E0E0E09CCFCF93DF93C8
:1023A0000097E9F0FC01329713821282A091090490
:1023B000B0910A04ED0130E020E01097A1F42081F3
:1023C0003181820F931F2091070430910804281750
:1023D000390709F061C0F0930804E0930704DF9126
:1023E000CF910895EA01CE17DF07E8F54A815B81B6
:1023F0009E0141155105B1F7E901FB83EA8349913B
:102400005991C40FD51FEC17FD0761F480819181AC
:102410000296840F951FE9019983888382819381B5
:102420009B838A83F0E0E0E012968D919C91139754
:102430000097B9F52D913C911197CD010296820F2D
:10244000931F20910704309108042817390739F6A3
:10245000309751F510920A0410920904B0930804C1
:10246000A0930704BCCFD383C28340815181840FE2
:10247000951FC817D90761F44E5F5F4F8881998116
:10248000480F591F518340838A819B8193838283A4
:102490002115310509F0B0CFF0930A04E093090447
:1024A0009ECFFD01DC01C0CF13821282D7CFB0E0F6
:1024B000A0E0EDE5F2E10C9458108C01009751F486
:1024C000CB010E9432118C01C801CDB7DEB7E0E12B
:1024D0000C947410FC01E60FF71F9C012250310987
:1024E000E217F30708F49DC0D901CD91DC91119753
:1024F000C617D70798F0C530D10530F3CE01049741
:102500008617970708F3C61BD70B2297C193D19361
:102510006D937C93CF010E94CE11D6CF5B01AC1A94
:10252000BD0A4C018C0E9D1EA0910904B0910A04B5
:10253000512C412CF12CE12C109731F5809107049E
:10254000909108048815990509F05CC04616570655
:1025500008F058C08091000190910101009741F46A
:102560008DB79EB74091040150910501841B950BD6
:10257000E817F90708F055C0F0930804E093070442
:10258000F90171836083A0CF8D919C911197129670
:102590006C90129713967C901397A815B90559F56E
:1025A0006C0142E0C40ED11CCA14DB0420F1AC0162
:1025B0004A195B09DA011296159780F062827382DC
:1025C00051834083D9016D937C93E114F10471F040
:1025D000D7011396FC93EE93129776CF22968C0F29
:1025E0009D1FF90191838083F301EFCFF0930A04DB
:1025F000E093090469CF4816590608F42C017D01BF
:10260000D3019ACFCB010E9432117C01009749F08F
:10261000AE01B8010E941413C8010E94CE118701B7
:1026200053CF10E000E050CFFB01DC0102C001906D
:102630000D9241505040D8F70895FB01DC018D9177
:10264000019080190110D9F3990B0895FB01DC0169
:1026500001900D920020E1F7089510E0C2E6D0E06D
:1026600004C0FE010E942C112196C336D107C9F780
:04267000F894FFCF0C
:1026740000000B0480000000000089060000000038
:102684004004B9008205A2039C04B4042804000099
:1026940000009901B900E600E6015701F50049017F
:1026A40000000000F903CC038205A203C503B203B2
:1026B400A30322225C5C6208660C6E0A720D740924
:1026C400000D0A00636C6F7365007374617274208B
:1026D40063617074757265202E2E2E00737461729E
:1026E400746361707475726500636170747572658A
:1026F40020646F6E65202E2E2E00416E64726F6909
:102704006420436F6D6D616E64203A2000626C75C5
:1027140065746F6F74682061636B00626C756574B7
:102724006F6F7468206E6F74206F6B0073656E74C6
:0A27340020746F20776966690000C9
:00000001FF
