:100000000C9463000C948B000C948B000C94860C65
:100010000C94860C0C94860C0C948B000C948B0026
:100020000C948B000C948B000C948B000C948B0024
:100030000C948B000C948B000C948B000C948B0014
:100040000C941D0B0C948B000C94EB0A0C94C50AB9
:100050000C948B000C948B000C948B000C948B00F4
:100060000C94670B0C948B00000000002400270008
:100070002A0000000008000201000003040700003D
:1000800000000000000000000000230026002900FE
:1000900000000000250028002B00040404040404D0
:1000A0000404020202020202030303030303010227
:1000B00004081020408001020408102001020408F6
:1000C0001020FE0C651011241FBECFEFD8E0DEBF5C
:1000D000CDBF24E0AEE0B2E001C01D92AF34B20764
:1000E000E1F712E0A0E0B1E0E8E3F7E202C005903A
:1000F0000D92AE30B107D9F710E0C2E6D0E004C0EF
:100100002197FE010E948E11C136D107C9F70E94C6
:100110005A0D0C948F130C94000008950895CF93FA
:10012000DF93AC01E091DD02F091DE023097F1F057
:100130009091DC028091DB029817C0F090E0292FAB
:1001400030E02617370754F4D901A659BD4F240FC4
:10015000351FE90128812C939F5FF1CF1092DC02BB
:100160006093DB02CB01DF91CF910994DF91CF91B6
:100170000895CF93DF93EC012FB7F8948091D302C9
:100180009091D402A091D502B091D6022FBF88875A
:100190009987AA87BB87E881F9810284F385E02DDE
:1001A000CE01099597FF1EC02FB7F8948091D30216
:1001B0009091D402A091D502B091D6022FBF48856C
:1001C00059856A857B85841B950BA60BB70B4C81E3
:1001D0005D816E817F8184179507A607B707D8F2E6
:1001E0008FEF9FEFDF91CF910895AF92BF92CF92A3
:1001F000DF92EF92FF920F931F93CF93DF936C01E7
:100200007B018B01040F151FEB015E01AE18BF08C7
:10021000C017D10759F06991D601ED91FC91019079
:10022000F081E02DC6010995892B79F7C501DF9191
:10023000CF911F910F91FF90EF90DF90CF90BF90E3
:10024000AF900895FC01538D448D252F30E0842F0D
:1002500090E0821B930B541710F0CF9608950197EE
:100260000895FC01918D828D981761F0A28DAE0FDB
:10027000BF2FB11D5D968C91928D9F5F9F73928F62
:1002800090E008958FEF9FEF0895FC01918D828D8E
:10029000981731F0828DE80FF11D858D90E008955B
:1002A0008FEF9FEF0895FC01918D228D892F90E0B3
:1002B000805C9F4F821B91098F739927089583E378
:1002C00093E00E94530121E0892B09F420E0822F62
:1002D000089580E090E0892B29F00E945F01811150
:1002E0000C9400000895FC01A48DA80FB92FB11D36
:1002F000A35ABF4F2C91848D90E001968F7399275C
:10030000848FA689B7892C93A089B1898C91837039
:1003100080648C93938D848D981306C00288F38932
:10032000E02D80818F7D80830895EF92FF920F935F
:100330001F93CF93DF93EC0181E0888F9B8D8C8D91
:1003400098131AC0E889F989808185FF15C09FB785
:10035000F894EE89FF896083E889F9898081837048
:10036000806480839FBF81E090E0DF91CF911F91F7
:100370000F91FF90EF900895F62E0B8D10E00F5F18
:100380001F4F0F731127E02E8C8D8E110CC00FB6EE
:1003900007FCFACFE889F989808185FFF5CFCE0186
:1003A0000E947301F1CFEB8DEC0FFD2FF11DE35A8D
:1003B000FF4FF0829FB7F8940B8FEA89FB89808109
:1003C0008062CFCFCF93DF93EC01888D8823B9F083
:1003D000AA89BB89E889F9898C9185FD03C0808150
:1003E00086FD0DC00FB607FCF7CF8C9185FFF2CFCD
:1003F000808185FFEDCFCE010E947301E9CFDF91AF
:10040000CF910895833081F028F4813099F08230C3
:10041000A9F008958730A9F08830C9F08430B1F48C
:10042000809180008F7D03C0809180008F778093C2
:100430008000089584B58F7784BD089584B58F7D3D
:10044000FBCF8091B0008F778093B00008958091AA
:10045000B0008F7DF9CFCF93DF93E0E8F0E0849197
:10046000ECEBF0E0D491E8EAF0E0C491CC23A1F009
:1004700081110E940202EC2FF0E0EE0FFF1FEA57FD
:10048000FF4FA591B491EC91ED2381E090E009F448
:1004900080E0DF91CF91089580E090E0FACF1F9344
:1004A000CF93DF93282F30E0F901EE58FF4F84916E
:1004B000F901E255FF4FD491F901E656FF4FC4917F
:1004C000CC23A9F0162F81110E940202EC2FF0E03C
:1004D000EE0FFF1FE057FF4FA591B4918FB7F8942F
:1004E000EC91111108C0D095DE23DC938FBFDF9112
:1004F000CF911F910895DE2BF8CFCF93DF9390E03B
:10050000FC01E255FF4F249186569F4FFC018491D8
:100510008823D1F090E0880F991FFC01E859FF4F24
:10052000A591B491FC01E057FF4FC591D4916111A1
:100530000EC09FB7F8948C91E22FE0958E238C9398
:100540002881E223E8839FBFDF91CF9108958FB781
:10055000F894EC91E22BEC938FBFF6CF0F931F939F
:10056000CF93DF93EC01162F042F1B821A8288EEA3
:1005700093E0A0E0B0E08C839D83AE83BF8381E1F4
:1005800091E0998388831F8A1E8A198E188E1B8E8C
:100590001A8E1D8E1C8E6E8D6E7F6D7F6E8F669592
:1005A000617081E06827842F0E944F0261E0802FF4
:1005B0000E947D02802F90E0FC01E255FF4FE49104
:1005C000E88BFC01E656FF4FE491F0E0EE0FFF1FD1
:1005D000E057FF4F859194919A8B898B60E0812F32
:1005E0000E947D028E8D81FD04C061E0812F0E94FA
:1005F0004F021C87812F90E0FC01E255FF4FE491F0
:10060000ED87FC01E656FF4FE491F0E0EE0FFF1F8F
:10061000EA57FF4F859194919F878E87DF91CF9105
:100620001F910F9108953FB7F8948091CF02909158
:10063000D002A091D102B091D20226B5A89B05C0EC
:100640002F3F19F00196A11DB11D3FBFBA2FA92F51
:10065000982F8827BC01CD01620F711D811D911D4E
:1006600042E0660F771F881F991F4A95D1F70895BA
:100670002091AB02260F3327331F21323105ECF4D2
:1006800020910503FC0190E080E0243069F082E0D5
:100690000895A091AB022191AC0145575D4FA40F85
:1006A000B52FB11D2C930196861798F38091AB025C
:1006B000680F6093AB0280E0089581E00895109286
:1006C000050381E0809304031092DF0261E082E180
:1006D0000E944F0261E083E10E944F02E9EBF0E0EB
:1006E00080818E7F808380818D7F808388E480936A
:1006F000B80085E48093BC000895CF93DF9391E028
:1007000090938A028823B9F0C091B800D091BA00C2
:100710008091BC008A7B8093BC0060E082E10E94F3
:100720004F0260E083E10E944F020E945F03D0937A
:10073000BA00C093B800DF91CF9108950895E09179
:10074000DC028091DB02E81730F4F0E0E659FD4F5F
:10075000808190E008958FEF9FEF08959091DC02E3
:100760008091DB022FEF3FEF981748F4E92FF0E07C
:10077000E659FD4F208130E09F5F9093DC02C90174
:1007800008958091DB029091DC02891B990B0895FA
:10079000CF92DF92EF92FF920F931F93CF93DF934D
:1007A0007C01CB018A0120910B03222389F0EB010C
:1007B0006B01C40ED51ECC15DD0569F06991D7011A
:1007C000ED91FC910190F081E02DC7010995F3CFE7
:1007D000642F0E943803C801DF91CF911F910F91C0
:1007E000FF90EF90DF90CF900895CF93DF931F920B
:1007F000CDB7DEB7698320910B032223F9F0209156
:100800002E03203258F021E030E0FC0133832283B4
:1008100090E080E00F90DF91CF91089580910C03DC
:10082000E82FF0E0E35FFC4F998190838F5F809326
:100830000C0380932E0381E090E0ECCF61E0CE01C9
:1008400001960E943803F7CF209168023091690227
:100850002817390771F49091670280916602981702
:1008600041F0E0916702F0E0EA5DFD4F808190E0A9
:1008700008958FEF9FEF0895EF92FF920F931F93CC
:10088000CF93DF93DC015C96ED90FC905D97E114D3
:10089000F10479F481E090E013969C938E93129783
:1008A00090E080E0DF91CF911F910F91FF90EF904A
:1008B00008955196ED91FC91529750968C915097D6
:1008C000982F90950FB75E962C915E97122F12700D
:1008D00021FD6095F8942081112319F1282B2083A4
:1008E000E7012197F1F728E0462F50E0308160FFC3
:1008F0001AC0382B3083E7012197F1F7BA017595BB
:100900006795215089F7112381F0808189238083A5
:100910000FBF5C968D919C910197F1F781E090E07B
:10092000C1CF2923DCCF3923E5CF9081892BEFCFAD
:1009300020916802309169022817390771F480917B
:1009400066022091670290E0805C9F4F821B9109B4
:1009500060E470E00E942511089590E080E0089521
:10096000209168023091690228173907B9F49091F3
:10097000670280916602981789F0E0916702F0E0C3
:10098000EA5DFD4F80812091670230E02F5F3F4F8D
:100990002F7333272093670290E008958FEF9FEF26
:1009A0000895E0916802F0916902E817F90769F487
:1009B000A389B4899C918589809589238C93109211
:1009C00069021092680281E0089580E00895CF9353
:1009D000DF93EC019A01AB011B8E1A8E198E188ED3
:1009E0001F8A1E8A60E079E08DE390E00E94391151
:1009F000C90103979D8F8C8F6C85663108F04BC0C1
:100A0000C901969587958431910508F467C043978D
:100A10009F8B8E8BC9010597998F888FC901880F8D
:100A2000991F280F391F36952795369527952C50F5
:100A300031093B8F2A8F9091680084E0683048F03C
:100A400021E06E3008F420E081E001C0880F2A9593
:100A5000EAF7892B809368009C852DE630E098307A
:100A600050F02BE630E09E3030F02CE630E096314E
:100A700010F030E020E03C8B2B8B292F30E09830B9
:100A800080F581E001C0880F9A95EAF78D8B8C8DF7
:100A90009D8D0197F1F78A8D9B8D892BE1F08091D7
:100AA000680290916902C817D907A9F0009711F060
:100AB0000E94D1048E8D8E7F8E8F109266021092CE
:100AC0006702D0936902C0936802EB89FC89808138
:100AD0009D89892B8083DF91CF91089581E090E0FB
:100AE00097CF9E3040F42850310981E001C0880F33
:100AF0002A95EAF7CBCF2E503109F7CF90E080E06E
:100B00000895FC01A081B1818C918D3021F03CF4DD
:100B100089508230A8F51196B183A083F3CF80323B
:100B2000D1F38F3209F0089511968C9111978A3282
:100B300019F08F32C1F008951196B183A083A0817E
:100B4000B181CD0101969183808311968C9111978B
:100B50008823B1F08A3299F712968C9112978F32CE
:100B600071F71396D9CFA081B181CD010196918300
:100B7000808311968C91882319F08A30A1F7C2CF17
:100B800008951F93CF93DF93EC01162F0E948105E8
:100B9000E881F9818081181308C03196F983E883D0
:100BA00081E0DF91CF911F91089580E0FACFEF921D
:100BB000FF920F931F93CF93DF938C01DC01149668
:100BC000CD91DC91EA80FB808E819F81E80EF91E39
:100BD000C80102960E948105D8011296ED91FC9100
:100BE0008081873219F0823209F042C03196D801F3
:100BF0001396FC93EE931297D8011296ED91FC9107
:100C000013979081992309F462C09F012F5F3F4F92
:100C100013963C932E931297891709F458C09C356C
:100C200099F49181A7E4B1E02C91222321F0921351
:100C30001DC011969C91992309F449C03296D801A0
:100C40001396FC93EE9312974E815F819A012F5F6A
:100C50003F4F6C817D816217730770F2EA81FB81DF
:100C6000E40FF51F3F832E839083C6CF1296DCCF0F
:100C700080330CF444C08A3324F08F3504F18B3771
:100C800004F5F801228133812F5F3F4F33832283A4
:100C90004E815F819A012F5F3F4F6C817D8162178A
:100CA000730738F0EA81FB81E40FF51F3F832E8341
:100CB0008083D8011296ED91FC918081D9CF813447
:100CC000F4F08B35F4F293ED980F9230D0F22E8140
:100CD0003F81C90101964C815D814817590790F009
:100CE000EA81FB81E20FF31F9F838E831082C7018D
:100CF000DF91CF911F910F91FF90EF9008958B326C
:100D000011F7BFCFF12CE12CF2CFFC018681978146
:100D1000680F791F248135812617370738F0228123
:100D20003381820F931F77836683089590E080E07C
:100D3000089580911E0281110BC010921B02109227
:100D40001A0210921D0210921C0281E080931E0272
:100D50008AE192E008958091120281110BC01092F5
:100D60000F0210920E02109211021092100281E0F6
:100D7000809312028EE092E00895DB01109749F013
:100D8000ED91FC9111970190F081E02DBC01CD0116
:100D9000099490E080E00895FB0101900020E9F7BC
:100DA0003197AF01461B570BDC01ED91FC9102809E
:100DB000F381E02D0994CF93DF93FC0144815581A9
:100DC000608171818AE194E00E94F500EC0162E5A6
:100DD00071E08AE194E00E94CC068C0F9D1FDF91A8
:100DE000CF9108950F931F93CF93DF93EC010E944F
:100DF000CC068C0162E571E0CE010E94CC06800F2A
:100E0000911FDF91CF911F910F9108950F931F9321
:100E1000CF93DF938B01FC01C281D381209759F0DE
:100E20006A817B810115110519F06115710549F47D
:100E30006017710759F4CE01DF91CF911F910F9187
:100E40000895C8010E947F13892BA9F30990D881C6
:100E5000C02DE4CFAF92BF92CF92DF92EF92FF927C
:100E60000F931F93CF93DF9300D000D000D0CDB766
:100E7000DEB77C01DC0116968C91811104C00E94C2
:100E800099068C0188C08150F7018683C080D1808B
:100E9000B60184E090E00E94BD068C01009709F441
:100EA0008CC0DC011196DC92CE9213961C921E929D
:100EB00012976701B2E0CB0ED11C6BE7C6010E940E
:100EC000C1058823E1F26DE7C6010E94C1058111C9
:100ED0005EC0C7010E94D7055C01892B81F26AE3DD
:100EE000C6010E94C105882351F21A821982BE01EF
:100EF0006F5F7F4FC7010E94E107882309F4BFCFCE
:100F0000B501C8010E940607009759F5F8016081F4
:100F100071818AE090E00E94BD06009741F0DC01FB
:100F200011961C921E9215961C921E921497D8012F
:100F30001296ED91FC91309729F4F8019383828306
:100F400008C0F9012081318121153105D1F7918344
:100F50008083009709F493CFDC011396BC92AE9284
:100F6000129726E0FE013196DC01149601900D9255
:100F70002A95E1F76DE7C6010E94C105811107C0FE
:100F80006CE2C6010E94C1058111A3CF78CFF701A1
:100F900086818F5F8683C80126960FB6F894DEBFE0
:100FA0000FBECDBFDF91CF911F910F91FF90EF90BA
:100FB000DF90CF90BF90AF9008950E9499068C016A
:100FC00078CF8F929F92AF92BF92CF92DF92EF92A3
:100FD000FF920F931F93CF93DF9300D000D000D0E8
:100FE000CDB7DEB77C016B015C0182E0A80EB11CBD
:100FF000C5010E948105D7011296ED91FC911397CE
:1010000080818B35E1F08B3709F4B2C011E0873273
:1010100019F0823209F010E0C7010E94D70500974D
:1010200009F485C021E030E0112309F4ABC022E0CF
:1010300030E0F601318320839383828379C0F70106
:101040008681811104C00E94AB068C016BC0815067
:1010500016968C9316978D909C90B40184E090E046
:101060000E94BD068C01009709F495C0FC01918295
:101070008082138212826BE5C5010E94C10588231C
:1010800011F36DE5C5010E94C105811144C01A82AA
:101090001982BE016F5F7F4FC7010E94E10788235D
:1010A00091F2D8016D917C9188E090E00E94BD069C
:1010B000DC01892B39F011961C921E9213961C921A
:1010C0001E921297F801228133812115310521F4F6
:1010D000B383A28308C09C01F901808191810097AC
:1010E000D1F7B183A083109709F4ADCF86E0FE015C
:1010F0003196129601900D928A95E1F76DE5C50142
:101100000E94C105811107C06CE2C5010E94C105A2
:101110008111BDCF98CFD70116968C9116978F5F0E
:1011200016968C93F80180819181892BA9F410E0A7
:10113000812F26960FB6F894DEBF0FBECDBFDF918C
:10114000CF911F910F91FF90EF90DF90CF90BF90C4
:10115000AF909F908F90089586E090E0D601119611
:101160009C938E9313961C930E93129711E0E0CFED
:10117000C7010E942A07FC0120813181232BB9F28B
:1011800027E030E0D60111963C932E9313969C9362
:101190008E931297EBCF0E94AB068C016CCFFC01B3
:1011A00080819181009711F00C94301208950F9373
:1011B0001F93CF93DF93EC0188819981009759F0B9
:1011C0002A813B812617370730F081E0DF91CF91EC
:1011D0001F910F9108958B016F5F7F4F0E94B9128D
:1011E000009759F0998388831B830A832C813D8162
:1011F000232B59F7FC011082E8CF80E0E7CFEF9274
:10120000FF920F931F93CF93DF936115710541F404
:1012100080E0DF91CF911F910F91FF90EF900895A3
:1012200041155105B1F07B01EC010C811D81040FCA
:10123000151FB8010E94D708882351F328813981EE
:101240008C819D81B701820F931F0E9488131D839B
:101250000C8381E0DECFEF92FF920F931F93CF9329
:10126000DF93EC017B018A01BA010E94D708288133
:101270003981811114C02115310519F0C9010E946D
:101280003012198218821D821C821B821A82CE01A2
:10129000DF91CF911F910F91FF90EF9008951D83E3
:1012A0000C83B701C9010E948813F1CF50E040E0E0
:1012B00061E571E00C942B090F931F93CF93DF939B
:1012C000CDB7DEB7C15FD1090FB6F894DEBF0FBE50
:1012D000CDBF89E394E00E9456098E010F5F1F4F36
:1012E0008091DB029091DC02891B990B029774F0CC
:1012F00080ED93E00E94AE0389831A8241E050E0C2
:10130000B80189E394E00E94FF08EACF80ED93E002
:101310000E94AE0389E394E00E94DB06CE010996A9
:101320009C838B8388EC90E09E838D8318861F823C
:101330008BE091E09A8389838091390490913A04FB
:10134000009711F481E591E0CF52DF4F19830883B4
:10135000C15DD040CD52DF4F99838883C35DD040BB
:10136000CB52DF4F19830883C55DD0408AE0C95254
:10137000DF4F8883C75DD040CE018F529F4F0E94C0
:101380002A07FC0120813181232B09F468C065E51F
:1013900071E00E940607FC01892B09F442C0848198
:1013A00095818330910560F5019708F470C006803F
:1013B000F781E02D309709F46AC0808161E070E028
:1013C000843761F18B3209F45CC08D3209F05AC068
:1013D000319691E070E060E04AE0819120ED280FC5
:1013E0002A3008F051C0469F9001479F300D1124CC
:1013F000682F880F770B60537109620F731FEDCF51
:101400008530910548F00597B1F166817781808537
:1014100091850E94EF1002C06681778181E0672B81
:1014200009F480E080930001CF50DF4F1882C15F44
:10143000D040805DC051DF4F8883C05FD04061EDF8
:1014400070E06C0F7D1F615E7F4F8AE194E00E9427
:10145000CC0662E571E08AE194E00E94CC06CF50B0
:10146000DF4F0FB6F894DEBF0FBECDBFDF91CF9137
:101470001F910F910895668177817195619571092A
:10148000CDCF319690E0A6CF9111F7CFC7CF70E0C6
:1014900060E0C4CFEF92FF920F931F93CF93DF933F
:1014A00000D0CDB7DEB78C017B01FC011182108228
:1014B000138212821582148250E040E061E571E0EF
:1014C0000E942B09C7010E94B90097FD0BC08983B8
:1014D0001A8241E050E0BE016F5F7F4FC8010E9459
:1014E000FF08F0CFC8010F900F90DF91CF911F91AF
:1014F0000F91FF90EF900895FC01118210821382EA
:10150000128215821482FB0101900020E9F73197C5
:10151000AF01461B570B0C942B0985ED8093BC0043
:101520008091070390910803A0910903B0910A03E9
:101530000796A11DB11D23E0B695A79597958795B0
:101540002A95D1F72091BC0024FD03C01092050319
:101550000895409107035091080360910903709129
:101560000A03452B462B472B69F30097A105B105CC
:1015700041F025E32A95F1F700000197A109B1098F
:10158000E1CF809106030C947D031F920F920FB65A
:101590000F9211242F933F934F935F936F937F93F9
:1015A0008F939F93AF93BF93EF93FF9383E393E066
:1015B0000E947301FF91EF91BF91AF919F918F9125
:1015C0007F916F915F914F913F912F910F900FBE3F
:1015D0000F901F9018951F920F920FB60F92112423
:1015E0002F938F939F93EF93FF93E0914303F09199
:1015F00044038081E0914903F0914A0382FD1BC0BE
:10160000908180914C038F5F8F7320914D038217DF
:1016100041F0E0914C03F0E0ED5CFC4F958F80933E
:101620004C03FF91EF919F918F912F910F900FBEDF
:101630000F901F9018958081F4CF1F920F920FB6D4
:101640000F9211242F933F938F939F93AF93BF9348
:101650008091D3029091D402A091D502B091D6028C
:101660003091CE0223E0230F2D3758F50196A11DAE
:10167000B11D2093CE028093D3029093D402A09305
:10168000D502B093D6028091CF029091D002A09162
:10169000D102B091D2020196A11DB11D8093CF025B
:1016A0009093D002A093D102B093D202BF91AF9198
:1016B0009F918F913F912F910F900FBE0F901F9090
:1016C000189526E8230F0296A11DB11DD2CF1F92B7
:1016D0000F920FB60F9211242F933F934F935F9366
:1016E0006F937F938F939F93AF93BF93EF93FF93EA
:1016F0008091B900887F803609F44AC0F0F58832BD
:1017000009F4A7C018F5803109F49BC0B8F4882308
:1017100009F4F9C0883009F494C0FF91EF91BF91AA
:10172000AF919F918F917F916F915F914F913F9179
:101730002F910F900FBE0F901F901895883109F4CC
:1017400088C0803251F78093030314C0803409F4B9
:101750009DC040F48033B9F38833F9F680930303D6
:1017600085ECB0C0803509F485C0883509F496C091
:10177000883499F60E948D0AD0CF883909F48CC03C
:1017800038F5883729F050F4883611F0803729F67B
:1017900083E0809305031092CD0257C0883809F486
:1017A0007BC0803919F0803809F0B7CF8091CD0225
:1017B000803208F071C0E091CD0281E08E0F8093FD
:1017C000CD028091BB00F0E0E355FD4F80833DC02A
:1017D000803B39F0E0F4803A09F479C0883A09F0A6
:1017E0009CCF84E0809305031092AC021092AB0270
:1017F000E091D902F091DA0209958091AB02811152
:101800000FC081E08093AB0210928B0209C0803C34
:1018100009F4A6CF883C09F4A3CF883B09F07DCF1B
:10182000E091AC0281E08E0F8093AC02F0E0E557CE
:10183000FD4F80818093BB009091AC028091AB0200
:1018400029C08091E0028093BB0085EC8093BC00AE
:1018500064CF9091020380910103981758F5E091AD
:10186000020381E08E0F80930203F0E0EF51FD4F01
:101870008081E9CFE091020381E08E0F8093020323
:101880008091BB00F0E0EF51FD4F80839091020307
:10189000809101039817C8F285E8D8CFE091020340
:1018A00081E08E0F809302038091BB00F0E0EF5146
:1018B000FD4F80838091040381115CCF81E0809390
:1018C000DF0284EA8093BC001092050326CF85ECEA
:1018D0008093BC00109205038091CD02803230F4D9
:1018E000E091CD02F0E0E355FD4F10826091CD0212
:1018F00070E0E091D702F091D8028DEA92E009956C
:101900001092CD020ACF1092030334CF1F920F9290
:101910000FB60F9211242F933F934F935F936F93C2
:101920007F938F939F93AF93BF93EF93FF93E09138
:101930006802F0916902309749F0A685B7858585E0
:10194000968D91FF14C09C918923A1F4FF91EF9192
:10195000BF91AF919F918F917F916F915F914F91C7
:101960003F912F910F900FBE0F901F9018959C9153
:10197000892361F7A389B4899C91858980958923FE
:101980008C93868997890197F1F7608D718DA68573
:10199000B785558538E020E0CB010197F1F7822F1C
:1019A00090E095958795282F4C91452309F0206864
:1019B000315091F7868D81FD20958091660290E0EF
:1019C00001968F73992730916702381799F0A0918B
:1019D0006602B0E0AA5DBD4F2C9380936602828DB3
:1019E000938D0197F1F7A389B4898C919589892BFF
:1019F0008C93ACCF868D8160868FF1CFE3E3F3E0EB
:101A00001382128288EE93E0A0E0B0E08483958395
:101A1000A683B78323E231E03183208325EC30E0D5
:101A20003587248724EC30E03787268720EC30E0A8
:101A3000318B208B21EC30E0338B228B22EC30E099
:101A4000358B248B26EC30E0378B268B118E128E53
:101A5000138E148EE0EDF3E013821282848395835B
:101A6000A683B78385E391E09183808361E571E08C
:101A700085E494E00E947C0A61E571E08FE394E0E4
:101A80000E947C0A61E571E089E394E00E947C0A8F
:101A90004AE069E08AE194E00E94AE024BE06CE02B
:101AA0008BEF93E00E94AE0242E063E08CED93E0A6
:101AB0000C94AE02CF93DF9300D000D000D0CDB70E
:101AC000DEB7789484B5826084BD84B5816084BDBE
:101AD00085B5826085BD85B5816085BD80916E00CC
:101AE000816080936E0010928100809181008260FD
:101AF000809381008091810081608093810080913A
:101B000080008160809380008091B1008460809328
:101B1000B1008091B00081608093B00080917A0024
:101B2000846080937A0080917A00826080937A004A
:101B300080917A00816080937A0080917A00806839
:101B400080937A001092C1001092DC021092DB02A6
:101B500010920C0310922E030E945F038EE890E017
:101B60009093DA028093D9028FE890E09093D802A4
:101B70008093D70288E08093BA008CE599E0909337
:101B8000DE028093DD02E0914303F091440382E0A2
:101B90008083E0913F03F09140031082E091410384
:101BA000F09142038FEC808310924B03E091470346
:101BB000F091480386E08083E0914503F09146036D
:101BC000808180618083E0914503F09146038081AC
:101BD00088608083E0914503F091460380818068AE
:101BE0008083E0914503F091460380818F7D80835F
:101BF00085E494E00E9456098FE394E00E94560920
:101C000040E052EC61E070E08AE194E00E94E70479
:101C100040E855E260E070E08BEF93E00E94E7045B
:101C200040E855E260E070E08CED93E00E94E7044C
:101C300081E090E0A0E0B0E08093E0039093E103C6
:101C4000A093E203B093E30360E08EE00E947D0284
:101C500005EE20E0A22E20E0B22E11E03CE0932E13
:101C600042E0842E33243A9495EC292E0E942B02D4
:101C7000019709F058C06BE571E08AE194E00E9499
:101C8000F2066DE671E08BEF93E00E94F2066AE7E0
:101C900071E08AE194E00E94F206809100018823BD
:101CA00089F16BE871E08BEF93E00E94F2066EE938
:101CB00071E08AE194E00E94F2068CED93E00E94CC
:101CC0009804892BD1F365EA71E08AE194E00E94DF
:101CD000F2066CED73E0CE0101960E944A0ACE0135
:101CE00001960E94DB06CE0101960E94CF08109358
:101CF0003203109231036BEA71E08AE194E00E94B2
:101D0000F206B5C06FEB71E08BEF93E00E94F20634
:101D100010923103109232031092300310922F036D
:101D20006DEC71E0EACF809131038111C5C183E38D
:101D300093E00E945301181619060CF06DC063E37E
:101D400073E0CE0101960E944A0A80914504909169
:101D50004604009709F4C2C069817A816115710552
:101D600009F4BAC040914704509148042D813E8146
:101D70004217530708F4B0C00E9488138D819E81DA
:101D800090934A04809349041E821D82CE010196DD
:101D90000E94CF086CED71E0CE0101960E947C0A92
:101DA0004091490450914A04609145047091460461
:101DB000CE0101960E94FF0881110CC089819A8191
:101DC000009711F00E9430121A8219821E821D8221
:101DD0001C821B82CE0101960E94DB06CE01019679
:101DE0000E94CF088091490490914A04892B09F4FC
:101DF0008CC06FEE71E080914504909146040E9482
:101E00007F13892B09F081C01092300310922F03A9
:101E10001092320310923103809132038823A9F08B
:101E200080912F039091300305977CF46DEF71E062
:101E30008AE194E00E94F20680912F039091300392
:101E400001969093300380932F038091320388236F
:101E500071F080912F0390913003059741F4109217
:101E600032031092300310922F03109331030E941B
:101E70002B020197E1F30E9413032B013C0184EF35
:101E8000C82EDD24D394E12CF12C0E941303641995
:101E9000750986099709683E734081059105A8F385
:101EA00081E0C81AD108E108F10828EE420E23E0CB
:101EB000521E611C711CC114D104E104F10429F704
:101EC000A114B10409F4D2CE0E945F01882309F461
:101ED000CBCE0E940000C8CE0E94301289819A8128
:101EE00090934604809345048B819C819093480491
:101EF000809347048D819E8190934A048093490486
:101F00001A8219821C821B823FCF10930B0390927E
:101F10002D0310920C0310922E03609145047091D2
:101F200046046115710521F080ED93E00E94CC0616
:101F3000E0902E0320E22E1508F48EC0F0902D03C1
:101F40000E9413032B013C018091050381115FC0A6
:101F5000809205031093040330920303109202034E
:101F6000E0920103EDE0F3E0A1EEB2E0E8127BC005
:101F70001092E0028091E002FF0CF82AF092E00259
:101F80008091DF02813009F072C01092DF020E945E
:101F900013036B017C018091E0028093BB00809170
:101FA000070390910803A0910903B0910A03892BBC
:101FB0008A2B8B2B99F00E941303409007035090BB
:101FC00008036090090370900A036C197D098E095B
:101FD0009F094616570668067906D0F18091BC0025
:101FE00083FDD9CF2092BC000E9413036B017C01BA
:101FF000809105038230F1F1809103038F3F61F1FD
:1020000080910303803241F18091030325C08091C8
:10201000070390910803A0910903B0910A03892B4B
:102020008A2B8B2B09F490CF0E9413032091070376
:10203000309108034091090350910A03641975090E
:1020400086099709261737074807590708F07CCFF4
:10205000809106030E947D0310920C0310922E03C0
:1020600010920B03D9CE91919D938F5F7FCF0093F8
:10207000BC00BACF8091070390910803A091090397
:10208000B0910A03892B8A2B8B2B09F4B1CF0E94C4
:102090001303409007035090080360900903709069
:1020A0000A036C197D098E099F09461657066806B2
:1020B000790608F09DCFCCCF6FEB71E08BEF93E00A
:1020C0000E94F206109231032BCECF93DF93C1E131
:1020D000D1E0D093DD03C093DC038CED93E00E944C
:1020E000D104D093FC03C093FB038BEF93E00E94D9
:1020F000D104D0931B04C0931A048AE194E00E9497
:10210000D10489E394E00E94CF088FE394E00E9419
:10211000CF0885E494E0DF91CF910C94CF0857FD70
:102120009058440F551F59F05F3F71F04795880F45
:1021300097FB991F61F09F3F79F0879508951216DC
:1021400013061406551FF2CF4695F1DF08C0161688
:1021500017061806991FF1CF869571056105089439
:102160000895E894BB2766277727CB0197F9089550
:102170002F923F924F925F926F927F928F929F9297
:10218000AF92BF92CF92DF92EF92FF920F931F9385
:10219000CF93DF93CDB7DEB7CA1BDB0B0FB6F89436
:1021A000DEBF0FBECDBF09942A88398848885F8476
:1021B0006E847D848C849B84AA84B984C884DF80E7
:1021C000EE80FD800C811B81AA81B981CE0FD11DCB
:1021D0000FB6F894DEBF0FBECDBFED0108950E948B
:1021E000F6106894B1110C94B21008950E949710E3
:1021F00088F09F5798F0B92F9927B751B0F0E1F0C8
:10220000660F771F881F991F1AF0BA95C9F714C077
:10221000B13091F00E94B110B1E008950C94B1106A
:10222000672F782F8827B85F39F0B93FCCF38695B0
:1022300077956795B395D9F73EF49095809570950D
:1022400061957F4F8F4F9F4F089597FB072E16F490
:10225000009407D077FD09D00E94581107FC05D0E3
:102260003EF4909581959F4F0895709561957F4FAD
:102270000895052E97FB1EF400940E94501157FDFF
:1022800007D00E946C1107FC03D04EF40C9450113F
:1022900050954095309521953F4F4F4F5F4F089592
:1022A00090958095709561957F4F8F4F9F4F0895C2
:1022B000AA1BBB1B51E107C0AA1FBB1FA617B7076C
:1022C00010F0A61BB70B881F991F5A95A9F7809588
:1022D0009095BC01CD010895A1E21A2EAA1BBB1B4B
:1022E000FD010DC0AA1FBB1FEE1FFF1FA217B307E2
:1022F000E407F50720F0A21BB30BE40BF50B661FF8
:10230000771F881F991F1A9469F7609570958095BB
:1023100090959B01AC01BD01CF010895EE0FFF1F09
:102320000590F491E02D09940F931F93CF93DF93C1
:102330008230910510F482E090E0E0914D04F0913C
:102340004E0430E020E0B0E0A0E0309799F4211591
:10235000310509F44AC0281B390B24303105D8F562
:102360008A819B816115710589F1FB0193838283C9
:10237000FE0111C040815181028113814817590724
:10238000E0F04817590799F4109761F012960C93F2
:10239000129713961C933296CF01DF91CF911F9124
:1023A0000F91089500934D0410934E04F4CF21151E
:1023B000310551F04217530738F0A901DB019A01AA
:1023C000BD01DF01F801C1CFEF01F9CF90934E04B9
:1023D00080934D04CDCFFE01E20FF31F81939193C3
:1023E0002250310939832883D7CF20914B04309173
:1023F0004C04232B41F420910301309104013093CC
:102400004C0420934B0420910101309102012115CD
:10241000310541F42DB73EB74091050150910601B9
:10242000241B350BE0914B04F0914C04E217F307A9
:10243000A0F42E1B3F0B2817390778F0AC014E5F34
:102440005F4F2417350748F04E0F5F1F50934C0421
:1024500040934B04819391939FCFF0E0E0E09CCFB9
:10246000CF93DF930097E9F0FC0132971382128239
:10247000A0914D04B0914E04ED0130E020E01097A2
:10248000A1F420813181820F931F20914B04309160
:102490004C042817390709F061C0F0934C04E0930D
:1024A0004B04DF91CF910895EA01CE17DF07E8F5DD
:1024B0004A815B819E0141155105B1F7E901FB831A
:1024C000EA8349915991C40FD51FEC17FD0761F4B8
:1024D000808191810296840F951FE90199838883F9
:1024E000828193819B838A83F0E0E0E012968D9154
:1024F0009C9113970097B9F52D913C911197CD01BF
:102500000296820F931F20914B0430914C042817A0
:10251000390739F6309751F510924E0410924D0458
:10252000B0934C04A0934B04BCCFD383C2834081AF
:102530005181840F951FC817D90761F44E5F5F4F13
:1025400088819981480F591F518340838A819B81DB
:10255000938382832115310509F0B0CFF0934E04A7
:10256000E0934D049ECFFD01DC01C0CF13821282A7
:10257000D7CFB0E0A0E0EFEBF2E10C94BA108C0101
:10258000009751F4CB010E9494118C01C801CDB782
:10259000DEB7E0E10C94D610FC01E60FF71F9C01BA
:1025A00022503109E217F30708F49DC0D901CD91FB
:1025B000DC911197C617D70798F0C530D10530F3D5
:1025C000CE0104978617970708F3C61BD70B2297EF
:1025D000C193D1936D937C93CF010E943012D6CFDB
:1025E0005B01AC1ABD0A4C018C0E9D1EA0914D04DE
:1025F000B0914E04512C412CF12CE12C109731F567
:1026000080914B0490914C048815990509F05CC0A9
:102610004616570608F058C08091010190910201BA
:10262000009741F48DB79EB7409105015091060186
:10263000841B950BE817F90708F055C0F0934C047C
:10264000E0934B04F90171836083A0CF8D919C913D
:10265000119712966C90129713967C901397A81569
:10266000B90559F56C0142E0C40ED11CCA14DB0453
:1026700020F1AC014A195B09DA011296159780F036
:102680006282738251834083D9016D937C93E114FC
:10269000F10471F0D7011396FC93EE93129776CF65
:1026A00022968C0F9D1FF90191838083F301EFCF58
:1026B000F0934E04E0934D0469CF4816590608F490
:1026C0002C017D01D3019ACFCB010E9494117C0192
:1026D000009749F0AE01B8010E947613C8010E942C
:1026E0003012870153CF10E000E050CFFB01DC0136
:1026F00002C001900D9241505040D8F70895FB015F
:10270000DC018D91019080190110D9F3990B089586
:10271000FB01DC0101900D920020E1F7089510E02B
:10272000C2E6D0E004C0FE010E948E112196C3369D
:08273000D107C9F7F894FFCFAF
:102738000100004F04800000000000850600000032
:10274800003C04F5007E059E039804B004240400B0
:102758000000009501F5002201E201530131014515
:102768000100000000F503C8037E059E03C103AE07
:10277800039F0322225C5C6208660C6E0A720D7469
:1027880009000D0A00636C6F7365007374617274DD
:102798002063617074757265202E2E2E007374612B
:1027A80072746361707475726500636170747572B8
:1027B8006520646F6E65202E2E2E0073656E644949
:1027C8006D616765426C7565746F6F7468006265EA
:1027D800666F72650061667465720073656E742059
:1027E8007769746820626C7565746F6F74680073BC
:1027F800656E64496D616765576966690073656EE2
:10280800742077697468207769666900416E64721C
:102818006F696420436F6D6D616E64203A200062B9
:102828006C7565746F6F74682061636B00626C759A
:0E28380065746F6F7468206E6F74206F6B0094
:00000001FF
