:020000040000FA
:100000000C9463000C948B000C948B000C94080EE1
:100010000C94080E0C94080E0C948B000C948B001E
:100020000C948B000C948B000C948B000C948B0024
:100030000C948B000C948B000C948B000C948B0014
:100040000C949F0C0C948B000C946D0C0C94470C2E
:100050000C948B000C948B000C948B000C948B00F4
:100060000C94E90C0C948B00000000002400270085
:100070002A0000000008000201000003040700003D
:1000800000000000000000000000230026002900FE
:1000900000000000250028002B00040404040404D0
:1000A0000404020202020202030303030303010227
:1000B00004081020408001020408102001020408F6
:1000C0001020800EEA1011241FBECFEFD8E0DEBF53
:1000D000CDBF24E0AAE1B2E001C01D92A134B20775
:1000E000E1F712E0A0E0B1E0ECE4FBE202C0059031
:1000F0000D92AA31B107D9F710E0C2E6D0E004C0F2
:100100002197FE010E949813C136D107C9F70E94BA
:10011000DC0E0C9499150C94000008950895CF936B
:10012000DF93AC01E0911B03F0911C033097F1F0D9
:1001300090911A03809119039817C0F090E0292F2D
:1001400030E02617370754F4D901A258BD4F240FC9
:10015000351FE90128812C939F5FF1CF10921A037C
:1001600060931903CB01DF91CF910994DF91CF9177
:100170000895AF92BF92CF92DF92EF92FF920F93CA
:100180001F93CF93DF936C017B018B01040F151F2D
:10019000EB015E01AE18BF08C017D10759F0699195
:1001A000D601ED91FC910190F081E02DC6010995F9
:1001B000892B79F7C501DF91CF911F910F91FF90A6
:1001C000EF90DF90CF90BF90AF900895FC01538DDA
:1001D000448D252F30E0842F90E0821B930B541721
:1001E00010F0CF96089501970895FC01918D828DAE
:1001F000981761F0A28DAE0FBF2FB11D5D968C9147
:10020000928D9F5F9F73928F90E008958FEF9FEF85
:1002100008952FB7F8948091210390912203A09123
:100220002303B09124032FBF80932D0390932E03BB
:10023000A0932F03B093300385E293E00E94F50072
:1002400097FF26C02FB7F894809121039091220345
:10025000A0912303B09124032FBF40912D0350910F
:100260002E0360912F0370913003841B950BA60B16
:10027000B70B4091290350912A0360912B03709191
:100280002C0384179507A607B707B0F28FEF9FEFEF
:100290000895FC01918D828D981731F0828DE80FC1
:1002A000F11D858D90E008958FEF9FEF0895FC017B
:1002B000918D228D892F90E0805C9F4F821B910948
:1002C0008F739927089585E293E00E94570121E0FA
:1002D000892B09F420E0822F089580E090E0892B9B
:1002E00029F00E94630181110C9400000895FC0123
:1002F000A48DA80FB92FB11DA35ABF4F2C91848D87
:1003000090E001968F739927848FA689B7892C93E3
:10031000A089B1898C91837080648C93938D848D36
:10032000981306C00288F389E02D80818F7D808339
:100330000895EF92FF920F931F93CF93DF93EC01F9
:1003400081E0888F9B8D8C8D98131AC0E889F9897C
:10035000808185FF15C09FB7F894EE89FF8960837F
:10036000E889F98980818370806480839FBF81E000
:1003700090E0DF91CF911F910F91FF90EF90089542
:10038000F62E0B8D10E00F5F1F4F0F731127E02E1D
:100390008C8D8E110CC00FB607FCFACFE889F98955
:1003A000808185FFF5CFCE010E947701F1CFEB8DE3
:1003B000EC0FFD2FF11DE35AFF4FF0829FB7F89429
:1003C0000B8FEA89FB8980818062CFCFCF93DF9347
:1003D000EC01888D8823B9F0AA89BB89E889F9895D
:1003E0008C9185FD03C0808186FD0DC00FB607FC92
:1003F000F7CF8C9185FFF2CF808185FFEDCFCE01C5
:100400000E947701E9CFDF91CF910895833081F089
:1004100028F4813099F08230A9F008958730A9F04E
:100420008830C9F08430B1F4809180008F7D03C0A2
:10043000809180008F7780938000089584B58F77B6
:1004400084BD089584B58F7DFBCF8091B0008F77F8
:100450008093B00008958091B0008F7DF9CFCF9345
:10046000DF93E0E8F0E08491ECEBF0E0D491E8EA8F
:10047000F0E0C491CC23A1F081110E940602EC2F80
:10048000F0E0EE0FFF1FEA57FF4FA591B491EC91FA
:10049000ED2381E090E009F480E0DF91CF910895B1
:1004A00080E090E0FACF1F93CF93DF93282F30E0C6
:1004B000F901EE58FF4F8491F901E255FF4FD491B5
:1004C000F901E656FF4FC491CC23A9F0162F8111F4
:1004D0000E940602EC2FF0E0EE0FFF1FE057FF4FE7
:1004E000A591B4918FB7F894EC91111108C0D095F3
:1004F000DE23DC938FBFDF91CF911F910895DE2B18
:10050000F8CFCF93DF9390E0FC01E255FF4F2491A9
:1005100086569F4FFC0184918823D1F090E0880F8C
:10052000991FFC01E859FF4FA591B491FC01E057D8
:10053000FF4FC591D49161110EC09FB7F8948C9173
:10054000E22FE0958E238C932881E223E8839FBFDE
:10055000DF91CF9108958FB7F894EC91E22BEC9353
:100560008FBFF6CF0F931F93CF93DF93EC01162F1E
:10057000042F1B821A8288EE93E0A0E0B0E08C8307
:100580009D83AE83BF8380E491E0998388831F8A33
:100590001E8A198E188E1B8E1A8E1D8E1C8E6E8DC5
:1005A0006E7F6D7F6E8F6695617081E06827842F06
:1005B0000E94530261E0802F0E948102802F90E010
:1005C000FC01E255FF4FE491E88BFC01E656FF4F3A
:1005D000E491F0E0EE0FFF1FE057FF4F85919491FB
:1005E0009A8B898B60E0812F0E9481028E8D81FD24
:1005F00004C061E0812F0E9453021C87812F90E08C
:10060000FC01E255FF4FE491ED87FC01E656FF4FF8
:10061000E491F0E0EE0FFF1FEA57FF4F85919491B0
:100620009F878E87DF91CF911F910F9108953FB7DC
:10063000F89480910F0390911003A0911103B09151
:10064000120326B5A89B05C02F3F19F00196A11DE6
:10065000B11D3FBFBA2FA92F982F8827BC01CD010C
:10066000620F711D811D911D42E0660F771F881F6B
:10067000991F4A95D1F708952091C402260F332778
:10068000331F21323105ECF42091E802FC0190E0A7
:1006900080E0243069F082E00895A091C4022191A5
:1006A000AC014C555D4FA40FB52FB11D2C93019695
:1006B000861798F38091C402680F6093C40280E0AB
:1006C000089581E008951092E80281E08093EA02A3
:1006D0001092E90261E082E10E94530261E083E14D
:1006E0000E945302E9EBF0E080818E7F808380815D
:1006F0008D7F808388E48093B80085E48093BC007C
:1007000008950895E0911A0380911903E81730F4D1
:10071000F0E0E258FD4F808190E008958FEF9FEF69
:10072000089590911A03809119032FEF3FEF9817C6
:1007300048F4E92FF0E0E258FD4F208130E09F5F60
:1007400090931A03C90108958091190390911A0397
:10075000891B990B0895CF93DF93CB01EA01642F96
:100760000E943C03CE01DF91CF910895CF93DF9398
:100770001F92CDB7DEB7698361E0CE0101960E947A
:100780003C0381E090E00F90DF91CF91089520919C
:100790007C0230917D022817390771F490917B0219
:1007A00080917A02981741F0E0917B02F0E0E65CDC
:1007B000FD4F808190E008958FEF9FEF0895EF92B5
:1007C000FF920F931F93CF93DF93DC015C96ED9024
:1007D000FC905D97E114F10479F481E090E01396C8
:1007E0009C938E93129790E080E0DF91CF911F91C0
:1007F0000F91FF90EF9008955196ED91FC915297D3
:1008000050968C915097982F90950FB75E962C919B
:100810005E97122F127021FD6095F89420811123AC
:1008200019F1282B2083E7012197F1F728E0462FC3
:1008300050E0308160FF1AC0382B3083E7012197E8
:10084000F1F7BA0175956795215089F7112381F069
:100850008081892380830FBF5C968D919C91019745
:10086000F1F781E090E0C1CF2923DCCF3923E5CF38
:100870009081892BEFCF20917C0230917D02281747
:10088000390771F480917A0220917B0290E0805CBC
:100890009F4F821B910960E470E00E942F1308951E
:1008A00090E080E0089520917C0230917D0228172D
:1008B0003907B9F490917B0280917A02981789F0F8
:1008C000E0917B02F0E0E65CFD4F808120917B02AD
:1008D00030E02F5F3F4F2F73332720937B0290E050
:1008E00008958FEF9FEF0895E0917C02F0917D02D3
:1008F000E817F90769F4A389B4899C9185898095E3
:1009000089238C9310927D0210927C0281E00895DD
:1009100080E00895CF93DF93EC019A01AB011B8E29
:100920001A8E198E188E1F8A1E8A60E079E08DE378
:1009300090E00E946513C90103979D8F8C8F6C8591
:10094000663108F04BC0C9019695879584319105B1
:1009500008F467C043979F8B8E8BC9010597998FC9
:10096000888FC901880F991F280F391F3695279541
:10097000369527952C5031093B8F2A8F909168002E
:1009800084E0683048F021E06E3008F420E081E037
:1009900001C0880F2A95EAF7892B809368009C850F
:1009A0002DE630E0983050F02BE630E09E3030F00D
:1009B0002CE630E0963110F030E020E03C8B2B8BC1
:1009C000292F30E0983080F581E001C0880F9A959A
:1009D000EAF78D8B8C8D9D8D0197F1F78A8D9B8D1C
:1009E000892BE1F080917C0290917D02C817D90794
:1009F000A9F0009711F00E9474048E8D8E7F8E8F67
:100A000010927A0210927B02D0937D02C0937C02F6
:100A1000EB89FC8980819D89892B8083DF91CF912F
:100A2000089581E090E097CF9E3040F4285031093E
:100A300081E001C0880F2A95EAF7CBCF2E5031090B
:100A4000F7CF90E080E00895FC01A081B1818C9106
:100A50008D3021F03CF489508230A8F51196B18395
:100A6000A083F3CF8032D1F38F3209F0089511962D
:100A70008C9111978A3219F08F32C1F00895119636
:100A8000B183A083A081B181CD0101969183808340
:100A900011968C9111978823B1F08A3299F71296AA
:100AA0008C9112978F3271F71396D9CFA081B181B3
:100AB000CD0101969183808311968C91882319F042
:100AC0008A30A1F7C2CF08951F93CF93DF93EC0133
:100AD000162F0E942405E881F9818081181308C02F
:100AE0003196F983E88381E0DF91CF911F910895DA
:100AF00080E0FACFEF92FF920F931F93CF93DF9393
:100B00008C01DC011496CD91DC91EA80FB808E8112
:100B10009F81E80EF91EC80102960E942405D801A3
:100B20001296ED91FC918081873219F0823209F0A2
:100B300042C03196D8011396FC93EE931297D801D8
:100B40001296ED91FC9113979081992309F462C05C
:100B50009F012F5F3F4F13963C932E931297891757
:100B600009F458C09C3599F49181A6E7B1E02C9125
:100B7000222321F092131DC011969C91992309F410
:100B800049C03296D8011396FC93EE9312974E818A
:100B90005F819A012F5F3F4F6C817D8162177307E0
:100BA00070F2EA81FB81E40FF51F3F832E8390836F
:100BB000C6CF1296DCCF80330CF444C08A3324F0C5
:100BC0008F3504F18B3704F5F801228133812F5FD3
:100BD0003F4F338322834E815F819A012F5F3F4FC6
:100BE0006C817D816217730738F0EA81FB81E40F25
:100BF000F51F3F832E838083D8011296ED91FC91DF
:100C00008081D9CF8134F4F08B35F4F293ED980FD5
:100C10009230D0F22E813F81C90101964C815D81D5
:100C20004817590790F0EA81FB81E20FF31F9F8379
:100C30008E831082C701DF91CF911F910F91FF909A
:100C4000EF9008958B3211F7BFCFF12CE12CF2CF4A
:100C5000FC0186819781680F791F248135812617D1
:100C6000370738F022813381820F931F77836683A1
:100C7000089590E080E0089580912A0281110BC0D0
:100C80001092270210922602109229021092280236
:100C900081E080932A0286E292E0089580911E020C
:100CA00081110BC010921B0210921A0210921D02A9
:100CB00010921C0281E080931E028AE192E0089566
:100CC000DB01109749F0ED91FC9111970190F081B3
:100CD000E02DBC01CD01099490E080E00895FB0176
:100CE00001900020E9F73197AF01461B570BDC015B
:100CF000ED91FC910280F381E02D09948F929F92F7
:100D0000AF92BF920F931F93CF93DF93CDB7DEB710
:100D1000A1970FB6F894DEBF0FBECDBF19A2423027
:100D200008F44AE08E010F5D1F4F842E912CB12CE8
:100D3000A12CA50194010E944313E62FB901CA0119
:100D4000EA3004F5E05DD801EE938D01232B242BCE
:100D5000252B79F790E080E0109729F0BD018CE019
:100D600094E00E946F06A1960FB6F894DEBF0FBE06
:100D7000CDBFDF91CF911F910F91BF90AF909F900A
:100D80008F900895E95CDFCF4F925F926F927F92D0
:100D90008F929F92AF92BF92CF92DF92EF92FF928B
:100DA0006B017C01AC019B010E942A1361E871E098
:100DB00081111AC046015701E894B7F82FEF3FEFB1
:100DC0004FE75FE7C501B4010E942A13811126C0D5
:100DD0002FEF3FEF4FE75FE7C501B4010E94141109
:100DE0001816E4F465E871E08CE094E00E946F0668
:100DF0007C016DE871E08CE094E00E946F068E0D3E
:100E00009F1DFF90EF90DF90CF90BF90AF909F908D
:100E10008F907F906F905F904F9008952FEF3FEFEE
:100E20004FE75FE4C701B6010E94251318161CF4B2
:100E300069E871E0D9CF2FEF3FEF4FE75FECC701D3
:100E4000B6010E94141187FDF3CF20E030E0A90124
:100E5000C701B6010E941411B12CA12C87FF0AC052
:100E60006DE28CE094E00E94DF035C01F7FAF094FD
:100E7000F7F8F0942AE037ED43EA5BE3C701B601E7
:100E80000E948A122B013C010E94F6126B017C0128
:100E90000E9419119B01AC01C301B2010E94891289
:100EA0002B013C014AE0C701B6010E947E067C018D
:100EB000EA0CFB1C6EE28CE094E00E94DF03E80E7B
:100EC000F91E20E030E040E251E4C301B2010E948B
:100ED0007A112B013C010E94F6124B01B12CA12C7E
:100EE0004AE0C501B4010E947E06E80EF91EC50164
:100EF000B4010E9419119B01AC01C301B2010E940F
:100F0000891220E030E040E251E40E947A110E9410
:100F1000F61290E080E04AE00E947E06E80EF91E9C
:100F200068CFCF93DF93FC0144815581608171814B
:100F30008CE094E00E94B900EC016DE871E08CE077
:100F400094E00E946F068C0F9D1FDF91CF91089552
:100F50000F931F93CF93DF93EC010E946F068C01D8
:100F60006DE871E0CE010E946F06800F911FDF9146
:100F7000CF911F910F9108950F931F93CF93DF93FC
:100F80008B01FC01C281D381209759F06A817B815A
:100F90000115110519F06115710549F46017710704
:100FA00059F4CE01DF91CF911F910F910895C8019F
:100FB0000E948915892BA9F30990D881C02DE4CF0F
:100FC000FF920F931F93CF93DF930E94BC07FC0106
:100FD000892B09F4B9C0848195818330910508F08B
:100FE0003FC0019708F4B0C0C681D781209709F4AB
:100FF000ABC088818B3209F451C08D3209F04FC0EB
:10100000219611E08881843709F4F4C08F7D8E34F5
:1010100009F4F5C0893409F4A2C0F12C20E030E0D5
:10102000A901FE01099180ED800F8A30E0F52C3C8A
:101030008CEC38078CE0480751059CF5AAE0B0E03D
:101040000E943812202F000F330B20533109032E3A
:10105000000C440B550B260F371F481F591FE1CFBB
:101060008530910538F0059789F066817781808514
:10107000918506C066817781808591850E941911CE
:10108000DF91CF911F910F91FF9008956681778135
:10109000808591850E9419119058F2CF219610E019
:1010A000B1CFF394BECF0E3211F5EF012196FE01C0
:1010B000099180ED800F8A30D0F42C3C8CEC3807FD
:1010C0008CE0480751059CF7AAE0B0E00E94381276
:1010D000202F000F330B20533109032E000C440B3B
:1010E000550B260F371F481F591FFA94E0CF8081F8
:1010F0008F7DCF2DFF0CDD0B853409F060C0818121
:101100008D3231F5329671E090E080E00AE0619135
:10111000A0EDA60FAA3070F5089FD001099FB00D71
:101120001124862F660F990BC0978A0F9B1FDC0135
:10113000AC0FBD1F97975CF3772389F060E070E0F8
:1011400080E090E811119CCF60E070E0CB0198CF77
:101150008B3219F0319670E0D7CF3296FCCF60E039
:1011600070E080E89FEF11118BCF60E070E080E8C5
:101170009FE786CF772319F0919581959109C80F44
:10118000D91FCA01B9010E941B111C161D06D4F4F7
:1011900000E0C0FF0CC024E0029FF0011124EC5DD0
:1011A000FE4F20813181428153810E947A11D59571
:1011B000C7950F5F209769F711116ECF61CF90E04F
:1011C00080E0DDCFD195C195D10900E02097A1F352
:1011D000C0FF0CC024E0029FF0011124E45FFE4F29
:1011E00020813181428153810E947A11D595C79522
:1011F0000F5FECCF60E070E080E89FE341CF60E0FC
:1012000070E080EC9FE73CCFAF92BF92CF92DF922D
:10121000EF92FF920F931F93CF93DF9300D000D0F4
:1012200000D0CDB7DEB77C01DC0116968C91811120
:1012300004C00E943C068C0188C08150F70186835F
:10124000C080D180B60184E090E00E9460068C01ED
:10125000009709F48CC0DC011196DC92CE921396B3
:101260001C921E9212976701B2E0CB0ED11C6BE765
:10127000C6010E9464058823E1F26DE7C6010E9461
:10128000640581115EC0C7010E947A055C01892B4B
:1012900081F26AE3C6010E946405882351F21A8232
:1012A0001982BE016F5F7F4FC7010E94BB0988236F
:1012B00009F4BFCFB501C8010E94BC07009759F5DA
:1012C000F801608171818AE090E00E9460060097D9
:1012D00041F0DC0111961C921E9215961C921E92F2
:1012E0001497D8011296ED91FC91309729F4F801EA
:1012F0009383828308C0F901208131812115310552
:10130000D1F791838083009709F493CFDC01139682
:10131000BC92AE92129726E0FE013196DC01149643
:1013200001900D922A95E1F76DE7C6010E946405D0
:10133000811107C06CE2C6010E9464058111A3CF30
:1013400078CFF70186818F5F8683C80126960FB616
:10135000F894DEBF0FBECDBFDF91CF911F910F91EB
:10136000FF90EF90DF90CF90BF90AF9008950E94D4
:101370003C068C0178CF8F929F92AF92BF92CF9212
:10138000DF92EF92FF920F931F93CF93DF9300D0E2
:1013900000D000D0CDB7DEB77C016B015C0182E0EC
:1013A000A80EB11CC5010E942405D7011296ED912B
:1013B000FC91139780818B35E1F08B3709F4B2C033
:1013C00011E0873219F0823209F010E0C7010E9463
:1013D0007A05009709F485C021E030E0112309F473
:1013E000ABC022E030E0F601318320839383828317
:1013F00079C0F7018681811104C00E944E068C01DC
:101400006BC0815016968C9316978D909C90B4016A
:1014100084E090E00E9460068C01009709F495C07A
:10142000FC0191828082138212826BE5C5010E94C9
:101430006405882311F36DE5C5010E9464058111DF
:1014400044C01A821982BE016F5F7F4FC7010E949C
:10145000BB09882391F2D8016D917C9188E090E0DE
:101460000E946006DC01892B39F011961C921E92B5
:1014700013961C921E921297F80122813381211536
:10148000310521F4B383A28308C09C01F901808156
:1014900091810097D1F7B183A083109709F4ADCF64
:1014A00086E0FE013196129601900D928A95E1F741
:1014B0006DE5C5010E946405811107C06CE2C5019C
:1014C0000E9464058111BDCF98CFD70116968C91EB
:1014D00016978F5F16968C93F80180819181892BE6
:1014E000A9F410E0812F26960FB6F894DEBF0FBE48
:1014F000CDBFDF91CF911F910F91FF90EF90DF90C3
:10150000CF90BF90AF909F908F90089586E090E02D
:10151000D60111969C938E9313961C930E9312975B
:1015200011E0E0CFC7010E940409FC012081318154
:10153000232BB9F227E030E0D60111963C932E938D
:1015400013969C938E931297EBCF0E944E068C01BC
:101550006CCFFC0180819181009711F00C943A14BA
:1015600008950F931F93CF93DF93EC0188819981A6
:10157000009759F02A813B812617370730F081E028
:10158000DF91CF911F910F9108958B016F5F7F4F76
:101590000E94C314009759F0998388831B830A83A0
:1015A0002C813D81232B59F7FC011082E8CF80E08C
:1015B000E7CFEF92FF920F931F93CF93DF936115C5
:1015C000710541F480E0DF91CF911F910F91FF9061
:1015D000EF90089541155105B1F07B01EC010C81AC
:1015E0001D81040F151FB8010E94B10A882351F311
:1015F000288139818C819D81B701820F931F0E94C0
:1016000092151D830C8381E0DECFEF92FF920F9342
:101610001F93CF93DF93EC017B018A01BA010E94F3
:10162000B10A28813981811114C02115310519F0C1
:10163000C9010E943A14198218821D821C821B82E1
:101640001A82CE01DF91CF911F910F91FF90EF9001
:1016500008951D830C83B701C9010E949215F1CF33
:1016600050E040E060E871E00C94050BCF92DF920F
:10167000EF92FF920F931F93CF93DF93CDB7DEB717
:10168000C75DD1090FB6F894DEBF0FBECDBF8BE2A8
:1016900094E00E94300B8E010F5F1F4F8091190361
:1016A00090911A03891B990B029774F082EC93E0D6
:1016B0000E94910389831A8241E050E0B8018BE2D5
:1016C00094E00E94D90AEACF82EC93E00E94910351
:1016D0008BE294E00E949107CE0109969C838B8354
:1016E00088EC90E09E838D8318861F828AE091E0CB
:1016F0009A83898380912B0490912C04009711F494
:1017000080E891E0CF52DF4F19830883C15DD0405C
:10171000CD52DF4F99838883C35DD040CB52DF4FDA
:1017200019830883C55DD0408AE0C952DF4F8883A2
:10173000C75DD040CE018F529F4F0E9404098C019B
:10174000FC0180819181892B51F160E971E0C80130
:101750000E94E0076B017C01C0923602D0923702F2
:10176000E0923802F092390262E971E0C8010E9409
:10177000E0076093320270933302809334029093B7
:101780003502C701B6010E94C40660913202709111
:10179000330280913402909135020E94C406C952EE
:1017A000DF4F0FB6F894DEBF0FBECDBFDF91CF91F4
:1017B0001F910F91FF90EF90DF90CF900895FC0163
:1017C000118210821382128215821482FB01019011
:1017D0000020E9F73197AF01461B570B0C94050B1E
:1017E000CF93DF9385ED8093BC008091A002909110
:1017F000A102A091A202B091A3020796A11DB11D62
:1018000023E0B695A795979587952A95D1F72091CE
:10181000BC0024FD03C01092E80236C04091A00233
:101820005091A1026091A2027091A302452B462B18
:10183000472B69F30097A105B10541F025E32A95EF
:10184000F1F700000197A109B109E1CF80919F0252
:1018500091E090939E028823B9F0C091B800D09196
:10186000BA008091BC008A7B8093BC0060E082E17A
:101870000E94530260E083E10E9453020E946303CE
:10188000D093BA00C093B800DF91CF9108951F9212
:101890000F920FB60F9211242F933F934F935F93A4
:1018A0006F937F938F939F93AF93BF93EF93FF9328
:1018B00085E293E00E947701FF91EF91BF91AF9194
:1018C0009F918F917F916F915F914F913F912F9158
:1018D0000F900FBE0F901F9018951F920F920FB68A
:1018E0000F9211242F938F939F93EF93FF93E09187
:1018F0003503F09136038081E0913B03F0913C0386
:1019000082FD1BC0908180913E038F5F8F73209179
:101910003F03821741F0E0913E03F0E0EB5DFC4FA6
:10192000958F80933E03FF91EF919F918F912F911F
:101930000F900FBE0F901F9018958081F4CF1F92CB
:101940000F920FB60F9211242F933F938F939F9373
:10195000AF93BF938091210390912203A091230321
:10196000B091240330910E0323E0230F2D3758F557
:101970000196A11DB11D20930E0380932103909326
:101980002203A0932303B093240380910F0390912B
:101990001003A0911103B09112030196A11DB11D76
:1019A00080930F0390931003A0931103B09312033D
:1019B000BF91AF919F918F913F912F910F900FBE4B
:1019C0000F901F90189526E8230F0296A11DB11DB8
:1019D000D2CF1F920F920FB60F9211242F933F93E5
:1019E0004F935F936F937F938F939F93AF93BF9327
:1019F000EF93FF938091B900887F803609F44AC045
:101A0000F0F5883209F4A7C018F5803109F49BC0BD
:101A1000B8F4882309F4F9C0883009F494C0FF9120
:101A2000EF91BF91AF919F918F917F916F915F9156
:101A30004F913F912F910F900FBE0F901F901895CF
:101A4000883109F488C0803251F78093E70214C0CE
:101A5000803409F49DC040F48033B9F38833F9F63B
:101A60008093E70285ECB0C0803509F485C08835E5
:101A700009F496C0883499F60E94F00BD0CF8839CB
:101A800009F48CC038F5883729F050F4883611F005
:101A9000803729F683E08093E8021092E60257C06F
:101AA000883809F47BC0803919F0803809F0B7CF45
:101AB0008091E602803208F071C0E091E60281E098
:101AC0008E0F8093E6028091BB00F0E0EA53FD4F59
:101AD00080833DC0803B39F0E0F4803A09F479C05E
:101AE000883A09F09CCF84E08093E8021092C50206
:101AF0001092C402E0911503F091160309958091AC
:101B0000C40281110FC081E08093C4021092A4022C
:101B100009C0803C09F4A6CF883C09F4A3CF883BD8
:101B200009F07DCFE091C50281E08E0F8093C50260
:101B3000F0E0EC55FD4F80818093BB009091C50291
:101B40008091C40229C080910D038093BB0085EC75
:101B50008093BC0064CF90910C0380910B03981785
:101B600058F5E0910C0381E08E0F80930C03F0E0B8
:101B7000E551FD4F8081E9CFE0910C0381E08E0FAC
:101B800080930C038091BB00F0E0E551FD4F808312
:101B900090910C0380910B039817C8F285E8D8CF79
:101BA000E0910C0381E08E0F80930C038091BB00C9
:101BB000F0E0E551FD4F80838091EA0281115CCF16
:101BC00081E08093E90284EA8093BC001092E802ED
:101BD00026CF85EC8093BC001092E8028091E6024B
:101BE000803230F4E091E602F0E0EA53FD4F1082DB
:101BF0006091E60270E0E0911303F091140386EC2B
:101C000092E009951092E6020ACF1092E70234CFD3
:101C10001F920F920FB60F9211242F933F934F9361
:101C20005F936F937F938F939F93AF93BF93EF9344
:101C3000FF93E0917C02F0917D02309749F0A685F8
:101C4000B7858585968D91FF14C09C918923A1F459
:101C5000FF91EF91BF91AF919F918F917F916F9184
:101C60005F914F913F912F910F900FBE0F901F905A
:101C700018959C91892361F7A389B4899C918589E2
:101C8000809589238C93868997890197F1F7608DD8
:101C9000718DA685B785558538E020E0CB01019789
:101CA000F1F7822F90E095958795282F4C91452349
:101CB00009F02068315091F7868D81FD2095809143
:101CC0007A0290E001968F73992730917B02381742
:101CD00099F0A0917A02B0E0A65CBD4F2C9380935E
:101CE0007A02828D938D0197F1F7A389B4898C9143
:101CF0009589892B8C93ACCF868D8160868FF1CFAF
:101D0000E5E2F3E01382128288EE93E0A0E0B0E017
:101D100084839583A683B78322E531E031832083D2
:101D200025EC30E03587248724EC30E037872687A0
:101D300020EC30E0318B208B21EC30E0338B228B98
:101D400022EC30E0358B248B26EC30E0378B268B71
:101D5000118E128E138E148EE2ECF3E01382128237
:101D600084839583A683B78384E691E091838083FF
:101D700060E871E087E394E00E94DF0B60E871E0C7
:101D800081E394E00E94DF0B60E871E08BE294E075
:101D90000E94DF0B4AE069E08CE094E00E94B2020E
:101DA0004BE06CE08DEE93E00E94B20242E063E013
:101DB0008EEC93E00C94B202CF93DF93CDB7DEB7F5
:101DC00028970FB6F894DEBF0FBECDBF789484B5C8
:101DD000826084BD84B5816084BD85B5826085BD27
:101DE00085B5816085BD80916E00816080936E00B5
:101DF00010928100809181008260809381008091A7
:101E00008100816080938100809180008160809357
:101E100080008091B10084608093B1008091B00017
:101E200081608093B00080917A00846080937A0012
:101E300080917A00826080937A0080917A0081603C
:101E400080937A0080917A00806880937A00109263
:101E5000C10061E08DE00E94810260E08DE00E949F
:101E6000530210921A031092190310921803109241
:101E700017030E9463038EE890E09093160380930B
:101E800015038FE890E0909314038093130388E088
:101E90008093BA0086E39BE090931C0380931B031E
:101EA000E0913503F091360382E08083E0913103C5
:101EB000F09132031082E0913303F09134038FEC00
:101EC000808310923D03E0913903F0913A0386E05C
:101ED0008083E0913703F0913803808180618083B3
:101EE000E0913703F0913803808188608083E0912E
:101EF0003703F0913803808180688083E091370355
:101F0000F091380380818F7D808387E394E00E9485
:101F1000300B81E394E00E94300B40E052EC61E032
:101F200070E08CE094E00E948A0440E855E260E0B2
:101F300070E08DEE93E00E948A0440E052EC61E094
:101F400070E08EEC93E00E948A0460E08EE00E94D4
:101F5000810200E010E0772473940E942F02019721
:101F600009F04FC064E971E08CE094E00E94A8079A
:101F700066EA71E08DEE93E00E94A80763EB71E0E2
:101F80008CE094E00E94A80764EC71E085E293E0A5
:101F90000E94A807709220030E942F020197E1F38C
:101FA0000E9417034B015C0188EEC82E83E0D82EF7
:101FB000E12CF12C0E941703681979098A099B0901
:101FC000683E734081059105A8F321E0C21AD1084B
:101FD000E108F10888EE880E83E0981EA11CB11C70
:101FE000C114D104E104F10429F70115110509F424
:101FF000B4CF0E946301882309F4AFCF0E94000090
:10200000ACCF80911F038111D6C08091200388231B
:1020100019F285E293E00E945701181619060CF098
:1020200087C01A8219821C821B821E821D8250E088
:1020300040E060E871E0CE0101960E94050B0E942D
:10204000090197FD0CC08F83188641E050E0BE0166
:10205000695F7F4FCE0101960E94D90AF0CF80912F
:10206000370490913804009709F48EC069817A8111
:102070006115710509F486C04091390450913A0404
:102080002D813E814217530708F47CC00E949215AF
:102090008D819E8190933C0480933B041E821D821F
:1020A000CE0101960E94A90A66ED71E0CE0101966B
:1020B0000E94DF0B40913B0450913C046091370437
:1020C00070913804CE0101960E94D90A81110CC08A
:1020D00089819A81009711F00E943A141A8219821C
:1020E0001E821D821C821B82CE0101960E949107D6
:1020F000CE0101960E94A90A80913B0490913C0474
:10210000892B91F068EE71E080913704909138044A
:102110000E948915892B41F410921E0310921D0311
:102120001092200310921F03809120038823A9F0AE
:1021300080911D0390911E0305977CF466EF71E07A
:102140008CE094E00E94A80780911D0390911E03EB
:10215000019690931E0380931D0380912003882392
:1021600009F41ACF80911D0390911E03059709F081
:1021700013CF1092200310921E0310921D03709231
:102180001F030ACF0E943A1489819A8190933804E0
:10219000809337048B819C8190933A048093390417
:1021A0008D819E8190933C0480933B041A82198216
:1021B0001C821B8273CF67E072E08EEC93E00E947A
:1021C0006F066DE072E08CE094E00E94A807109228
:1021D0001F03E2CECF93DF93C0E4D1E0D093CF03CF
:1021E000C093CE038EEC93E00E947404D093EE0370
:1021F000C093ED038DEE93E00E947404D0930D0420
:10220000C0930C048CE094E00E9474048BE294E090
:102210000E94A90A81E394E00E94A90A87E394E05E
:10222000DF91CF910C94A90A0E94561108F481E025
:102230000895E89409C097FB3EF4909580957095B9
:1022400061957F4F8F4F9F4F9923A9F0F92F96E902
:10225000BB279395F695879577956795B795F11177
:10226000F8CFFAF4BB0F11F460FF1BC06F5F7F4F14
:102270008F4F9F4F16C0882311F096E911C0772326
:1022800021F09EE8872F762F05C0662371F096E82F
:10229000862F70E060E02AF09A95660F771F881FFE
:1022A000DAF7880F9695879597F90895990F0008A2
:1022B000550FAA0BE0E8FEEF16161706E807F90718
:1022C000C0F012161306E407F50798F0621B730BB3
:1022D000840B950B39F40A2661F0232B242B252B34
:1022E00021F408950A2609F4A140A6958FEF811DD7
:1022F000811D08950E948D110C94FE110E94F01111
:1023000038F00E94F71120F0952311F00C94E7119A
:102310000C94ED1111240C9432120E940F1270F3E0
:10232000959FC1F3950F50E0551F629FF001729F7A
:10233000BB27F00DB11D639FAA27F00DB11DAA1F89
:10234000649F6627B00DA11D661F829F2227B00DD6
:10235000A11D621F739FB00DA11D621F839FA00D61
:10236000611D221F749F3327A00D611D231F849FB1
:10237000600D211D822F762F6A2F11249F57504008
:102380009AF0F1F088234AF0EE0FFF1FBB1F661F83
:10239000771F881F91505040A9F79E3F510580F04C
:1023A0000C94E7110C9432125F3FE4F3983ED4F39F
:1023B000869577956795B795F795E7959F5FC1F7F0
:1023C000FE2B880F911D9695879597F9089597F99B
:1023D0009F6780E870E060E008959FEF80EC0895CB
:1023E00000240A94161617061806090608950024F4
:1023F0000A9412161306140605060895092E03946E
:10240000000C11F4882352F0BB0F40F4BF2B11F4E1
:1024100060FF04C06F5F7F4F8F4F9F4F089557FD40
:102420009058440F551F59F05F3F71F04795880F42
:1024300097FB991F61F09F3F79F0879508951216D9
:1024400013061406551FF2CF4695F1DF08C0161685
:1024500017061806991FF1CF869571056105089436
:102460000895E894BB2766277727CB0197F908954D
:102470000E947A12A59F900DB49F900DA49F800D8D
:10248000911D112408952F923F924F925F926F9267
:102490007F928F929F92AF92BF92CF92DF92EF92F4
:1024A000FF920F931F93CF93DF93CDB7DEB7CA1B75
:1024B000DB0B0FB6F894DEBF0FBECDBF09942A88A0
:1024C000398848885F846E847D848C849B84AA8448
:1024D000B984C884DF80EE80FD800C811B81AA81D5
:1024E000B981CE0FD11D0FB6F894DEBF0FBECDBFA0
:1024F000ED010895A29FB001B39FC001A39F700D8D
:10250000811D1124911DB29F700D811D1124911DFB
:1025100008955058BB27AA270E94A1120C94FE11BF
:102520000E94F01138F00E94F71120F039F49F3F1B
:1025300019F426F40C94ED110EF4E095E7FB0C94DD
:10254000E711E92F0E940F1258F3BA1762077307B9
:102550008407950720F079F4A6F50C9431120EF457
:10256000E0950B2EBA2FA02D0B01B90190010C01A3
:10257000CA01A0011124FF27591B99F0593F50F4BB
:10258000503E68F11A16F040A22F232F342F442713
:10259000585FF3CF469537952795A795F04053950B
:1025A000C9F77EF41F16BA0B620B730B840BBAF0DB
:1025B0009150A1F0FF0FBB1F661F771F881FC2F746
:1025C0000EC0BA0F621F731F841F48F4879577955A
:1025D0006795B795F7959E3F08F0B0CF9395880F14
:1025E00008F09927EE0F9795879508950E94171286
:1025F00088F09F5798F0B92F9927B751B0F0E1F0C4
:10260000660F771F881F991F1AF0BA95C9F714C073
:10261000B13091F00E943112B1E008950C94311262
:10262000672F782F8827B85F39F0B93FCCF38695AC
:1026300077956795B395D9F73EF490958095709509
:1026400061957F4F8F4F9F4F08950E94561108F458
:102650008FEF08950E945611880B990B089597FBF0
:10266000072E16F4009407D077FD09D00E9484133A
:1026700007FC05D03EF4909581959F4F0895709585
:1026800061957F4F0895A1E21A2EAA1BBB1BFD0185
:102690000DC0AA1FBB1FEE1FFF1FA217B307E40741
:1026A000F50720F0A21BB30BE40BF50B661F771F99
:1026B000881F991F1A9469F7609570958095909579
:1026C0009B01AC01BD01CF010895052E97FB1EF4BF
:1026D00000940E947C1357FD07D00E94431307FC0F
:1026E00003D04EF40C947C13509540953095219571
:1026F0003F4F4F4F5F4F089590958095709561952E
:102700007F4F8F4F9F4F0895AA1BBB1B51E107C0FE
:10271000AA1FBB1FA617B70710F0A61BB70B881F71
:10272000991F5A95A9F780959095BC01CD01089500
:10273000EE0FFF1F0590F491E02D09940F931F9366
:10274000CF93DF938230910510F482E090E0E09126
:102750003F04F091400430E020E0B0E0A0E030978A
:1027600099F42115310509F44AC0281B390B24308E
:102770003105D8F58A819B816115710589F1FB01CD
:1027800093838283FE0111C04081518102811381B4
:1027900048175907E0F04817590799F4109761F066
:1027A00012960C93129713961C933296CF01DF91D9
:1027B000CF911F910F91089500933F04109340040F
:1027C000F4CF2115310551F04217530738F0A90114
:1027D000DB019A01BD01DF01F801C1CFEF01F9CFA3
:1027E0009093400480933F04CDCFFE01E20FF31F8E
:1027F000819391932250310939832883D7CF209137
:102800003D0430913E04232B41F42091020130918C
:10281000030130933E0420933D0420910001309148
:1028200001012115310541F42DB73EB74091040156
:1028300050910501241B350BE0913D04F0913E04BD
:10284000E217F307A0F42E1B3F0B2817390778F087
:10285000AC014E5F5F4F2417350748F04E0F5F1FE6
:1028600050933E0440933D04819391939FCFF0E0B9
:10287000E0E09CCFCF93DF930097E9F0FC01329723
:1028800013821282A0913F04B0914004ED0130E028
:1028900020E01097A1F420813181820F931F2091B5
:1028A0003D0430913E042817390709F061C0F093C8
:1028B0003E04E0933D04DF91CF910895EA01CE17E5
:1028C000DF07E8F54A815B819E0141155105B1F7AB
:1028D000E901FB83EA8349915991C40FD51FEC1795
:1028E000FD0761F4808191810296840F951FE901B3
:1028F00099838883828193819B838A83F0E0E0E0DF
:1029000012968D919C9113970097B9F52D913C915A
:102910001197CD010296820F931F20913D043091B3
:102920003E042817390739F6309751F510924004C4
:1029300010923F04B0933E04A0933D04BCCFD383D8
:10294000C28340815181840F951FC817D90761F454
:102950004E5F5F4F88819981480F591F5183408393
:102960008A819B81938382832115310509F0B0CF41
:10297000F0934004E0933F049ECFFD01DC01C0CF03
:1029800013821282D7CFB0E0A0E0E9ECF4E10C941E
:1029900045128C01009751F4CB010E949E138C01CB
:1029A000C801CDB7DEB7E0E10C946112FC01E60F7F
:1029B000F71F9C0122503109E217F30708F49DC06C
:1029C000D901CD91DC911197C617D70798F0C53082
:1029D000D10530F3CE0104978617970708F3C61B7D
:1029E000D70B2297C193D1936D937C93CF010E9413
:1029F0003A14D6CF5B01AC1ABD0A4C018C0E9D1E59
:102A0000A0913F04B0914004512C412CF12CE12CB9
:102A1000109731F580913D0490913E0488159905F9
:102A200009F05CC04616570608F058C080910001B6
:102A300090910101009741F48DB79EB74091040138
:102A400050910501841B950BE817F90708F055C054
:102A5000F0933E04E0933D04F90171836083A0CFBD
:102A60008D919C91119712966C90129713967C9071
:102A70001397A815B90559F56C0142E0C40ED11C95
:102A8000CA14DB0420F1AC014A195B09DA01129681
:102A9000159780F06282738251834083D9016D93D0
:102AA0007C93E114F10471F0D7011396FC93EE933B
:102AB000129776CF22968C0F9D1FF9019183808308
:102AC000F301EFCFF0934004E0933F0469CF481641
:102AD000590608F42C017D01D3019ACFCB010E9445
:102AE0009E137C01009749F0AE01B8010E94801549
:102AF000C8010E943A14870153CF10E000E050CF84
:102B0000FB01DC0102C001900D9241505040D8F70A
:102B10000895FB01DC018D91019080190110D9F31A
:102B2000990B0895FB01DC0101900D920020E1F763
:102B3000089510E0C2E6D0E004C0FE010E949813A0
:102B40002196C336D107C9F7F894FFCF000041049E
:102B50008000000000002806CDCCCC3D0AD7233CE5
:102B600017B7D13877CC2B329595E6241FB14F0A91
:102B7000000020410000C84200401C4620BCBE4C62
:102B8000CA1B0E5AAEC59D7400000000DF03B900D9
:102B9000210581033B045304C70300000000990191
:102BA000B900E600E6015701F50049010000000008
:102BB000B603AB0321058103A40391038203222200
:102BC0005C5C6208660C6E0A720D7409006E616EC0
:102BD00000696E66006F7666000D0A007800790065
:102BE00073746172742063617074757265202E2E27
:102BF0002E00737461727463617074757265006322
:102C000061707475726520646F6E65202E2E2E00C3
:102C1000736F6D656F6E65206973206865726520DE
:102C20002100416E64726F696420436F6D6D616E47
:102C3000643A2000626C7565746F6F74682061631C
:102C40006B00626C7565746F6F7468206E6F7420B2
:102C50006F6B0073746172740073656E7420746FAF
:062C60002077696669009F
:107E0000112484B714BE81FFF0D085E080938100F7
:107E100082E08093C00088E18093C10086E0809377
:107E2000C20080E18093C4008EE0C9D0259A86E02C
:107E300020E33CEF91E0309385002093840096BBD3
:107E4000B09BFECF1D9AA8958150A9F7CC24DD24C4
:107E500088248394B5E0AB2EA1E19A2EF3E0BF2EE7
:107E6000A2D0813461F49FD0082FAFD0023811F036
:107E7000013811F484E001C083E08DD089C08234E0
:107E800011F484E103C0853419F485E0A6D080C0E4
:107E9000853579F488D0E82EFF2485D0082F10E0AE
:107EA000102F00270E291F29000F111F8ED06801E7
:107EB0006FC0863521F484E090D080E0DECF843638
:107EC00009F040C070D06FD0082F6DD080E0C81688
:107ED00080E7D80618F4F601B7BEE895C0E0D1E017
:107EE00062D089930C17E1F7F0E0CF16F0E7DF06D8
:107EF00018F0F601B7BEE89568D007B600FCFDCFD4
:107F0000A601A0E0B1E02C9130E011968C91119780
:107F100090E0982F8827822B932B1296FA010C0160
:107F200087BEE89511244E5F5F4FF1E0A038BF0790
:107F300051F7F601A7BEE89507B600FCFDCF97BE46
:107F4000E89526C08437B1F42ED02DD0F82E2BD052
:107F50003CD0F601EF2C8F010F5F1F4F84911BD097
:107F6000EA94F801C1F70894C11CD11CFA94CF0C13
:107F7000D11C0EC0853739F428D08EE10CD085E9AC
:107F80000AD08FE07ACF813511F488E018D01DD067
:107F900080E101D065CF982F8091C00085FFFCCF94
:107FA0009093C60008958091C00087FFFCCF809118
:107FB000C00084FD01C0A8958091C6000895E0E648
:107FC000F0E098E1908380830895EDDF803219F02E
:107FD00088E0F5DFFFCF84E1DECF1F93182FE3DFCA
:107FE0001150E9F7F2DF1F91089580E0E8DFEE27F6
:047FF000FF270994CA
:027FFE00040479
:00000001FF
