:100000000C9446010C9477010C9477010C947701C1
:100010000C9477010C9477010C9477010C94770180
:100020000C9477010C94FA0D0C94FA0D0C94FA0DC3
:100030000C9477010C9477010C9477010C94770160
:100040000C9477010C9477010C9477010C94770150
:100050000C9477010C9477010C9477010C94900C1C
:100060000C9477010C94660C0C943C0C0C94770166
:100070000C9477010C9477010C9477010C94770120
:100080000C9477010C9477010C9477010C94770110
:100090000C94120C0C94E80B0C9477010C94DA0C71
:1000A0000C9477010C9477010C9477010C947701F0
:1000B0000C9477010C9477010C9477010C947701E0
:1000C0000C9477010C9477010C9477010C94BE0B7F
:1000D0000C94940B0C9477010C946A0B0C94400BC9
:1000E0000C9477010C948E030C94BE010C94A6031F
:1000F0000C9404020C94B4030C9487060C94100323
:100100000C94F0040C947D030C9477120C9413025D
:100110000C94A0030C9481030C94C3020C94AE03C2
:100120000C948E070C9498030C9479030C9492030E
:100130000C949C030C94AA030C9485030C948E05D8
:100140000C94B3030C94760E0C9488030C941A054B
:100150000C94A6050C945F020C9432050C94B80321
:100160000C946D020C9473030000210024002700FE
:100170002A002D00300033000101000004010701B6
:100180000A0100000A0B02090C0D0E080703040106
:10019000000000000000000000000000000000005F
:1001A000000000000000000000000000000012112C
:1001B000100000000000000000000000000000002F
:1001C00000000000000000000000200023002600C6
:1001D00029002C002F00320000010000030106015D
:1001E000090100002200250028002B002E0031000C
:1001F000340002010000050108010B010505050599
:10020000070508080808020202020A0A080804048E
:1002100004040101010101010101030303030303BC
:100220000303040707070C0C0C0C0C0C0C0C02024B
:10023000020206060606060606060B0B0B0B0B0B48
:100240000B0B0102102020080810204010204080D5
:10025000020102010804020101020408102040808A
:100260008040201008040201800402018040201018
:100270000804020108040201010204081020408061
:100280000102040810204080760E771211241FBE50
:10029000CFEFD1E2DEBFCDBF00E00CBF27E0A0E78B
:1002A000B3E001C01D92A231B207E1F713E0A0E074
:1002B000B2E0E6EFFAE200E00BBF02C007900D9259
:1002C000A037B107D9F711E0C5E4D1E000E006C0DE
:1002D00021970109802FFE010E942E13C434D107FB
:1002E00080E00807A9F70E94320F0C9469150C945E
:1002F0000000CF93DF93EC019A01AB01E889F98903
:1003000082E08083211581EE38074105510581F196
:1003100060E079E08DE390E00E940C1321503109F8
:10032000410951095695479537952795EC85FD85E7
:100330001082EE85FF852083188EEC89FD8986E08A
:100340008083EA89FB89808180618083EA89FB89D7
:10035000808188608083EA89FB89808180688083CE
:10036000EA89FB8980818F7D8083DF91CF91089519
:10037000E889F989108220E1D9CF0895AF92BF9220
:10038000CF92DF92EF92FF920F931F93CF93DF9361
:100390006C017B018B01040F151FEB015E01AE1890
:1003A000BF08C017D10759F06991D601ED91FC91B2
:1003B0000190F081E02DC6011995892B79F7C501CF
:1003C000DF91CF911F910F91FF90EF90DF90CF9031
:1003D000BF90AF900895FC01A089B1898C91A68946
:1003E000B78982FD0FC09C91818D8F5F8F73228DA5
:1003F000821749F0A18DAE0FBF2FB11D5D969C9362
:10040000818F08958C910895FC01538D448D252F83
:1004100030E0842F90E0821B930B541710F0CF969E
:10042000089501970895FC01918D828D981761F0D0
:10043000A28DAE0FBF2FB11D5D968C91928D9F5FE7
:100440009F73928F90E008958FEF9FEF0895CF9361
:10045000DF93EC012FB7F89480914204909143040C
:10046000A0914404B09145042FBF88879987AA873B
:10047000BB87CE010E94130297FF1EC02FB7F894CE
:100480008091420490914304A0914404B0914504AA
:100490002FBF488559856A857B85841B950BA60BE4
:1004A000B70B4C815D816E817F8184179507A6070C
:1004B000B707F8F28FEF9FEFDF91CF910895FC011E
:1004C000918D828D981731F0828DE80FF11D858D09
:1004D00090E008958FEF9FEF0895FC01918D228D9C
:1004E000892F90E0805C9F4F821B91098F73992721
:1004F00008958AE494E00E946D0221E0892B09F4BA
:1005000020E0822F089587EE94E00E946D0221E0A2
:10051000892B09F420E0822F089584E895E00E9459
:100520006D0221E0892B09F420E0822F089581E2F9
:1005300096E00E946D0221E0892B09F420E0822FD1
:100540000895FC01A48DA80FB92FB11DA35ABF4F68
:100550002C91848D90E001968F739927848FA689C2
:10056000B7892C93A089B1898C91837080648C9316
:10057000938D848D981306C00288F389E02D8081C5
:100580008F7D80830895EF92FF920F931F93CF93F7
:10059000DF93EC0181E0888F9B8D8C8D98131AC0BE
:1005A000E889F989808185FF15C09FB7F894EE89A5
:1005B000FF896083E889F989808183708064808302
:1005C0009FBF81E090E0DF91CF911F910F91FF904D
:1005D000EF900895F62E0B8D10E00F5F1F4F0F73F5
:1005E0001127E02E8C8D8E110CC00FB607FCFACFB0
:1005F000E889F989808185FFF5CFCE010E94A102AB
:10060000F1CFEB8DEC0FFD2FF11DE35AFF4FF08280
:100610009FB7F8940B8FEA89FB8980818062CFCFE6
:10062000CF93DF93EC01888D8823B9F0AA89BB8929
:10063000E889F9898C9185FD03C0808186FD0DC014
:100640000FB607FCF7CF8C9185FFF2CF808185FF35
:10065000EDCFCE010E94A102E9CFDF91CF910895A5
:1006600080E090E0892B29F00E94970281110E947E
:10067000000080E090E0892B29F00E948D0281111A
:100680000E94000080E090E0892B29F00E94830204
:1006900081110E94000080E090E0892B29F00E94E7
:1006A000790281110C94000008958150823108F084
:1006B0005AC0E82FF0E08827EF59FC4F8F4F0C9479
:1006C0002E1381038503730379037D03B30388032A
:1006D0008E03920398039C03A003A603AA03B3030B
:1006E000AE03B403B803809180008F7780938000BD
:1006F0000895809180008F7DF9CF80918000877F61
:10070000F5CF84B58F7784BD089584B58F7DFBCFF9
:100710008091B0008F778093B00008958091B000F1
:100720008F7DF9CF809190008F778093900008950E
:10073000809190008F7DF9CF80919000877FF5CFD9
:100740008091A0008F778093A00008958091A000F1
:100750008F7DF9CF8091A000877FF5CF8091200118
:100760008F77809320010895809120018F7DF9CFAC
:1007700080912001877FF5CFCF93DF93E8EBF1E005
:100780008491E8E7F2E0D491E2E3F2E0C491CC2373
:10079000A1F081110E945503EC2FF0E0EE0FFF1F36
:1007A000E853FE4FA591B491EC91ED2381E090E0E8
:1007B00009F480E0DF91CF91089580E090E0FACFD6
:1007C0001F93CF93DF93282F30E0F901EE57FE4FB0
:1007D0008491F901EE5BFD4FD491F901E450FE4F95
:1007E000C491CC23A9F0162F81110E945503EC2F40
:1007F000F0E0EE0FFF1FEE51FE4FA591B4918FB7C1
:10080000F894EC91111108C0D095DE23DC938FBFD2
:10081000DF91CF911F910895DE2BF8CFCF93DF9317
:1008200090E0FC01EE5BFD4F249184509E4FFC0153
:1008300084918823D1F090E0880F991FFC01E8593A
:10084000FE4FA591B491FC01EE51FE4FC591D4919C
:1008500061110EC09FB7F8948C91E22FE0958E2322
:100860008C932881E223E8839FBFDF91CF91089585
:100870008FB7F894EC91E22BEC938FBFF6CF0F93E8
:100880001F93CF93DF93EC01162F042F1B821A8244
:1008900088EE93E0A0E0B0E08C839D83AE83BF83BD
:1008A00081E192E0998388831F8A1E8A198E188EAF
:1008B0001B8E1A8E1D8E1C8E6E8D6E7F6D7F6E8FC1
:1008C0006695617081E06827842F0E94E00361E0F3
:1008D000802F0E940E04802F90E0FC01EE5BFD4F04
:1008E000E491E88BFC01E450FE4FE491F0E0EE0F60
:1008F000FF1FEE51FE4F859194919A8B898B60E09A
:10090000812F0E940E048E8D81FD04C061E0812F35
:100910000E94E0031C87812F90E0FC01EE5BFD4FFD
:10092000E491ED87FC01E450FE4FE491F0E0EE0F1E
:10093000FF1FE853FE4F859194919F878E87DF912B
:10094000CF911F910F9108953FB7F89480913A0489
:1009500090913B04A0913C04B0913D0426B5A89B26
:1009600005C02F3F19F00196A11DB11D3FBFBA2F41
:10097000A92F982F8827BC01CD01620F711D811D01
:10098000911D42E0660F771F881F991F4A95D1F786
:1009900008952091EF03260F3327331F21323105AD
:1009A000ECF420911304FC0190E080E0243069F025
:1009B00082E00895A091EF032191AC0141535C4F77
:1009C000A40FB52FB11D2C930196861798F3809133
:1009D000EF03680F6093EF0380E0089581E00895CE
:1009E00008958FEF9FEF08958FEF9FEF0895809107
:1009F000C80390E09195819591090895CF93DF9375
:100A0000CB01EA01642F0E94C904CE01DF91CF918E
:100A10000895CF93DF931F92CDB7DEB7698361E06E
:100A2000CE0101960E94C90481E090E00F90DF9111
:100A3000CF9108952091480430914904281739072F
:100A400071F49091460480914704981741F0E09129
:100A50004604F0E0E857FC4F808190E008958FEF66
:100A60009FEF0895EF92FF920F931F93CF93DF9321
:100A7000DC015C96ED90FC905D97E114F10479F453
:100A800081E090E013969C938E93129790E080E023
:100A9000DF91CF911F910F91FF90EF9008955196A4
:100AA000ED91FC91529750968C915097982F90957C
:100AB0000FB75E962C915E97122F127021FD6095F4
:100AC000F8942081112319F1282B2083E701219725
:100AD000F1F728E0462F50E0308160FF1AC0382B34
:100AE0003083E7012197F1F7BA0175956795215099
:100AF00089F7112381F08081892380830FBF5C9661
:100B00008D919C910197F1F781E090E0C1CF29236D
:100B1000DCCF3923E5CF9081892BEFCF209148049A
:100B2000309149042817390771F4809147042091C6
:100B3000460490E0805C9F4F821B910960E470E066
:100B40000E94F812089590E080E0089520914804F2
:100B50003091490428173907B9F4909146048091DF
:100B60004704981789F0E0914604F0E0E857FC4FFD
:100B700080812091460430E02F5F3F4F2F73332751
:100B80002093460490E008958FEF9FEF0895E09141
:100B90004804F0914904E817F90769F4A389B48976
:100BA0009C918589809589238C9310924904109299
:100BB000480481E0089580E00895CF93DF93EC012D
:100BC0001B8E1A8E198E188E1F8A1E8A8FE190E056
:100BD0009D8F8C8F8C8596EF980F943048F02EEC7B
:100BE000280F243028F022EC280F283008F052C0BB
:100BF00021E030E03F8B2E8B2DE130E0398F288FC4
:100C00002DE030E03B8F2A8F943050F02EEC280FEF
:100C1000243030F022EC280FB0E0A0E0283010F4AF
:100C2000A8E6B0E02C91943028F032EC380F383040
:100C300008F453C031E0232B943048F09EEC980F19
:100C4000943028F08E53B0E0A0E0883010F4A8E68D
:100C5000B0E02C932C8536EF320F343008F43FC0CF
:100C60008EEC820F8430D8F182EC820F8830D0F184
:100C700090E080E09C8B8B8B3430B8F52650330BA2
:100C800081E001C0880F2A95EAF78D8B8C8D9D8DB0
:100C90000197F1F78A8D9B8D892BE1F080914804B3
:100CA00090914904C817D907A9F0009711F00E9444
:100CB000C7058E8D8E7F8E8F10924704109246044A
:100CC000D0934904C0934804EB89FC8980819D89B5
:100CD000892B8083DF91CF91089534E0ACCF8BE6F0
:100CE00090E0C8CF8DE690E0C5CF88E0223369F26E
:100CF00084E0233351F282E0243339F282EC820F14
:100D0000883018F42E53330BBBCF81E0BECF90E078
:100D100080E00895FC01A081B1818C918D3021F09B
:100D20003CF489508230A8F51196B183A083F3CFAB
:100D30008032D1F38F3209F0089511968C9111977A
:100D40008A3219F08F32C1F008951196B183A083D1
:100D5000A081B181CD0101969183808311968C9100
:100D600011978823B1F08A3299F712968C911297D5
:100D70008F3271F71396D9CFA081B181CD01019641
:100D80009183808311968C91882319F08A30A1F782
:100D9000C2CF08951F93CF93DF93EC01162F0E94CB
:100DA0008A06E881F9818081181308C03196F98399
:100DB000E88381E0DF91CF911F91089580E0FACF21
:100DC000EF92FF920F931F93CF93DF938C01DC017F
:100DD0001496CD91DC91EA80FB808E819F81E80E94
:100DE000F91EC80102960E948A06D8011296ED915A
:100DF000FC918081873219F0823209F042C031962D
:100E0000D8011396FC93EE931297D8011296ED91A8
:100E1000FC9113979081992309F462C09F012F5F81
:100E20003F4F13963C932E931297891709F458C09D
:100E30009C3599F49181A5E3B2E02C91222321F015
:100E400092131DC011969C91992309F449C03296C2
:100E5000D8011396FC93EE9312974E815F819A010D
:100E60002F5F3F4F6C817D816217730770F2EA81BB
:100E7000FB81E40FF51F3F832E839083C6CF12962C
:100E8000DCCF80330CF444C08A3324F08F3504F176
:100E90008B3704F5F801228133812F5F3F4F338375
:100EA00022834E815F819A012F5F3F4F6C817D814C
:100EB0006217730738F0EA81FB81E40FF51F3F8367
:100EC0002E838083D8011296ED91FC918081D9CF39
:100ED0008134F4F08B35F4F293ED980F9230D0F228
:100EE0002E813F81C90101964C815D8148175907C8
:100EF00090F0EA81FB81E20FF31F9F838E831082C3
:100F0000C701DF91CF911F910F91FF90EF9008954E
:100F10008B3211F7BFCFF12CE12CF2CFFC0186818F
:100F20009781680F791F248135812617370738F09C
:100F300022813381820F931F77836683089590E027
:100F400080E008958091800381110BC010927D0391
:100F500010927C0310927F0310927E0381E08093B5
:100F600080038CE793E008958091740381110BC096
:100F70001092710310927003109273031092720317
:100F800081E08093740380E793E00895DB0110977C
:100F900049F0ED91FC9111970190F081E02DBC0199
:100FA000CD01199490E080E008950F931F93CF93A3
:100FB000DF938B01FC01C281D381209759F06A81B4
:100FC0007B810115110519F06115710549F4601750
:100FD000710759F4CE01DF91CF911F910F910895C0
:100FE000C8010E945915892BA9F30990D881C02DF9
:100FF000E4CFAF92BF92CF92DF92EF92FF920F9326
:101000001F93CF93DF9300D000D0CDB7DEB77C0124
:10101000DC0116968C91811104C00E94A2078C01FC
:1010200088C08150F7018683C080D180B60184E0FA
:1010300090E00E94C6078C01009709F48CC0DC0187
:101040001196DC92CE9213961C921E921297670113
:10105000B2E0CB0ED11C6BE7C6010E94CA06882302
:10106000E1F26DE7C6010E94CA0681115EC0C701A8
:101070000E94E0065C01892B81F26AE3C6010E94AE
:10108000CA06882351F21A821982BE016F5F7F4F10
:10109000C7010E94AF08882309F4BFCFB501C8017A
:1010A0000E94D507009759F5F801608171818AE0A7
:1010B00090E00E94C607009741F0DC0111961C9257
:1010C0001E9215961C921E921497D8011296ED91BD
:1010D000FC91309729F4F8019383828308C0F901C9
:1010E0002081318121153105D1F7918380830097CB
:1010F00009F493CFDC011396BC92AE92129726E0CE
:10110000FE013196DC01149601900D922A95E1F7CB
:101110006DE7C6010E94CA06811107C06CE2C601D4
:101120000E94CA068111A3CF78CFF70186818F5F15
:101130008683C80126960FB6F894DEBF0FBECDBFDA
:10114000DF91CF911F910F91FF90EF90DF90CF90A3
:10115000BF90AF9008950E94A2078C0178CF8F9224
:101160009F92AF92BF92CF92DF92EF92FF920F9336
:101170001F93CF93DF9300D000D0CDB7DEB77C01B3
:101180006B015C0182E0A80EB11CC5010E948A06B9
:10119000D7011296ED91FC91139780818B35E1F088
:1011A0008B3709F4B2C011E0873219F0823209F0AE
:1011B00010E0C7010E94E006009709F485C021E015
:1011C00030E0112309F4ABC022E030E0F6013183B6
:1011D00020839383828379C0F7018681811104C0C3
:1011E0000E94B4078C016BC0815016968C931697A1
:1011F0008D909C90B40184E090E00E94C6078C0121
:10120000009709F495C0FC019182808213821282BA
:101210006BE5C5010E94CA06882311F36DE5C5017F
:101220000E94CA06811144C01A821982BE016F5FF2
:101230007F4FC7010E94AF08882391F2D8016D91BA
:101240007C9188E090E00E94C607DC01892B39F090
:1012500011961C921E9213961C921E921297F801E0
:10126000228133812115310521F4B383A28308C083
:101270009C01F901808191810097D1F7B183A0830E
:10128000109709F4ADCF86E0FE01319612960190D9
:101290000D928A95E1F76DE5C5010E94CA0681119C
:1012A00007C06CE2C5010E94CA068111BDCF98CF6C
:1012B000D70116968C9116978F5F16968C93F8012E
:1012C00080819181892BA9F410E0812F26960FB699
:1012D000F894DEBF0FBECDBFDF91CF911F910F916C
:1012E000FF90EF90DF90CF90BF90AF909F908F9046
:1012F000089586E090E0D60111969C938E93139604
:101300001C930E93129711E0E0CFC7010E94F907DA
:10131000FC0120813181232BB9F227E030E0D60196
:1013200011963C932E9313969C938E931297EBCF2A
:101330000E94B4078C016CCF0F931F93CF93DF9360
:101340008C01EB01FC01808191810097E1F06881C3
:10135000798161157105A9F0428153812C813D810C
:101360004217530770F00E9462158C819D81F8012D
:10137000958384831D821C82DF91CF911F910F91F1
:1013800008950E94E61388819981F80191838083F2
:101390008A819B81938382838C819D8195838483C1
:1013A000198218821B821A82E5CFFC01808191810B
:1013B000009711F00C94E6130895FB0101900020B2
:1013C000E9F73197AF01461B570BDC01ED91FC911A
:1013D0000280F381E02D19940F931F93CF93DF9335
:1013E000EC010E94DD098C0160E472E0CE010E94F4
:1013F000DD09800F911FDF91CF911F910F9108950B
:101400000F931F93CF93DF93EC01FB014481558130
:1014100060817181E881F9810280F381E02D199565
:101420008C0160E472E0CE010E94DD09800F911F03
:10143000DF91CF911F910F9108950F931F93CF9339
:10144000DF93EC0188819981009759F02A813B81D3
:101450002617370730F081E0DF91CF911F910F9170
:1014600008958B016F5F7F4F0E946F14009759F0B2
:10147000998388831B830A832C813D81232B59F711
:10148000FC011082E8CF80E0E7CFEF92FF920F934C
:101490001F93CF93DF93EC017B018A01BA010E9475
:1014A0001D0A28813981811114C02115310519F0D7
:1014B000C9010E94E613198218821D821C821B82B8
:1014C0001A82CE01DF91CF911F910F91FF90EF9083
:1014D00008951D830C83B701C9010E946215F1CFE5
:1014E000FC01118210821382128215821482FB0188
:1014F00001900020E9F73197AF01461B570B0C9480
:10150000450ACF92DF92EF92FF920F931F93CF93F2
:10151000DF931F921F92CDB7DEB78C016B01FC01E8
:1015200011821082138212821582148250E040E0F0
:101530006FE372E00E94450AC6010E94270297FDF0
:101540001EC089831A82F801E480F580FFEFEF1A4C
:10155000FF0AB701C8010E941D0A882369F3F80138
:101560002081318184819581BE016F5F7F4F820F21
:10157000931F0E946215F801F582E482DDCFC80155
:101580000F900F90DF91CF911F910F91FF90EF90EF
:10159000DF90CF9008951F93CF93DF9385ED8093D5
:1015A000BC008091CB039091CC03A091CD03B0916E
:1015B000CE030796A11DB11D23E0B695A79597957B
:1015C00087952A95D1F72091BC0024FD03C0109285
:1015D000130452C04091CB035091CC036091CD03D2
:1015E0007091CE03452B462B472B69F30097A1053D
:1015F000B10541F025E32A95F1F700000197A10913
:10160000B109E1CF8091CA03C1E0C093C903882327
:1016100099F1D091B8001091BA008091BC008A7BFA
:101620008093BC0060E084E10E94E00360E085E11B
:101630000E94E00310921304C09315041092140446
:1016400061E084E10E94E00361E085E10E94E00343
:101650008091B9008E7F8093B9008091B9008D7F11
:101660008093B90088E48093B80085E48093BC003F
:101670001093BA00D093B800DF91CF911F910895D5
:101680001F920F920FB60F9211240BB60F922F9349
:101690003F934F935F936F937F938F939F93AF93FA
:1016A000BF93EF93FF938AE494E00E94A102FF911D
:1016B000EF91BF91AF919F918F917F916F915F91CA
:1016C0004F913F912F910F900BBE0F900FBE0F9037
:1016D0001F9018951F920F920FB60F9211240BB600
:1016E0000F922F933F934F935F936F937F938F93BB
:1016F0009F93AF93BF93EF93FF938AE494E00E948C
:10170000EB01FF91EF91BF91AF919F918F917F91ED
:101710006F915F914F913F912F910F900BBE0F9062
:101720000FBE0F901F9018951F920F920FB60F9239
:1017300011240BB60F922F933F934F935F936F93A8
:101740007F938F939F93AF93BF93EF93FF9387EE16
:1017500094E00E94A102FF91EF91BF91AF919F9100
:101760008F917F916F915F914F913F912F910F904A
:101770000BBE0F900FBE0F901F9018951F920F92E7
:101780000FB60F9211240BB60F922F933F934F93E6
:101790005F936F937F938F939F93AF93BF93EF93D9
:1017A000FF9387EE94E00E94EB01FF91EF91BF91D0
:1017B000AF919F918F917F916F915F914F913F91E9
:1017C0002F910F900BBE0F900FBE0F901F9018958A
:1017D0001F920F920FB60F9211240BB60F922F93F8
:1017E0003F934F935F936F937F938F939F93AF93A9
:1017F000BF93EF93FF9384E895E00E94A102FF91CD
:10180000EF91BF91AF919F918F917F916F915F9178
:101810004F913F912F910F900BBE0F900FBE0F90E5
:101820001F9018951F920F920FB60F9211240BB6AE
:101830000F922F933F934F935F936F937F938F9369
:101840009F93AF93BF93EF93FF9384E895E00E943B
:10185000EB01FF91EF91BF91AF919F918F917F919C
:101860006F915F914F913F912F910F900BBE0F9011
:101870000FBE0F901F9018951F920F920FB60F92E8
:1018800011240BB60F922F933F934F935F936F9357
:101890007F938F939F93AF93BF93EF93FF9381E2D7
:1018A00096E00E94A102FF91EF91BF91AF919F91AD
:1018B0008F917F916F915F914F913F912F910F90F9
:1018C0000BBE0F900FBE0F901F9018951F920F9296
:1018D0000FB60F9211240BB60F922F933F934F9395
:1018E0005F936F937F938F939F93AF93BF93EF9388
:1018F000FF9381E296E00E94EB01FF91EF91BF918F
:10190000AF919F918F917F916F915F914F913F9197
:101910002F910F900BBE0F900FBE0F901F90189538
:101920001F920F920FB60F9211242F933F938F9314
:101930009F93AF93BF938091420490914304A091F1
:101940004404B09145043091390423E0230F2D372E
:1019500058F50196A11DB11D2093390480934204CE
:1019600090934304A0934404B093450480913A04B7
:1019700090913B04A0913C04B0913D040196A11DBF
:10198000B11D80933A0490933B04A0933C04B09320
:101990003D04BF91AF919F918F913F912F910F90F7
:1019A0000FBE0F901F90189526E8230F0296A11DD9
:1019B000B11DD2CF1F920F920FB60F9211240BB60A
:1019C0000F922F933F934F935F936F937F938F93D8
:1019D0009F93AF93BF93EF93FF938091B900887F5C
:1019E000803609F44DC008F040C0883209F4A7C021
:1019F00028F5803109F49BC0C8F4882309F4F7C0A6
:101A0000883009F494C0FF91EF91BF91AF919F91FD
:101A10008F917F916F915F914F913F912F910F9097
:101A20000BBE0F900FBE0F901F901895883109F4D0
:101A300086C0803241F78093120414C0803409F4C8
:101A40009BC040F48033B9F38833E9F680931204E5
:101A500085ECAEC0803509F483C0883509F494C0A4
:101A6000883489F60E94CB0ACECF883909F48AC01F
:101A700038F5883729F050F4883611F0803719F698
:101A800083E0809313041092110455C0883809F440
:101A900079C0803919F0803809F0B5CF80911104F0
:101AA000803208F06FC0E091110481E08E0F8093C6
:101AB00011048091BB00F0E0EF50FC4F80833BC0ED
:101AC000803B39F0D0F4803A09F477C0883A09F0C5
:101AD0009ACF84E0809313041092F0031092EF03E6
:101AE000F0E0E0E019958091EF0381110FC081E0F3
:101AF0008093EF031092CF0309C0803C09F4A8CF74
:101B0000883C09F4A5CF883B09F07DCFE091F00334
:101B100081E08E0F8093F003F0E0E153FC4F808171
:101B20008093BB009091F0038091EF0329C08091D6
:101B300038048093BB0085EC8093BC0064CF909107
:101B4000370480913604981758F5E091370481E006
:101B50008E0F80933704F0E0EA5EFB4F8081E9CF7F
:101B6000E091370481E08E0F809337048091BB00B1
:101B7000F0E0EA5EFB4F8083909137048091360459
:101B80009817C8F285E8D8CFE091370481E08E0F2E
:101B9000809337048091BB00F0E0EA5EFB4F8083C6
:101BA0008091150481115ECF81E08093140484EA52
:101BB0008093BC001092130426CF85EC8093BC0068
:101BC0001092130480911104803230F4E0911104DA
:101BD000F0E0EF50FC4F10826091110470E081EF53
:101BE00093E0F0E0E0E01995109211040CCF109210
:101BF000120438CF1F920F920FB60F9211240BB61A
:101C00000F922F933F934F935F936F937F938F9395
:101C10009F93AF93BF93EF93FF93E0914804F091AC
:101C20004904309749F0A685B7858585968D91FF43
:101C300016C09C918923B1F4FF91EF91BF91AF91B0
:101C40009F918F917F916F915F914F913F912F91D4
:101C50000F900BBE0F900FBE0F901F9018959C9188
:101C6000892351F7A389B4899C918589809589231B
:101C70008C93868997890197F1F7608D718DA68580
:101C8000B785558538E020E0CB010197F1F7822F29
:101C900090E095958795282F4C91452309F0206871
:101CA000315091F7868D81FD20958091470490E019
:101CB00001968F73992730914604381799F0A091B7
:101CC0004704B0E0A857BC4F2C9380934704828D03
:101CD000938D0197F1F7A389B4898C919589892B0C
:101CE0008C93AACF868D8160868FF1CFEAE4F4E0F1
:101CF0001382128248EE53E060E070E04483558323
:101D00006683778383E292E09183808325E331E0E9
:101D10003587248724E331E03787268720E331E0C5
:101D2000318B208B21E331E0338B228B22E331E0B6
:101D3000358B248B26E331E0378B268B118E128E68
:101D4000138E148EE7EEF4E01382128244835583DF
:101D5000668377839183808325ED30E03587248700
:101D600024ED30E03787268720ED30E0318B208B63
:101D700021ED30E0338B228B22ED30E0358B248B4C
:101D800026ED30E0378B268B118E128E138E148E3B
:101D9000E4E8F5E0138212824483558366837783F7
:101DA000918380832DEC30E0358724872CEC30E064
:101DB0003787268728EC30E0318B208B29EC30E008
:101DC000338B228B2AEC30E0358B248B2EEC30E0E9
:101DD000378B268B118E128E138E148EE1E2F6E075
:101DE0001382128244835583668377839183808331
:101DF00085EC90E09587848784EC90E097878687D0
:101E000080EC90E0918B808B81EC90E0938B828BC7
:101E100082EC90E0958B848B86EC90E0978B868BA0
:101E2000118E128E138E148E6FE372E088E097E0AD
:101E30000E94700A6FE372E082E097E00E94700AED
:101E40006FE372E08CEF96E00E94700A43E062E07C
:101E50008DED96E00E943F0449E06AE08EEB96E04B
:101E60000C943F04CF93DF93CDB7DEB7C75FD109A2
:101E70000FB6F894DEBF0FBECDBF789484B58260F4
:101E800084BD84B5816084BD85B5826085BD85B51E
:101E9000816085BD80916E00816080936E0010929C
:101EA0008100809181008260809381008091810017
:101EB00081608093810080918000816080938000A8
:101EC0008091B10084608093B1008091B000816006
:101ED0008093B00080919100826080939100809106
:101EE0009100816080939100809190008160809347
:101EF00090008091A10082608093A1008091A10058
:101F000081608093A1008091A00081608093A000F7
:101F10008091210182608093210180912101816063
:101F20008093210180912001816080932001809124
:101F30007A00846080937A0080917A008260809336
:101F40007A0080917A00816080937A0080917A0093
:101F5000806880937A001092C10040E855E260E00A
:101F600070E081E296E00E9479018EEB96E00E949B
:101F7000DD058DED96E00E94DD0540E052EC61E06C
:101F800070E084E895E00E94790140E855E260E065
:101F900070E087EE94E00E94790140E855E260E04D
:101FA00070E08AE494E00E94790181E090E0A0E092
:101FB000B0E080934E0490934F04A0935004B093EC
:101FC000510450E040E06FE372E088E097E00E9447
:101FD000450A50E040E06FE372E082E097E00E9443
:101FE000450A60E086E30E940E041E0129E0220EED
:101FF000311C98EC892E912C8E010F5F1F4F21ED23
:10200000A22EB12CAC0EBD1E4FE1A40EB11C84E873
:1020100095E00E946D02181619060CF051C064E894
:1020200075E0CE018E509F4F0E94810A3C822B8228
:102030009E828D8218861F828BE092E09A8389832C
:10204000CE50DF4F88819981C25FD040009711F454
:102050008FE392E0CF52DF4F19830883C15DD040F8
:10206000CD52DF4F99838883C35DD040CB52DF4F81
:1020700019830883C55DD0409AE0C952DF4F988329
:10208000C75DD040CE018F529F4F0E94F907FC01DF
:1020900020813181232B09F084C1BE016E507F4F16
:1020A0008DED96E00E94000ABE016E507F4F8EEBD0
:1020B00096E00E94000ACE018E509F4F0E94D509E3
:1020C0008AE494E00E946D0218161906FCF469E493
:1020D00072E08DED96E00E94EC096AE474E0C801BC
:1020E0000E94810AB80182E097E00E949C09C80121
:1020F0000E94D50962E077E081E296E00E94000A42
:1021000062E077E08DED96E00E94000A0E94BC0339
:102110000197A1F580914104811130C08091400464
:1021200081112CC06CE572E08DED96E00E94EC0907
:102130006EE672E087EE94E00E94EC096BE772E0D5
:102140008DED96E00E94EC0980910002882309F44D
:102150009BC181E0809340041092410410923F049F
:1021600010923E046CE872E087EE94E00E94EC0965
:102170006FE972E08DED96E00E94EC0981E296E055
:102180000E946D02181619060CF0A2C061E276E0FA
:10219000C8010E94810AB80188E097E00E949C096A
:1021A000C8010E94D50964EE72E0C8010E94700A5D
:1021B00060900807709009076114710409F475C1F3
:1021C000E0900C07F0900D07E114F104B1F08D815F
:1021D0009E81E80EF91EB701C8010E941D0A8823DE
:1021E00009F463C129813A818D819E81B301820FF7
:1021F000931F0E946215FE82ED82B8018DED96E07C
:102200000E94000AC8010E94D50980910C07909194
:102210000D07892B09F167EF72E080910807909113
:1022200009070E945915892BB9F48091400488232D
:1022300099F010923F0410923E0491E09093410473
:1022400061E073E08DED96E00E94EC096DE073E0D3
:1022500087EE94E00E94EC0980910C0790910D07A5
:10226000892BE1F06DE273E08091080790910907F6
:102270000E945915892B91F480914104882371F0B3
:1022800010923F0410923E041092400410924104B8
:102290006FE173E08DED96E00E94EC0980910C07F0
:1022A00090910D07892B71F06BE273E08091080724
:1022B000909109070E945915892B21F480914104BE
:1022C000811100C168E077E08EEB96E00E94000A81
:1022D000809140048823C9F080914104811115C088
:1022E00080913E0490913F040A977CF460E473E08F
:1022F0008DED96E00E94EC0980913E0490913F04A0
:10230000019690933F0480933E048091400488237B
:10231000E1F080914104811118C080913E049091B8
:102320003F040A9791F41092400410923F041092D7
:102330003E0467EC72E087EE94E00E94EC0961E5F0
:1023400073E08DED96E00E94EC090E94BC030197BA
:10235000E1F30E94A4046B017C0184EF482E552414
:102360005394612C712C0E94A4046C197D098E0970
:102370009F09683E734081059105A8F3E1E04E1A7C
:10238000510861087108F8EECF0EF3E0DF1EE11C82
:10239000F11C411451046104710429F70E943003B7
:1023A00036CE63E472E00E94D507FC01892B09F464
:1023B00042C0848195818330910560F5019708F4CE
:1023C00060C00680F781E02D309709F45AC0808103
:1023D00061E070E0843761F18B3209F44CC08D32DA
:1023E00009F04AC0319631E070E060E0219180ED63
:1023F000820F8A3008F042C04AE0469FC001479FE2
:10240000900D1124622F220F770B60537109680F12
:10241000791FECCF8530910548F0059731F1668141
:102420007781808591850E94C21202C06681778182
:1024300081E0672B09F480E080930002CF50DF4FEA
:102440001882C15FD040805DC051DF4F8883C05F7C
:10245000D040B5018DED96E00E94DD0960E472E0A8
:102460008DED96E00E94DD0926CE6681778171951B
:1024700061957109DDCF319630E0B6CF3111F7CFDC
:10248000D7CF70E060E0D4CF1092400410923F04A8
:1024900010923E041092410467EC72E087EE94E0E3
:1024A0000E94EC0965ED72E065CE89819A81009702
:1024B00011F00E94E6131A8219821E821D821C826C
:1024C0001B829BCE10923F0410923E041092400457
:1024D0001092410467EC72E087EE94E00E94EC09F0
:1024E00065E373E08DED96E00E94EC09F1CECF93A9
:1024F000DF93C1E1D2E0D093BF06C093BE068EEB5E
:1025000096E00E94C705D093DE06C093DD068DEDF0
:1025100096E00E94C7058CEF96E00E94D50982E004
:1025200097E00E94D50988E097E0DF91CF910C9465
:10253000D50957FD9058440F551F59F05F3F71F072
:102540004795880F97FB991F61F09F3F79F087951A
:102550000895121613061406551FF2CF4695F1DFA3
:1025600008C0161617061806991FF1CF8695710533
:10257000610508940895E894BB2766277727CB0167
:1025800097F908950E94C9126894B1110C94BC1275
:1025900008950E94A11288F09F5798F0B92F9927AB
:1025A000B751B0F0E1F0660F771F881F991F1AF03E
:1025B000BA95C9F714C0B13091F00E94BB12B1E0D6
:1025C00008950C94BB12672F782F8827B85F39F0D5
:1025D000B93FCCF3869577956795B395D9F73EF4D7
:1025E00090958095709561957F4F8F4F9F4F08957F
:1025F00097FB072E16F4009407D077FD09D00E94B0
:10260000361307FC05D03EF4909581959F4F0895B1
:10261000709561957F4F0895A1E21A2EAA1BBB1BEE
:10262000FD010DC0AA1FBB1FEE1FFF1FA217B3079E
:10263000E407F50720F0A21BB30BE40BF50B661FB4
:10264000771F881F991F1A9469F760957095809578
:1026500090959B01AC01BD01CF010895EE0FFF1FC6
:10266000881F8BBF0790F691E02D1994AA1BBB1B06
:1026700051E107C0AA1FBB1FA617B70710F0A61B82
:10268000B70B881F991F5A95A9F780959095BC01A3
:10269000CD0108950F931F93CF93DF93823091055F
:1026A00010F482E090E0E0911007F091110730E023
:1026B00020E0B0E0A0E0309799F42115310509F44D
:1026C0004AC0281B390B24303105D8F58A819B81FB
:1026D0006115710589F1FB0193838283FE0111C0AD
:1026E000408151810281138148175907E0F0481752
:1026F000590799F4109761F012960C93129713965C
:102700001C933296CF01DF91CF911F910F910895C5
:102710000093100710931107F4CF2115310551F0E4
:102720004217530738F0A901DB019A01BD01DF010F
:10273000F801C1CFEF01F9CF9093110780931007F3
:10274000CDCFFE01E20FF31F819391932250310907
:1027500039832883D7CF20910E0730910F07232B81
:1027600041F4209103023091040230930F0720932B
:102770000E0720910102309102022115310541F42A
:102780002DB73EB74091050250910602241B350B30
:10279000E0910E07F0910F07E217F307A0F42E1B4C
:1027A0003F0B2817390778F0AC014E5F5F4F2417B5
:1027B000350748F04E0F5F1F50930F0740930E07E9
:1027C000819391939FCFF0E0E0E09CCFCF93DF9394
:1027D0000097E9F0FC01329713821282A091100752
:1027E000B0911107ED0130E020E01097A1F42081B5
:1027F0003181820F931F20910E0730910F07281708
:10280000390709F061C0F0930F07E0930E07DF91DD
:10281000CF910895EA01CE17DF07E8F54A815B8181
:102820009E0141155105B1F7E901FB83EA83499106
:102830005991C40FD51FEC17FD0761F48081918178
:102840000296840F951FE901998388838281938181
:102850009B838A83F0E0E0E012968D919C91139720
:102860000097B9F52D913C911197CD010296820FF9
:10287000931F20910E0730910F072817390739F65B
:10288000309751F51092110710921007B0930F076F
:10289000A0930E07BCCFD383C28340815181840FA4
:1028A000951FC817D90761F44E5F5F4F88819981E2
:1028B000480F591F518340838A819B819383828370
:1028C0002115310509F0B0CFF0931107E0931007FF
:1028D0009ECFFD01DC01C0CF13821282D7CF4F9271
:1028E0005F926F927F928F929F92AF92BF92CF92A0
:1028F000DF92EF92FF920F931F93CF93DF938C01A0
:10290000009799F4CB01DF91CF911F910F91FF9028
:10291000EF90DF90CF90BF90AF909F908F907F907F
:102920006F905F904F900C944A13FC01E60FF71FD5
:102930009C0122503109E217F30708F4AEC0D90117
:10294000CD91DC911197C617D70720F1C530D1057D
:1029500078F0CE0104978617970750F0C61BD70B67
:102960002297C193D1936D937C93CF010E94E6137C
:10297000C801DF91CF911F910F91FF90EF90DF90F1
:10298000CF90BF90AF909F908F907F906F905F900F
:102990004F9008955B01AC1ABD0A4C018C0E9D1E30
:1029A000A0911007B0911107512C412CF12CE12C72
:1029B000109731F580910E0790910F0788159905B2
:1029C00009F05CC04616570608F058C08091010215
:1029D00090910202009741F48DB79EB74091050295
:1029E00050910602841B950BE817F90708F055C0B3
:1029F000F0930F07E0930E07F90171836083B8CF5E
:102A00008D919C91119712966C90129713967C90D1
:102A10001397A815B90559F56C0142E0C40ED11CF5
:102A2000CA14DB0420F1AC014A195B09DA011296E1
:102A3000159780F06282738251834083D9016D9330
:102A40007C93E114F10471F0D7011396FC93EE939B
:102A500012978ECF22968C0F9D1FF9019183808350
:102A6000F301EFCFF0931107E093100781CF4816E1
:102A7000590608F42C017D01D3019ACFCB010E94A5
:102A80004A137C01009749F0AE01B8010E9450152D
:102A9000C8010E94E61387016BCF10E000E068CF09
:102AA000FB01DC0102C001900D9241505040D8F76B
:102AB0000895FB01DC018D91019080190110D9F37B
:102AC000990B0895FB01DC0101900D920020E1F7C4
:102AD000089511E0C5E4D1E000E006C0802FFE01BA
:102AE0000E942E132196011DC634D10780E00807ED
:062AF000A9F7F894FFCFE6
:102AF60001000012078000000000008E07000000A1
:102B0600003205BE018706F0048E05A6051A0500EB
:102B1600000000C302BE01040210036D0213025F2F
:102B26000222225C5C6208660C6E0A720D74090051
:102B36000D0A00636C6F736500696D6167652070CF
:102B46006172742068657265202120007374617259
:102B5600742063617074757265202E2E2E00737456
:102B66006172746361707475726500636170747507
:102B7600726520646F6E65202E2E2E0073656E645E
:102B8600496D616765426C7565746F6F7468007333
:102B9600746172742073656E64696E6720696D6115
:102BA6006765207769746820626C7565746F6F74E9
:102BB60068202E2E2E200073656E64496D61676550
:102BC600576966690073656E742077697468207743
:102BD60069666900416E64726F696420436F6D6D4A
:102BE600616E64203A200073746172742061636BB5
:102BF60000737461727474747474747400636F6EA9
:102C060074696E7565426C7565746F6F746800647F
:102C16006F726F6F6F6F6F6F737400756E7375631E
:102C2600636573730071616C6161616161617400F8
:102C3600626C7565746F6F7468206E6F74206F6B4D
:102C460000626C7565746F6F7468206661696C6587
:102C5600642021206E6F7720776966692021000045
:00000001FF
