:100000000C9459000C9481000C9481000C945409B8
:100010000C9454090C9454090C9481000C948100A4
:100020000C9481000C9481000C9481000C9481004C
:100030000C9481000C9481000C9481000C9481003C
:100040000C94EB070C9481000C94B9070C94930763
:100050000C9481000C9481000C9481000C9481001C
:100060000C9435080C948100000000002500280045
:100070002B00040404040404040402020202020229
:10008000030303030303010204081020408001025C
:1000900004081020010204081020000000080002DB
:1000A00001000003040700000000000000005E09DA
:1000B0007D0B11241FBECFEFD8E0DEBFCDBF22E005
:1000C000A0E4B1E001C01D92A03DB207E1F711E04C
:1000D000A0E0B1E0E6E9FBE102C005900D92A0349A
:1000E000B107D9F710E0C8E5D0E004C02197FE01C0
:1000F0000E94BD0BC735D107C9F70E94E6090C94D1
:10010000BE0D0C940000089508950895AF92BF921B
:10011000CF92DF92EF92FF920F931F93CF93DF93D3
:100120006C017B018B01040F151FEB015E01AE1802
:10013000BF08C017D10759F06991D601ED91FC9124
:100140000190F081E02DC6010995892B79F7C50151
:10015000DF91CF911F910F91FF90EF90DF90CF90A3
:10016000BF90AF900895FC01538D448D252F30E052
:10017000842F90E0821B930B541710F0CF960895B4
:1001800001970895FC01918D828D981761F0A28DE1
:10019000AE0FBF2FB11D5D968C91928D9F5F9F73A7
:1001A000928F90E008958FEF9FEF08952FB7F89406
:1001B0008091190290911A02A0911B02B0911C0229
:1001C0002FBF8093250290932602A0932702B0931D
:1001D00028028DE192E00E94C20097FF26C02FB74F
:1001E000F8948091190290911A02A0911B02B0918B
:1001F0001C022FBF409125025091260260912702D8
:1002000070912802841B950BA60BB70B409121021D
:100210005091220260912302709124028417950765
:10022000A607B707B0F28FEF9FEF0895FC01918DFD
:10023000828D981731F0828DE80FF11D858D90E049
:1002400008958FEF9FEF0895FC01918D228D892FE6
:1002500090E0805C9F4F821B91098F7399270895CE
:100260008DE192E00E94240121E0892B09F420E035
:10027000822F089580E090E0892B29F00E943001C0
:1002800081110C9400000895FC01A48DA80FB92FD2
:10029000B11DA35ABF4F2C91848D90E001968F73AE
:1002A0009927848FA689B7892C93A089B1898C91CD
:1002B000837080648C93938D848D981306C002881C
:1002C000F389E02D80818F7D80830895EF92FF92E6
:1002D0000F931F93CF93DF93EC0181E0888F9B8D69
:1002E0008C8D98131AC0E889F989808185FF15C023
:1002F0009FB7F894EE89FF896083E889F989808146
:100300008370806480839FBF81E090E0DF91CF9114
:100310001F910F91FF90EF900895F62E0B8D10E036
:100320000F5F1F4F0F731127E02E8C8D8E110CC0A5
:100330000FB607FCFACFE889F989808185FFF5CFF0
:10034000CE010E944401F1CFEB8DEC0FFD2FF11D8A
:10035000E35AFF4FF0829FB7F8940B8FEA89FB892D
:1003600080818062CFCFCF93DF93EC01888D88238B
:10037000B9F0AA89BB89E889F9898C9185FD03C008
:10038000808186FD0DC00FB607FCF7CF8C9185FFED
:10039000F2CF808185FFEDCFCE010E944401E9CFED
:1003A000DF91CF91089590E0FC01E656FF4F249134
:1003B000FC01EA57FF4F3491FC01EE58FF4FE491E6
:1003C000EE23C9F0222339F0233001F1A8F42130C3
:1003D00019F1223029F1F0E0EE0FFF1FE859FF4F2D
:1003E000A591B4918FB7F894EC91611126C0309526
:1003F0003E233C938FBF08952730A9F02830C9F0E1
:10040000243049F7809180008F7D03C08091800067
:100410008F7780938000DFCF84B58F7784BDDBCF6B
:1004200084B58F7DFBCF8091B0008F778093B00033
:10043000D2CF8091B0008F7DF9CF3E2BDACF3FB77E
:10044000F8948091BF019091C001A091C101B09139
:10045000C20126B5A89B05C02F3F19F00196A11D2A
:10046000B11D3FBFBA2FA92F982F8827BC01CD01FE
:10047000620F711D811D911D42E0660F771F881F5D
:10048000991F4A95D1F7089520919B01260F332794
:10049000331F21323105ECF42091EF01FC0190E093
:1004A00080E0243069F082E00895A0919B012191C1
:1004B000AC0145585E4FA40FB52FB11D2C9301968A
:1004C000861798F380919B01680F60939B0180E0F1
:1004D000089581E008951092EF0181E08093EE018C
:1004E0001092C90161E082E10E94D30161E083E1E1
:1004F0000E94D301E9EBF0E080818E7F80838081D0
:100500008D7F808388E48093B80085E48093BC006D
:100510000895CF93DF9391E090937A018823B9F007
:10052000C091B800D091BA008091BC008A7B8093C2
:10053000BC0060E082E10E94D30160E083E10E94A0
:10054000D3010E946B02D093BA00C093B800DF9130
:10055000CF910895CF92DF92EF92FF920F931F9366
:10056000CF93DF93D091180281E0D13208F09CC084
:10057000C09117020E941F026B017C018091EF0164
:1005800081116CC082E08093EF0181E08093EE01E5
:100590008FEF8093ED011092EC01D093EB01A7EF68
:1005A000B1E0EBECF1E080E0D8138DC01092CA010D
:1005B0008091CA01CC0FC82BC093CA018091C90198
:1005C000813009F084C01092C9010E941F026B01A2
:1005D0007C018091CA018093BB008091F1019091D0
:1005E000F201A091F301B091F401892B8A2B8B2B9E
:1005F000A1F00E941F020091F1011091F2012091DF
:10060000F3013091F4016C197D098E099F090617D9
:1006100017072807390708F442C08091BC0083FD02
:10062000D8CF85EC8093BC000E941F026B017C0137
:100630008091EF01823009F44CC08091ED018F3F31
:1006400009F469C08091ED01803209F466C080919F
:10065000ED01803309F463C084E026C08091F1018C
:100660009091F201A091F301B091F401892B8A2BB2
:100670008B2B09F483CF0E941F020091F10110918E
:10068000F2012091F3013091F4016C197D098E097A
:100690009F09061717072807390708F06FCF8091C1
:1006A000F0010E94890285E01092F6011092180272
:1006B0001092F501DF91CF911F910F91FF90EF9074
:1006C000DF90CF9008959D9191938F5F6DCF85EED0
:1006D000A9CF8091F1019091F201A091F301B09125
:1006E000F401892B8A2B8B2B09F4A2CF0E941F02C5
:1006F0000091F1011091F2012091F3013091F40188
:100700006C197D098E099F090617170728073907F5
:1007100008F08ECFC4CF80E0C7CF82E0C5CF83E0A2
:10072000C3CF0895E091C8018091C701E81730F464
:10073000F0E0E65AFE4F808190E008958FEF9FEF42
:1007400008959091C8018091C7012FEF3FEF98174E
:1007500048F4E92FF0E0E65AFE4F208130E09F5F39
:100760009093C801C90108958091C7019091C80173
:10077000891B990B0895CF92DF92EF92FF920F930E
:100780001F93CF93DF937C01CB018A012091F50168
:10079000222389F0EB016B01C40ED51ECC15DD05BB
:1007A00069F06991D701ED91FC910190F081E02D04
:1007B000C7010995F3CF642F0E944402C801DF915D
:1007C000CF911F910F91FF90EF90DF90CF90089500
:1007D000CF93DF931F92CDB7DEB769832091F501E8
:1007E0002223F9F020911802203258F021E030E065
:1007F000FC013383228390E080E00F90DF91CF9162
:1008000008958091F601E82FF0E0E950FE4F9981BC
:1008100090838F5F8093F6018093180281E090E0CF
:10082000ECCF61E0CE0101960E944402F7CF90E048
:1008300080E00895FC01A081B1818C918D3021F080
:100840003CF489508230A8F51196B183A083F3CF90
:100850008032D1F38F3209F0089511968C9111975F
:100860008A3219F08F32C1F008951196B183A083B6
:10087000A081B181CD0101969183808311968C91E5
:1008800011978823B1F08A3299F712968C911297BA
:100890008F3271F71396D9CFA081B181CD01019626
:1008A0009183808311968C91882319F08A30A1F767
:1008B000C2CF08951F93CF93DF93EC01162F0E94B0
:1008C0001A04E881F9818081181308C03196F983F0
:1008D000E88381E0DF91CF911F91089580E0FACF06
:1008E000EF92FF920F931F93CF93DF938C01DC0164
:1008F0001496CD91DC91EA80FB808E819F81E80E79
:10090000F91EC80102960E941A04D8011296ED91B0
:10091000FC918081873219F0823209F042C0319611
:10092000D8011396FC93EE931297D8011296ED918D
:10093000FC9113979081992309F462C09F012F5F66
:100940003F4F13963C932E931297891709F458C082
:100950009C3599F49181A4E3B1E02C91222321F0FC
:1009600092131DC011969C91992309F449C03296A7
:10097000D8011396FC93EE9312974E815F819A01F2
:100980002F5F3F4F6C817D816217730770F2EA81A0
:10099000FB81E40FF51F3F832E839083C6CF129611
:1009A000DCCF80330CF444C08A3324F08F3504F15B
:1009B0008B3704F5F801228133812F5F3F4F33835A
:1009C00022834E815F819A012F5F3F4F6C817D8131
:1009D0006217730738F0EA81FB81E40FF51F3F834C
:1009E0002E838083D8011296ED91FC918081D9CF1E
:1009F0008134F4F08B35F4F293ED980F9230D0F20D
:100A00002E813F81C90101964C815D8148175907AC
:100A100090F0EA81FB81E20FF31F9F838E831082A7
:100A2000C701DF91CF911F910F91FF90EF90089533
:100A30008B3211F7BFCFF12CE12CF2CFFC01868174
:100A40009781680F791F248135812617370738F081
:100A500022813381820F931F77836683089590E00C
:100A600080E008958091500181110BC010924D01DA
:100A700010924C0110924F0110924E0181E0809330
:100A800050018CE491E008958091440181110BC0E4
:100A900010924101109240011092430110924201C4
:100AA00081E08093440180E491E00895DB01109798
:100AB00049F0ED91FC9111970190F081E02DBC017E
:100AC000CD01099490E080E00895009769F0FC0161
:100AD00001900020E9F73197AF01481B590BBC0189
:100AE0008AEB92E00C94BB0390E080E008950F93B2
:100AF0001F93CF93DF93EC0188819981009759F080
:100B00002A813B812617370730F081E0DF91CF91B2
:100B10001F910F9108958B016F5F7F4F0E94E80C2A
:100B2000009759F0998388831B830A832C813D8128
:100B3000232B59F7FC011082E8CF80E0E7CF85ED49
:100B40008093BC008091F1019091F201A091F3019A
:100B5000B091F4010796A11DB11D23E0B695A795AC
:100B6000979587952A95D1F72091BC0024FD03C065
:100B70001092EF0108954091F1015091F2016091BE
:100B8000F3017091F401452B462B472B69F3009735
:100B9000A105B10541F025E32A95F1F70000019781
:100BA000A109B109E1CF8091F0010C9489028F92E3
:100BB0009F92AF92BF92CF92DF92EF92FF920F93EC
:100BC0001F93CF93DF9300D000D000D0CDB7DEB716
:100BD0006C01DC0116968C91811104C00E943205D3
:100BE0007C017EC08150F601868300811181B801AD
:100BF00084E090E00E9456057C01009709F484C0CF
:100C0000DC0111961C930E9313961C921E92129760
:100C10005601B2E0AB0EB11C6BE7C5010E945A044D
:100C20008823E1F26DE7C5010E945A04811154C086
:100C3000C6010E9470044C01892B81F26AE3C50150
:100C40000E945A04882351F21A821982BE016F5FF2
:100C50007F4FC6010E94A506882309F4BFCFF70184
:100C6000028113810115110509F452C0D8011296B1
:100C70006D917C916115710529F0C4010E94AE0D42
:100C8000892BA1F0F80100811181ECCFFC0180815A
:100C900091810097D9F7118300830115110509F49B
:100CA0009DCFD80113969C928E92129786E0FE01FA
:100CB0003196D801149601900D928A95E1F76DE76F
:100CC000C5010E945A04811107C06CE2C5010E944F
:100CD0005A048111ADCF82CFF60186818F5F868362
:100CE000C70126960FB6F894DEBF0FBECDBFDF91C9
:100CF000CF911F910F91FF90EF90DF90CF90BF9019
:100D0000AF909F908F9008950E9432057C0180CF14
:100D1000D7016D917C918AE090E00E9456058C018C
:100D2000892B41F0D80111961C921E9215961C92A7
:100D30001E921497D7011296ED91FC91309709F00D
:100D4000A6CFF70113830283A8CF8F929F92AF9211
:100D5000BF92CF92DF92EF92FF920F931F93CF93A8
:100D6000DF9300D000D000D0CDB7DEB77C016B019F
:100D70005C0182E0A80EB11CC5010E941A04D701D3
:100D80001296ED91FC91139780818B35E1F08B37B2
:100D900009F4B2C011E0873219F0823209F010E094
:100DA000C7010E947004009709F485C021E030E07B
:100DB000112309F4ABC022E030E0F6013183208337
:100DC0009383828379C0F7018681811104C00E94D8
:100DD00044058C016BC0815016968C9316978D90AC
:100DE0009C90B40184E090E00E9456058C0100972D
:100DF00009F495C0FC0191828082138212826BE516
:100E0000C5010E945A04882311F36DE5C5010E94B3
:100E10005A04811144C01A821982BE016F5F7F4F4C
:100E2000C7010E94A506882391F2D8016D917C919B
:100E300088E090E00E945605DC01892B39F011967C
:100E40001C921E9213961C921E921297F8012281F8
:100E500033812115310521F4B383A28308C09C019D
:100E6000F901808191810097D1F7B183A083109718
:100E700009F4ADCF86E0FE013196129601900D92F5
:100E80008A95E1F76DE5C5010E945A04811107C0FA
:100E90006CE2C5010E945A048111BDCF98CFD701E1
:100EA00016968C9116978F5F16968C93F801808119
:100EB0009181892BA9F410E0812F26960FB6F89422
:100EC000DEBF0FBECDBFDF91CF911F910F91FF907D
:100ED000EF90DF90CF90BF90AF909F908F9008954C
:100EE00086E090E0D60111969C938E9313961C9306
:100EF0000E93129711E0E0CFC7010E94D705FC01C5
:100F000020813181232BB9F227E030E0D601119600
:100F10003C932E9313969C938E931297EBCF0E9443
:100F200044058C016CCF1F920F920FB60F921124C3
:100F30002F933F934F935F936F937F938F939F93E1
:100F4000AF93BF93EF93FF938DE192E00E94440132
:100F5000FF91EF91BF91AF919F918F917F916F9191
:100F60005F914F913F912F910F900FBE0F901F9067
:100F700018951F920F920FB60F9211242F938F93F3
:100F80009F93EF93FF93E0912D02F0912E028081C9
:100F9000E0913302F091340282FD1BC09081809178
:100FA00036028F5F8F7320913702821741F0E091F4
:100FB0003602F0E0E35EFD4F958F80933602FF919D
:100FC000EF919F918F912F910F900FBE0F901F90D7
:100FD00018958081F4CF1F920F920FB60F921124B3
:100FE0002F933F938F939F93AF93BF938091190259
:100FF00090911A02A0911B02B0911C023091BE0187
:1010000023E0230F2D3758F50196A11DB11D209324
:10101000BE018093190290931A02A0931B02B09311
:101020001C028091BF019091C001A091C101B091BB
:10103000C2010196A11DB11D8093BF019093C00113
:10104000A093C101B093C201BF91AF919F918F91C5
:101050003F912F910F900FBE0F901F90189526E88B
:10106000230F0296A11DB11DD2CF1F920F920FB672
:101070000F9211242F933F934F935F936F937F931E
:101080008F939F93AF93BF93EF93FF938091B9009A
:10109000887F803609F44AC0F0F5883209F4A7C089
:1010A00018F5803109F49BC0B8F4882309F4F9C01D
:1010B000883009F494C0FF91EF91BF91AF919F9157
:1010C0008F917F916F915F914F913F912F910F90F1
:1010D0000FBE0F901F901895883109F488C0803298
:1010E00051F78093ED0114C0803409F49DC040F4A1
:1010F0008033B9F38833F9F68093ED0185ECB0C005
:10110000803509F485C0883509F496C0883499F68D
:101110000E949F05D0CF883909F48CC038F58837F4
:1011200029F050F4883611F0803729F683E0809357
:10113000EF011092BD0157C0883809F47BC0803997
:1011400019F0803809F0B7CF8091BD01803208F0E6
:1011500071C0E091BD0181E08E0F8093BD0180914F
:10116000BB00F0E0E356FE4F80833DC0803B39F08A
:10117000E0F4803A09F479C0883A09F09CCF84E021
:101180008093EF0110929C0110929B01E091C501A8
:10119000F091C601099580919B0181110FC081E0FA
:1011A00080939B0110927B0109C0803C09F4A6CF7B
:1011B000883C09F4A3CF883B09F07DCFE0919C01E6
:1011C00081E08E0F80939C01F0E0E558FE4F808116
:1011D0008093BB0090919C0180919B0129C08091DC
:1011E000CA018093BB0085EC8093BC0064CF9091D2
:1011F000EC018091EB01981758F5E091EC0181E04A
:101200008E0F8093EC01F0E0E553FE4F8081E9CF33
:10121000E091EC0181E08E0F8093EC018091BB00A6
:10122000F0E0E553FE4F80839091EC018091EB015B
:101230009817C8F285E8D8CFE091EC0181E08E0FD5
:101240008093EC018091BB00F0E0E553FE4F80837A
:101250008091EE0181115CCF81E08093C90184EA25
:101260008093BC001092EF0126CF85EC8093BC00E8
:101270001092EF018091BD01803230F4E091BD0108
:10128000F0E0E356FE4F10826091BD0170E0E09106
:10129000C301F091C4018DE991E009951092BD015F
:1012A0000ACF1092ED0134CF1F920F920FB60F921A
:1012B00011240F900FBE0F901F90189510922002CE
:1012C00010921F0288EE93E0A0E0B0E0809321022C
:1012D00090932202A0932302B093240220E131E0F4
:1012E00030931E0220931D0225EC30E030932A0239
:1012F0002093290224EC30E030932C0220932B021F
:1013000020EC30E030932E0220932D0221EC30E0CF
:101310003093300220932F0222EC30E030933202DF
:101320002093310226EC30E03093340220933302D4
:10133000109236021092370210923802109239023F
:101340001092BD021092BC028093BE029093BF0225
:10135000A093C002B093C10282E291E09093BB02DD
:101360008093BA021092C7021092C6021092C9026C
:101370001092C8021092CB021092CA0270E060E094
:1013800086EC92E00E9477052091C6023091C70258
:10139000811113C02115310519F0C9010E945F0C9C
:1013A0001092C7021092C6021092CB021092CA028B
:1013B0001092C9021092C80208951092CB021092A6
:1013C000CA026EE371E0C9010C94B70DCF93DF93AD
:1013D000CDB7DEB7C75DD1090FB6F894DEBF0FBE3B
:1013E000CDBF789484B5826084BD84B5816084BDAE
:1013F00085B5826085BD85B5816085BD80916E00B3
:10140000816080936E0010928100809181008260E3
:101410008093810080918100816080938100809120
:1014200080008160809380008091B100846080930F
:10143000B1008091B00081608093B00080917A000B
:10144000846080937A0080917A00826080937A0031
:1014500080917A00816080937A0080917A00806820
:1014600080937A001092C1001092C8011092C701B7
:101470001092F601109218020E946B0284E890E02C
:101480009093C6018093C50185E890E09093C401D4
:101490008093C30180E18093BA00E0912D02F09126
:1014A0002E0292E09083E0912902F0912A021082AC
:1014B000E0912B02F0912C02808310923502E09192
:1014C0003102F091320286E08083E0912F02F091A8
:1014D0003002808180618083E0912F02F0913002A0
:1014E000808188608083E0912F02F09130028081BA
:1014F00080688083E0912F02F091300280818F7D9F
:1015000080838E010F5F1F4F3E0189E0680E711CC2
:1015100048ECC42ED12C5AE0A52E51E0B52E30E077
:10152000832E30E0932E8AE0482E5524539494E085
:10153000392E2CE0222E8DE192E00E942401181613
:1015400019060CF0B2C01A8219821C821B821E82FC
:101550001D8270E060E0C8010E94770529813A8110
:10156000811133C02115310519F0C9010E945F0CAA
:101570001A8219821E821D821C821B820E94D60042
:1015800097FD2BC0CF52DF4F8883C15DD040CE5234
:10159000DF4F1882C25DD040ED80FE80EFEFEE1A83
:1015A000FE0AB701C8010E947705882339F3298113
:1015B0003A818D819E81BE016F527F4F820F931FB2
:1015C0000E94B70DFE82ED82D9CF1E821D826EE38E
:1015D00071E0C9010E94B70DD1CF8091C6029091F0
:1015E000C702009709F46FC069817A81611571059E
:1015F00009F467C04091C8025091C9022D813E8113
:101600004217530708F45DC00E94B70D8D819E817B
:101610009093CB028093CA021E821D8289819A8197
:10162000009711F00E945F0C7C826B82DE82CD827B
:1016300018861F82BA82A9828091C6029091C70241
:10164000009711F48EE391E0CF52DF4F19830883A6
:10165000C15DD040CD52DF4F99838883C35DD040B8
:10166000CB52DF4F19830883C55DD040C952DF4F8D
:101670004882C75DD040CE018F529F4F0E94D70550
:10168000FC01208131818091C6029091C702509265
:10169000F501232B79F5209217021092F601109292
:1016A00018020E9465050E94AA028114910409F49F
:1016B00042CF0E943001882309F435CF0E940000F8
:1016C0002ECF0E945F0C89819A819093C7028093EC
:1016D000C6028B819C819093C9028093C8028D8140
:1016E0009E819093CB028093CA021A8219821C8237
:1016F0001B8292CF30921702D0CF8091C602909178
:10170000C702009711F00C945F0C08952F923F923E
:101710004F925F926F927F928F929F92AF92BF9201
:10172000CF92DF92EF92FF920F931F93CF93DF93AD
:10173000CDB7DEB7CA1BDB0B0FB6F894DEBF0FBE0A
:10174000CDBF09942A88398848885F846E847D8457
:101750008C849B84AA84B984C884DF80EE80FD8059
:101760000C811B81AA81B981CE0FD11D0FB6F894CF
:10177000DEBF0FBECDBFED010895EE0FFF1F059038
:10178000F491E02D09940F931F93CF93DF93823050
:10179000910510F482E090E0E091CE02F091CF024A
:1017A00030E020E0B0E0A0E0309799F42115310559
:1017B00009F44AC0281B390B24303105D8F58A8139
:1017C0009B816115710589F1FB0193838283FE0181
:1017D00011C0408151810281138148175907E0F0FF
:1017E0004817590799F4109761F012960C931297C5
:1017F00013961C933296CF01DF91CF911F910F91D9
:1018000008950093CE021093CF02F4CF2115310535
:1018100051F04217530738F0A901DB019A01BD01CD
:10182000DF01F801C1CFEF01F9CF9093CF02809390
:10183000CE02CDCFFE01E20FF31F81939193225090
:10184000310939832883D7CF2091CC023091CD0242
:10185000232B41F420910201309103013093CD02FA
:101860002093CC0220910001309101012115310516
:1018700041F42DB73EB74091040150910501241B5E
:10188000350BE091CC02F091CD02E217F307A0F402
:101890002E1B3F0B2817390778F0AC014E5F5F4FC6
:1018A0002417350748F04E0F5F1F5093CD02409329
:1018B000CC02819391939FCFF0E0E0E09CCFCF9357
:1018C000DF930097E9F0FC01329713821282A09116
:1018D000CE02B091CF02ED0130E020E01097A1F4EC
:1018E00020813181820F931F2091CC023091CD0253
:1018F0002817390709F061C0F093CD02E093CC02BC
:10190000DF91CF910895EA01CE17DF07E8F54A810C
:101910005B819E0141155105B1F7E901FB83EA8323
:1019200049915991C40FD51FEC17FD0761F48081CF
:1019300091810296840F951FE901998388838281A2
:1019400093819B838A83F0E0E0E012968D919C91D5
:1019500013970097B9F52D913C911197CD010296FF
:10196000820F931F2091CC023091CD0228173907A6
:1019700039F6309751F51092CF021092CE02B09303
:10198000CD02A093CC02BCCFD383C28340815181CE
:10199000840F951FC817D90761F44E5F5F4F888188
:1019A0009981480F591F518340838A819B8193837A
:1019B00082832115310509F0B0CFF093CF02E09377
:1019C000CE029ECFFD01DC01C0CF13821282D7CFA1
:1019D000B0E0A0E0EEEEFCE00C94880B8C010097E8
:1019E00051F4CB010E94C30B8C01C801CDB7DEB707
:1019F000E0E10C94A40BFC01E60FF71F9C012250C0
:101A00003109E217F30708F49DC0D901CD91DC91AB
:101A10001197C617D70798F0C530D10530F3CE011E
:101A200004978617970708F3C61BD70B2297C19315
:101A3000D1936D937C93CF010E945F0CD6CF5B0155
:101A4000AC1ABD0A4C018C0E9D1EA091CE02B09125
:101A5000CF02512C412CF12CE12C109731F58091C3
:101A6000CC029091CD028815990509F05CC046160C
:101A7000570608F058C0809100019091010100972D
:101A800041F48DB79EB74091040150910501841B2C
:101A9000950BE817F90708F055C0F093CD02E093D5
:101AA000CC02F90171836083A0CF8D919C91119735
:101AB00012966C90129713967C901397A815B905FF
:101AC00059F56C0142E0C40ED11CCA14DB0420F1AC
:101AD000AC014A195B09DA011296159780F062820F
:101AE000738251834083D9016D937C93E114F10497
:101AF00071F0D7011396FC93EE93129776CF22964E
:101B00008C0F9D1FF90191838083F301EFCFF09338
:101B1000CF02E093CE0269CF4816590608F42C0193
:101B20007D01D3019ACFCB010E94C30B7C010097AA
:101B300049F0AE01B8010E94A50DC8010E945F0CDA
:101B4000870153CF10E000E050CFFB01DC0102C061
:101B500001900D9241505040D8F70895FB01DC01EF
:101B60008D91019080190110D9F3990B0895FB0113
:101B7000DC0101900D920020E1F7089510E0C8E526
:101B8000D0E004C0FE010E94BD0B2196C935D107EB
:061B9000C9F7F894FFCF35
:101B96000000D0028000000000001E0500000000CA
:101BA60066018600B300B3012401C20016010000DD
:101BB6000000E803BB0317049103B403A1039203D7
:101BC60022225C5C6208660C6E0A720D74090000C3
:00000001FF
