:100000000C9459000C9481000C9481000C945405BC
:100010000C9454050C9454050C9481000C948100AC
:100020000C9481000C9481000C9481000C9481004C
:100030000C9481000C9481000C9481000C9481003C
:100040000C94EB030C9481000C94B9030C9493036F
:100050000C9481000C9481000C9481000C9481001C
:100060000C9435040C948100000000002500280049
:100070002B00040404040404040402020202020229
:10008000030303030303010204081020408001025C
:1000900004081020010204081020000000080002DB
:1000A00001000003040700000000000000005E05DE
:1000B0000D0811241FBECFEFD8E0DEBFCDBF22E078
:1000C000ACE2B1E001C01D92A53AB207E1F711E040
:1000D000A0E0B1E0E4EAF4E102C005900D92AC3298
:1000E000B107D9F710E0C8E5D0E004C02197FE01C0
:1000F0000E944D08C735D107C9F70E94E6050C9448
:10010000450A0C940000089508950895AF92BF9297
:10011000CF92DF92EF92FF920F931F93CF93DF93D3
:100120006C017B018B01040F151FEB015E01AE1802
:10013000BF08C017D10759F06991D601ED91FC9124
:100140000190F081E02DC6010995892B79F7C50151
:10015000DF91CF911F910F91FF90EF90DF90CF90A3
:10016000BF90AF900895FC01538D448D252F30E052
:10017000842F90E0821B930B541710F0CF960895B4
:1001800001970895FC01918D828D981761F0A28DE1
:10019000AE0FBF2FB11D5D968C91928D9F5F9F73A7
:1001A000928F90E008958FEF9FEF08952FB7F89406
:1001B0008091EE019091EF01A091F001B091F101D9
:1001C0002FBF8093FA019093FB01A093FC01B093A1
:1001D000FD0182EF91E00E94C20097FF26C02FB779
:1001E000F8948091EE019091EF01A091F001B0910F
:1001F000F1012FBF4091FA015091FB016091FC0188
:100200007091FD01841B950BA60BB70B4091F60175
:100210005091F7016091F8017091F90184179507E9
:10022000A607B707B0F28FEF9FEF0895FC01918DFD
:10023000828D981731F0828DE80FF11D858D90E049
:1002400008958FEF9FEF0895FC01918D228D892FE6
:1002500090E0805C9F4F821B91098F7399270895CE
:1002600082EF91E00E94240121E0892B09F420E033
:10027000822F089580E090E0892B29F00E943001C0
:1002800081110C9400000895FC01A48DA80FB92FD2
:10029000B11DA35ABF4F2C91848D90E001968F73AE
:1002A0009927848FA689B7892C93A089B1898C91CD
:1002B000837080648C93938D848D981306C002881C
:1002C000F389E02D80818F7D80830895EF92FF92E6
:1002D0000F931F93CF93DF93EC0181E0888F9B8D69
:1002E0008C8D98131AC0E889F989808185FF15C023
:1002F0009FB7F894EE89FF896083E889F989808146
:100300008370806480839FBF81E090E0DF91CF9114
:100310001F910F91FF90EF900895F62E0B8D10E036
:100320000F5F1F4F0F731127E02E8C8D8E110CC0A5
:100330000FB607FCFACFE889F989808185FFF5CFF0
:10034000CE010E944401F1CFEB8DEC0FFD2FF11D8A
:10035000E35AFF4FF0829FB7F8940B8FEA89FB892D
:1003600080818062CFCFCF93DF93EC01888D88238B
:10037000B9F0AA89BB89E889F9898C9185FD03C008
:10038000808186FD0DC00FB607FCF7CF8C9185FFED
:10039000F2CF808185FFEDCFCE010E944401E9CFED
:1003A000DF91CF91089590E0FC01E656FF4F249134
:1003B000FC01EA57FF4F3491FC01EE58FF4FE491E6
:1003C000EE23C9F0222339F0233001F1A8F42130C3
:1003D00019F1223029F1F0E0EE0FFF1FE859FF4F2D
:1003E000A591B4918FB7F894EC91611126C0309526
:1003F0003E233C938FBF08952730A9F02830C9F0E1
:10040000243049F7809180008F7D03C08091800067
:100410008F7780938000DFCF84B58F7784BDDBCF6B
:1004200084B58F7DFBCF8091B0008F778093B00033
:10043000D2CF8091B0008F7DF9CF3E2BDACF3FB77E
:10044000F8948091930190919401A0919501B091BD
:10045000960126B5A89B05C02F3F19F00196A11D56
:10046000B11D3FBFBA2FA92F982F8827BC01CD01FE
:10047000620F711D811D911D42E0660F771F881F5D
:10048000991F4A95D1F7089520916F01260F3327C0
:10049000331F21323105ECF42091C301FC0190E0BF
:1004A00080E0243069F082E00895A0916F012191ED
:1004B000AC01415B5E4FA40FB52FB11D2C9301968B
:1004C000861798F380916F01680F60936F0180E049
:1004D000089581E008951092C30181E08093C201E4
:1004E00010929D0161E082E10E94D30161E083E10D
:1004F0000E94D301E9EBF0E080818E7F80838081D0
:100500008D7F808388E48093B80085E48093BC006D
:100510000895CF93DF9391E090934E018823B9F033
:10052000C091B800D091BA008091BC008A7B8093C2
:10053000BC0060E082E10E94D30160E083E10E94A0
:10054000D3010E946B02D093BA00C093B800DF9130
:10055000CF9108950895E0919C0180919B01E81747
:1005600030F4F0E0E25DFE4F808190E008958FEF7F
:100570009FEF089590919C0180919B012FEF3FEF99
:10058000981748F4E92FF0E0E25DFE4F208130E05B
:100590009F5F90939C01C901089580919B01909168
:1005A0009C01891B990B0895CF92DF92EF92FF92E5
:1005B0000F931F93CF93DF937C01CB018A0120918E
:1005C000EC01222389F0EB016B01C40ED51ECC1582
:1005D000DD0569F06991D701ED91FC910190F08101
:1005E000E02DC7010995F3CF642F0E944402C80192
:1005F000DF91CF911F910F91FF90EF90DF90CF90FF
:100600000895CF93DF931F92CDB7DEB76983209112
:10061000EC012223F9F02091E901203258F021E089
:1006200030E0FC013383228390E080E00F90DF9183
:10063000CF9108958091EA01E82FF0E0E753FE4F53
:10064000998190838F5F8093EA018093E90181E033
:1006500090E0ECCF61E0CE0101960E944402F7CF1A
:1006600090E080E008950F931F93CF93DF93EC0108
:1006700088819981009759F02A813B812617370795
:1006800030F081E0DF91CF911F910F9108958B01A0
:100690006F5F7F4F0E947809009759F09983888394
:1006A0001B830A832C813D81232B59F7FC01108287
:1006B000E8CF80E0E7CF85ED8093BC008091C50155
:1006C0009091C601A091C701B091C8010796A11DE4
:1006D000B11D23E0B695A795979587952A95D1F7F3
:1006E0002091BC0024FD03C01092C30108954091E5
:1006F000C5015091C6016091C7017091C801452B99
:10070000462B472B69F30097A105B10541F025E37E
:100710002A95F1F700000197A109B109E1CF809175
:10072000C4010C9489021F920F920FB60F921124EC
:100730002F933F934F935F936F937F938F939F93E9
:10074000AF93BF93EF93FF9382EF91E00E94440138
:10075000FF91EF91BF91AF919F918F917F916F9199
:100760005F914F913F912F910F900FBE0F901F906F
:1007700018951F920F920FB60F9211242F938F93FB
:100780009F93EF93FF93E0910202F0910302808127
:10079000E0910802F091090282FD1BC090818091D6
:1007A0000B028F5F8F7320910C02821741F0E09152
:1007B0000B02F0E0EE50FE4F958F80930B02FF91FD
:1007C000EF919F918F912F910F900FBE0F901F90DF
:1007D00018958081F4CF1F920F920FB60F921124BB
:1007E0002F933F938F939F93AF93BF938091EE018D
:1007F0009091EF01A091F001B091F101309192013F
:1008000023E0230F2D3758F50196A11DB11D20932C
:1008100092018093EE019093EF01A093F001B093C9
:10082000F1018091930190919401A0919501B09173
:1008300096010196A11DB11D80939301909394019F
:10084000A0939501B0939601BF91AF919F918F9125
:100850003F912F910F900FBE0F901F90189526E893
:10086000230F0296A11DB11DD2CF1F920F920FB67A
:100870000F9211242F933F934F935F936F937F9326
:100880008F939F93AF93BF93EF93FF938091B900A2
:10089000887F803609F44AC0F0F5883209F4A7C091
:1008A00018F5803109F49BC0B8F4882309F4F9C025
:1008B000883009F494C0FF91EF91BF91AF919F915F
:1008C0008F917F916F915F914F913F912F910F90F9
:1008D0000FBE0F901F901895883109F488C08032A0
:1008E00051F78093C10114C0803409F49DC040F4D5
:1008F0008033B9F38833F9F68093C10185ECB0C039
:10090000803509F485C0883509F496C0883499F695
:100910000E945B03D0CF883909F48CC038F5883742
:1009200029F050F4883611F0803729F683E080935F
:10093000C3011092910157C0883809F47BC08039F7
:1009400019F0803809F0B7CF80919101803208F01A
:1009500071C0E091910181E08E0F809391018091AF
:10096000BB00F0E0EF58FE4F80833DC0803B39F084
:10097000E0F4803A09F479C0883A09F09CCF84E029
:100980008093C3011092700110926F01E091990160
:10099000F0919A01099580916F0181110FC081E05A
:1009A00080936F0110924F0109C0803C09F4A6CFDB
:1009B000883C09F4A3CF883B09F07DCFE09170011A
:1009C00081E08E0F80937001F0E0E15BFE4F80814B
:1009D0008093BB009091700180916F0129C080913C
:1009E0009E018093BB0085EC8093BC0064CF909106
:1009F000C0018091BF01981758F5E091C00181E0D6
:100A00008E0F8093C001F0E0E156FE4F8081E9CF68
:100A1000E091C00181E08E0F8093C0018091BB0006
:100A2000F0E0E156FE4F80839091C0018091BF01BC
:100A30009817C8F285E8D8CFE091C00181E08E0F09
:100A40008093C0018091BB00F0E0E156FE4F8083AF
:100A50008091C20181115CCF81E080939D0184EA85
:100A60008093BC001092C30126CF85EC8093BC001C
:100A70001092C30180919101803230F4E091910194
:100A8000F0E0EF58FE4F10826091910170E0E0912C
:100A90009701F091980181E791E0099510929101F9
:100AA0000ACF1092C10134CF1F920F920FB60F924E
:100AB00011240F900FBE0F901F9018951092F50102
:100AC0001092F40188EE93E0A0E0B0E08093F6018C
:100AD0009093F701A093F801B093F9012AE031E077
:100AE0003093F3012093F20125EC30E03093FF01C5
:100AF0002093FE0124EC30E03093010220930002A9
:100B000020EC30E0309303022093020221EC30E02D
:100B1000309305022093040222EC30E03093070268
:100B20002093060226EC30E030930902209308025D
:100B300010920B0210920C0210920D0210920E02F3
:100B400010929202109291028093930290939402D9
:100B5000A0939502B09396028CE191E0909390025D
:100B600080938F0210929C0210929B0210929E0220
:100B700010929D021092A00210929F0270E060E01D
:100B80008BE992E00E94330320919B0230919C02FA
:100B9000811113C02115310519F0C9010E94EF0818
:100BA00010929C0210929B021092A00210929F023F
:100BB00010929E0210929D0208951092A00210922F
:100BC0009F026AE271E0C9010C943E0ACF93DF9361
:100BD000CDB7DEB728970FB6F894DEBF0FBECDBFF6
:100BE000789484B5826084BD84B5816084BD85B508
:100BF000826085BD85B5816085BD80916E00816014
:100C000080936E00109281008091810082608093B9
:100C100081008091810081608093810080918000BB
:100C20008160809380008091B10084608093B100E6
:100C30008091B00081608093B00080917A008460E0
:100C400080937A0080917A00826080937A0080910C
:100C50007A00816080937A0080917A008068809326
:100C60007A001092C10010929C0110929B01109288
:100C7000EA011092E9010E946B0284E890E09093EF
:100C80009A018093990185E890E090939801809370
:100C9000970180E18093BA00E0910202F091030293
:100CA00092E09083E091FE01F091FF011082E091CB
:100CB0000002F0910102808310920A02E091060284
:100CC000F091070286E08083E0910402F091050232
:100CD000808180618083E0910402F091050280812F
:100CE00088608083E0910402F09105028081806831
:100CF0008083E0910402F091050280818F7D8083E2
:100D0000CC24CA9420E0E22E20E0F22EDD24D394FD
:100D100034E0B32E42E0A42E85EE982E95EC892E79
:100D200082EF91E00E942401181619060CF040C1D0
:100D30001A8219821C821B821E821D8270E060E072
:100D4000CE0101960E94330329813A8181112BC083
:100D50002115310519F0C9010E94EF081A82198284
:100D60001E821D821C821B820E94D60097FD23C01A
:100D70008F8318860D811E810F5F1F4FB801CE0132
:100D800001960E943303882379F329813A818D816A
:100D90009E81BE01695F7F4F820F931F0E943E0AB2
:100DA0001E830D83E1CF1E821D826AE271E0C901BC
:100DB0000E943E0AD9CF80919B0290919C0200979D
:100DC00009F4AFC069817A816115710509F4A7C082
:100DD00040919D0250919E022D813E814217530702
:100DE00008F49DC00E943E0A8D819E819093A002CE
:100DF00080939F021E821D8289819A81009711F043
:100E00000E94EF08D092EC01B092EB011092EA013F
:100E10001092E90160919B0270919C02611571052D
:100E200061F0FB0101900020E9F73197AF01461B0B
:100E3000570B8FE892E00E94D4020091E901013241
:100E400008F0ABC01091EB010E941F022B013C0186
:100E50008091C30181117CC0A092C301D092C201D4
:100E6000C092C1011092C0010093BF01A9ECB1E092
:100E7000EFE9F1E00813A8C010929E0180919E0155
:100E8000110F182B10939E0180919D01813009F064
:100E90009FC010929D010E941F022B013C01809176
:100EA0009E018093BB008091C5019091C601A091E5
:100EB000C701B091C801892B8A2B8B2BA1F00E940E
:100EC0001F020091C5011091C6012091C701309108
:100ED000C8016419750986099709061717072807B5
:100EE000390708F456C08091BC0083FDD8CF8092AA
:100EF000BC000E941F022B013C018091C301823083
:100F000009F469C08091C1018F3F09F446C0809106
:100F1000C101803209F441C08091C1013EC00E94EC
:100F2000EF0889819A8190939C0280939B028B8128
:100F30009C8190939E0280939D028D819E819093CF
:100F4000A00280939F021A8219821C821B8252CFB8
:100F50008091C5019091C601A091C701B091C801CF
:100F6000892B8A2B8B2B09F473CF0E941F022091AF
:100F7000C5013091C6014091C7015091C801641963
:100F8000750986099709261737074807590708F092
:100F90005FCF8091C4010E9489021092EA011092F1
:100FA000E9011092EC018091ED018F5F8093ED01DA
:100FB000E114F10409F4B4CE0E943001882309F44D
:100FC000ABCE0E940000A8CE9D9191938F5F52CF2F
:100FD0009092BC008ECF8091C5019091C601A091E6
:100FE000C701B091C801892B8A2B8B2B09F485CFBF
:100FF0000E941F020091C5011091C6012091C701F6
:101000003091C801641975098609970906171707F1
:101010002807390708F071CFBCCF80919B029091CF
:101020009C02009711F00C94EF0808952F923F92C4
:101030004F925F926F927F928F929F92AF92BF92E8
:10104000CF92DF92EF92FF920F931F93CF93DF9394
:10105000CDB7DEB7CA1BDB0B0FB6F894DEBF0FBEF1
:10106000CDBF09942A88398848885F846E847D843E
:101070008C849B84AA84B984C884DF80EE80FD8040
:101080000C811B81AA81B981CE0FD11D0FB6F894B6
:10109000DEBF0FBECDBFED010895EE0FFF1F05901F
:1010A000F491E02D09940F931F93CF93DF93823037
:1010B000910510F482E090E0E091A302F091A40287
:1010C00030E020E0B0E0A0E0309799F42115310540
:1010D00009F44AC0281B390B24303105D8F58A8120
:1010E0009B816115710589F1FB0193838283FE0168
:1010F00011C0408151810281138148175907E0F0E6
:101100004817590799F4109761F012960C931297AB
:1011100013961C933296CF01DF91CF911F910F91BF
:1011200008950093A3021093A402F4CF2115310572
:1011300051F04217530738F0A901DB019A01BD01B4
:10114000DF01F801C1CFEF01F9CF9093A4028093A2
:10115000A302CDCFFE01E20FF31F819391932250A2
:10116000310939832883D7CF2091A1023091A2027F
:10117000232B41F420910201309103013093A2020C
:101180002093A10220910001309101012115310528
:1011900041F42DB73EB74091040150910501241B45
:1011A000350BE091A102F091A202E217F307A0F43F
:1011B0002E1B3F0B2817390778F0AC014E5F5F4FAD
:1011C0002417350748F04E0F5F1F5093A20240933B
:1011D000A102819391939FCFF0E0E0E09CCFCF9369
:1011E000DF930097E9F0FC01329713821282A091FD
:1011F000A302B091A402ED0130E020E01097A1F429
:1012000020813181820F931F2091A1023091A2028F
:101210002817390709F061C0F093A202E093A102F8
:10122000DF91CF910895EA01CE17DF07E8F54A81F3
:101230005B819E0141155105B1F7E901FB83EA830A
:1012400049915991C40FD51FEC17FD0761F48081B6
:1012500091810296840F951FE90199838883828189
:1012600093819B838A83F0E0E0E012968D919C91BC
:1012700013970097B9F52D913C911197CD010296E6
:10128000820F931F2091A1023091A20228173907E3
:1012900039F6309751F51092A4021092A302B09340
:1012A000A202A093A102BCCFD383C283408151810B
:1012B000840F951FC817D90761F44E5F5F4F88816F
:1012C0009981480F591F518340838A819B81938361
:1012D00082832115310509F0B0CFF093A402E09389
:1012E000A3029ECFFD01DC01C0CF13821282D7CFB3
:1012F000B0E0A0E0EEE7F9E00C9418088C0100974C
:1013000051F4CB010E9453088C01C801CDB7DEB760
:10131000E0E10C943408FC01E60FF71F9C01225019
:101320003109E217F30708F49DC0D901CD91DC9192
:101330001197C617D70798F0C530D10530F3CE0105
:1013400004978617970708F3C61BD70B2297C193FC
:10135000D1936D937C93CF010E94EF08D6CF5B01B0
:10136000AC1ABD0A4C018C0E9D1EA091A302B09137
:10137000A402512C412CF12CE12C109731F58091D5
:10138000A1029091A2028815990509F05CC0461649
:10139000570608F058C08091000190910101009714
:1013A00041F48DB79EB74091040150910501841B13
:1013B000950BE817F90708F055C0F093A202E093E7
:1013C000A102F90171836083A0CF8D919C91119747
:1013D00012966C90129713967C901397A815B905E6
:1013E00059F56C0142E0C40ED11CCA14DB0420F193
:1013F000AC014A195B09DA011296159780F06282F6
:10140000738251834083D9016D937C93E114F1047D
:1014100071F0D7011396FC93EE93129776CF229634
:101420008C0F9D1FF90191838083F301EFCFF0931F
:10143000A402E093A30269CF4816590608F42C01D0
:101440007D01D3019ACFCB010E9453087C01009704
:1014500049F0AE01B8010E94350AC8010E94EF08A8
:10146000870153CF10E000E050CFFB01DC0102C048
:1014700001900D9241505040D8F70895FB01DC01D6
:1014800001900D920020E1F7089510E0C8E5D0E04A
:1014900004C0FE010E944D082196C935D107C9F745
:0414A000F894FFCFEE
:1014A4000000A50280000000000066018600B30071
:1014B400B3012401C2001601000000000103D4029C
:0C14C4003003AA02CD02BA02AB02000005
:00000001FF
