:100000000C9463000C948B000C948B000C940B0AE2
:100010000C940B0A0C940B0A0C948B000C948B0020
:100020000C948B000C948B000C948B000C948B0024
:100030000C948B000C948B000C948B000C948B0014
:100040000C94A2080C948B000C9470080C944A0831
:100050000C948B000C948B000C948B000C948B00F4
:100060000C94EC080C948B000000000800020100C6
:100070000003040700000000000000000000000072
:1000800023002600290000000000240027002A0089
:1000900000000000250028002B00040404040404D0
:1000A0000404020202020202030303030303010227
:1000B00004081020408001020408102001020408F6
:1000C0001020830AEB0D11241FBECFEFD8E0DEBF56
:1000D000CDBF23E0A2E5B1E001C01D92A434B20778
:1000E000E1F711E0A0E0B1E0E8EFF0E202C0059036
:1000F0000D92A235B107D9F710E0C2E6D0E004C0F6
:100100002197FE010E946E0EC136D107C9F70E94E9
:10011000B50B0C946F100C94000008950895089589
:10012000AF92BF92CF92DF92EF92FF920F931F9305
:10013000CF93DF936C017B018B01040F151FEB0143
:100140005E01AE18BF08C017D10759F06991D601FA
:10015000ED91FC910190F081E02DC6010995892B6C
:1001600079F7C501DF91CF911F910F91FF90EF902B
:10017000DF90CF90BF90AF900895FC01538D448DD8
:10018000252F30E0842F90E0821B930B541710F042
:10019000CF96089501970895FC01918D828D98174F
:1001A00061F0A28DAE0FBF2FB11D5D968C91928D27
:1001B0009F5F9F73928F90E008958FEF9FEF089558
:1001C0002FB7F89480916E0290916F02A091700207
:1001D000B09171022FBF80937A0290937B02A0931B
:1001E0007C02B0937D0282E792E00E94CC0097FFF0
:1001F00026C02FB7F89480916E0290916F02A09163
:100200007002B09171022FBF40917A0250917B022F
:1002100060917C0270917D02841B950BA60BB70B3D
:100220004091760250917702609178027091790244
:1002300084179507A607B707B0F28FEF9FEF0895D1
:10024000FC01918D828D981731F0828DE80FF11DA0
:10025000858D90E008958FEF9FEF0895FC01918DBB
:10026000228D892F90E0805C9F4F821B91098F73B4
:100270009927089582E792E00E942E0121E0892BC0
:1002800009F420E0822F089580E090E0892B29F086
:100290000E943A0181110C9400000895FC01A48D84
:1002A000A80FB92FB11DA35ABF4F2C91848D90E098
:1002B00001968F739927848FA689B7892C93A0897B
:1002C000B1898C91837080648C93938D848D981305
:1002D00006C00288F389E02D80818F7D8083089598
:1002E000EF92FF920F931F93CF93DF93EC0181E086
:1002F000888F9B8D8C8D98131AC0E889F98980812D
:1003000085FF15C09FB7F894EE89FF896083E8895F
:10031000F98980818370806480839FBF81E090E051
:10032000DF91CF911F910F91FF90EF900895F62EDE
:100330000B8D10E00F5F1F4F0F731127E02E8C8D78
:100340008E110CC00FB607FCFACFE889F9898081BD
:1003500085FFF5CFCE010E944E01F1CFEB8DEC0F62
:10036000FD2FF11DE35AFF4FF0829FB7F8940B8FDA
:10037000EA89FB8980818062CFCFCF93DF93EC0144
:10038000888D8823B9F0AA89BB89E889F9898C917D
:1003900085FD03C0808186FD0DC00FB607FCF7CF39
:1003A0008C9185FFF2CF808185FFEDCFCE010E9439
:1003B0004E01E9CFDF91CF91089590E0FC01E8591B
:1003C000FF4F2491FC01E255FF4F3491FC01E656AA
:1003D000FF4FE491EE23C9F0222339F0233001F1DD
:1003E000A8F4213019F1223029F1F0E0EE0FFF1FBF
:1003F000E057FF4FA591B4918FB7F894EC9161113C
:1004000026C030953E233C938FBF08952730A9F036
:100410002830C9F0243049F7809180008F7D03C0D7
:10042000809180008F7780938000DFCF84B58F77B5
:1004300084BDDBCF84B58F7DFBCF8091B0008F77FB
:100440008093B000D2CF8091B0008F7DF9CF3E2B4A
:10045000DACF3FB7F89480910F0290911002A091EB
:100460001102B091120226B5A89B05C02F3F19F0CA
:100470000196A11DB11D3FBFBA2FA92F982F882724
:10048000BC01CD01620F711D811D911D42E0660FFF
:10049000771F881F991F4A95D1F708952091EB0186
:1004A000260F3327331F21323105ECF4209144020B
:1004B000FC0190E080E0243069F082E00895A09192
:1004C000EB012191AC0145535E4FA40FB52FB11D37
:1004D0002C930196861798F38091EB01680F609337
:1004E000EB0180E0089581E008951092440281E0DC
:1004F0008093430210921E0261E082E10E94DD01BE
:1005000061E083E10E94DD01E9EBF0E080818E7F14
:10051000808380818D7F808388E48093B80085E428
:100520008093BC000895CF93DF9391E09093CA012C
:100530008823B9F0C091B800D091BA008091BC0076
:100540008A7B8093BC0060E082E10E94DD0160E074
:1005500083E10E94DD010E947502D093BA00C0932E
:10056000B800DF91CF910895CF92DF92EF92FF9282
:100570000F931F93CF93DF93D0916D0281E0D1321F
:1005800008F09CC0C0916C020E9429026B017C01A2
:100590008091440281116CC082E08093440281E02A
:1005A000809343028FEF8093420210924102D093D6
:1005B0004002ACE4B2E0E0E2F2E080E0D8138DC0AB
:1005C00010921F0280911F02CC0FC82BC0931F02F4
:1005D00080911E02813009F084C010921E020E9498
:1005E00029026B017C0180911F028093BB008091E6
:1005F000460290914702A0914802B0914902892B8E
:100600008A2B8B2BA1F00E942902009146021091A7
:10061000470220914802309149026C197D098E09E8
:100620009F09061717072807390708F442C0809169
:10063000BC0083FDD8CF85EC8093BC000E942902CA
:100640006B017C0180914402823009F44CC080919E
:1006500042028F3F09F469C080914202803209F45E
:1006600066C080914202803309F463C084E026C0F2
:100670008091460290914702A0914802B0914902B0
:10068000892B8A2B8B2B09F483CF0E94290200919E
:1006900046021091470220914802309149026C199C
:1006A0007D098E099F09061717072807390708F0E3
:1006B0006FCF809145020E94930285E010924B0219
:1006C00010926D0210924A02DF91CF911F910F910B
:1006D000FF90EF90DF90CF9008959D9191938F5F61
:1006E0006DCF85EEA9CF8091460290914702A091EF
:1006F0004802B0914902892B8A2B8B2B09F4A2CF97
:100700000E9429020091460210914702209148025E
:10071000309149026C197D098E099F090617170748
:100720002807390708F08ECFC4CF80E0C7CF82E01A
:10073000C5CF83E0C3CF0895E091180280911702DE
:10074000E81730F4F0E0E655FE4F808190E0089520
:100750008FEF9FEF089590911802809117022FEF6D
:100760003FEF981748F4E92FF0E0E655FE4F20815F
:1007700030E09F5F90931802C9010895809117029D
:1007800090911802891B990B0895CF92DF92EF92F6
:10079000FF920F931F93CF93DF937C01CB018A01CC
:1007A00020914A02222389F0EB016B01C40ED51E71
:1007B000CC15DD0569F06991D701ED91FC910190AF
:1007C000F081E02DC7010995F3CF642F0E944E02FE
:1007D000C801DF91CF911F910F91FF90EF90DF90B3
:1007E000CF900895CF93DF931F92CDB7DEB7698383
:1007F00020914A022223F9F020916D02203258F014
:1008000021E030E0FC013383228390E080E00F9010
:10081000DF91CF91089580914B02E82FF0E0E45BE7
:10082000FD4F998190838F5F80934B0280936D027F
:1008300081E090E0ECCF61E0CE0101960E944E0293
:10084000F7CF20911B0230911C022817390771F451
:100850009091190280911A02981741F0E0911902C3
:10086000F0E0E659FE4F808190E008958FEF9FEF12
:100870000895EF92FF920F931F93CF93DF93DC01C4
:100880005C96ED90FC905D97E114F10479F481E0C1
:1008900090E013969C938E93129790E080E0DF9106
:1008A000CF911F910F91FF90EF9008955196ED9188
:1008B000FC91529750968C915097982F90950FB726
:1008C0005E962C915E97122F127021FD6095F89420
:1008D0002081112319F1282B2083E7012197F1F7BB
:1008E00028E0462F50E0308160FF1AC0382B30835B
:1008F000E7012197F1F7BA0175956795215089F7BE
:10090000112381F08081892380830FBF5C968D91B4
:100910009C910197F1F781E090E0C1CF2923DCCFD2
:100920003923E5CF9081892BEFCF20911B023091A5
:100930001C022817390771F480911A0220911902BC
:1009400090E0805C9F4F821B910960E470E00E9400
:10095000460E089590E080E0089520911B023091AA
:100960001C0228173907B9F49091190280911A02D4
:10097000981789F0E0911902F0E0E659FE4F808166
:100980002091190230E02F5F3F4F2F7333272093C0
:10099000190290E008958FEF9FEF089590E080E0B6
:1009A0000895FC01A081B1818C918D3021F03CF43F
:1009B00089508230A8F51196B183A083F3CF80329D
:1009C000D1F38F3209F0089511968C9111978A32E4
:1009D00019F08F32C1F008951196B183A083A081E0
:1009E000B181CD0101969183808311968C911197ED
:1009F0008823B1F08A3299F712968C9112978F3230
:100A000071F71396D9CFA081B181CD010196918361
:100A1000808311968C91882319F08A30A1F7C2CF78
:100A200008951F93CF93DF93EC01162F0E94D104FA
:100A3000E881F9818081181308C03196F983E88331
:100A400081E0DF91CF911F91089580E0FACFEF927E
:100A5000FF920F931F93CF93DF938C01DC011496C9
:100A6000CD91DC91EA80FB808E819F81E80EF91E9A
:100A7000C80102960E94D104D8011296ED91FC9112
:100A80008081873219F0823209F042C03196D80154
:100A90001396FC93EE931297D8011296ED91FC9168
:100AA00013979081992309F462C09F012F5F3F4FF4
:100AB00013963C932E931297891709F458C09C35CE
:100AC00099F49181A6E4B1E02C91222321F09213B4
:100AD0001DC011969C91992309F449C03296D80102
:100AE0001396FC93EE9312974E815F819A012F5FCC
:100AF0003F4F6C817D816217730770F2EA81FB8141
:100B0000E40FF51F3F832E839083C6CF1296DCCF70
:100B100080330CF444C08A3324F08F3504F18B37D2
:100B200004F5F801228133812F5F3F4F3383228305
:100B30004E815F819A012F5F3F4F6C817D816217EB
:100B4000730738F0EA81FB81E40FF51F3F832E83A2
:100B50008083D8011296ED91FC918081D9CF8134A8
:100B6000F4F08B35F4F293ED980F9230D0F22E81A1
:100B70003F81C90101964C815D814817590790F06A
:100B8000EA81FB81E20FF31F9F838E831082C701EE
:100B9000DF91CF911F910F91FF90EF9008958B32CD
:100BA00011F7BFCFF12CE12CF2CFFC0186819781A8
:100BB000680F791F248135812617370738F0228185
:100BC0003381820F931F77836683089590E080E0DE
:100BD00008958091620181110BC010925F01109203
:100BE0005E01109261011092600181E080936201C8
:100BF0008EE591E008958091560181110BC010920D
:100C0000530110925201109255011092540181E04B
:100C10008093560182E591E00895DB01109749F039
:100C2000ED91FC9111970190F081E02DBC01CD0177
:100C3000099490E080E00895009769F0FC0101902C
:100C40000020E9F73197AF01481B590BBC018FE039
:100C500093E00C94C50390E080E008950F931F93F8
:100C6000CF93DF93EC0188819981009759F02A8115
:100C70003B812617370730F081E0DF91CF911F913C
:100C80000F9108958B016F5F7F4F0E94990F00971E
:100C900059F0998388831B830A832C813D81232B00
:100CA00059F7FC011082E8CF80E0E7CF85ED809313
:100CB000BC008091460290914702A0914802B091F9
:100CC00049020796A11DB11D23E0B695A7959795FA
:100CD00087952A95D1F72091BC0024FD03C010927E
:100CE00044020895409146025091470260914802A3
:100CF00070914902452B462B472B69F30097A105BC
:100D0000B10541F025E32A95F1F700000197A1090B
:100D1000B109E1CF809145020C9493028F929F928A
:100D2000AF92BF92CF92DF92EF92FF920F931F93F9
:100D3000CF93DF9300D000D000D0CDB7DEB76C01E9
:100D4000DC0116968C91811104C00E94E9057C019A
:100D50007EC08150F601868300811181B80184E054
:100D600090E00E940D067C01009709F484C0DC012C
:100D700011961C930E9313961C921E921297560175
:100D8000B2E0AB0EB11C6BE7C5010E9411058823D0
:100D9000E1F26DE7C5010E941105811154C0C60141
:100DA0000E9427054C01892B81F26AE3C5010E944C
:100DB0001105882351F21A821982BE016F5F7F4F9D
:100DC000C6010E945C07882309F4BFCFF7010281A6
:100DD00013810115110509F452C0D80112966D91C5
:100DE0007C916115710529F0C4010E945F10892B67
:100DF000A1F0F80100811181ECCFFC01808191818B
:100E00000097D9F7118300830115110509F49DCFCF
:100E1000D80113969C928E92129786E0FE0131962D
:100E2000D801149601900D928A95E1F76DE7C501FE
:100E30000E941105811107C06CE2C5010E941105D5
:100E40008111ADCF82CFF60186818F5F8683C70186
:100E500026960FB6F894DEBF0FBECDBFDF91CF91BF
:100E60001F910F91FF90EF90DF90CF90BF90AF90C8
:100E70009F908F9008950E94E9057C0180CFD70153
:100E80006D917C918AE090E00E940D068C01892B87
:100E900041F0D80111961C921E9215961C921E923A
:100EA0001497D7011296ED91FC91309709F0A6CFD7
:100EB000F70113830283A8CF8F929F92AF92BF92C4
:100EC000CF92DF92EF92FF920F931F93CF93DF9316
:100ED00000D000D000D0CDB7DEB77C016B015C0143
:100EE00082E0A80EB11CC5010E94D104D701129660
:100EF000ED91FC91139780818B35E1F08B3709F4EC
:100F0000B2C011E0873219F0823209F010E0C70157
:100F10000E942705009709F485C021E030E01123E5
:100F200009F4ABC022E030E0F601318320839383E3
:100F3000828379C0F7018681811104C00E94FB057C
:100F40008C016BC0815016968C9316978D909C9057
:100F5000B40184E090E00E940D068C01009709F432
:100F600095C0FC0191828082138212826BE5C501DB
:100F70000E941105882311F36DE5C5010E9411053A
:100F8000811144C01A821982BE016F5F7F4FC70171
:100F90000E945C07882391F2D8016D917C9188E0D2
:100FA00090E00E940D06DC01892B39F011961C920D
:100FB0001E9213961C921E921297F8012281338181
:100FC0002115310521F4B383A28308C09C01F901E6
:100FD000808191810097D1F7B183A083109709F4A4
:100FE000ADCF86E0FE013196129601900D928A9562
:100FF000E1F76DE5C5010E941105811107C06CE2A2
:10100000C5010E9411058111BDCF98CFD701169659
:101010008C9116978F5F16968C93F8018081918141
:10102000892BA9F410E0812F26960FB6F894DEBF25
:101030000FBECDBFDF91CF911F910F91FF90EF9029
:10104000DF90CF90BF90AF909F908F90089586E0F3
:1010500090E0D60111969C938E9313961C930E9359
:10106000129711E0E0CFC7010E948E06FC0120819B
:101070003181232BB9F227E030E0D60111963C9361
:101080002E9313969C938E931297EBCF0E94FB05A1
:101090008C016CCF1F920F920FB60F9211242F93D9
:1010A0003F934F935F936F937F938F939F93AF93F0
:1010B000BF93EF93FF9382E792E00E944E01FF916E
:1010C000EF91BF91AF919F918F917F916F915F91C0
:1010D0004F913F912F910F900FBE0F901F90189539
:1010E0001F920F920FB60F9211242F938F939F93FD
:1010F000EF93FF93E0918202F09183028081E0916F
:101100008802F091890282FD1BC0908180918B0240
:101110008F5F8F7320918C02821741F0E0918B02D8
:10112000F0E0EE58FD4F958F80938B02FF91EF9189
:101130009F918F912F910F900FBE0F901F90189538
:101140008081F4CF1F920F920FB60F9211242F932C
:101150003F938F939F93AF93BF9380916E02909133
:101160006F02A0917002B091710230910E0223E0E3
:10117000230F2D3758F50196A11DB11D20930E02A6
:1011800080936E0290936F02A0937002B0937102ED
:1011900080910F0290911002A0911102B091120261
:1011A0000196A11DB11D80930F0290931002A09390
:1011B0001102B0931202BF91AF919F918F913F9115
:1011C0002F910F900FBE0F901F90189526E8230FB8
:1011D0000296A11DB11DD2CF1F920F920FB60F9292
:1011E00011242F933F934F935F936F937F938F932C
:1011F0009F93AF93BF93EF93FF938091B900887F44
:10120000803609F44AC0F0F5883209F4A7C018F511
:10121000803109F49BC0B8F4882309F4F9C0883000
:1012200009F494C0FF91EF91BF91AF919F918F917D
:101230007F916F915F914F913F912F910F900FBED2
:101240000F901F901895883109F488C0803251F7AB
:101250008093420214C0803409F49DC040F480336E
:10126000B9F38833F9F68093420285ECB0C080353B
:1012700009F485C0883509F496C0883499F60E942F
:101280005606D0CF883909F48CC038F5883729F054
:1012900050F4883611F0803729F683E080934402B9
:1012A00010920D0257C0883809F47BC0803919F0BC
:1012B000803809F0B7CF80910D02803208F071C0FC
:1012C000E0910D0281E08E0F80930D028091BB00B2
:1012D000F0E0E351FE4F80833DC0803B39F0E0F405
:1012E000803A09F479C0883A09F09CCF84E0809371
:1012F00044021092EC011092EB01E0911502F09182
:10130000160209958091EB0181110FC081E0809355
:10131000EB011092CB0109C0803C09F4A6CF883CB8
:1013200009F4A3CF883B09F07DCFE091EC0181E087
:101330008E0F8093EC01F0E0E553FE4F80818093A7
:10134000BB009091EC018091EB0129C080911F02BC
:101350008093BB0085EC8093BC0064CF90914102E8
:1013600080914002981758F5E091410281E08E0F7C
:1013700080934102F0E0E05EFD4F8081E9CFE09193
:10138000410281E08E0F809341028091BB00F0E02A
:10139000E05EFD4F8083909141028091400298175A
:1013A000C8F285E8D8CFE091410281E08E0F8093AA
:1013B00041028091BB00F0E0E05EFD4F80838091B0
:1013C000430281115CCF81E080931E0284EA809306
:1013D000BC001092440226CF85EC8093BC00109292
:1013E000440280910D02803230F4E0910D02F0E071
:1013F000E351FE4F108260910D0270E0E091130204
:10140000F09114028DEE91E0099510920D020ACF31
:101410001092420234CF1F920F920FB60F921124F6
:101420002F933F934F935F936F937F938F939F93EC
:10143000AF93BF93EF93FF93E0911B02F0911C02D7
:10144000309749F0A685B7858585968D91FF14C0A4
:101450009C918923A1F4FF91EF91BF91AF919F914E
:101460008F917F916F915F914F913F912F910F904D
:101470000FBE0F901F9018959C91892361F7A38947
:10148000B4899C918589809589238C9386899789D5
:101490000197F1F7608D718DA685B785558538E088
:1014A00020E0CB010197F1F7822F90E09595879589
:1014B000282F4C91452309F02068315091F7868DF3
:1014C00081FD209580911A0290E001968F739927F3
:1014D00030911902381799F0A0911A02B0E0A6597C
:1014E000BE4F2C9380931A02828D938D0197F1F752
:1014F000A389B4898C919589892B8C93ACCF868DE7
:101500008160868FF1CF0F931F93CF93DF9310925B
:1015100075021092740288EE93E0A0E0B0E0809330
:10152000760290937702A0937802B093790220E13B
:1015300031E0309373022093720225EC30E0309357
:101540007F0220937E0224EC30E0309381022093CE
:10155000800220EC30E0309383022093820221EC61
:1015600030E0309385022093840222EC30E0309307
:1015700087022093860226EC30E030938902209384
:10158000880210928B0210928C0210928D0210929F
:101590008E02109212031092110380931303909302
:1015A0001403A0931503B093160322E231E03093A5
:1015B000100320930F0310922403109223038093AF
:1015C000250390932603A0932703B093280384E375
:1015D00091E090932203809321031092380310929C
:1015E000370310923A031092390310923C03109281
:1015F0003B0310923E0310923D0360913F036E7FC8
:101600006D7F60933F036695617081E068278BE092
:101610000E94DD0149EB50E0FA01649185EA90E017
:10162000FC012491222399F030E0220F331FF901AD
:10163000EA57FF4FA591B491F901E057FF4F25916B
:1016400034912FB7F8943C91632B6C932FBFFA0120
:10165000449140933103FC018491E82FF0E0EE0FB8
:10166000FF1FE057FF4F8591949190933303809330
:1016700032030AEB10E0F8012491C6EAD0E0FE0143
:1016800084918823C9F090E0880F991FFC01EA57E4
:10169000FF4FA591B491FC01E057FF4F4591549144
:1016A0003FB7F8949C91822F809598239C93FA01E0
:1016B0009081892380833FBF80913F0381FD04C0D7
:1016C00061E08CE00E94DD018CE080932D03F80145
:1016D000049100932E03FE01C491EC2FF0E0EE0F75
:1016E000FF1FE458FF4F85919491909330038093AE
:1016F0002F0310921C0310921B0310921E031092D2
:101700001D031092200310921F0370E060E08BE134
:1017100093E00E942E0620911B0330911C0381113F
:1017200017C02115310519F0C9010E94100F109240
:101730001C0310921B031092200310921F0310929F
:101740001E0310921D03DF91CF911F910F910895F9
:101750001092200310921F0360E571E0C901DF9130
:10176000CF911F910F910C946810CF93DF93CDB759
:10177000DEB7C75DD1090FB6F894DEBF0FBECDBF8F
:10178000789484B5826084BD84B5816084BD85B55C
:10179000826085BD85B5816085BD80916E00816068
:1017A00080936E001092810080918100826080930E
:1017B0008100809181008160809381008091800010
:1017C0008160809380008091B10084608093B1003B
:1017D0008091B00081608093B00080917A00846035
:1017E00080937A0080917A00826080937A00809161
:1017F0007A00816080937A0080917A00806880937B
:101800007A001092C10010921802109217021092E2
:101810004B0210926D020E9475028EE890E0909348
:101820001602809315028FE890E090931402809343
:10183000130280E18093BA00E0918202F09183026A
:1018400092E09083E0917E02F0917F021082E0911D
:101850008002F0918102808310928A02E0918602D8
:10186000F091870286E08083E0918402F091850206
:10187000808180618083E0918402F0918502808183
:1018800088608083E0918402F09185028081806885
:101890008083E0918402F091850280818F7D808336
:1018A00010923C0310923B0310923A0310923903BA
:1018B00010923803109237038FE190E090933E032B
:1018C00080933D0390912D03963108F047C021E0AD
:1018D00030E030933803209337032DE130E030932C
:1018E0003A03209339032DE030E030933C032093FA
:1018F0003B032091680084E0983048F031E09E304E
:1019000008F430E081E001C0880F3A95EAF7822BB5
:10191000809368002DE630E0983050F02BE630E000
:101920009E3030F02CE630E0963110F030E020E0D0
:101930003093350320933403292F30E0983008F09A
:10194000A0C081E001C0880F9A95EAF78093360322
:1019500080913D0390913E030197F1F780913B0305
:1019600090913C03892B49F1E0911B02F0911C02FC
:1019700083E0E132F80709F1309739F0A389B4899F
:101980009C918589809589238C9380913F038E7FDC
:1019900080933F0310921A021092190281E293E0A1
:1019A00090931C0280931B02E0913403F091350365
:1019B000808190913603892B80838E010F5F1F4FAA
:1019C0003E01E9E06E0E711C48ECC42ED12C5AE0A9
:1019D000A52E51E0B52E30E0832E30E0932E8AE024
:1019E000482E5524539494E0392E2CE0222E82E781
:1019F00092E00E942E01181619060CF0C4C01A823B
:101A000019821C821B821E821D8270E060E0C80168
:101A10000E942E0629813A81811140C0211531058D
:101A200019F0C9010E94100F1A8219821E821D82AC
:101A30001C821B820E94E00097FD38C0CF52DF4F0E
:101A40008883C15DD040CE52DF4F1882C25DD04046
:101A5000ED80FE80FFEFEF1AFF0AB701C8010E9478
:101A60002E06882339F329813A818D819E81BE011A
:101A70006F527F4F820F931F0E946810FE82ED828B
:101A8000D9CF9E3040F42850310981E001C0880F41
:101A90002A95EAF75BCF2E503109F7CF1E821D82BF
:101AA00060E571E0C9010E946810C4CF80911B03FA
:101AB00090911C03009709F474C069817A816115C3
:101AC000710509F46CC040911D0350911E032D81D6
:101AD0003E814217530708F462C00E9468108D814E
:101AE0009E819093200380931F031E821D82898113
:101AF0009A81009711F00E94100F7C826B82DE8227
:101B0000CD8218861F82BA82A98280911B03909190
:101B10001C03009711F480E591E0CF52DF4F198349
:101B20000883C15DD040CD52DF4F99838883C35D68
:101B3000D040CB52DF4F19830883C55DD040C952D6
:101B4000DF4F4882C75DD040CE018F529F4F0E9429
:101B50008E06FC012081318180911B0390911C0332
:101B600050924A02232BA1F520926C0210924B0254
:101B700010926D020E941C060E94B40280911D0208
:101B80008F5F80931D028114910409F430CF0E946D
:101B90003A01882309F423CF0E9400001CCF0E9441
:101BA000100F89819A8190931C0380931B038B8172
:101BB0009C8190931E0380931D038D819E81909341
:101BC000200380931F031A8219821C821B828DCFEF
:101BD00030926C02CBCF80911B0390911C03009735
:101BE00011F00E94100F84E391E090932203809300
:101BF000210380911B0290911C028152934071F449
:101C0000E0913403F0913503908180913603809503
:101C10008923808310921C0210921B0208952F9238
:101C20003F924F925F926F927F928F929F92AF926C
:101C3000BF92CF92DF92EF92FF920F931F93CF93B9
:101C4000DF93CDB7DEB7CA1BDB0B0FB6F894DEBF50
:101C50000FBECDBF09942A88398848885F846E8476
:101C60007D848C849B84AA84B984C884DF80EE80C0
:101C7000FD800C811B81AA81B981CE0FD11D0FB6C9
:101C8000F894DEBF0FBECDBFED01089597FB072E80
:101C900016F4009407D077FD09D00E945A0E07FC75
:101CA00005D03EF4909581959F4F0895709561956C
:101CB0007F4F0895AA1BBB1B51E107C0AA1FBB1F82
:101CC000A617B70710F0A61BB70B881F991F5A95C8
:101CD000A9F780959095BC01CD010895EE0FFF1FE7
:101CE0000590F491E02D09940F931F93CF93DF9308
:101CF0008230910510F482E090E0E0914203F0918F
:101D0000430330E020E0B0E0A0E0309799F42115E3
:101D1000310509F44AC0281B390B24303105D8F5A8
:101D20008A819B816115710589F1FB01938382830F
:101D3000FE0111C04081518102811381481759076A
:101D4000E0F04817590799F4109761F012960C9338
:101D5000129713961C933296CF01DF91CF911F916A
:101D60000F9108950093420310934303F4CF21157C
:101D7000310551F04217530738F0A901DB019A01F0
:101D8000BD01DF01F801C1CFEF01F9CF909343030B
:101D900080934203CDCFFE01E20FF31F8193919315
:101DA0002250310939832883D7CF209140033091C5
:101DB0004103232B41F42091020130910301309320
:101DC000410320934003209100013091010121152E
:101DD000310541F42DB73EB7409104015091050102
:101DE000241B350BE0914003F0914103E217F30708
:101DF000A0F42E1B3F0B2817390778F0AC014E5F7B
:101E00005F4F2417350748F04E0F5F1F5093410373
:101E100040934003819391939FCFF0E0E0E09CCF0B
:101E2000CF93DF930097E9F0FC013297138212827F
:101E3000A0914203B0914303ED0130E020E0109700
:101E4000A1F420813181820F931F209140033091B2
:101E500041032817390709F061C0F0934103E0936B
:101E60004003DF91CF910895EA01CE17DF07E8F52F
:101E70004A815B819E0141155105B1F7E901FB8360
:101E8000EA8349915991C40FD51FEC17FD0761F4FE
:101E9000808191810296840F951FE901998388833F
:101EA000828193819B838A83F0E0E0E012968D919A
:101EB0009C9113970097B9F52D913C911197CD0105
:101EC0000296820F931F20914003309141032817FF
:101ED000390739F6309751F51092430310924203B7
:101EE000B0934103A0934003BCCFD383C28340810E
:101EF0005181840F951FC817D90761F44E5F5F4F5A
:101F000088819981480F591F518340838A819B8121
:101F1000938382832115310509F0B0CFF0934303F9
:101F2000E09342039ECFFD01DC01C0CF13821282F9
:101F3000D7CFB0E0A0E0EFE9FFE00C94110E8C01E8
:101F4000009751F4CB010E94740E8C01C801CDB7EB
:101F5000DEB7E0E10C942D0EFC01E60FF71F9C01AB
:101F600022503109E217F30708F49DC0D901CD9141
:101F7000DC911197C617D70798F0C530D10530F31B
:101F8000CE0104978617970708F3C61BD70B229735
:101F9000C193D1936D937C93CF010E94100FD6CF44
:101FA0005B01AC1ABD0A4C018C0E9D1EA091420330
:101FB000B0914303512C412CF12CE12C109731F5B9
:101FC00080914003909141038815990509F05CC008
:101FD0004616570608F058C0809100019091010103
:101FE000009741F48DB79EB74091040150910501CF
:101FF000841B950BE817F90708F055C0F0934103CF
:10200000E0934003F90171836083A0CF8D919C918F
:10201000119712966C90129713967C901397A815AF
:10202000B90559F56C0142E0C40ED11CCA14DB0499
:1020300020F1AC014A195B09DA011296159780F07C
:102040006282738251834083D9016D937C93E11442
:10205000F10471F0D7011396FC93EE93129776CFAB
:1020600022968C0F9D1FF90191838083F301EFCF9E
:10207000F0934303E093420369CF4816590608F4EE
:102080002C017D01D3019ACFCB010E94740E7C01FB
:10209000009749F0AE01B8010E945610C8010E9495
:1020A000100F870153CF10E000E050CFFB01DC019F
:1020B00002C001900D9241505040D8F70895FB01A5
:1020C000DC018D91019080190110D9F3990B0895CD
:1020D000FB01DC0101900D920020E1F7089510E072
:1020E000C2E6D0E004C0FE010E946E0E2196C33607
:0820F000D107C9F7F894FFCFF6
:1020F80000004403800000000000D5050000000037
:1021080070019000BD00BD012E01CC00200100002F
:102118000000F203C503CE049B03BE03AB039C037C
:102128000000000039049000CE049B039504AD0420
:10213800210422225C5C6208660C6E0A720D740926
:02214800000095
:00000001FF
